{
  "contractName": "MicroMachines",
  "abi": [
    {
      "inputs": [],
      "stateMutability": "nonpayable",
      "type": "constructor"
    },
    {
      "anonymous": false,
      "inputs": [
        {
          "indexed": true,
          "internalType": "address",
          "name": "owner",
          "type": "address"
        },
        {
          "indexed": true,
          "internalType": "address",
          "name": "spender",
          "type": "address"
        },
        {
          "indexed": false,
          "internalType": "uint256",
          "name": "value",
          "type": "uint256"
        }
      ],
      "name": "Approval",
      "type": "event"
    },
    {
      "anonymous": false,
      "inputs": [
        {
          "indexed": true,
          "internalType": "address",
          "name": "previousOwner",
          "type": "address"
        },
        {
          "indexed": true,
          "internalType": "address",
          "name": "newOwner",
          "type": "address"
        }
      ],
      "name": "OwnershipTransferred",
      "type": "event"
    },
    {
      "anonymous": false,
      "inputs": [
        {
          "indexed": true,
          "internalType": "address",
          "name": "from",
          "type": "address"
        },
        {
          "indexed": true,
          "internalType": "address",
          "name": "to",
          "type": "address"
        },
        {
          "indexed": false,
          "internalType": "uint256",
          "name": "value",
          "type": "uint256"
        }
      ],
      "name": "Transfer",
      "type": "event"
    },
    {
      "anonymous": false,
      "inputs": [
        {
          "indexed": true,
          "internalType": "address",
          "name": "from",
          "type": "address"
        },
        {
          "indexed": true,
          "internalType": "address",
          "name": "burnAddress",
          "type": "address"
        },
        {
          "indexed": false,
          "internalType": "uint256",
          "name": "value",
          "type": "uint256"
        }
      ],
      "name": "TransferBurn",
      "type": "event"
    },
    {
      "inputs": [],
      "name": "_burnFee",
      "outputs": [
        {
          "internalType": "uint256",
          "name": "",
          "type": "uint256"
        }
      ],
      "stateMutability": "view",
      "type": "function"
    },
    {
      "inputs": [],
      "name": "_maxTxAmount",
      "outputs": [
        {
          "internalType": "uint256",
          "name": "",
          "type": "uint256"
        }
      ],
      "stateMutability": "view",
      "type": "function"
    },
    {
      "inputs": [],
      "name": "_rewardFee",
      "outputs": [
        {
          "internalType": "uint256",
          "name": "",
          "type": "uint256"
        }
      ],
      "stateMutability": "view",
      "type": "function"
    },
    {
      "inputs": [],
      "name": "geUnlockTime",
      "outputs": [
        {
          "internalType": "uint256",
          "name": "",
          "type": "uint256"
        }
      ],
      "stateMutability": "view",
      "type": "function"
    },
    {
      "inputs": [
        {
          "internalType": "uint256",
          "name": "time",
          "type": "uint256"
        }
      ],
      "name": "lock",
      "outputs": [],
      "stateMutability": "nonpayable",
      "type": "function"
    },
    {
      "inputs": [],
      "name": "owner",
      "outputs": [
        {
          "internalType": "address",
          "name": "",
          "type": "address"
        }
      ],
      "stateMutability": "view",
      "type": "function"
    },
    {
      "inputs": [],
      "name": "renounceOwnership",
      "outputs": [],
      "stateMutability": "nonpayable",
      "type": "function"
    },
    {
      "inputs": [
        {
          "internalType": "address",
          "name": "newOwner",
          "type": "address"
        }
      ],
      "name": "transferOwnership",
      "outputs": [],
      "stateMutability": "nonpayable",
      "type": "function"
    },
    {
      "inputs": [],
      "name": "uniswapV2Pair",
      "outputs": [
        {
          "internalType": "address",
          "name": "",
          "type": "address"
        }
      ],
      "stateMutability": "view",
      "type": "function"
    },
    {
      "inputs": [],
      "name": "uniswapV2Router",
      "outputs": [
        {
          "internalType": "contract IUniswapV2Router02",
          "name": "",
          "type": "address"
        }
      ],
      "stateMutability": "view",
      "type": "function"
    },
    {
      "inputs": [],
      "name": "unlock",
      "outputs": [],
      "stateMutability": "nonpayable",
      "type": "function"
    },
    {
      "stateMutability": "payable",
      "type": "receive"
    },
    {
      "inputs": [],
      "name": "name",
      "outputs": [
        {
          "internalType": "string",
          "name": "",
          "type": "string"
        }
      ],
      "stateMutability": "view",
      "type": "function"
    },
    {
      "inputs": [],
      "name": "symbol",
      "outputs": [
        {
          "internalType": "string",
          "name": "",
          "type": "string"
        }
      ],
      "stateMutability": "view",
      "type": "function"
    },
    {
      "inputs": [],
      "name": "decimals",
      "outputs": [
        {
          "internalType": "uint8",
          "name": "",
          "type": "uint8"
        }
      ],
      "stateMutability": "view",
      "type": "function"
    },
    {
      "inputs": [],
      "name": "totalSupply",
      "outputs": [
        {
          "internalType": "uint256",
          "name": "",
          "type": "uint256"
        }
      ],
      "stateMutability": "view",
      "type": "function"
    },
    {
      "inputs": [
        {
          "internalType": "address",
          "name": "account",
          "type": "address"
        }
      ],
      "name": "balanceOf",
      "outputs": [
        {
          "internalType": "uint256",
          "name": "",
          "type": "uint256"
        }
      ],
      "stateMutability": "view",
      "type": "function"
    },
    {
      "inputs": [],
      "name": "withdraw",
      "outputs": [],
      "stateMutability": "nonpayable",
      "type": "function"
    },
    {
      "inputs": [
        {
          "internalType": "address",
          "name": "recipient",
          "type": "address"
        },
        {
          "internalType": "uint256",
          "name": "amount",
          "type": "uint256"
        }
      ],
      "name": "transfer",
      "outputs": [
        {
          "internalType": "bool",
          "name": "",
          "type": "bool"
        }
      ],
      "stateMutability": "nonpayable",
      "type": "function"
    },
    {
      "inputs": [
        {
          "internalType": "address",
          "name": "owner",
          "type": "address"
        },
        {
          "internalType": "address",
          "name": "spender",
          "type": "address"
        }
      ],
      "name": "allowance",
      "outputs": [
        {
          "internalType": "uint256",
          "name": "",
          "type": "uint256"
        }
      ],
      "stateMutability": "view",
      "type": "function"
    },
    {
      "inputs": [
        {
          "internalType": "address",
          "name": "spender",
          "type": "address"
        },
        {
          "internalType": "uint256",
          "name": "amount",
          "type": "uint256"
        }
      ],
      "name": "approve",
      "outputs": [
        {
          "internalType": "bool",
          "name": "",
          "type": "bool"
        }
      ],
      "stateMutability": "nonpayable",
      "type": "function"
    },
    {
      "inputs": [
        {
          "internalType": "address",
          "name": "sender",
          "type": "address"
        },
        {
          "internalType": "address",
          "name": "recipient",
          "type": "address"
        },
        {
          "internalType": "uint256",
          "name": "amount",
          "type": "uint256"
        }
      ],
      "name": "transferFrom",
      "outputs": [
        {
          "internalType": "bool",
          "name": "",
          "type": "bool"
        }
      ],
      "stateMutability": "nonpayable",
      "type": "function"
    },
    {
      "inputs": [
        {
          "internalType": "address",
          "name": "spender",
          "type": "address"
        },
        {
          "internalType": "uint256",
          "name": "addedValue",
          "type": "uint256"
        }
      ],
      "name": "increaseAllowance",
      "outputs": [
        {
          "internalType": "bool",
          "name": "",
          "type": "bool"
        }
      ],
      "stateMutability": "nonpayable",
      "type": "function"
    },
    {
      "inputs": [
        {
          "internalType": "address",
          "name": "spender",
          "type": "address"
        },
        {
          "internalType": "uint256",
          "name": "subtractedValue",
          "type": "uint256"
        }
      ],
      "name": "decreaseAllowance",
      "outputs": [
        {
          "internalType": "bool",
          "name": "",
          "type": "bool"
        }
      ],
      "stateMutability": "nonpayable",
      "type": "function"
    },
    {
      "inputs": [],
      "name": "totalHODLrRewards",
      "outputs": [
        {
          "internalType": "uint256",
          "name": "",
          "type": "uint256"
        }
      ],
      "stateMutability": "view",
      "type": "function"
    },
    {
      "inputs": [],
      "name": "totalBurned",
      "outputs": [
        {
          "internalType": "uint256",
          "name": "",
          "type": "uint256"
        }
      ],
      "stateMutability": "view",
      "type": "function"
    },
    {
      "inputs": [
        {
          "internalType": "uint256",
          "name": "tAmount",
          "type": "uint256"
        }
      ],
      "name": "deliver",
      "outputs": [],
      "stateMutability": "nonpayable",
      "type": "function"
    },
    {
      "inputs": [
        {
          "internalType": "uint256",
          "name": "tAmount",
          "type": "uint256"
        },
        {
          "internalType": "bool",
          "name": "deductTransferFee",
          "type": "bool"
        }
      ],
      "name": "reflectionFromToken",
      "outputs": [
        {
          "internalType": "uint256",
          "name": "",
          "type": "uint256"
        }
      ],
      "stateMutability": "view",
      "type": "function"
    },
    {
      "inputs": [
        {
          "internalType": "uint256",
          "name": "rAmount",
          "type": "uint256"
        }
      ],
      "name": "tokenFromReflection",
      "outputs": [
        {
          "internalType": "uint256",
          "name": "",
          "type": "uint256"
        }
      ],
      "stateMutability": "view",
      "type": "function"
    },
    {
      "inputs": [
        {
          "internalType": "address",
          "name": "account",
          "type": "address"
        }
      ],
      "name": "isExcludedFromReward",
      "outputs": [
        {
          "internalType": "bool",
          "name": "",
          "type": "bool"
        }
      ],
      "stateMutability": "view",
      "type": "function"
    },
    {
      "inputs": [
        {
          "internalType": "address",
          "name": "account",
          "type": "address"
        }
      ],
      "name": "excludeFromReward",
      "outputs": [],
      "stateMutability": "nonpayable",
      "type": "function"
    },
    {
      "inputs": [
        {
          "internalType": "address",
          "name": "account",
          "type": "address"
        }
      ],
      "name": "includeInReward",
      "outputs": [],
      "stateMutability": "nonpayable",
      "type": "function"
    },
    {
      "inputs": [
        {
          "internalType": "address",
          "name": "account",
          "type": "address"
        }
      ],
      "name": "excludeFromFee",
      "outputs": [],
      "stateMutability": "nonpayable",
      "type": "function"
    },
    {
      "inputs": [
        {
          "internalType": "address",
          "name": "account",
          "type": "address"
        }
      ],
      "name": "includeInFee",
      "outputs": [],
      "stateMutability": "nonpayable",
      "type": "function"
    },
    {
      "inputs": [
        {
          "internalType": "uint256",
          "name": "rewardFee",
          "type": "uint256"
        }
      ],
      "name": "setRewardFeePercent",
      "outputs": [],
      "stateMutability": "nonpayable",
      "type": "function"
    },
    {
      "inputs": [
        {
          "internalType": "uint256",
          "name": "burnFee",
          "type": "uint256"
        }
      ],
      "name": "setBurnFeePercent",
      "outputs": [],
      "stateMutability": "nonpayable",
      "type": "function"
    },
    {
      "inputs": [
        {
          "internalType": "uint256",
          "name": "maxTxPercent",
          "type": "uint256"
        }
      ],
      "name": "setMaxTxPercent",
      "outputs": [],
      "stateMutability": "nonpayable",
      "type": "function"
    },
    {
      "inputs": [
        {
          "internalType": "address",
          "name": "account",
          "type": "address"
        }
      ],
      "name": "isExcludedFromFee",
      "outputs": [
        {
          "internalType": "bool",
          "name": "",
          "type": "bool"
        }
      ],
      "stateMutability": "view",
      "type": "function"
    }
  ],
  "bytecode": "0x60c0604052600a80546001600160a01b031916600117905564e8d4a51000600b819055620000309060001962000513565b6200003e90600019620004b0565b600c5560408051808201909152600d8082526c4d6963726f4d616368696e657360981b60209092019182526200007791600e91620003d8565b50604080518082019091526004808252634d4d414360e01b6020909201918252620000a591600f91620003d8565b506010805460ff191660091790556002601181905560125560086013819055601455633b9aca00601555348015620000dc57600080fd5b50600080546001600160a01b031916339081178255604051909182917f8be0079c531659141344cd1fd0a4f28419497f9722a3daafe3b4186f6b6457e0908290a3506001600355600c543360009081526004602081815260409283902093909355815163c45a015560e01b8152915173d99d1c33f9fc3444f8101754abc46c52416550d193849363c45a0155938181019391829003018186803b1580156200018357600080fd5b505afa15801562000198573d6000803e3d6000fd5b505050506040513d601f19601f82011682018060405250810190620001be91906200047e565b6001600160a01b031663c9c6539630836001600160a01b031663ad5c46486040518163ffffffff1660e01b815260040160206040518083038186803b1580156200020757600080fd5b505afa1580156200021c573d6000803e3d6000fd5b505050506040513d601f19601f820116820180604052508101906200024291906200047e565b6040516001600160e01b031960e085901b1681526001600160a01b03928316600482015291166024820152604401602060405180830381600087803b1580156200028b57600080fd5b505af1158015620002a0573d6000803e3d6000fd5b505050506040513d601f19601f82011682018060405250810190620002c691906200047e565b6001600160601b0319606091821b811660a0529082901b16608052600160076000620002fa6000546001600160a01b031690565b6001600160a01b03908116825260208083019390935260409182016000908120805495151560ff19968716179055308152600780855283822080548716600190811790915560088087528584208054891683179055600a80548616855292875285842080548916831790559154909316825290935291208054909216179055620003813390565b6001600160a01b031660006001600160a01b03167fddf252ad1be2c89b69c2b068fc378daa952ba7f163c4a11628f55a4df523b3ef600b54604051620003c991815260200190565b60405180910390a35062000536565b828054620003e690620004d6565b90600052602060002090601f0160209004810192826200040a576000855562000455565b82601f106200042557805160ff191683800117855562000455565b8280016001018555821562000455579182015b828111156200045557825182559160200191906001019062000438565b506200046392915062000467565b5090565b5b8082111562000463576000815560010162000468565b6000602082840312156200049157600080fd5b81516001600160a01b0381168114620004a957600080fd5b9392505050565b600082821015620004d157634e487b7160e01b600052601160045260246000fd5b500390565b600181811c90821680620004eb57607f821691505b602082108114156200050d57634e487b7160e01b600052602260045260246000fd5b50919050565b6000826200053157634e487b7160e01b600052601260045260246000fd5b500690565b60805160601c60a05160601c6124a962000562600039600061041b0152600061029701526124a96000f3fe60806040526004361061021e5760003560e01c806370a0823111610123578063b6c52324116100ab578063dd4670641161006f578063dd46706414610658578063dd62ed3e14610678578063e2663503146106be578063ea2f0b37146106d3578063f2fde38b146106f357600080fd5b8063b6c52324146105d8578063c0b0fda2146105ed578063cea2695814610603578063d543dbeb14610623578063d89135cd1461064357600080fd5b80638da5cb5b116100f25780638da5cb5b1461055057806395d89b411461056e578063a457c2d714610583578063a69df4b5146105a3578063a9059cbb146105b857600080fd5b806370a08231146104cc578063715018a6146104ec5780637d1db4a51461050157806388f820201461051757600080fd5b80633bd5d173116101a657806349bd5a5e1161017557806349bd5a5e1461040957806351fde4bb1461043d57806352390c02146104535780635342acb4146104735780636bebaf97146104ac57600080fd5b80633bd5d173146103945780633ccfd60b146103b4578063437823ec146103c95780634549b039146103e957600080fd5b806323b872dd116101ed57806323b872dd146102f05780632d83811914610310578063313ce567146103305780633685d41914610352578063395093511461037457600080fd5b806306fdde031461022a578063095ea7b3146102555780631694505e1461028557806318160ddd146102d157600080fd5b3661022557005b600080fd5b34801561023657600080fd5b5061023f610713565b60405161024c9190612263565b60405180910390f35b34801561026157600080fd5b506102756102703660046121ba565b6107a5565b604051901515815260200161024c565b34801561029157600080fd5b506102b97f000000000000000000000000000000000000000000000000000000000000000081565b6040516001600160a01b03909116815260200161024c565b3480156102dd57600080fd5b50600b545b60405190815260200161024c565b3480156102fc57600080fd5b5061027561030b36600461217e565b6107bc565b34801561031c57600080fd5b506102e261032b366004612201565b610825565b34801561033c57600080fd5b5060105460405160ff909116815260200161024c565b34801561035e57600080fd5b5061037261036d366004612130565b6108ae565b005b34801561038057600080fd5b5061027561038f3660046121ba565b610a65565b3480156103a057600080fd5b506103726103af366004612201565b610a9b565b3480156103c057600080fd5b50610372610b85565b3480156103d557600080fd5b506103726103e4366004612130565b610d28565b3480156103f557600080fd5b506102e2610404366004612233565b610d76565b34801561041557600080fd5b506102b97f000000000000000000000000000000000000000000000000000000000000000081565b34801561044957600080fd5b506102e260115481565b34801561045f57600080fd5b5061037261046e366004612130565b610e03565b34801561047f57600080fd5b5061027561048e366004612130565b6001600160a01b031660009081526007602052604090205460ff1690565b3480156104b857600080fd5b506103726104c7366004612201565b610f56565b3480156104d857600080fd5b506102e26104e7366004612130565b610f85565b3480156104f857600080fd5b50610372610fe4565b34801561050d57600080fd5b506102e260155481565b34801561052357600080fd5b50610275610532366004612130565b6001600160a01b031660009081526008602052604090205460ff1690565b34801561055c57600080fd5b506000546001600160a01b03166102b9565b34801561057a57600080fd5b5061023f611046565b34801561058f57600080fd5b5061027561059e3660046121ba565b611055565b3480156105af57600080fd5b506103726110a4565b3480156105c457600080fd5b506102756105d33660046121ba565b6111aa565b3480156105e457600080fd5b506002546102e2565b3480156105f957600080fd5b506102e260135481565b34801561060f57600080fd5b5061037261061e366004612201565b6111b7565b34801561062f57600080fd5b5061037261063e366004612201565b6111e6565b34801561064f57600080fd5b506102e2611236565b34801561066457600080fd5b50610372610673366004612201565b611253565b34801561068457600080fd5b506102e261069336600461214b565b6001600160a01b03918216600090815260066020908152604080832093909416825291909152205490565b3480156106ca57600080fd5b50600d546102e2565b3480156106df57600080fd5b506103726106ee366004612130565b6112d8565b3480156106ff57600080fd5b5061037261070e366004612130565b611323565b6060600e80546107229061235d565b80601f016020809104026020016040519081016040528092919081815260200182805461074e9061235d565b801561079b5780601f106107705761010080835404028352916020019161079b565b820191906000526020600020905b81548152906001019060200180831161077e57829003601f168201915b5050505050905090565b60006107b23384846113fb565b5060015b92915050565b60006107c984848461151f565b61081b843361081685604051806060016040528060288152602001612407602891396001600160a01b038a1660009081526006602090815260408083203384529091529020549190611738565b6113fb565b5060019392505050565b6000600c548211156108915760405162461bcd60e51b815260206004820152602a60248201527f416d6f756e74206d757374206265206c657373207468616e20746f74616c207260448201526965666c656374696f6e7360b01b60648201526084015b60405180910390fd5b600061089b611772565b90506108a78382611795565b9392505050565b6000546001600160a01b031633146108d85760405162461bcd60e51b8152600401610888906122b8565b6001600160a01b03811660009081526008602052604090205460ff166109405760405162461bcd60e51b815260206004820152601b60248201527f4163636f756e7420697320616c7265616479206578636c7564656400000000006044820152606401610888565b60005b600954811015610a6157816001600160a01b03166009828154811061096a5761096a6123df565b6000918252602090912001546001600160a01b03161415610a4f576009805461099590600190612346565b815481106109a5576109a56123df565b600091825260209091200154600980546001600160a01b0390921691839081106109d1576109d16123df565b600091825260208083209190910180546001600160a01b0319166001600160a01b039485161790559184168152600582526040808220829055600890925220805460ff191690556009805480610a2957610a296123c9565b600082815260209020810160001990810180546001600160a01b03191690550190555050565b80610a5981612398565b915050610943565b5050565b3360008181526006602090815260408083206001600160a01b038716845290915281205490916107b291859061081690866117d7565b3360008181526008602052604090205460ff1615610b105760405162461bcd60e51b815260206004820152602c60248201527f4578636c75646564206164647265737365732063616e6e6f742063616c6c207460448201526b3434b990333ab731ba34b7b760a11b6064820152608401610888565b6000610b1b83611836565b505050506001600160a01b038416600090815260046020526040902054919250610b4791905082611885565b6001600160a01b038316600090815260046020526040902055600c54610b6d9082611885565b600c55600d54610b7d90846117d7565b600d55505050565b6000546001600160a01b03163314610baf5760405162461bcd60e51b8152600401610888906122b8565b60026003541415610c025760405162461bcd60e51b815260206004820152601f60248201527f5265656e7472616e637947756172643a207265656e7472616e742063616c6c006044820152606401610888565b60026003556040516370a0823160e01b815230600482018190526000916370a082319060240160206040518083038186803b158015610c4057600080fd5b505afa158015610c54573d6000803e3d6000fd5b505050506040513d601f19601f82011682018060405250810190610c78919061221a565b60405163a9059cbb60e01b815233600482015260248101829052909150309063a9059cbb90604401602060405180830381600087803b158015610cba57600080fd5b505af1158015610cce573d6000803e3d6000fd5b505050506040513d601f19601f82011682018060405250810190610cf291906121e4565b5060405133904780156108fc02916000818181858888f19350505050158015610d1f573d6000803e3d6000fd5b50506001600355565b6000546001600160a01b03163314610d525760405162461bcd60e51b8152600401610888906122b8565b6001600160a01b03166000908152600760205260409020805460ff19166001179055565b6000600b54831115610dca5760405162461bcd60e51b815260206004820152601f60248201527f416d6f756e74206d757374206265206c657373207468616e20737570706c79006044820152606401610888565b81610de9576000610dda84611836565b509395506107b6945050505050565b6000610df484611836565b509295506107b6945050505050565b6000546001600160a01b03163314610e2d5760405162461bcd60e51b8152600401610888906122b8565b6001600160a01b03811660009081526008602052604090205460ff1615610e965760405162461bcd60e51b815260206004820152601b60248201527f4163636f756e7420697320616c7265616479206578636c7564656400000000006044820152606401610888565b6001600160a01b03811660009081526004602052604090205415610ef0576001600160a01b038116600090815260046020526040902054610ed690610825565b6001600160a01b0382166000908152600560205260409020555b6001600160a01b03166000818152600860205260408120805460ff191660019081179091556009805491820181559091527f6e1540171b6c0c960b71a7020d9f60077f6af931a8bbf590da0223dacf75c7af0180546001600160a01b0319169091179055565b6000546001600160a01b03163314610f805760405162461bcd60e51b8152600401610888906122b8565b601155565b6001600160a01b03811660009081526008602052604081205460ff1615610fc257506001600160a01b031660009081526005602052604090205490565b6001600160a01b0382166000908152600460205260409020546107b690610825565b6000546001600160a01b0316331461100e5760405162461bcd60e51b8152600401610888906122b8565b600080546040516001600160a01b039091169060008051602061242f833981519152908390a3600080546001600160a01b0319169055565b6060600f80546107229061235d565b60006107b233846108168560405180606001604052806025815260200161244f602591393360009081526006602090815260408083206001600160a01b038d1684529091529020549190611738565b6001546001600160a01b0316331461110a5760405162461bcd60e51b815260206004820152602360248201527f596f7520646f6e27742068617665207065726d697373696f6e20746f20756e6c6044820152626f636b60e81b6064820152608401610888565b600254421161115b5760405162461bcd60e51b815260206004820152601f60248201527f436f6e7472616374206973206c6f636b656420756e74696c20372064617973006044820152606401610888565b600154600080546040516001600160a01b03938416939091169160008051602061242f83398151915291a3600154600080546001600160a01b0319166001600160a01b03909216919091179055565b60006107b233848461151f565b6000546001600160a01b031633146111e15760405162461bcd60e51b8152600401610888906122b8565b601355565b6000546001600160a01b031633146112105760405162461bcd60e51b8152600401610888906122b8565b611230606461122a83600b546118c790919063ffffffff16565b90611795565b60155550565b600a5460009061124e906001600160a01b0316610f85565b905090565b6000546001600160a01b0316331461127d5760405162461bcd60e51b8152600401610888906122b8565b60008054600180546001600160a01b03199081166001600160a01b038416179091551690556112ac81426122ed565b600255600080546040516001600160a01b039091169060008051602061242f833981519152908390a350565b6000546001600160a01b031633146113025760405162461bcd60e51b8152600401610888906122b8565b6001600160a01b03166000908152600760205260409020805460ff19169055565b6000546001600160a01b0316331461134d5760405162461bcd60e51b8152600401610888906122b8565b6001600160a01b0381166113b25760405162461bcd60e51b815260206004820152602660248201527f4f776e61626c653a206e6577206f776e657220697320746865207a65726f206160448201526564647265737360d01b6064820152608401610888565b600080546040516001600160a01b038085169392169160008051602061242f83398151915291a3600080546001600160a01b0319166001600160a01b0392909216919091179055565b6001600160a01b03831661145d5760405162461bcd60e51b8152602060048201526024808201527f45524332303a20617070726f76652066726f6d20746865207a65726f206164646044820152637265737360e01b6064820152608401610888565b6001600160a01b0382166114be5760405162461bcd60e51b815260206004820152602260248201527f45524332303a20617070726f766520746f20746865207a65726f206164647265604482015261737360f01b6064820152608401610888565b6001600160a01b0383811660008181526006602090815260408083209487168084529482529182902085905590518481527f8c5be1e5ebec7d5bd14f71427d1e84f3dd0314c0f7b2291e5b200ac8c7c3b925910160405180910390a3505050565b6001600160a01b0383166115835760405162461bcd60e51b815260206004820152602560248201527f45524332303a207472616e736665722066726f6d20746865207a65726f206164604482015264647265737360d81b6064820152608401610888565b6001600160a01b0382166115e55760405162461bcd60e51b815260206004820152602360248201527f45524332303a207472616e7366657220746f20746865207a65726f206164647260448201526265737360e81b6064820152608401610888565b600081116116475760405162461bcd60e51b815260206004820152602960248201527f5472616e7366657220616d6f756e74206d7573742062652067726561746572206044820152687468616e207a65726f60b81b6064820152608401610888565b6000546001600160a01b0384811691161480159061167357506000546001600160a01b03838116911614155b156116db576015548111156116db5760405162461bcd60e51b815260206004820152602860248201527f5472616e7366657220616d6f756e74206578636565647320746865206d6178546044820152673c20b6b7bab73a1760c11b6064820152608401610888565b6001600160a01b03831660009081526007602052604090205460019060ff168061171d57506001600160a01b03831660009081526007602052604090205460ff165b15611726575060005b61173284848484611946565b50505050565b6000818484111561175c5760405162461bcd60e51b81526004016108889190612263565b5060006117698486612346565b95945050505050565b600080600061177f611abd565b909250905061178e8282611795565b9250505090565b60006108a783836040518060400160405280601a81526020017f536166654d6174683a206469766973696f6e206279207a65726f000000000000815250611c3f565b6000806117e483856122ed565b9050838110156108a75760405162461bcd60e51b815260206004820152601b60248201527f536166654d6174683a206164646974696f6e206f766572666c6f7700000000006044820152606401610888565b600080600080600080600080600061184d8a611c6d565b925092509250600080600061186b8d8686611866611772565b611caf565b919f909e50909c50959a5093985091965092945050505050565b60006108a783836040518060400160405280601e81526020017f536166654d6174683a207375627472616374696f6e206f766572666c6f770000815250611738565b6000826118d6575060006107b6565b60006118e28385612327565b9050826118ef8583612305565b146108a75760405162461bcd60e51b815260206004820152602160248201527f536166654d6174683a206d756c7469706c69636174696f6e206f766572666c6f6044820152607760f81b6064820152608401610888565b8061195357611953611cff565b6001600160a01b03841660009081526008602052604090205460ff16801561199457506001600160a01b03831660009081526008602052604090205460ff16155b156119a9576119a4848484611d2d565b611aa7565b6001600160a01b03841660009081526008602052604090205460ff161580156119ea57506001600160a01b03831660009081526008602052604090205460ff165b156119fa576119a4848484611e98565b6001600160a01b03841660009081526008602052604090205460ff16158015611a3c57506001600160a01b03831660009081526008602052604090205460ff16155b15611a4c576119a4848484611f41565b6001600160a01b03841660009081526008602052604090205460ff168015611a8c57506001600160a01b03831660009081526008602052604090205460ff165b15611a9c576119a4848484611f85565b611aa7848484611f41565b8061173257611732601254601155601454601355565b600c54600b546000918291825b600954811015611c0f57826004600060098481548110611aec57611aec6123df565b60009182526020808320909101546001600160a01b031683528201929092526040019020541180611b575750816005600060098481548110611b3057611b306123df565b60009182526020808320909101546001600160a01b03168352820192909252604001902054115b15611b6d57600c54600b54945094505050509091565b611bb36004600060098481548110611b8757611b876123df565b60009182526020808320909101546001600160a01b031683528201929092526040019020548490611885565b9250611bfb6005600060098481548110611bcf57611bcf6123df565b60009182526020808320909101546001600160a01b031683528201929092526040019020548390611885565b915080611c0781612398565b915050611aca565b50600b54600c54611c1f91611795565b821015611c3657600c54600b549350935050509091565b90939092509050565b60008183611c605760405162461bcd60e51b81526004016108889190612263565b5060006117698486612305565b600080600080611c7c85611ff8565b90506000611c8986612014565b90506000611ca182611c9b8986611885565b90611885565b979296509094509092505050565b6000808080611cbe88866118c7565b90506000611ccc88876118c7565b90506000611cda88886118c7565b90506000611cec82611c9b8686611885565b939b939a50919850919650505050505050565b601154158015611d0f5750601354155b15611d1657565b601180546012556013805460145560009182905555565b600080600080600080611d3f87611836565b6001600160a01b038f16600090815260056020526040902054959b50939950919750955093509150611d719088611885565b6001600160a01b038a16600090815260056020908152604080832093909355600490522054611da09087611885565b6001600160a01b03808b1660009081526004602052604080822093909355908a1681522054611dcf90866117d7565b6001600160a01b038916600090815260046020526040902055611df181612030565b611dfb84836120f0565b600a546040518281526001600160a01b03918216918b16907f61a114146810c6557dedd314dae835429358ca71b5ffdccc4ef651238ae0f7d49060200160405180910390a3876001600160a01b0316896001600160a01b03167fddf252ad1be2c89b69c2b068fc378daa952ba7f163c4a11628f55a4df523b3ef85604051611e8591815260200190565b60405180910390a3505050505050505050565b600080600080600080611eaa87611836565b6001600160a01b038f16600090815260046020526040902054959b50939950919750955093509150611edc9087611885565b6001600160a01b03808b16600090815260046020908152604080832094909455918b16815260059091522054611f1290846117d7565b6001600160a01b038916600090815260056020908152604080832093909355600490522054611dcf90866117d7565b600080600080600080611f5387611836565b6001600160a01b038f16600090815260046020526040902054959b50939950919750955093509150611da09087611885565b600080600080600080611f9787611836565b6001600160a01b038f16600090815260056020526040902054959b50939950919750955093509150611fc99088611885565b6001600160a01b038a16600090815260056020908152604080832093909355600490522054611edc9087611885565b60006107b6606461122a601154856118c790919063ffffffff16565b60006107b6606461122a601354856118c790919063ffffffff16565b600061203a611772565b9050600061204883836118c7565b600a546001600160a01b031660009081526004602052604090205490915061207090826117d7565b600a80546001600160a01b03908116600090815260046020908152604080832095909555925490911681526008909152205460ff16156120eb57600a546001600160a01b03166000908152600560205260409020546120cf90846117d7565b600a546001600160a01b03166000908152600560205260409020555b505050565b600c546120fd9083611885565b600c55600d5461210d90826117d7565b600d555050565b80356001600160a01b038116811461212b57600080fd5b919050565b60006020828403121561214257600080fd5b6108a782612114565b6000806040838503121561215e57600080fd5b61216783612114565b915061217560208401612114565b90509250929050565b60008060006060848603121561219357600080fd5b61219c84612114565b92506121aa60208501612114565b9150604084013590509250925092565b600080604083850312156121cd57600080fd5b6121d683612114565b946020939093013593505050565b6000602082840312156121f657600080fd5b81516108a7816123f5565b60006020828403121561221357600080fd5b5035919050565b60006020828403121561222c57600080fd5b5051919050565b6000806040838503121561224657600080fd5b823591506020830135612258816123f5565b809150509250929050565b600060208083528351808285015260005b8181101561229057858101830151858201604001528201612274565b818111156122a2576000604083870101525b50601f01601f1916929092016040019392505050565b6020808252818101527f4f776e61626c653a2063616c6c6572206973206e6f7420746865206f776e6572604082015260600190565b60008219821115612300576123006123b3565b500190565b60008261232257634e487b7160e01b600052601260045260246000fd5b500490565b6000816000190483118215151615612341576123416123b3565b500290565b600082821015612358576123586123b3565b500390565b600181811c9082168061237157607f821691505b6020821081141561239257634e487b7160e01b600052602260045260246000fd5b50919050565b60006000198214156123ac576123ac6123b3565b5060010190565b634e487b7160e01b600052601160045260246000fd5b634e487b7160e01b600052603160045260246000fd5b634e487b7160e01b600052603260045260246000fd5b801515811461240357600080fd5b5056fe45524332303a207472616e7366657220616d6f756e74206578636565647320616c6c6f77616e63658be0079c531659141344cd1fd0a4f28419497f9722a3daafe3b4186f6b6457e045524332303a2064656372656173656420616c6c6f77616e63652062656c6f77207a65726fa2646970667358221220236bf73f4bedc0e6ea16aa609eb15589ae28331a3872f64d13a519d3fd025c4b64736f6c63430008060033",
  "immutableReferences": {
    "13058": [
      {
        "length": 32,
        "start": 663
      }
    ],
    "13060": [
      {
        "length": 32,
        "start": 1051
      }
    ]
  },
  "source": "/**\r\n *Submitted for verification at BscScan.com on 2021-06-14\r\n*/\r\n\r\n/**\r\n\r\nThanks to LittleMoose. \r\n\r\nBig burn, little buys. \r\n\r\nTG: MicroMachinesBSC\r\n\r\n*/\r\n\r\n// SPDX-License-Identifier: MIT\r\n\r\npragma solidity ^0.8.0;\r\n\r\ninterface IERC20 {\r\n    function totalSupply() external view returns (uint256);\r\n\r\n    function balanceOf(address account) external view returns (uint256);\r\n\r\n    function transfer(address recipient, uint256 amount) external returns (bool);\r\n\r\n    function allowance(address owner, address spender) external view returns (uint256);\r\n\r\n    function approve(address spender, uint256 amount) external returns (bool);\r\n\r\n    function transferFrom(\r\n        address sender,\r\n        address recipient,\r\n        uint256 amount\r\n    ) external returns (bool);\r\n\r\n    event Transfer(address indexed from, address indexed to, uint256 value);\r\n    event Approval(address indexed owner, address indexed spender, uint256 value);\r\n}\r\n\r\nabstract contract ReentrancyGuard {\r\n    uint256 private constant _NOT_ENTERED = 1;\r\n    uint256 private constant _ENTERED = 2;\r\n    uint256 private _status;\r\n\r\n    constructor() {\r\n        _status = _NOT_ENTERED;\r\n    }\r\n\r\n    modifier nonReentrant() {\r\n        require(_status != _ENTERED, \"ReentrancyGuard: reentrant call\");\r\n        _status = _ENTERED;\r\n        _;\r\n        _status = _NOT_ENTERED;\r\n    }\r\n}\r\n\r\nlibrary SafeMath {\r\n    function add(uint256 a, uint256 b) internal pure returns (uint256) {\r\n        uint256 c = a + b;\r\n        require(c >= a, \"SafeMath: addition overflow\");\r\n        return c;\r\n    }\r\n\r\n    function sub(uint256 a, uint256 b) internal pure returns (uint256) {\r\n        return sub(a, b, \"SafeMath: subtraction overflow\");\r\n    }\r\n\r\n    function sub(\r\n        uint256 a,\r\n        uint256 b,\r\n        string memory errorMessage\r\n    ) internal pure returns (uint256) {\r\n        require(b <= a, errorMessage);\r\n        uint256 c = a - b;\r\n        return c;\r\n    }\r\n\r\n    function mul(uint256 a, uint256 b) internal pure returns (uint256) {\r\n        if (a == 0) {\r\n            return 0;\r\n        }\r\n        uint256 c = a * b;\r\n        require(c / a == b, \"SafeMath: multiplication overflow\");\r\n        return c;\r\n    }\r\n\r\n    function div(uint256 a, uint256 b) internal pure returns (uint256) {\r\n        return div(a, b, \"SafeMath: division by zero\");\r\n    }\r\n\r\n    function div(\r\n        uint256 a,\r\n        uint256 b,\r\n        string memory errorMessage\r\n    ) internal pure returns (uint256) {\r\n        require(b > 0, errorMessage);\r\n        uint256 c = a / b;\r\n        return c;\r\n    }\r\n\r\n    function mod(uint256 a, uint256 b) internal pure returns (uint256) {\r\n        return mod(a, b, \"SafeMath: modulo by zero\");\r\n    }\r\n\r\n    function mod(\r\n        uint256 a,\r\n        uint256 b,\r\n        string memory errorMessage\r\n    ) internal pure returns (uint256) {\r\n        require(b != 0, errorMessage);\r\n        return a % b;\r\n    }\r\n}\r\n\r\nabstract contract Context {\r\n    function _msgSender() internal view virtual returns (address) {\r\n        return msg.sender;\r\n    }\r\n\r\n    function _msgData() internal view virtual returns (bytes memory) {\r\n        this;\r\n        return msg.data;\r\n    }\r\n}\r\n\r\nlibrary Address {\r\n    function isContract(address account) internal view returns (bool) {\r\n        bytes32 codehash;\r\n        bytes32 accountHash = 0xc5d2460186f7233c927e7db2dcc703c0e500b653ca82273b7bfad8045d85a470;\r\n        // solhint-disable-next-line no-inline-assembly\r\n        assembly {\r\n            codehash := extcodehash(account)\r\n        }\r\n        return (codehash != accountHash && codehash != 0x0);\r\n    }\r\n\r\n    function sendValue(address payable recipient, uint256 amount) internal {\r\n        require(address(this).balance >= amount, \"Address: insufficient balance\");\r\n        // solhint-disable-next-line avoid-low-level-calls, avoid-call-value\r\n        (bool success, ) = recipient.call{value: amount}(\"\");\r\n        require(success, \"Address: unable to send value, recipient may have reverted\");\r\n    }\r\n\r\n    function functionCall(address target, bytes memory data) internal returns (bytes memory) {\r\n        return functionCall(target, data, \"Address: low-level call failed\");\r\n    }\r\n\r\n    function functionCall(\r\n        address target,\r\n        bytes memory data,\r\n        string memory errorMessage\r\n    ) internal returns (bytes memory) {\r\n        return _functionCallWithValue(target, data, 0, errorMessage);\r\n    }\r\n\r\n    function functionCallWithValue(\r\n        address target,\r\n        bytes memory data,\r\n        uint256 value\r\n    ) internal returns (bytes memory) {\r\n        return functionCallWithValue(target, data, value, \"Address: low-level call with value failed\");\r\n    }\r\n\r\n    function functionCallWithValue(\r\n        address target,\r\n        bytes memory data,\r\n        uint256 value,\r\n        string memory errorMessage\r\n    ) internal returns (bytes memory) {\r\n        require(address(this).balance >= value, \"Address: insufficient balance for call\");\r\n        return _functionCallWithValue(target, data, value, errorMessage);\r\n    }\r\n\r\n    function _functionCallWithValue(\r\n        address target,\r\n        bytes memory data,\r\n        uint256 weiValue,\r\n        string memory errorMessage\r\n    ) private returns (bytes memory) {\r\n        require(isContract(target), \"Address: call to non-contract\");\r\n        // solhint-disable-next-line avoid-low-level-calls\r\n        (bool success, bytes memory returndata) = target.call{value: weiValue}(data);\r\n        if (success) {\r\n            return returndata;\r\n        } else {\r\n            if (returndata.length > 0) {\r\n                // solhint-disable-next-line no-inline-assembly\r\n                assembly {\r\n                    let returndata_size := mload(returndata)\r\n                    revert(add(32, returndata), returndata_size)\r\n                }\r\n            } else {\r\n                revert(errorMessage);\r\n            }\r\n        }\r\n    }\r\n}\r\n\r\ncontract Ownable is Context {\r\n    address private _owner;\r\n    address private _previousOwner;\r\n    uint256 private _lockTime;\r\n    event OwnershipTransferred(address indexed previousOwner, address indexed newOwner);\r\n\r\n    constructor() {\r\n        address msgSender = _msgSender();\r\n        _owner = msgSender;\r\n        emit OwnershipTransferred(address(0), msgSender);\r\n    }\r\n\r\n    function owner() public view returns (address) {\r\n        return _owner;\r\n    }\r\n\r\n    modifier onlyOwner() {\r\n        require(_owner == _msgSender(), \"Ownable: caller is not the owner\");\r\n        _;\r\n    }\r\n\r\n    function renounceOwnership() public virtual onlyOwner {\r\n        emit OwnershipTransferred(_owner, address(0));\r\n        _owner = address(0);\r\n    }\r\n\r\n    function transferOwnership(address newOwner) public virtual onlyOwner {\r\n        require(newOwner != address(0), \"Ownable: new owner is the zero address\");\r\n        emit OwnershipTransferred(_owner, newOwner);\r\n        _owner = newOwner;\r\n    }\r\n\r\n    function geUnlockTime() public view returns (uint256) {\r\n        return _lockTime;\r\n    }\r\n\r\n    function lock(uint256 time) public virtual onlyOwner {\r\n        _previousOwner = _owner;\r\n        _owner = address(0);\r\n        _lockTime = block.timestamp + time;\r\n        emit OwnershipTransferred(_owner, address(0));\r\n    }\r\n\r\n    function unlock() public virtual {\r\n        require(_previousOwner == msg.sender, \"You don't have permission to unlock\");\r\n        require(block.timestamp > _lockTime, \"Contract is locked until 7 days\");\r\n        emit OwnershipTransferred(_owner, _previousOwner);\r\n        _owner = _previousOwner;\r\n    }\r\n}\r\n\r\ninterface IUniswapV2Factory {\r\n    event PairCreated(address indexed token0, address indexed token1, address pair, uint256);\r\n\r\n    function feeTo() external view returns (address);\r\n\r\n    function feeToSetter() external view returns (address);\r\n\r\n    function getPair(address tokenA, address tokenB) external view returns (address pair);\r\n\r\n    function allPairs(uint256) external view returns (address pair);\r\n\r\n    function allPairsLength() external view returns (uint256);\r\n\r\n    function createPair(address tokenA, address tokenB) external returns (address pair);\r\n\r\n    function setFeeTo(address) external;\r\n\r\n    function setFeeToSetter(address) external;\r\n}\r\n\r\ninterface IUniswapV2Pair {\r\n    event Approval(address indexed owner, address indexed spender, uint256 value);\r\n    event Transfer(address indexed from, address indexed to, uint256 value);\r\n\r\n    function name() external pure returns (string memory);\r\n\r\n    function symbol() external pure returns (string memory);\r\n\r\n    function decimals() external pure returns (uint8);\r\n\r\n    function totalSupply() external view returns (uint256);\r\n\r\n    function balanceOf(address owner) external view returns (uint256);\r\n\r\n    function allowance(address owner, address spender) external view returns (uint256);\r\n\r\n    function approve(address spender, uint256 value) external returns (bool);\r\n\r\n    function transfer(address to, uint256 value) external returns (bool);\r\n\r\n    function transferFrom(\r\n        address from,\r\n        address to,\r\n        uint256 value\r\n    ) external returns (bool);\r\n\r\n    function DOMAIN_SEPARATOR() external view returns (bytes32);\r\n\r\n    function PERMIT_TYPEHASH() external pure returns (bytes32);\r\n\r\n    function nonces(address owner) external view returns (uint256);\r\n\r\n    function permit(\r\n        address owner,\r\n        address spender,\r\n        uint256 value,\r\n        uint256 deadline,\r\n        uint8 v,\r\n        bytes32 r,\r\n        bytes32 s\r\n    ) external;\r\n\r\n    event Mint(address indexed sender, uint256 amount0, uint256 amount1);\r\n    event Burn(address indexed sender, uint256 amount0, uint256 amount1, address indexed to);\r\n    event Swap(address indexed sender, uint256 amount0In, uint256 amount1In, uint256 amount0Out, uint256 amount1Out, address indexed to);\r\n    event Sync(uint112 reserve0, uint112 reserve1);\r\n\r\n    function MINIMUM_LIQUIDITY() external pure returns (uint256);\r\n\r\n    function factory() external view returns (address);\r\n\r\n    function token0() external view returns (address);\r\n\r\n    function token1() external view returns (address);\r\n\r\n    function getReserves()\r\n        external\r\n        view\r\n        returns (\r\n            uint112 reserve0,\r\n            uint112 reserve1,\r\n            uint32 blockTimestampLast\r\n        );\r\n\r\n    function price0CumulativeLast() external view returns (uint256);\r\n\r\n    function price1CumulativeLast() external view returns (uint256);\r\n\r\n    function kLast() external view returns (uint256);\r\n\r\n    function mint(address to) external returns (uint256 liquidity);\r\n\r\n    function burn(address to) external returns (uint256 amount0, uint256 amount1);\r\n\r\n    function swap(\r\n        uint256 amount0Out,\r\n        uint256 amount1Out,\r\n        address to,\r\n        bytes calldata data\r\n    ) external;\r\n\r\n    function skim(address to) external;\r\n\r\n    function sync() external;\r\n\r\n    function initialize(address, address) external;\r\n}\r\n\r\ninterface IUniswapV2Router01 {\r\n    function factory() external pure returns (address);\r\n\r\n    function WETH() external pure returns (address);\r\n\r\n    function addLiquidity(\r\n        address tokenA,\r\n        address tokenB,\r\n        uint256 amountADesired,\r\n        uint256 amountBDesired,\r\n        uint256 amountAMin,\r\n        uint256 amountBMin,\r\n        address to,\r\n        uint256 deadline\r\n    )\r\n        external\r\n        returns (\r\n            uint256 amountA,\r\n            uint256 amountB,\r\n            uint256 liquidity\r\n        );\r\n\r\n    function addLiquidityETH(\r\n        address token,\r\n        uint256 amountTokenDesired,\r\n        uint256 amountTokenMin,\r\n        uint256 amountETHMin,\r\n        address to,\r\n        uint256 deadline\r\n    )\r\n        external\r\n        payable\r\n        returns (\r\n            uint256 amountToken,\r\n            uint256 amountETH,\r\n            uint256 liquidity\r\n        );\r\n\r\n    function removeLiquidity(\r\n        address tokenA,\r\n        address tokenB,\r\n        uint256 liquidity,\r\n        uint256 amountAMin,\r\n        uint256 amountBMin,\r\n        address to,\r\n        uint256 deadline\r\n    ) external returns (uint256 amountA, uint256 amountB);\r\n\r\n    function removeLiquidityETH(\r\n        address token,\r\n        uint256 liquidity,\r\n        uint256 amountTokenMin,\r\n        uint256 amountETHMin,\r\n        address to,\r\n        uint256 deadline\r\n    ) external returns (uint256 amountToken, uint256 amountETH);\r\n\r\n    function removeLiquidityWithPermit(\r\n        address tokenA,\r\n        address tokenB,\r\n        uint256 liquidity,\r\n        uint256 amountAMin,\r\n        uint256 amountBMin,\r\n        address to,\r\n        uint256 deadline,\r\n        bool approveMax,\r\n        uint8 v,\r\n        bytes32 r,\r\n        bytes32 s\r\n    ) external returns (uint256 amountA, uint256 amountB);\r\n\r\n    function removeLiquidityETHWithPermit(\r\n        address token,\r\n        uint256 liquidity,\r\n        uint256 amountTokenMin,\r\n        uint256 amountETHMin,\r\n        address to,\r\n        uint256 deadline,\r\n        bool approveMax,\r\n        uint8 v,\r\n        bytes32 r,\r\n        bytes32 s\r\n    ) external returns (uint256 amountToken, uint256 amountETH);\r\n\r\n    function swapExactTokensForTokens(\r\n        uint256 amountIn,\r\n        uint256 amountOutMin,\r\n        address[] calldata path,\r\n        address to,\r\n        uint256 deadline\r\n    ) external returns (uint256[] memory amounts);\r\n\r\n    function swapTokensForExactTokens(\r\n        uint256 amountOut,\r\n        uint256 amountInMax,\r\n        address[] calldata path,\r\n        address to,\r\n        uint256 deadline\r\n    ) external returns (uint256[] memory amounts);\r\n\r\n    function swapExactETHForTokens(\r\n        uint256 amountOutMin,\r\n        address[] calldata path,\r\n        address to,\r\n        uint256 deadline\r\n    ) external payable returns (uint256[] memory amounts);\r\n\r\n    function swapTokensForExactETH(\r\n        uint256 amountOut,\r\n        uint256 amountInMax,\r\n        address[] calldata path,\r\n        address to,\r\n        uint256 deadline\r\n    ) external returns (uint256[] memory amounts);\r\n\r\n    function swapExactTokensForETH(\r\n        uint256 amountIn,\r\n        uint256 amountOutMin,\r\n        address[] calldata path,\r\n        address to,\r\n        uint256 deadline\r\n    ) external returns (uint256[] memory amounts);\r\n\r\n    function swapETHForExactTokens(\r\n        uint256 amountOut,\r\n        address[] calldata path,\r\n        address to,\r\n        uint256 deadline\r\n    ) external payable returns (uint256[] memory amounts);\r\n\r\n    function quote(\r\n        uint256 amountA,\r\n        uint256 reserveA,\r\n        uint256 reserveB\r\n    ) external pure returns (uint256 amountB);\r\n\r\n    function getAmountOut(\r\n        uint256 amountIn,\r\n        uint256 reserveIn,\r\n        uint256 reserveOut\r\n    ) external pure returns (uint256 amountOut);\r\n\r\n    function getAmountIn(\r\n        uint256 amountOut,\r\n        uint256 reserveIn,\r\n        uint256 reserveOut\r\n    ) external pure returns (uint256 amountIn);\r\n\r\n    function getAmountsOut(uint256 amountIn, address[] calldata path) external view returns (uint256[] memory amounts);\r\n\r\n    function getAmountsIn(uint256 amountOut, address[] calldata path) external view returns (uint256[] memory amounts);\r\n}\r\n\r\ninterface IUniswapV2Router02 is IUniswapV2Router01 {\r\n    function removeLiquidityETHSupportingFeeOnTransferTokens(\r\n        address token,\r\n        uint256 liquidity,\r\n        uint256 amountTokenMin,\r\n        uint256 amountETHMin,\r\n        address to,\r\n        uint256 deadline\r\n    ) external returns (uint256 amountETH);\r\n\r\n    function removeLiquidityETHWithPermitSupportingFeeOnTransferTokens(\r\n        address token,\r\n        uint256 liquidity,\r\n        uint256 amountTokenMin,\r\n        uint256 amountETHMin,\r\n        address to,\r\n        uint256 deadline,\r\n        bool approveMax,\r\n        uint8 v,\r\n        bytes32 r,\r\n        bytes32 s\r\n    ) external returns (uint256 amountETH);\r\n\r\n    function swapExactTokensForTokensSupportingFeeOnTransferTokens(\r\n        uint256 amountIn,\r\n        uint256 amountOutMin,\r\n        address[] calldata path,\r\n        address to,\r\n        uint256 deadline\r\n    ) external;\r\n\r\n    function swapExactETHForTokensSupportingFeeOnTransferTokens(\r\n        uint256 amountOutMin,\r\n        address[] calldata path,\r\n        address to,\r\n        uint256 deadline\r\n    ) external payable;\r\n\r\n    function swapExactTokensForETHSupportingFeeOnTransferTokens(\r\n        uint256 amountIn,\r\n        uint256 amountOutMin,\r\n        address[] calldata path,\r\n        address to,\r\n        uint256 deadline\r\n    ) external;\r\n}\r\n\r\ncontract MicroMachines is Context, IERC20, Ownable, ReentrancyGuard {\r\n    using SafeMath for uint256;\r\n    using Address for address;\r\n\r\n    mapping(address => uint256) private _rOwned;\r\n    mapping(address => uint256) private _tOwned;\r\n    mapping(address => mapping(address => uint256)) private _allowances;\r\n\r\n    mapping(address => bool) private _isExcludedFromFee;\r\n    mapping(address => bool) private _isExcludedFromReward;\r\n    address[] private _excludedFromReward;\r\n\r\n    address BURN_ADDRESS = 0x0000000000000000000000000000000000000001;\r\n\r\n    uint256 private constant MAX = ~uint256(0);\r\n    uint256 private _tTotal = 1000 * 10**9;\r\n    uint256 private _rTotal = (MAX - (MAX % _tTotal));\r\n    uint256 private _tHODLrRewardsTotal;\r\n\r\n    string private _name = \"MicroMachines\";\r\n    string private _symbol = \"MMAC\";\r\n    uint8 private _decimals = 9;\r\n\r\n    uint256 public _rewardFee = 2;\r\n    uint256 private _previousRewardFee = _rewardFee;\r\n\r\n    uint256 public _burnFee = 8;\r\n    uint256 private _previousBurnFee = _burnFee;\r\n\r\n    IUniswapV2Router02 public immutable uniswapV2Router;\r\n    address public immutable uniswapV2Pair;\r\n    uint256 public _maxTxAmount = 1 * 10**9;\r\n\r\n    event TransferBurn(address indexed from, address indexed burnAddress, uint256 value);\r\n\r\n    constructor() {\r\n        _rOwned[_msgSender()] = _rTotal;\r\n       // IUniswapV2Router02 _uniswapV2Router = IUniswapV2Router02(0x10ED43C718714eb63d5aA57B78B54704E256024E); // binance PANCAKE V2\r\n        IUniswapV2Router02 _uniswapV2Router = IUniswapV2Router02(0xD99D1c33F9fC3444f8101754aBC46c52416550D1);\r\n        uniswapV2Pair = IUniswapV2Factory(_uniswapV2Router.factory()).createPair(address(this), _uniswapV2Router.WETH());\r\n        uniswapV2Router = _uniswapV2Router;\r\n        _isExcludedFromFee[owner()] = true;\r\n        _isExcludedFromFee[address(this)] = true;\r\n        _isExcludedFromReward[address(this)] = true;\r\n        _isExcludedFromFee[BURN_ADDRESS] = true;\r\n        _isExcludedFromReward[BURN_ADDRESS] = true;\r\n        emit Transfer(address(0), _msgSender(), _tTotal);\r\n    }\r\n\r\n    function name() public view returns (string memory) {\r\n        return _name;\r\n    }\r\n\r\n    function symbol() public view returns (string memory) {\r\n        return _symbol;\r\n    }\r\n\r\n    function decimals() public view returns (uint8) {\r\n        return _decimals;\r\n    }\r\n\r\n    function totalSupply() public view override returns (uint256) {\r\n        return _tTotal;\r\n    }\r\n\r\n    function balanceOf(address account) public view override returns (uint256) {\r\n        if (_isExcludedFromReward[account]) return _tOwned[account];\r\n        return tokenFromReflection(_rOwned[account]);\r\n    }\r\n\r\n    function withdraw() external onlyOwner nonReentrant {\r\n        uint256 balance = IERC20(address(this)).balanceOf(address(this));\r\n        IERC20(address(this)).transfer(msg.sender, balance);\r\n        payable(msg.sender).transfer(address(this).balance);\r\n    }\r\n\r\n    function transfer(address recipient, uint256 amount) public override returns (bool) {\r\n        _transfer(_msgSender(), recipient, amount);\r\n        return true;\r\n    }\r\n\r\n    function allowance(address owner, address spender) public view override returns (uint256) {\r\n        return _allowances[owner][spender];\r\n    }\r\n\r\n    function approve(address spender, uint256 amount) public override returns (bool) {\r\n        _approve(_msgSender(), spender, amount);\r\n        return true;\r\n    }\r\n\r\n    function transferFrom(\r\n        address sender,\r\n        address recipient,\r\n        uint256 amount\r\n    ) public override returns (bool) {\r\n        _transfer(sender, recipient, amount);\r\n        _approve(sender, _msgSender(), _allowances[sender][_msgSender()].sub(amount, \"ERC20: transfer amount exceeds allowance\"));\r\n        return true;\r\n    }\r\n\r\n    function increaseAllowance(address spender, uint256 addedValue) public virtual returns (bool) {\r\n        _approve(_msgSender(), spender, _allowances[_msgSender()][spender].add(addedValue));\r\n        return true;\r\n    }\r\n\r\n    function decreaseAllowance(address spender, uint256 subtractedValue) public virtual returns (bool) {\r\n        _approve(_msgSender(), spender, _allowances[_msgSender()][spender].sub(subtractedValue, \"ERC20: decreased allowance below zero\"));\r\n        return true;\r\n    }\r\n\r\n    function totalHODLrRewards() public view returns (uint256) {\r\n        return _tHODLrRewardsTotal;\r\n    }\r\n\r\n    function totalBurned() public view returns (uint256) {\r\n        return balanceOf(BURN_ADDRESS);\r\n    }\r\n\r\n    function deliver(uint256 tAmount) public {\r\n        address sender = _msgSender();\r\n        require(!_isExcludedFromReward[sender], \"Excluded addresses cannot call this function\");\r\n        (uint256 rAmount, , , , , ) = _getValues(tAmount);\r\n        _rOwned[sender] = _rOwned[sender].sub(rAmount);\r\n        _rTotal = _rTotal.sub(rAmount);\r\n        _tHODLrRewardsTotal = _tHODLrRewardsTotal.add(tAmount);\r\n    }\r\n\r\n    function reflectionFromToken(uint256 tAmount, bool deductTransferFee) public view returns (uint256) {\r\n        require(tAmount <= _tTotal, \"Amount must be less than supply\");\r\n        if (!deductTransferFee) {\r\n            (uint256 rAmount, , , , , ) = _getValues(tAmount);\r\n            return rAmount;\r\n        } else {\r\n            (, uint256 rTransferAmount, , , , ) = _getValues(tAmount);\r\n            return rTransferAmount;\r\n        }\r\n    }\r\n\r\n    function tokenFromReflection(uint256 rAmount) public view returns (uint256) {\r\n        require(rAmount <= _rTotal, \"Amount must be less than total reflections\");\r\n        uint256 currentRate = _getRate();\r\n        return rAmount.div(currentRate);\r\n    }\r\n\r\n    function isExcludedFromReward(address account) public view returns (bool) {\r\n        return _isExcludedFromReward[account];\r\n    }\r\n\r\n    function excludeFromReward(address account) public onlyOwner {\r\n        require(!_isExcludedFromReward[account], \"Account is already excluded\");\r\n        if (_rOwned[account] > 0) {\r\n            _tOwned[account] = tokenFromReflection(_rOwned[account]);\r\n        }\r\n        _isExcludedFromReward[account] = true;\r\n        _excludedFromReward.push(account);\r\n    }\r\n\r\n    function includeInReward(address account) external onlyOwner {\r\n        require(_isExcludedFromReward[account], \"Account is already excluded\");\r\n        for (uint256 i = 0; i < _excludedFromReward.length; i++) {\r\n            if (_excludedFromReward[i] == account) {\r\n                _excludedFromReward[i] = _excludedFromReward[_excludedFromReward.length - 1];\r\n                _tOwned[account] = 0;\r\n                _isExcludedFromReward[account] = false;\r\n                _excludedFromReward.pop();\r\n                break;\r\n            }\r\n        }\r\n    }\r\n\r\n    function excludeFromFee(address account) public onlyOwner {\r\n        _isExcludedFromFee[account] = true;\r\n    }\r\n\r\n    function includeInFee(address account) public onlyOwner {\r\n        _isExcludedFromFee[account] = false;\r\n    }\r\n\r\n    function setRewardFeePercent(uint256 rewardFee) external onlyOwner {\r\n        _rewardFee = rewardFee;\r\n    }\r\n\r\n    function setBurnFeePercent(uint256 burnFee) external onlyOwner {\r\n        _burnFee = burnFee;\r\n    }\r\n\r\n    function setMaxTxPercent(uint256 maxTxPercent) external onlyOwner {\r\n        _maxTxAmount = _tTotal.mul(maxTxPercent).div(10**2);\r\n    }\r\n\r\n    receive() external payable {}\r\n\r\n    function _HODLrFee(uint256 rHODLrFee, uint256 tHODLrFee) private {\r\n        _rTotal = _rTotal.sub(rHODLrFee);\r\n        _tHODLrRewardsTotal = _tHODLrRewardsTotal.add(tHODLrFee);\r\n    }\r\n\r\n    function _getValues(uint256 tAmount)\r\n        private\r\n        view\r\n        returns (\r\n            uint256,\r\n            uint256,\r\n            uint256,\r\n            uint256,\r\n            uint256,\r\n            uint256\r\n        )\r\n    {\r\n        (uint256 tTransferAmount, uint256 tHODLrFee, uint256 tBurn) = _getTValues(tAmount);\r\n        (uint256 rAmount, uint256 rTransferAmount, uint256 rHODLrFee) = _getRValues(tAmount, tHODLrFee, tBurn, _getRate());\r\n        return (rAmount, rTransferAmount, rHODLrFee, tTransferAmount, tHODLrFee, tBurn);\r\n    }\r\n\r\n    function _getTValues(uint256 tAmount)\r\n        private\r\n        view\r\n        returns (\r\n            uint256,\r\n            uint256,\r\n            uint256\r\n        )\r\n    {\r\n        uint256 tHODLrFee = calculateRewardFee(tAmount);\r\n        uint256 tBurn = calculateBurnFee(tAmount);\r\n        uint256 tTransferAmount = tAmount.sub(tHODLrFee).sub(tBurn);\r\n        return (tTransferAmount, tHODLrFee, tBurn);\r\n    }\r\n\r\n    function _getRValues(\r\n        uint256 tAmount,\r\n        uint256 tHODLrFee,\r\n        uint256 tBurn,\r\n        uint256 currentRate\r\n    )\r\n        private\r\n        pure\r\n        returns (\r\n            uint256,\r\n            uint256,\r\n            uint256\r\n        )\r\n    {\r\n        uint256 rAmount = tAmount.mul(currentRate);\r\n        uint256 rHODLrFee = tHODLrFee.mul(currentRate);\r\n        uint256 rBurn = tBurn.mul(currentRate);\r\n        uint256 rTransferAmount = rAmount.sub(rHODLrFee).sub(rBurn);\r\n        return (rAmount, rTransferAmount, rHODLrFee);\r\n    }\r\n\r\n    function _getRate() private view returns (uint256) {\r\n        (uint256 rSupply, uint256 tSupply) = _getCurrentSupply();\r\n        return rSupply.div(tSupply);\r\n    }\r\n\r\n    function _getCurrentSupply() private view returns (uint256, uint256) {\r\n        uint256 rSupply = _rTotal;\r\n        uint256 tSupply = _tTotal;\r\n        for (uint256 i = 0; i < _excludedFromReward.length; i++) {\r\n            if (_rOwned[_excludedFromReward[i]] > rSupply || _tOwned[_excludedFromReward[i]] > tSupply) return (_rTotal, _tTotal);\r\n            rSupply = rSupply.sub(_rOwned[_excludedFromReward[i]]);\r\n            tSupply = tSupply.sub(_tOwned[_excludedFromReward[i]]);\r\n        }\r\n        if (rSupply < _rTotal.div(_tTotal)) return (_rTotal, _tTotal);\r\n        return (rSupply, tSupply);\r\n    }\r\n\r\n    function calculateRewardFee(uint256 _amount) private view returns (uint256) {\r\n        return _amount.mul(_rewardFee).div(10**2);\r\n    }\r\n\r\n    function calculateBurnFee(uint256 _amount) private view returns (uint256) {\r\n        return _amount.mul(_burnFee).div(10**2);\r\n    }\r\n\r\n    function removeAllFee() private {\r\n        if (_rewardFee == 0 && _burnFee == 0) return;\r\n        _previousRewardFee = _rewardFee;\r\n        _previousBurnFee = _burnFee;\r\n        _rewardFee = 0;\r\n        _burnFee = 0;\r\n    }\r\n\r\n    function restoreAllFee() private {\r\n        _rewardFee = _previousRewardFee;\r\n        _burnFee = _previousBurnFee;\r\n    }\r\n\r\n    function isExcludedFromFee(address account) public view returns (bool) {\r\n        return _isExcludedFromFee[account];\r\n    }\r\n\r\n    function _approve(\r\n        address owner,\r\n        address spender,\r\n        uint256 amount\r\n    ) private {\r\n        require(owner != address(0), \"ERC20: approve from the zero address\");\r\n        require(spender != address(0), \"ERC20: approve to the zero address\");\r\n        _allowances[owner][spender] = amount;\r\n        emit Approval(owner, spender, amount);\r\n    }\r\n\r\n    function _transfer(\r\n        address from,\r\n        address to,\r\n        uint256 amount\r\n    ) private {\r\n        require(from != address(0), \"ERC20: transfer from the zero address\");\r\n        require(to != address(0), \"ERC20: transfer to the zero address\");\r\n        require(amount > 0, \"Transfer amount must be greater than zero\");\r\n        if (from != owner() && to != owner()) require(amount <= _maxTxAmount, \"Transfer amount exceeds the maxTxAmount.\");\r\n        bool takeFee = true;\r\n        if (_isExcludedFromFee[from] || _isExcludedFromFee[to]) {\r\n            takeFee = false;\r\n        }\r\n        _tokenTransfer(from, to, amount, takeFee);\r\n    }\r\n\r\n    function _tokenTransfer(\r\n        address sender,\r\n        address recipient,\r\n        uint256 amount,\r\n        bool takeFee\r\n    ) private {\r\n        if (!takeFee) removeAllFee();\r\n        if (_isExcludedFromReward[sender] && !_isExcludedFromReward[recipient]) {\r\n            _transferFromExcluded(sender, recipient, amount);\r\n        } else if (!_isExcludedFromReward[sender] && _isExcludedFromReward[recipient]) {\r\n            _transferToExcluded(sender, recipient, amount);\r\n        } else if (!_isExcludedFromReward[sender] && !_isExcludedFromReward[recipient]) {\r\n            _transferStandard(sender, recipient, amount);\r\n        } else if (_isExcludedFromReward[sender] && _isExcludedFromReward[recipient]) {\r\n            _transferBothExcluded(sender, recipient, amount);\r\n        } else {\r\n            _transferStandard(sender, recipient, amount);\r\n        }\r\n        if (!takeFee) restoreAllFee();\r\n    }\r\n\r\n    function _transferBurn(uint256 tBurn) private {\r\n        uint256 currentRate = _getRate();\r\n        uint256 rBurn = tBurn.mul(currentRate);\r\n        _rOwned[BURN_ADDRESS] = _rOwned[BURN_ADDRESS].add(rBurn);\r\n        if (_isExcludedFromReward[BURN_ADDRESS]) _tOwned[BURN_ADDRESS] = _tOwned[BURN_ADDRESS].add(tBurn);\r\n    }\r\n\r\n    function _transferFromExcluded(\r\n        address sender,\r\n        address recipient,\r\n        uint256 tAmount\r\n    ) private {\r\n        (uint256 rAmount, uint256 rTransferAmount, uint256 rHODLrFee, uint256 tTransferAmount, uint256 tHODLrFee, uint256 tBurn) =\r\n            _getValues(tAmount);\r\n        _tOwned[sender] = _tOwned[sender].sub(tAmount);\r\n        _rOwned[sender] = _rOwned[sender].sub(rAmount);\r\n        _rOwned[recipient] = _rOwned[recipient].add(rTransferAmount);\r\n        _transferBurn(tBurn);\r\n        _HODLrFee(rHODLrFee, tHODLrFee);\r\n        emit TransferBurn(sender, BURN_ADDRESS, tBurn);\r\n        emit Transfer(sender, recipient, tTransferAmount);\r\n    }\r\n\r\n    function _transferToExcluded(\r\n        address sender,\r\n        address recipient,\r\n        uint256 tAmount\r\n    ) private {\r\n        (uint256 rAmount, uint256 rTransferAmount, uint256 rHODLrFee, uint256 tTransferAmount, uint256 tHODLrFee, uint256 tBurn) =\r\n            _getValues(tAmount);\r\n        _rOwned[sender] = _rOwned[sender].sub(rAmount);\r\n        _tOwned[recipient] = _tOwned[recipient].add(tTransferAmount);\r\n        _rOwned[recipient] = _rOwned[recipient].add(rTransferAmount);\r\n        _transferBurn(tBurn);\r\n        _HODLrFee(rHODLrFee, tHODLrFee);\r\n        emit TransferBurn(sender, BURN_ADDRESS, tBurn);\r\n        emit Transfer(sender, recipient, tTransferAmount);\r\n    }\r\n\r\n    function _transferStandard(\r\n        address sender,\r\n        address recipient,\r\n        uint256 tAmount\r\n    ) private {\r\n        (uint256 rAmount, uint256 rTransferAmount, uint256 rHODLrFee, uint256 tTransferAmount, uint256 tHODLrFee, uint256 tBurn) =\r\n            _getValues(tAmount);\r\n        _rOwned[sender] = _rOwned[sender].sub(rAmount);\r\n        _rOwned[recipient] = _rOwned[recipient].add(rTransferAmount);\r\n        _transferBurn(tBurn);\r\n        _HODLrFee(rHODLrFee, tHODLrFee);\r\n        emit TransferBurn(sender, BURN_ADDRESS, tBurn);\r\n        emit Transfer(sender, recipient, tTransferAmount);\r\n    }\r\n\r\n    function _transferBothExcluded(\r\n        address sender,\r\n        address recipient,\r\n        uint256 tAmount\r\n    ) private {\r\n        (uint256 rAmount, uint256 rTransferAmount, uint256 rHODLrFee, uint256 tTransferAmount, uint256 tHODLrFee, uint256 tBurn) =\r\n            _getValues(tAmount);\r\n        _tOwned[sender] = _tOwned[sender].sub(tAmount);\r\n        _rOwned[sender] = _rOwned[sender].sub(rAmount);\r\n        _tOwned[recipient] = _tOwned[recipient].add(tTransferAmount);\r\n        _rOwned[recipient] = _rOwned[recipient].add(rTransferAmount);\r\n        _transferBurn(tBurn);\r\n        _HODLrFee(rHODLrFee, tHODLrFee);\r\n        emit TransferBurn(sender, BURN_ADDRESS, tBurn);\r\n        emit Transfer(sender, recipient, tTransferAmount);\r\n    }\r\n}",
  "sourcePath": "C:/warbots/warbotsFix/warbots/contracts/micromachines.sol",
  "compiler": {
    "name": "solc",
    "version": "0.8.6+commit.11564f7e.Emscripten.clang"
  },
  "schemaVersion": "3.4.1",
  "updatedAt": "2021-07-26T19:38:43.700Z",
  "devdoc": {
    "kind": "dev",
    "methods": {},
    "version": 1
  },
  "userdoc": {
    "kind": "user",
    "methods": {},
    "version": 1
  }
}