{
  "contractName": "MMACBridge",
  "abi": [
    {
      "inputs": [],
      "stateMutability": "nonpayable",
      "type": "constructor"
    },
    {
      "anonymous": false,
      "inputs": [
        {
          "indexed": false,
          "internalType": "uint256",
          "name": "_request",
          "type": "uint256"
        },
        {
          "indexed": true,
          "internalType": "address",
          "name": "_user",
          "type": "address"
        },
        {
          "indexed": false,
          "internalType": "uint256",
          "name": "_amount",
          "type": "uint256"
        },
        {
          "indexed": false,
          "internalType": "uint256",
          "name": "_blocknumber",
          "type": "uint256"
        }
      ],
      "name": "BridgedBSCtoMatic",
      "type": "event"
    },
    {
      "anonymous": false,
      "inputs": [
        {
          "indexed": false,
          "internalType": "uint256",
          "name": "_request",
          "type": "uint256"
        },
        {
          "indexed": true,
          "internalType": "address",
          "name": "_user",
          "type": "address"
        },
        {
          "indexed": false,
          "internalType": "uint256",
          "name": "_amount",
          "type": "uint256"
        },
        {
          "indexed": false,
          "internalType": "uint256",
          "name": "_blocknumber",
          "type": "uint256"
        }
      ],
      "name": "BridgedMatictoBSC",
      "type": "event"
    },
    {
      "anonymous": false,
      "inputs": [
        {
          "indexed": true,
          "internalType": "address",
          "name": "previousOwner",
          "type": "address"
        },
        {
          "indexed": true,
          "internalType": "address",
          "name": "newOwner",
          "type": "address"
        }
      ],
      "name": "OwnershipTransferred",
      "type": "event"
    },
    {
      "inputs": [],
      "name": "BSCtoPolyBridgeRequestCount",
      "outputs": [
        {
          "internalType": "uint256",
          "name": "",
          "type": "uint256"
        }
      ],
      "stateMutability": "view",
      "type": "function"
    },
    {
      "inputs": [],
      "name": "Bridge",
      "outputs": [
        {
          "internalType": "address payable",
          "name": "",
          "type": "address"
        }
      ],
      "stateMutability": "view",
      "type": "function"
    },
    {
      "inputs": [],
      "name": "EmergencyAddress",
      "outputs": [
        {
          "internalType": "address",
          "name": "",
          "type": "address"
        }
      ],
      "stateMutability": "view",
      "type": "function"
    },
    {
      "inputs": [],
      "name": "MMACADDRESS",
      "outputs": [
        {
          "internalType": "address",
          "name": "",
          "type": "address"
        }
      ],
      "stateMutability": "view",
      "type": "function"
    },
    {
      "inputs": [],
      "name": "PolytoBSCBridgeRequestCount",
      "outputs": [
        {
          "internalType": "uint256",
          "name": "",
          "type": "uint256"
        }
      ],
      "stateMutability": "view",
      "type": "function"
    },
    {
      "inputs": [
        {
          "internalType": "uint256",
          "name": "",
          "type": "uint256"
        }
      ],
      "name": "bridgeRequests",
      "outputs": [
        {
          "internalType": "address",
          "name": "user",
          "type": "address"
        },
        {
          "internalType": "uint256",
          "name": "balance",
          "type": "uint256"
        },
        {
          "internalType": "bool",
          "name": "status",
          "type": "bool"
        },
        {
          "internalType": "uint256",
          "name": "blockNumber",
          "type": "uint256"
        }
      ],
      "stateMutability": "view",
      "type": "function"
    },
    {
      "inputs": [],
      "name": "deposits",
      "outputs": [
        {
          "internalType": "uint256",
          "name": "",
          "type": "uint256"
        }
      ],
      "stateMutability": "view",
      "type": "function"
    },
    {
      "inputs": [],
      "name": "geUnlockTime",
      "outputs": [
        {
          "internalType": "uint256",
          "name": "",
          "type": "uint256"
        }
      ],
      "stateMutability": "view",
      "type": "function"
    },
    {
      "inputs": [
        {
          "internalType": "uint256",
          "name": "time",
          "type": "uint256"
        }
      ],
      "name": "lock",
      "outputs": [],
      "stateMutability": "nonpayable",
      "type": "function"
    },
    {
      "inputs": [],
      "name": "owner",
      "outputs": [
        {
          "internalType": "address",
          "name": "",
          "type": "address"
        }
      ],
      "stateMutability": "view",
      "type": "function"
    },
    {
      "inputs": [
        {
          "internalType": "uint256",
          "name": "",
          "type": "uint256"
        }
      ],
      "name": "polyBridgeRequests",
      "outputs": [
        {
          "internalType": "bool",
          "name": "",
          "type": "bool"
        }
      ],
      "stateMutability": "view",
      "type": "function"
    },
    {
      "inputs": [],
      "name": "renounceOwnership",
      "outputs": [],
      "stateMutability": "nonpayable",
      "type": "function"
    },
    {
      "inputs": [],
      "name": "toll",
      "outputs": [
        {
          "internalType": "uint256",
          "name": "",
          "type": "uint256"
        }
      ],
      "stateMutability": "view",
      "type": "function"
    },
    {
      "inputs": [
        {
          "internalType": "address",
          "name": "newOwner",
          "type": "address"
        }
      ],
      "name": "transferOwnership",
      "outputs": [],
      "stateMutability": "nonpayable",
      "type": "function"
    },
    {
      "inputs": [],
      "name": "unlock",
      "outputs": [],
      "stateMutability": "nonpayable",
      "type": "function"
    },
    {
      "inputs": [
        {
          "internalType": "uint256",
          "name": "_mmac",
          "type": "uint256"
        }
      ],
      "name": "depositMMAC",
      "outputs": [],
      "stateMutability": "nonpayable",
      "type": "function"
    },
    {
      "inputs": [
        {
          "internalType": "uint256",
          "name": "_toll",
          "type": "uint256"
        }
      ],
      "name": "setToll",
      "outputs": [],
      "stateMutability": "nonpayable",
      "type": "function"
    },
    {
      "inputs": [
        {
          "internalType": "uint256",
          "name": "_mmac",
          "type": "uint256"
        }
      ],
      "name": "BridgeMMAC",
      "outputs": [],
      "stateMutability": "payable",
      "type": "function"
    },
    {
      "inputs": [
        {
          "internalType": "uint256",
          "name": "_bridgeRequest",
          "type": "uint256"
        }
      ],
      "name": "getBridgeRequest",
      "outputs": [
        {
          "internalType": "uint256",
          "name": "",
          "type": "uint256"
        },
        {
          "internalType": "address",
          "name": "",
          "type": "address"
        },
        {
          "internalType": "uint256",
          "name": "",
          "type": "uint256"
        },
        {
          "internalType": "uint256",
          "name": "",
          "type": "uint256"
        }
      ],
      "stateMutability": "view",
      "type": "function"
    },
    {
      "inputs": [
        {
          "internalType": "uint256",
          "name": "_request",
          "type": "uint256"
        },
        {
          "internalType": "address",
          "name": "_address",
          "type": "address"
        },
        {
          "internalType": "uint256",
          "name": "_amount",
          "type": "uint256"
        }
      ],
      "name": "transferBridgedMMAC",
      "outputs": [],
      "stateMutability": "nonpayable",
      "type": "function"
    },
    {
      "inputs": [],
      "name": "sweepReflect",
      "outputs": [],
      "stateMutability": "nonpayable",
      "type": "function"
    },
    {
      "inputs": [
        {
          "internalType": "address",
          "name": "_address",
          "type": "address"
        }
      ],
      "name": "sweepAnyToken",
      "outputs": [],
      "stateMutability": "nonpayable",
      "type": "function"
    },
    {
      "inputs": [],
      "name": "sweepBNB",
      "outputs": [],
      "stateMutability": "payable",
      "type": "function"
    },
    {
      "inputs": [
        {
          "internalType": "address payable",
          "name": "_address",
          "type": "address"
        }
      ],
      "name": "setBridge",
      "outputs": [],
      "stateMutability": "nonpayable",
      "type": "function"
    }
  ],
  "bytecode": "0x608060405234801561001057600080fd5b50600080546001600160a01b031916339081178255604051909182917f8be0079c531659141344cd1fd0a4f28419497f9722a3daafe3b4186f6b6457e0908290a350600580546001600160a01b031990811673cc116e59dd51df5460e8b11ff615e3e706a9202a179091556006805482163317905567016345785d8a000060045560038054909116737ce0e55703f12d03eb53b918ad6b9eb80d188afb17905561115d806100bf6000396000f3fe60806040526004361061014b5760003560e01c806397762aed116100b6578063c13b3c1c1161006f578063c13b3c1c1461042a578063d29b99a11461044a578063dd4670641461046a578063e707543f1461048a578063f2fde38b1461049d578063f89511fd146104bd57600080fd5b806397762aed146103295780639f89c8a21461033e578063a35f84af146103c0578063a3dace5d146103e0578063a69df4b514610400578063b6c523241461041557600080fd5b80635fa2ef10116101085780635fa2ef101461025e57806370b4e39b14610296578063715018a6146102b65780638da5cb5b146102cb5780638dd14802146102e95780638f5532fb1461030957600080fd5b8063285aaa20146101505780632f4b98cc146101795780633008afed14610183578063323a5e0b146101f25780633e915eee146102085780634d2f28ac14610248575b600080fd5b34801561015c57600080fd5b5061016660045481565b6040519081526020015b60405180910390f35b6101816104d3565b005b34801561018f57600080fd5b506101ca61019e366004610fcb565b6000818152600a602052604090208054600182015460039092015492936001600160a01b039091169290565b604080519485526001600160a01b039093166020850152918301526060820152608001610170565b3480156101fe57600080fd5b50610166600b5481565b34801561021457600080fd5b50610238610223366004610fcb565b60086020526000908152604090205460ff1681565b6040519015158152602001610170565b34801561025457600080fd5b5061016660095481565b34801561026a57600080fd5b5060035461027e906001600160a01b031681565b6040516001600160a01b039091168152602001610170565b3480156102a257600080fd5b506101816102b1366004610ffd565b610535565b3480156102c257600080fd5b506101816106f6565b3480156102d757600080fd5b506000546001600160a01b031661027e565b3480156102f557600080fd5b50610181610304366004610f85565b610758565b34801561031557600080fd5b50610181610324366004610f85565b6107a4565b34801561033557600080fd5b5061018161091d565b34801561034a57600080fd5b50610390610359366004610fcb565b600a6020526000908152604090208054600182015460028301546003909301546001600160a01b0390921692909160ff9091169084565b604080516001600160a01b0390951685526020850193909352901515918301919091526060820152608001610170565b3480156103cc57600080fd5b5060065461027e906001600160a01b031681565b3480156103ec57600080fd5b506101816103fb366004610fcb565b610a5e565b34801561040c57600080fd5b50610181610a8d565b34801561042157600080fd5b50600254610166565b34801561043657600080fd5b5060055461027e906001600160a01b031681565b34801561045657600080fd5b50610181610465366004610fcb565b610b93565b34801561047657600080fd5b50610181610485366004610fcb565b610c65565b610181610498366004610fcb565b610cea565b3480156104a957600080fd5b506101816104b8366004610f85565b610ead565b3480156104c957600080fd5b5061016660075481565b6006546001600160a01b031633146105065760405162461bcd60e51b81526004016104fd9061106a565b60405180910390fd5b60405133904780156108fc02916000818181858888f19350505050158015610532573d6000803e3d6000fd5b50565b6003546001600160a01b0316331461057d5760405162461bcd60e51b815260206004820152600b60248201526a427269646765204f6e6c7960a81b60448201526064016104fd565b60008381526008602052604090205460ff16156105d05760405162461bcd60e51b8152602060048201526011602482015270105b1c9958591e48141c9bd8d95cdcd959607a1b60448201526064016104fd565b600980549060006105e0836110c1565b909155505060095460009081526008602052604090819020805460ff19166001179055600554905163a9059cbb60e01b81526001600160a01b0384811660048301526024820184905290911690819063a9059cbb90604401602060405180830381600087803b15801561065257600080fd5b505af1158015610666573d6000803e3d6000fd5b505050506040513d601f19601f8201168201806040525081019061068a9190610fa9565b5081600b600082825461069d91906110aa565b9091555050600954604080519182526020820184905243908201526001600160a01b038416907fe7583954aafa154463951ba2f0b32d4e138fa7587308540dfca58f74ddc9512c9060600160405180910390a250505050565b6000546001600160a01b031633146107205760405162461bcd60e51b81526004016104fd90611035565b600080546040516001600160a01b0390911690600080516020611108833981519152908390a3600080546001600160a01b0319169055565b6006546001600160a01b031633146107825760405162461bcd60e51b81526004016104fd9061106a565b600380546001600160a01b0319166001600160a01b0392909216919091179055565b6006546001600160a01b031633146107ce5760405162461bcd60e51b81526004016104fd9061106a565b6005546001600160a01b03828116911614156108175760405162461bcd60e51b81526020600482015260086024820152674e6f74204d4d414360c01b60448201526064016104fd565b6040516370a0823160e01b815230600482015281906001600160a01b0382169063a9059cbb90339083906370a082319060240160206040518083038186803b15801561086257600080fd5b505afa158015610876573d6000803e3d6000fd5b505050506040513d601f19601f8201168201806040525081019061089a9190610fe4565b6040516001600160e01b031960e085901b1681526001600160a01b0390921660048301526024820152604401602060405180830381600087803b1580156108e057600080fd5b505af11580156108f4573d6000803e3d6000fd5b505050506040513d601f19601f820116820180604052508101906109189190610fa9565b505050565b6006546001600160a01b031633146109475760405162461bcd60e51b81526004016104fd9061106a565b600554600b546040516370a0823160e01b81523060048201526001600160a01b0390921691829163a9059cbb9133919084906370a082319060240160206040518083038186803b15801561099a57600080fd5b505afa1580156109ae573d6000803e3d6000fd5b505050506040513d601f19601f820116820180604052508101906109d29190610fe4565b6109dc91906110aa565b6040516001600160e01b031960e085901b1681526001600160a01b0390921660048301526024820152604401602060405180830381600087803b158015610a2257600080fd5b505af1158015610a36573d6000803e3d6000fd5b505050506040513d601f19601f82011682018060405250810190610a5a9190610fa9565b5050565b6006546001600160a01b03163314610a885760405162461bcd60e51b81526004016104fd9061106a565b600455565b6001546001600160a01b03163314610af35760405162461bcd60e51b815260206004820152602360248201527f596f7520646f6e27742068617665207065726d697373696f6e20746f20756e6c6044820152626f636b60e81b60648201526084016104fd565b6002544211610b445760405162461bcd60e51b815260206004820152601f60248201527f436f6e7472616374206973206c6f636b656420756e74696c203720646179730060448201526064016104fd565b600154600080546040516001600160a01b03938416939091169160008051602061110883398151915291a3600154600080546001600160a01b0319166001600160a01b03909216919091179055565b6006546001600160a01b03163314610bbd5760405162461bcd60e51b81526004016104fd9061106a565b6005546040516323b872dd60e01b8152336004820152306024820152604481018390526001600160a01b039091169081906323b872dd90606401602060405180830381600087803b158015610c1157600080fd5b505af1158015610c25573d6000803e3d6000fd5b505050506040513d601f19601f82011682018060405250810190610c499190610fa9565b5081600b6000828254610c5c9190611092565b90915550505050565b6000546001600160a01b03163314610c8f5760405162461bcd60e51b81526004016104fd90611035565b60008054600180546001600160a01b03199081166001600160a01b03841617909155169055610cbe8142611092565b600255600080546040516001600160a01b0390911690600080516020611108833981519152908390a350565b600454341015610d2f5760405162461bcd60e51b815260206004820152601060248201526f283632b0b9b2903830bc903a37b6361760811b60448201526064016104fd565b60078054906000610d3f836110c1565b90915550506005546040516323b872dd60e01b8152336004820152306024820152604481018390526001600160a01b039091169081906323b872dd90606401602060405180830381600087803b158015610d9857600080fd5b505af1158015610dac573d6000803e3d6000fd5b505050506040513d601f19601f82011682018060405250810190610dd09190610fa9565b506003546040516001600160a01b03909116903480156108fc02916000818181858888f19350505050158015610e0a573d6000803e3d6000fd5b5081600b6000828254610e1d9190611092565b9091555050600780546000908152600a6020908152604080832080546001600160a01b0319163390811790915584548452818420600101879055845484529281902043600390910181905593548151908152918201869052810192909252907fdf029b44b43722d7ed94ab2830792096be9b3bd42bfa027dbeb590adfc3d09889060600160405180910390a25050565b6000546001600160a01b03163314610ed75760405162461bcd60e51b81526004016104fd90611035565b6001600160a01b038116610f3c5760405162461bcd60e51b815260206004820152602660248201527f4f776e61626c653a206e6577206f776e657220697320746865207a65726f206160448201526564647265737360d01b60648201526084016104fd565b600080546040516001600160a01b038085169392169160008051602061110883398151915291a3600080546001600160a01b0319166001600160a01b0392909216919091179055565b600060208284031215610f9757600080fd5b8135610fa2816110f2565b9392505050565b600060208284031215610fbb57600080fd5b81518015158114610fa257600080fd5b600060208284031215610fdd57600080fd5b5035919050565b600060208284031215610ff657600080fd5b5051919050565b60008060006060848603121561101257600080fd5b833592506020840135611024816110f2565b929592945050506040919091013590565b6020808252818101527f4f776e61626c653a2063616c6c6572206973206e6f7420746865206f776e6572604082015260600190565b6020808252600e908201526d456d657267656e6379204f6e6c7960901b604082015260600190565b600082198211156110a5576110a56110dc565b500190565b6000828210156110bc576110bc6110dc565b500390565b60006000198214156110d5576110d56110dc565b5060010190565b634e487b7160e01b600052601160045260246000fd5b6001600160a01b038116811461053257600080fdfe8be0079c531659141344cd1fd0a4f28419497f9722a3daafe3b4186f6b6457e0a26469706673582212202a77ebc5c9230207b7ab6c117100df2958132622c6d4fd1ba03f243c279922b264736f6c63430008070033",
  "immutableReferences": {},
  "source": "/**\n *Submitted for verification at BscScan.com on 2021-08-30\n*/\n\n/**\n *Submitted for verification at BscScan.com on 2021-03-01\n*/\n\n/**\n *Submitted for verification at BscScan.com on 2021-03-01\n*/\n\n/**\n  \n   #BEE\n   \n   #LIQ+#RFI+#SHIB+#DOGE = #BEE\n\n   #SAFEMOON features:\n   3% fee auto add to the liquidity pool to locked forever when selling\n   2% fee auto distribute to all holders\n   I created a black hole so #Bee token will deflate itself in supply with every transaction\n   50% Supply is burned at start.\n   \n\n */\n\npragma solidity ^0.8.0;\n// SPDX-License-Identifier: Unlicensed\ninterface IERC20 {\n\n    function totalSupply() external view returns (uint256);\n\n    /**\n     * @dev Returns the amount of tokens owned by `account`.\n     */\n    function balanceOf(address account) external view returns (uint256);\n\n    /**\n     * @dev Moves `amount` tokens from the caller's account to `recipient`.\n     *\n     * Returns a boolean value indicating whether the operation succeeded.\n     *\n     * Emits a {Transfer} event.\n     */\n    function transfer(address recipient, uint256 amount) external returns (bool);\n\n    /**\n     * @dev Returns the remaining number of tokens that `spender` will be\n     * allowed to spend on behalf of `owner` through {transferFrom}. This is\n     * zero by default.\n     *\n     * This value changes when {approve} or {transferFrom} are called.\n     */\n    function allowance(address owner, address spender) external view returns (uint256);\n\n    /**\n     * @dev Sets `amount` as the allowance of `spender` over the caller's tokens.\n     *\n     * Returns a boolean value indicating whether the operation succeeded.\n     *\n     * IMPORTANT: Beware that changing an allowance with this method brings the risk\n     * that someone may use both the old and the new allowance by unfortunate\n     * transaction ordering. One possible solution to mitigate this race\n     * condition is to first reduce the spender's allowance to 0 and set the\n     * desired value afterwards:\n     * https://github.com/ethereum/EIPs/issues/20#issuecomment-263524729\n     *\n     * Emits an {Approval} event.\n     */\n    function approve(address spender, uint256 amount) external returns (bool);\n\n    /**\n     * @dev Moves `amount` tokens from `sender` to `recipient` using the\n     * allowance mechanism. `amount` is then deducted from the caller's\n     * allowance.\n     *\n     * Returns a boolean value indicating whether the operation succeeded.\n     *\n     * Emits a {Transfer} event.\n     */\n    function transferFrom(address sender, address recipient, uint256 amount) external returns (bool);\n\n    /**\n     * @dev Emitted when `value` tokens are moved from one account (`from`) to\n     * another (`to`).\n     *\n     * Note that `value` may be zero.\n     */\n    event Transfer(address indexed from, address indexed to, uint256 value);\n\n    /**\n     * @dev Emitted when the allowance of a `spender` for an `owner` is set by\n     * a call to {approve}. `value` is the new allowance.\n     */\n    event Approval(address indexed owner, address indexed spender, uint256 value);\n}\n\n\n\n/**\n * @dev Wrappers over Solidity's arithmetic operations with added overflow\n * checks.\n *\n * Arithmetic operations in Solidity wrap on overflow. This can easily result\n * in bugs, because programmers usually assume that an overflow raises an\n * error, which is the standard behavior in high level programming languages.\n * `SafeMath` restores this intuition by reverting the transaction when an\n * operation overflows.\n *\n * Using this library instead of the unchecked operations eliminates an entire\n * class of bugs, so it's recommended to use it always.\n */\n \nlibrary SafeMath {\n    /**\n     * @dev Returns the addition of two unsigned integers, reverting on\n     * overflow.\n     *\n     * Counterpart to Solidity's `+` operator.\n     *\n     * Requirements:\n     *\n     * - Addition cannot overflow.\n     */\n    function add(uint256 a, uint256 b) internal pure returns (uint256) {\n        uint256 c = a + b;\n        require(c >= a, \"SafeMath: addition overflow\");\n\n        return c;\n    }\n\n    /**\n     * @dev Returns the subtraction of two unsigned integers, reverting on\n     * overflow (when the result is negative).\n     *\n     * Counterpart to Solidity's `-` operator.\n     *\n     * Requirements:\n     *\n     * - Subtraction cannot overflow.\n     */\n    function sub(uint256 a, uint256 b) internal pure returns (uint256) {\n        return sub(a, b, \"SafeMath: subtraction overflow\");\n    }\n\n    /**\n     * @dev Returns the subtraction of two unsigned integers, reverting with custom message on\n     * overflow (when the result is negative).\n     *\n     * Counterpart to Solidity's `-` operator.\n     *\n     * Requirements:\n     *\n     * - Subtraction cannot overflow.\n     */\n    function sub(uint256 a, uint256 b, string memory errorMessage) internal pure returns (uint256) {\n        require(b <= a, errorMessage);\n        uint256 c = a - b;\n\n        return c;\n    }\n\n    /**\n     * @dev Returns the multiplication of two unsigned integers, reverting on\n     * overflow.\n     *\n     * Counterpart to Solidity's `*` operator.\n     *\n     * Requirements:\n     *\n     * - Multiplication cannot overflow.\n     */\n    function mul(uint256 a, uint256 b) internal pure returns (uint256) {\n        // Gas optimization: this is cheaper than requiring 'a' not being zero, but the\n        // benefit is lost if 'b' is also tested.\n        // See: https://github.com/OpenZeppelin/openzeppelin-contracts/pull/522\n        if (a == 0) {\n            return 0;\n        }\n\n        uint256 c = a * b;\n        require(c / a == b, \"SafeMath: multiplication overflow\");\n\n        return c;\n    }\n\n    /**\n     * @dev Returns the integer division of two unsigned integers. Reverts on\n     * division by zero. The result is rounded towards zero.\n     *\n     * Counterpart to Solidity's `/` operator. Note: this function uses a\n     * `revert` opcode (which leaves remaining gas untouched) while Solidity\n     * uses an invalid opcode to revert (consuming all remaining gas).\n     *\n     * Requirements:\n     *\n     * - The divisor cannot be zero.\n     */\n    function div(uint256 a, uint256 b) internal pure returns (uint256) {\n        return div(a, b, \"SafeMath: division by zero\");\n    }\n\n    /**\n     * @dev Returns the integer division of two unsigned integers. Reverts with custom message on\n     * division by zero. The result is rounded towards zero.\n     *\n     * Counterpart to Solidity's `/` operator. Note: this function uses a\n     * `revert` opcode (which leaves remaining gas untouched) while Solidity\n     * uses an invalid opcode to revert (consuming all remaining gas).\n     *\n     * Requirements:\n     *\n     * - The divisor cannot be zero.\n     */\n    function div(uint256 a, uint256 b, string memory errorMessage) internal pure returns (uint256) {\n        require(b > 0, errorMessage);\n        uint256 c = a / b;\n        // assert(a == b * c + a % b); // There is no case in which this doesn't hold\n\n        return c;\n    }\n\n    /**\n     * @dev Returns the remainder of dividing two unsigned integers. (unsigned integer modulo),\n     * Reverts when dividing by zero.\n     *\n     * Counterpart to Solidity's `%` operator. This function uses a `revert`\n     * opcode (which leaves remaining gas untouched) while Solidity uses an\n     * invalid opcode to revert (consuming all remaining gas).\n     *\n     * Requirements:\n     *\n     * - The divisor cannot be zero.\n     */\n    function mod(uint256 a, uint256 b) internal pure returns (uint256) {\n        return mod(a, b, \"SafeMath: modulo by zero\");\n    }\n\n    /**\n     * @dev Returns the remainder of dividing two unsigned integers. (unsigned integer modulo),\n     * Reverts with custom message when dividing by zero.\n     *\n     * Counterpart to Solidity's `%` operator. This function uses a `revert`\n     * opcode (which leaves remaining gas untouched) while Solidity uses an\n     * invalid opcode to revert (consuming all remaining gas).\n     *\n     * Requirements:\n     *\n     * - The divisor cannot be zero.\n     */\n    function mod(uint256 a, uint256 b, string memory errorMessage) internal pure returns (uint256) {\n        require(b != 0, errorMessage);\n        return a % b;\n    }\n}\n\nabstract contract Context {\n    function _msgSender() internal view virtual returns (address payable) {\n        return payable(msg.sender);\n    }\n\n    function _msgData() internal view virtual returns (bytes memory) {\n        this; // silence state mutability warning without generating bytecode - see https://github.com/ethereum/solidity/issues/2691\n        return msg.data;\n    }\n}\n\n\n/**\n * @dev Collection of functions related to the address type\n */\nlibrary Address {\n    /**\n     * @dev Returns true if `account` is a contract.\n     *\n     * [IMPORTANT]\n     * ====\n     * It is unsafe to assume that an address for which this function returns\n     * false is an externally-owned account (EOA) and not a contract.\n     *\n     * Among others, `isContract` will return false for the following\n     * types of addresses:\n     *\n     *  - an externally-owned account\n     *  - a contract in construction\n     *  - an address where a contract will be created\n     *  - an address where a contract lived, but was destroyed\n     * ====\n     */\n    function isContract(address account) internal view returns (bool) {\n        // According to EIP-1052, 0x0 is the value returned for not-yet created accounts\n        // and 0xc5d2460186f7233c927e7db2dcc703c0e500b653ca82273b7bfad8045d85a470 is returned\n        // for accounts without code, i.e. `keccak256('')`\n        bytes32 codehash;\n        bytes32 accountHash = 0xc5d2460186f7233c927e7db2dcc703c0e500b653ca82273b7bfad8045d85a470;\n        // solhint-disable-next-line no-inline-assembly\n        assembly { codehash := extcodehash(account) }\n        return (codehash != accountHash && codehash != 0x0);\n    }\n\n    /**\n     * @dev Replacement for Solidity's `transfer`: sends `amount` wei to\n     * `recipient`, forwarding all available gas and reverting on errors.\n     *\n     * https://eips.ethereum.org/EIPS/eip-1884[EIP1884] increases the gas cost\n     * of certain opcodes, possibly making contracts go over the 2300 gas limit\n     * imposed by `transfer`, making them unable to receive funds via\n     * `transfer`. {sendValue} removes this limitation.\n     *\n     * https://diligence.consensys.net/posts/2019/09/stop-using-soliditys-transfer-now/[Learn more].\n     *\n     * IMPORTANT: because control is transferred to `recipient`, care must be\n     * taken to not create reentrancy vulnerabilities. Consider using\n     * {ReentrancyGuard} or the\n     * https://solidity.readthedocs.io/en/v0.5.11/security-considerations.html#use-the-checks-effects-interactions-pattern[checks-effects-interactions pattern].\n     */\n    function sendValue(address payable recipient, uint256 amount) internal {\n        require(address(this).balance >= amount, \"Address: insufficient balance\");\n\n        // solhint-disable-next-line avoid-low-level-calls, avoid-call-value\n        (bool success, ) = recipient.call{ value: amount }(\"\");\n        require(success, \"Address: unable to send value, recipient may have reverted\");\n    }\n\n    /**\n     * @dev Performs a Solidity function call using a low level `call`. A\n     * plain`call` is an unsafe replacement for a function call: use this\n     * function instead.\n     *\n     * If `target` reverts with a revert reason, it is bubbled up by this\n     * function (like regular Solidity function calls).\n     *\n     * Returns the raw returned data. To convert to the expected return value,\n     * use https://solidity.readthedocs.io/en/latest/units-and-global-variables.html?highlight=abi.decode#abi-encoding-and-decoding-functions[`abi.decode`].\n     *\n     * Requirements:\n     *\n     * - `target` must be a contract.\n     * - calling `target` with `data` must not revert.\n     *\n     * _Available since v3.1._\n     */\n    function functionCall(address target, bytes memory data) internal returns (bytes memory) {\n      return functionCall(target, data, \"Address: low-level call failed\");\n    }\n\n    /**\n     * @dev Same as {xref-Address-functionCall-address-bytes-}[`functionCall`], but with\n     * `errorMessage` as a fallback revert reason when `target` reverts.\n     *\n     * _Available since v3.1._\n     */\n    function functionCall(address target, bytes memory data, string memory errorMessage) internal returns (bytes memory) {\n        return _functionCallWithValue(target, data, 0, errorMessage);\n    }\n\n    /**\n     * @dev Same as {xref-Address-functionCall-address-bytes-}[`functionCall`],\n     * but also transferring `value` wei to `target`.\n     *\n     * Requirements:\n     *\n     * - the calling contract must have an ETH balance of at least `value`.\n     * - the called Solidity function must be `payable`.\n     *\n     * _Available since v3.1._\n     */\n    function functionCallWithValue(address target, bytes memory data, uint256 value) internal returns (bytes memory) {\n        return functionCallWithValue(target, data, value, \"Address: low-level call with value failed\");\n    }\n\n    /**\n     * @dev Same as {xref-Address-functionCallWithValue-address-bytes-uint256-}[`functionCallWithValue`], but\n     * with `errorMessage` as a fallback revert reason when `target` reverts.\n     *\n     * _Available since v3.1._\n     */\n    function functionCallWithValue(address target, bytes memory data, uint256 value, string memory errorMessage) internal returns (bytes memory) {\n        require(address(this).balance >= value, \"Address: insufficient balance for call\");\n        return _functionCallWithValue(target, data, value, errorMessage);\n    }\n\n    function _functionCallWithValue(address target, bytes memory data, uint256 weiValue, string memory errorMessage) private returns (bytes memory) {\n        require(isContract(target), \"Address: call to non-contract\");\n\n        // solhint-disable-next-line avoid-low-level-calls\n        (bool success, bytes memory returndata) = target.call{ value: weiValue }(data);\n        if (success) {\n            return returndata;\n        } else {\n            // Look for revert reason and bubble it up if present\n            if (returndata.length > 0) {\n                // The easiest way to bubble the revert reason is using memory via assembly\n\n                // solhint-disable-next-line no-inline-assembly\n                assembly {\n                    let returndata_size := mload(returndata)\n                    revert(add(32, returndata), returndata_size)\n                }\n            } else {\n                revert(errorMessage);\n            }\n        }\n    }\n}\n\n/**\n * @dev Contract module which provides a basic access control mechanism, where\n * there is an account (an owner) that can be granted exclusive access to\n * specific functions.\n *\n * By default, the owner account will be the one that deploys the contract. This\n * can later be changed with {transferOwnership}.\n *\n * This module is used through inheritance. It will make available the modifier\n * `onlyOwner`, which can be applied to your functions to restrict their use to\n * the owner.\n */\ncontract Ownable is Context {\n    address private _owner;\n    address private _previousOwner;\n    uint256 private _lockTime;\n\n    event OwnershipTransferred(address indexed previousOwner, address indexed newOwner);\n\n    /**\n     * @dev Initializes the contract setting the deployer as the initial owner.\n     */\n    constructor ()  {\n        address msgSender = _msgSender();\n        _owner = msgSender;\n        emit OwnershipTransferred(address(0), msgSender);\n    }\n\n    /**\n     * @dev Returns the address of the current owner.\n     */\n    function owner() public view returns (address) {\n        return _owner;\n    }\n\n    /**\n     * @dev Throws if called by any account other than the owner.\n     */\n    modifier onlyOwner() {\n        require(_owner == _msgSender(), \"Ownable: caller is not the owner\");\n        _;\n    }\n\n     /**\n     * @dev Leaves the contract without owner. It will not be possible to call\n     * `onlyOwner` functions anymore. Can only be called by the current owner.\n     *\n     * NOTE: Renouncing ownership will leave the contract without an owner,\n     * thereby removing any functionality that is only available to the owner.\n     */\n    function renounceOwnership() public virtual onlyOwner {\n        emit OwnershipTransferred(_owner, address(0));\n        _owner = address(0);\n    }\n\n    /**\n     * @dev Transfers ownership of the contract to a new account (`newOwner`).\n     * Can only be called by the current owner.\n     */\n    function transferOwnership(address newOwner) public virtual onlyOwner {\n        require(newOwner != address(0), \"Ownable: new owner is the zero address\");\n        emit OwnershipTransferred(_owner, newOwner);\n        _owner = newOwner;\n    }\n\n    function geUnlockTime() public view returns (uint256) {\n        return _lockTime;\n    }\n\n    //Locks the contract for owner for the amount of time provided\n    function lock(uint256 time) public virtual onlyOwner {\n        _previousOwner = _owner;\n        _owner = address(0);\n        _lockTime = block.timestamp + time;\n        emit OwnershipTransferred(_owner, address(0));\n    }\n    \n    //Unlocks the contract for owner when _lockTime is exceeds\n    function unlock() public virtual {\n        require(_previousOwner == msg.sender, \"You don't have permission to unlock\");\n        require( block.timestamp > _lockTime , \"Contract is locked until 7 days\");\n        emit OwnershipTransferred(_owner, _previousOwner);\n        _owner = _previousOwner;\n    }\n}\n\ncontract MMACBridge is Ownable{\n \n   address payable public Bridge; \n   uint256 public toll;\n   address public MMACADDRESS;  \n   address public EmergencyAddress;\n   uint256 public BSCtoPolyBridgeRequestCount;\n   \n   mapping ( uint256 => bool ) public polyBridgeRequests;\n   uint256 public PolytoBSCBridgeRequestCount;\n   mapping ( uint256 => BridgeData ) public bridgeRequests;\n   \n   uint256 public deposits;\n   \n   event BridgedBSCtoMatic ( uint256 _request, address indexed _user, uint256 _amount, uint256 _blocknumber );\n   event BridgedMatictoBSC ( uint256 _request, address indexed _user, uint256 _amount, uint256 _blocknumber );\n   \n    struct BridgeData {\n       \n       address user;\n       uint256 balance;\n       bool status;\n       uint256 blockNumber;\n    }\n   \n    constructor () {\n       MMACADDRESS = 0xcc116e59Dd51DF5460E8B11Ff615E3E706a9202A;\n       //MMACADDRESS = 0xd3CfFd799DbD9625cF4e4A252F89eF50C3D5008E;\n       EmergencyAddress = msg.sender;\n       toll = 100000000000000000;\n       Bridge = payable(0x7cE0E55703F12D03Eb53B918aD6B9EB80d188afB);\n    }\n    \n    function depositMMAC ( uint256 _mmac ) public onlyEmergency {\n        IERC20 _token = IERC20 ( MMACADDRESS ) ;\n       _token.transferFrom ( msg.sender, address(this) , _mmac);\n       deposits += _mmac;\n    }\n    \n    function setToll (uint256 _toll ) public onlyEmergency {\n        toll = _toll;\n    }\n    \n    function BridgeMMAC ( uint256 _mmac ) public  payable  {\n       require ( msg.value >= toll, \"Please pay toll.\" );\n       \n       BSCtoPolyBridgeRequestCount++;\n       IERC20 _token = IERC20 ( MMACADDRESS ) ;\n       _token.transferFrom ( msg.sender, address(this) , _mmac);\n       Bridge.transfer(msg.value);\n       deposits += _mmac;\n       bridgeRequests[BSCtoPolyBridgeRequestCount].user =  msg.sender;\n       bridgeRequests[BSCtoPolyBridgeRequestCount].balance = _mmac;\n       bridgeRequests[BSCtoPolyBridgeRequestCount].blockNumber = block.number;\n       \n       emit BridgedBSCtoMatic ( BSCtoPolyBridgeRequestCount, msg.sender, _mmac, block.number );\n       \n    }\n    \n    function getBridgeRequest( uint256 _bridgeRequest ) public view  returns(uint256, address, uint256, uint256){\n        return ( _bridgeRequest, bridgeRequests[_bridgeRequest].user, bridgeRequests[_bridgeRequest].balance, bridgeRequests[_bridgeRequest].blockNumber );\n    }\n    \n    function transferBridgedMMAC (  uint256 _request, address _address, uint256 _amount ) public onlyBridge {\n        require (!polyBridgeRequests[_request], \"Already Processed\" );\n        PolytoBSCBridgeRequestCount++;\n        polyBridgeRequests[ PolytoBSCBridgeRequestCount ] = true;\n        IERC20 _token = IERC20 ( MMACADDRESS ) ;\n        _token.transfer ( _address , _amount );\n        deposits -= _amount;\n        \n        emit BridgedMatictoBSC ( PolytoBSCBridgeRequestCount, _address, _amount, block.number );\n        \n    }\n    \n    function sweepReflect() public onlyEmergency {\n       IERC20 _token = IERC20 ( MMACADDRESS ) ;\n       _token.transfer ( msg.sender , _token.balanceOf(address(this)) - deposits  );\n    }\n    \n    function sweepAnyToken(address _address) public onlyEmergency {\n       require ( _address != MMACADDRESS , \"Not MMAC\");\n       IERC20 _token = IERC20 ( _address ) ;\n       _token.transfer ( msg.sender , _token.balanceOf(address(this)) );\n    }\n    \n    function sweepBNB () public payable onlyEmergency {\n        payable(msg.sender).transfer(address(this).balance);\n        \n    }\n    \n    function setBridge ( address payable _address ) public onlyEmergency {\n        Bridge = _address;\n    }\n    \n    modifier onlyBridge() {\n        require( msg.sender == Bridge, \"Bridge Only\");\n        _;\n    }\n    \n    modifier onlyEmergency() {\n        require( msg.sender == EmergencyAddress, \"Emergency Only\");\n        _;\n    }\n    \n}",
  "sourcePath": "/Volumes/WORK/warbot/warbotui/contracts/MMACBridge.sol",
  "compiler": {
    "name": "solc",
    "version": "0.8.7+commit.e28d00a7.Emscripten.clang"
  },
  "schemaVersion": "3.4.3",
  "updatedAt": "2021-10-05T15:52:50.723Z",
  "devdoc": {
    "kind": "dev",
    "methods": {
      "owner()": {
        "details": "Returns the address of the current owner."
      },
      "renounceOwnership()": {
        "details": "Leaves the contract without owner. It will not be possible to call `onlyOwner` functions anymore. Can only be called by the current owner. NOTE: Renouncing ownership will leave the contract without an owner, thereby removing any functionality that is only available to the owner."
      },
      "transferOwnership(address)": {
        "details": "Transfers ownership of the contract to a new account (`newOwner`). Can only be called by the current owner."
      }
    },
    "version": 1
  },
  "userdoc": {
    "kind": "user",
    "methods": {},
    "version": 1
  }
}