{
  "contractName": "NanoStaking",
  "abi": [
    {
      "inputs": [],
      "stateMutability": "nonpayable",
      "type": "constructor"
    },
    {
      "anonymous": false,
      "inputs": [
        {
          "indexed": true,
          "internalType": "address",
          "name": "sender",
          "type": "address"
        },
        {
          "indexed": true,
          "internalType": "uint256",
          "name": "id",
          "type": "uint256"
        },
        {
          "indexed": false,
          "internalType": "uint256",
          "name": "amount",
          "type": "uint256"
        },
        {
          "indexed": false,
          "internalType": "uint256",
          "name": "balance",
          "type": "uint256"
        },
        {
          "indexed": false,
          "internalType": "uint256",
          "name": "accruedEmission",
          "type": "uint256"
        },
        {
          "indexed": false,
          "internalType": "uint256",
          "name": "prevDepositDuration",
          "type": "uint256"
        }
      ],
      "name": "Deposited",
      "type": "event"
    },
    {
      "anonymous": false,
      "inputs": [
        {
          "indexed": false,
          "internalType": "uint256",
          "name": "value",
          "type": "uint256"
        },
        {
          "indexed": false,
          "internalType": "address",
          "name": "sender",
          "type": "address"
        }
      ],
      "name": "FeeSet",
      "type": "event"
    },
    {
      "anonymous": false,
      "inputs": [
        {
          "indexed": false,
          "internalType": "address",
          "name": "value",
          "type": "address"
        },
        {
          "indexed": false,
          "internalType": "address",
          "name": "sender",
          "type": "address"
        }
      ],
      "name": "LiquidityProvidersRewardAddressSet",
      "type": "event"
    },
    {
      "anonymous": false,
      "inputs": [
        {
          "indexed": true,
          "internalType": "address",
          "name": "previousOwner",
          "type": "address"
        },
        {
          "indexed": true,
          "internalType": "address",
          "name": "newOwner",
          "type": "address"
        }
      ],
      "name": "OwnershipTransferred",
      "type": "event"
    },
    {
      "anonymous": false,
      "inputs": [
        {
          "indexed": false,
          "internalType": "uint256",
          "name": "a",
          "type": "uint256"
        },
        {
          "indexed": false,
          "internalType": "int256",
          "name": "b",
          "type": "int256"
        },
        {
          "indexed": false,
          "internalType": "uint256",
          "name": "c",
          "type": "uint256"
        },
        {
          "indexed": false,
          "internalType": "address",
          "name": "sender",
          "type": "address"
        }
      ],
      "name": "SigmoidParametersSet",
      "type": "event"
    },
    {
      "anonymous": false,
      "inputs": [
        {
          "indexed": false,
          "internalType": "uint256",
          "name": "value",
          "type": "uint256"
        },
        {
          "indexed": false,
          "internalType": "address",
          "name": "sender",
          "type": "address"
        }
      ],
      "name": "TotalSupplyFactorSet",
      "type": "event"
    },
    {
      "anonymous": false,
      "inputs": [
        {
          "indexed": false,
          "internalType": "uint256",
          "name": "value",
          "type": "uint256"
        },
        {
          "indexed": false,
          "internalType": "address",
          "name": "sender",
          "type": "address"
        }
      ],
      "name": "WithdrawalLockDurationSet",
      "type": "event"
    },
    {
      "anonymous": false,
      "inputs": [
        {
          "indexed": true,
          "internalType": "address",
          "name": "sender",
          "type": "address"
        },
        {
          "indexed": true,
          "internalType": "uint256",
          "name": "id",
          "type": "uint256"
        }
      ],
      "name": "WithdrawalRequested",
      "type": "event"
    },
    {
      "anonymous": false,
      "inputs": [
        {
          "indexed": false,
          "internalType": "uint256",
          "name": "value",
          "type": "uint256"
        },
        {
          "indexed": false,
          "internalType": "address",
          "name": "sender",
          "type": "address"
        }
      ],
      "name": "WithdrawalUnlockDurationSet",
      "type": "event"
    },
    {
      "anonymous": false,
      "inputs": [
        {
          "indexed": true,
          "internalType": "address",
          "name": "sender",
          "type": "address"
        },
        {
          "indexed": true,
          "internalType": "uint256",
          "name": "id",
          "type": "uint256"
        },
        {
          "indexed": false,
          "internalType": "uint256",
          "name": "amount",
          "type": "uint256"
        },
        {
          "indexed": false,
          "internalType": "uint256",
          "name": "fee",
          "type": "uint256"
        },
        {
          "indexed": false,
          "internalType": "uint256",
          "name": "balance",
          "type": "uint256"
        },
        {
          "indexed": false,
          "internalType": "uint256",
          "name": "accruedEmission",
          "type": "uint256"
        },
        {
          "indexed": false,
          "internalType": "uint256",
          "name": "lastDepositDuration",
          "type": "uint256"
        }
      ],
      "name": "Withdrawn",
      "type": "event"
    },
    {
      "inputs": [],
      "name": "MAX_EMISSION_RATE",
      "outputs": [
        {
          "internalType": "uint256",
          "name": "",
          "type": "uint256"
        }
      ],
      "stateMutability": "view",
      "type": "function"
    },
    {
      "inputs": [],
      "name": "PARAM_UPDATE_DELAY",
      "outputs": [
        {
          "internalType": "uint256",
          "name": "",
          "type": "uint256"
        }
      ],
      "stateMutability": "view",
      "type": "function"
    },
    {
      "inputs": [
        {
          "internalType": "address",
          "name": "",
          "type": "address"
        },
        {
          "internalType": "uint256",
          "name": "",
          "type": "uint256"
        }
      ],
      "name": "balances",
      "outputs": [
        {
          "internalType": "uint256",
          "name": "",
          "type": "uint256"
        }
      ],
      "stateMutability": "view",
      "type": "function"
    },
    {
      "inputs": [
        {
          "internalType": "address",
          "name": "",
          "type": "address"
        },
        {
          "internalType": "uint256",
          "name": "",
          "type": "uint256"
        }
      ],
      "name": "depositDates",
      "outputs": [
        {
          "internalType": "uint256",
          "name": "",
          "type": "uint256"
        }
      ],
      "stateMutability": "view",
      "type": "function"
    },
    {
      "inputs": [],
      "name": "feeParam",
      "outputs": [
        {
          "internalType": "uint256",
          "name": "oldValue",
          "type": "uint256"
        },
        {
          "internalType": "uint256",
          "name": "newValue",
          "type": "uint256"
        },
        {
          "internalType": "uint256",
          "name": "timestamp",
          "type": "uint256"
        }
      ],
      "stateMutability": "view",
      "type": "function"
    },
    {
      "inputs": [
        {
          "internalType": "address",
          "name": "",
          "type": "address"
        }
      ],
      "name": "lastDepositIds",
      "outputs": [
        {
          "internalType": "uint256",
          "name": "",
          "type": "uint256"
        }
      ],
      "stateMutability": "view",
      "type": "function"
    },
    {
      "inputs": [],
      "name": "liquidityProvidersRewardAddressParam",
      "outputs": [
        {
          "internalType": "address",
          "name": "oldValue",
          "type": "address"
        },
        {
          "internalType": "address",
          "name": "newValue",
          "type": "address"
        },
        {
          "internalType": "uint256",
          "name": "timestamp",
          "type": "uint256"
        }
      ],
      "stateMutability": "view",
      "type": "function"
    },
    {
      "inputs": [],
      "name": "owner",
      "outputs": [
        {
          "internalType": "address",
          "name": "",
          "type": "address"
        }
      ],
      "stateMutability": "view",
      "type": "function"
    },
    {
      "inputs": [],
      "name": "renounceOwnership",
      "outputs": [],
      "stateMutability": "nonpayable",
      "type": "function"
    },
    {
      "inputs": [],
      "name": "startingEmissionTime",
      "outputs": [
        {
          "internalType": "uint256",
          "name": "",
          "type": "uint256"
        }
      ],
      "stateMutability": "view",
      "type": "function"
    },
    {
      "inputs": [],
      "name": "token",
      "outputs": [
        {
          "internalType": "contract IERC20Mintable",
          "name": "",
          "type": "address"
        }
      ],
      "stateMutability": "view",
      "type": "function"
    },
    {
      "inputs": [],
      "name": "tokensPerSec",
      "outputs": [
        {
          "internalType": "uint256",
          "name": "",
          "type": "uint256"
        }
      ],
      "stateMutability": "view",
      "type": "function"
    },
    {
      "inputs": [],
      "name": "totalStaked",
      "outputs": [
        {
          "internalType": "uint256",
          "name": "",
          "type": "uint256"
        }
      ],
      "stateMutability": "view",
      "type": "function"
    },
    {
      "inputs": [],
      "name": "totalSupplyFactorParam",
      "outputs": [
        {
          "internalType": "uint256",
          "name": "oldValue",
          "type": "uint256"
        },
        {
          "internalType": "uint256",
          "name": "newValue",
          "type": "uint256"
        },
        {
          "internalType": "uint256",
          "name": "timestamp",
          "type": "uint256"
        }
      ],
      "stateMutability": "view",
      "type": "function"
    },
    {
      "inputs": [
        {
          "internalType": "address",
          "name": "newOwner",
          "type": "address"
        }
      ],
      "name": "transferOwnership",
      "outputs": [],
      "stateMutability": "nonpayable",
      "type": "function"
    },
    {
      "inputs": [],
      "name": "withdrawalLockDurationParam",
      "outputs": [
        {
          "internalType": "uint256",
          "name": "oldValue",
          "type": "uint256"
        },
        {
          "internalType": "uint256",
          "name": "newValue",
          "type": "uint256"
        },
        {
          "internalType": "uint256",
          "name": "timestamp",
          "type": "uint256"
        }
      ],
      "stateMutability": "view",
      "type": "function"
    },
    {
      "inputs": [
        {
          "internalType": "address",
          "name": "",
          "type": "address"
        },
        {
          "internalType": "uint256",
          "name": "",
          "type": "uint256"
        }
      ],
      "name": "withdrawalRequestsDates",
      "outputs": [
        {
          "internalType": "uint256",
          "name": "",
          "type": "uint256"
        }
      ],
      "stateMutability": "view",
      "type": "function"
    },
    {
      "inputs": [],
      "name": "withdrawalUnlockDurationParam",
      "outputs": [
        {
          "internalType": "uint256",
          "name": "oldValue",
          "type": "uint256"
        },
        {
          "internalType": "uint256",
          "name": "newValue",
          "type": "uint256"
        },
        {
          "internalType": "uint256",
          "name": "timestamp",
          "type": "uint256"
        }
      ],
      "stateMutability": "view",
      "type": "function"
    },
    {
      "inputs": [
        {
          "internalType": "uint256",
          "name": "_amount",
          "type": "uint256"
        }
      ],
      "name": "deposit",
      "outputs": [],
      "stateMutability": "nonpayable",
      "type": "function"
    },
    {
      "inputs": [
        {
          "internalType": "uint256",
          "name": "_depositId",
          "type": "uint256"
        },
        {
          "internalType": "uint256",
          "name": "_amount",
          "type": "uint256"
        }
      ],
      "name": "deposit",
      "outputs": [],
      "stateMutability": "nonpayable",
      "type": "function"
    },
    {
      "inputs": [
        {
          "internalType": "address",
          "name": "_sender",
          "type": "address"
        },
        {
          "internalType": "uint256",
          "name": "_amount",
          "type": "uint256"
        },
        {
          "internalType": "bytes",
          "name": "",
          "type": "bytes"
        }
      ],
      "name": "onTokenTransfer",
      "outputs": [
        {
          "internalType": "bool",
          "name": "",
          "type": "bool"
        }
      ],
      "stateMutability": "nonpayable",
      "type": "function"
    },
    {
      "inputs": [
        {
          "internalType": "uint256",
          "name": "_depositId",
          "type": "uint256"
        },
        {
          "internalType": "uint256",
          "name": "_amount",
          "type": "uint256"
        }
      ],
      "name": "makeForcedWithdrawal",
      "outputs": [],
      "stateMutability": "nonpayable",
      "type": "function"
    },
    {
      "inputs": [
        {
          "internalType": "uint256",
          "name": "_depositId",
          "type": "uint256"
        }
      ],
      "name": "requestWithdrawal",
      "outputs": [],
      "stateMutability": "nonpayable",
      "type": "function"
    },
    {
      "inputs": [
        {
          "internalType": "uint256",
          "name": "_depositId",
          "type": "uint256"
        },
        {
          "internalType": "uint256",
          "name": "_amount",
          "type": "uint256"
        }
      ],
      "name": "makeRequestedWithdrawal",
      "outputs": [],
      "stateMutability": "nonpayable",
      "type": "function"
    },
    {
      "inputs": [
        {
          "internalType": "uint256",
          "name": "_value",
          "type": "uint256"
        }
      ],
      "name": "setFee",
      "outputs": [],
      "stateMutability": "nonpayable",
      "type": "function"
    },
    {
      "inputs": [
        {
          "internalType": "uint256",
          "name": "_value",
          "type": "uint256"
        }
      ],
      "name": "setWithdrawalLockDuration",
      "outputs": [],
      "stateMutability": "nonpayable",
      "type": "function"
    },
    {
      "inputs": [
        {
          "internalType": "uint256",
          "name": "_value",
          "type": "uint256"
        }
      ],
      "name": "setWithdrawalUnlockDuration",
      "outputs": [],
      "stateMutability": "nonpayable",
      "type": "function"
    },
    {
      "inputs": [
        {
          "internalType": "uint256",
          "name": "_value",
          "type": "uint256"
        }
      ],
      "name": "setTotalSupplyFactor",
      "outputs": [],
      "stateMutability": "nonpayable",
      "type": "function"
    },
    {
      "inputs": [
        {
          "internalType": "uint256",
          "name": "_a",
          "type": "uint256"
        },
        {
          "internalType": "int256",
          "name": "_b",
          "type": "int256"
        },
        {
          "internalType": "uint256",
          "name": "_c",
          "type": "uint256"
        }
      ],
      "name": "setSigmoidParameters",
      "outputs": [],
      "stateMutability": "nonpayable",
      "type": "function"
    },
    {
      "inputs": [
        {
          "internalType": "address",
          "name": "_address",
          "type": "address"
        }
      ],
      "name": "setLiquidityProvidersRewardAddress",
      "outputs": [],
      "stateMutability": "nonpayable",
      "type": "function"
    },
    {
      "inputs": [],
      "name": "fee",
      "outputs": [
        {
          "internalType": "uint256",
          "name": "",
          "type": "uint256"
        }
      ],
      "stateMutability": "view",
      "type": "function"
    },
    {
      "inputs": [],
      "name": "withdrawalLockDuration",
      "outputs": [
        {
          "internalType": "uint256",
          "name": "",
          "type": "uint256"
        }
      ],
      "stateMutability": "view",
      "type": "function"
    },
    {
      "inputs": [],
      "name": "withdrawalUnlockDuration",
      "outputs": [
        {
          "internalType": "uint256",
          "name": "",
          "type": "uint256"
        }
      ],
      "stateMutability": "view",
      "type": "function"
    },
    {
      "inputs": [],
      "name": "totalSupplyFactor",
      "outputs": [
        {
          "internalType": "uint256",
          "name": "",
          "type": "uint256"
        }
      ],
      "stateMutability": "view",
      "type": "function"
    },
    {
      "inputs": [],
      "name": "liquidityProvidersRewardAddress",
      "outputs": [
        {
          "internalType": "address",
          "name": "",
          "type": "address"
        }
      ],
      "stateMutability": "view",
      "type": "function"
    },
    {
      "inputs": [],
      "name": "getSupplyBasedEmissionRate",
      "outputs": [
        {
          "internalType": "uint256",
          "name": "",
          "type": "uint256"
        }
      ],
      "stateMutability": "view",
      "type": "function"
    },
    {
      "inputs": [
        {
          "internalType": "uint256",
          "name": "_depositDate",
          "type": "uint256"
        },
        {
          "internalType": "uint256",
          "name": "_amount",
          "type": "uint256"
        }
      ],
      "name": "getAccruedEmission",
      "outputs": [
        {
          "internalType": "uint256",
          "name": "userShare",
          "type": "uint256"
        },
        {
          "internalType": "uint256",
          "name": "timePassed",
          "type": "uint256"
        }
      ],
      "stateMutability": "view",
      "type": "function"
    },
    {
      "inputs": [
        {
          "internalType": "uint256",
          "name": "_amount",
          "type": "uint256"
        }
      ],
      "name": "getUserEmissionShare",
      "outputs": [
        {
          "internalType": "uint256",
          "name": "",
          "type": "uint256"
        }
      ],
      "stateMutability": "view",
      "type": "function"
    },
    {
      "inputs": [
        {
          "internalType": "address",
          "name": "_user",
          "type": "address"
        },
        {
          "internalType": "uint256",
          "name": "_depositId",
          "type": "uint256"
        }
      ],
      "name": "getUserShare",
      "outputs": [
        {
          "internalType": "uint256",
          "name": "userShare",
          "type": "uint256"
        },
        {
          "internalType": "uint256",
          "name": "timePassed",
          "type": "uint256"
        }
      ],
      "stateMutability": "view",
      "type": "function"
    },
    {
      "inputs": [
        {
          "internalType": "uint256",
          "name": "_depositId",
          "type": "uint256"
        }
      ],
      "name": "getMyShare",
      "outputs": [
        {
          "internalType": "uint256",
          "name": "userShare",
          "type": "uint256"
        },
        {
          "internalType": "uint256",
          "name": "timePassed",
          "type": "uint256"
        }
      ],
      "stateMutability": "view",
      "type": "function"
    },
    {
      "inputs": [],
      "name": "getSigmoidParameters",
      "outputs": [
        {
          "internalType": "uint256",
          "name": "a",
          "type": "uint256"
        },
        {
          "internalType": "int256",
          "name": "b",
          "type": "int256"
        },
        {
          "internalType": "uint256",
          "name": "c",
          "type": "uint256"
        }
      ],
      "stateMutability": "view",
      "type": "function"
    }
  ],
  "bytecode": "0x608060405264e8d4a510006003553480156200001a57600080fd5b50600080546001600160a01b031916339081178255604051909182917f8be0079c531659141344cd1fd0a4f28419497f9722a3daafe3b4186f6b6457e0908290a35060018055600480546001600160a01b031916736b8f718e992f5184b43f591662655f79303f4f00179055620000926000620000c0565b6200009e6000620001c2565b620000ab610e10620002af565b620000b63362000391565b426002556200064e565b6000546001600160a01b031633146200010f5760405162461bcd60e51b81526020600482018190526024820152600080516020620028b983398151915260448201526064015b60405180910390fd5b670de0b6b3a7640000811115620001795760405162461bcd60e51b815260206004820152602760248201527f73686f756c64206265206c657373207468616e206f7220657175616c20746f20604482015266189032ba3432b960c91b606482015260840162000106565b6200018660088262000559565b604080518281523360208201527fc8242dc5446855370b781abbfc5d882af1d1a3cc29143216aba3558feb0ce92591015b60405180910390a150565b6000546001600160a01b031633146200020d5760405162461bcd60e51b81526020600482018190526024820152600080516020620028b9833981519152604482015260640162000106565b62278d008111156200026c5760405162461bcd60e51b815260206004820152602160248201527f73686f756c646e27742062652067726561746572207468616e203330206461796044820152607360f81b606482015260840162000106565b62000279600b8262000559565b604080518281523360208201527fb1effbb8dc5cfa97751137110a061198891986f1567677e11ec9449743180f749101620001b7565b6000546001600160a01b03163314620002fa5760405162461bcd60e51b81526020600482018190526024820152600080516020620028b9833981519152604482015260640162000106565b610e108110156200034e5760405162461bcd60e51b815260206004820152601d60248201527f73686f756c646e2774206265206c657373207468616e203120686f7572000000604482015260640162000106565b6200035b600e8262000559565b604080518281523360208201527f3a963fa1d1d0da205f1ae9869aa14bf4ff7a4585efa819b0c94326b4a3e1e2289101620001b7565b6000546001600160a01b03163314620003dc5760405162461bcd60e51b81526020600482018190526024820152600080516020620028b9833981519152604482015260640162000106565b6001600160a01b038116620004235760405162461bcd60e51b815260206004820152600c60248201526b7a65726f206164647265737360a01b604482015260640162000106565b6001600160a01b0381163014156200046e5760405162461bcd60e51b815260206004820152600d60248201526c77726f6e67206164647265737360981b604482015260640162000106565b604080516060810182526005546001600160a01b03908116825260065416602082015260075491810182905290620004b2576001600160a01b0382168152620004d9565b6040810151620004c29062000598565b15620004d95760208101516001600160a01b031681525b6001600160a01b038281166020838101829052426040808601829052855160058054919096166001600160a01b0319918216179095556006805490951684179094556007558251918252339082015281517f26a68c9d9649fb5e7a060a37b211ffd1d9a4fe6eb068bfb33decba647d4ed539929181900390910190a15050565b60028201546200056c578082556200058a565b60028201546200057c9062000598565b156200058a57600182015482555b600182015542600290910155565b6000620005b5600083620005bd60201b620013891790919060201c565b421192915050565b600080620005cc838562000627565b905083811015620006205760405162461bcd60e51b815260206004820152601b60248201527f536166654d6174683a206164646974696f6e206f766572666c6f770000000000604482015260640162000106565b9392505050565b600082198211156200064957634e487b7160e01b600052601160045260246000fd5b500190565b61225b806200065e6000396000f3fe608060405234801561001057600080fd5b50600436106102535760003560e01c8063868867b511610146578063c5401ce3116100c3578063ddca3f4311610087578063ddca3f4314610550578063e0648a2814610558578063e2bbb15814610583578063e65be29814610596578063f2fde38b1461059f578063fc0c546a146105b257600080fd5b8063c5401ce3146104ef578063cbf1304d146104f7578063cf77e14e14610522578063d646315114610535578063db51ef921461054857600080fd5b80639ee679e81161010a5780639ee679e814610474578063a4c0ed3614610487578063b4a86c48146104aa578063b6b55f25146104bc578063c3bd8fd0146104cf57600080fd5b8063868867b5146103f65780638b53ccb3146104095780638da5cb5b146104345780638df676801461045957806394967fa11461046157600080fd5b80635e9e230d116101d4578063715018a611610198578063715018a6146103c257806375fa901b146103ca57806378c8bea4146103d2578063817b1cd2146103e55780638235c378146103ee57600080fd5b80635e9e230d1461037957806360c251c11461038b57806360d4ffb01461039357806364e77385146103a657806369fe0e2d146103af57600080fd5b8063416829901161021b5780634168299014610309578063436cc3d61461031c57806347e318de14610337578063522ea5e21461034957806359363bca1461035157600080fd5b8063181943591461025857806318cca7a6146102a1578063224313fa146102b6578063294a5b04146102c95780632c3144da146102dc575b600080fd5b600554600654600754610276926001600160a01b0390811692169083565b604080516001600160a01b039485168152939092166020840152908201526060015b60405180910390f35b6102b46102af366004612028565b6105c5565b005b6102b46102c4366004611fca565b610702565b6102b46102d7366004611ffc565b6107d0565b600b54600c54600d546102ee92919083565b60408051938452602084019290925290820152606001610298565b6102b4610317366004611fca565b6108e5565b61032965886c98b7600081565b604051908152602001610298565b600854600954600a546102ee92919083565b610329610977565b61036461035f366004611fca565b6109a9565b60408051928352602083019190915201610298565b600e54600f546010546102ee92919083565b6103296109f1565b6103646103a1366004612028565b610a1e565b61032960035481565b6102b46103bd366004611fca565b610a9f565b6102b4610b31565b6102ee610ba5565b6103646103e0366004611ef7565b610bbf565b61032960185481565b610329610c11565b6102b4610404366004611fca565b610d11565b610329610417366004611ef7565b601560209081526000928352604080842090915290825290205481565b6000546001600160a01b03165b6040516001600160a01b039091168152602001610298565b610329610dcd565b6102b461046f366004612028565b610dfa565b6102b4610482366004611fca565b610e0b565b61049a610495366004611f21565b610e8e565b6040519015158152602001610298565b6011546012546013546102ee92919083565b6102b46104ca366004611fca565b610f35565b6103296104dd366004611edc565b60176020526000908152604090205481565b610441610f62565b610329610505366004611ef7565b601460209081526000928352604080842090915290825290205481565b610329610530366004611fca565b610fb1565b6102b4610543366004611edc565b610fcd565b610329600081565b61032961116a565b610329610566366004611ef7565b601660209081526000928352604080842090915290825290205481565b6102b4610591366004612028565b611197565b61032960025481565b6102b46105ad366004611edc565b61129f565b600454610441906001600160a01b031681565b336000908152601660209081526040808320858452909152902054806106325760405162461bcd60e51b815260206004820152601b60248201527f7769746864726177616c207761736e277420726571756573746564000000000060448201526064015b60405180910390fd5b4260006106476106406109f1565b8490611389565b9050808210156106855760405162461bcd60e51b8152602060048201526009602482015268746f6f206561726c7960b81b6044820152606401610629565b610697610690610dcd565b8290611389565b82106106d05760405162461bcd60e51b8152602060048201526008602482015267746f6f206c61746560c01b6044820152606401610629565b33600081815260166020908152604080832089845290915281208190556106fb9190879087906113ef565b5050505050565b6000546001600160a01b0316331461072c5760405162461bcd60e51b81526004016106299061209f565b62278d008111156107895760405162461bcd60e51b815260206004820152602160248201527f73686f756c646e27742062652067726561746572207468616e203330206461796044820152607360f81b6064820152608401610629565b610794600b82611830565b604080518281523360208201527fb1effbb8dc5cfa97751137110a061198891986f1567677e11ec9449743180f7491015b60405180910390a150565b6000546001600160a01b031633146107fa5760405162461bcd60e51b81526004016106299061209f565b61080b65886c98b760006002611869565b83111561088c5760405162461bcd60e51b815260206004820152604360248201527f73686f756c64206265206c657373207468616e206f7220657175616c20746f2060448201527f612068616c66206f6620746865206d6178696d756d20656d697373696f6e207260648201526261746560e81b608482015260a401610629565b610899601a8484846118ab565b60408051848152602081018490529081018290523360608201527fddf30262673035378258d8aab83a68d6d8b8e45e5510d3b295fcc7cd65c6378a9060800160405180910390a1505050565b6000546001600160a01b0316331461090f5760405162461bcd60e51b81526004016106299061209f565b670de0b6b3a76400008111156109375760405162461bcd60e51b8152600401610629906120fd565b610942601182611830565b604080518281523360208201527fb7b23f70fe41cd9debaaa54902f2492c79f94d7582d587844dc12fdc8fc42a2b91016107c5565b6040805160608101825260115481526012546020820152601354918101919091526000906109a49061199b565b905090565b33600081815260156020908152604080832085845282528083205493835260148252808320858452909152812054909182916109e6908290610a1e565b909590945092505050565b60408051606081018252600b548152600c546020820152600d54918101919091526000906109a49061199b565b600080821580610a2c575083155b15610a3c57506000905080610a98565b610a4642856119bd565b905080610a5857506000905080610a98565b6000610a6384610fb1565b905080610a74576000925050610a98565b65886c98b76000811115610a8a57610a8a6121f9565b610a9481836119ff565b9250505b9250929050565b6000546001600160a01b03163314610ac95760405162461bcd60e51b81526004016106299061209f565b670de0b6b3a7640000811115610af15760405162461bcd60e51b8152600401610629906120fd565b610afc600882611830565b604080518281523360208201527fc8242dc5446855370b781abbfc5d882af1d1a3cc29143216aba3558feb0ce92591016107c5565b6000546001600160a01b03163314610b5b5760405162461bcd60e51b81526004016106299061209f565b600080546040516001600160a01b03909116907f8be0079c531659141344cd1fd0a4f28419497f9722a3daafe3b4186f6b6457e0908390a3600080546001600160a01b0319169055565b6000806000610bb4601a611a7e565b925092509250909192565b6001600160a01b03821660008181526015602090815260408083208584528252808320549383526014825280832085845290915281205490918291610c05908290610a1e565b90969095509350505050565b60048054604080516318160ddd60e01b8152905160009384936001600160a01b0316926318160ddd9281830192602092829003018186803b158015610c5557600080fd5b505afa158015610c69573d6000803e3d6000fd5b505050506040513d601f19601f82011682018060405250810190610c8d9190611fe3565b90506000610c99610977565b905080610ca95760009250505090565b6000610cc7670de0b6b3a7640000610cc185856119ff565b90611869565b90506000610cdc65886c98b760006002611869565b90508160185410610cef57949350505050565b610d0882610cc1601854846119ff90919063ffffffff16565b94505050505090565b6000546001600160a01b03163314610d3b5760405162461bcd60e51b81526004016106299061209f565b610e10811015610d8d5760405162461bcd60e51b815260206004820152601d60248201527f73686f756c646e2774206265206c657373207468616e203120686f75720000006044820152606401610629565b610d98600e82611830565b604080518281523360208201527f3a963fa1d1d0da205f1ae9869aa14bf4ff7a4585efa819b0c94326b4a3e1e22891016107c5565b60408051606081018252600e548152600f546020820152601054918101919091526000906109a49061199b565b610e0733838360016113ef565b5050565b600081118015610e2a5750336000908152601760205260409020548111155b610e465760405162461bcd60e51b815260040161062990612144565b336000818152601660209081526040808320858452909152808220429055518392917fe670e4e82118d22a1f9ee18920455ebc958bae26a90a05d31d3378788b1b0e4491a350565b6004546000906001600160a01b03163314610eeb5760405162461bcd60e51b815260206004820152601e60248201527f6f6e6c7920746f6b656e20636f6e747261637420697320616c6c6f77656400006044820152606401610629565b60195460ff16610f2a576001600160a01b03851660009081526017602052604081208054610f2a92889291610f1f906121de565b918290555086611ad6565b506001949350505050565b3360009081526017602052604081208054610f5f9290610f54906121de565b918290555082611197565b50565b604080516060810182526005546001600160a01b039081168252600654166020820152600754918101829052600091610f9a90611cc1565b610fa5578051610fab565b80602001515b91505090565b6000610fc760185460035484610cc191906121a8565b92915050565b6000546001600160a01b03163314610ff75760405162461bcd60e51b81526004016106299061209f565b6001600160a01b03811661103c5760405162461bcd60e51b815260206004820152600c60248201526b7a65726f206164647265737360a01b6044820152606401610629565b6001600160a01b0381163014156110855760405162461bcd60e51b815260206004820152600d60248201526c77726f6e67206164647265737360981b6044820152606401610629565b604080516060810182526005546001600160a01b039081168252600654166020820152600754918101829052906110c7576001600160a01b03821681526110ea565b6110d48160400151611cc1565b156110ea5760208101516001600160a01b031681525b6001600160a01b038281166020838101829052426040808601829052855160058054919096166001600160a01b0319918216179095556006805490951684179094556007558251918252339082015281517f26a68c9d9649fb5e7a060a37b211ffd1d9a4fe6eb068bfb33decba647d4ed539929181900390910190a15050565b6040805160608101825260085481526009546020820152600a54918101919091526000906109a49061199b565b6000821180156111b65750336000908152601760205260409020548211155b6111d25760405162461bcd60e51b815260040161062990612144565b6111dd338383611ad6565b6019805460ff19166001179055600480546040516323b872dd60e01b81523392810192909252306024830152604482018390526001600160a01b0316906323b872dd90606401602060405180830381600087803b15801561123d57600080fd5b505af1158015611251573d6000803e3d6000fd5b505050506040513d601f19601f820116820180604052508101906112759190611fa8565b6112915760405162461bcd60e51b8152600401610629906120d4565b6019805460ff191690555050565b6000546001600160a01b031633146112c95760405162461bcd60e51b81526004016106299061209f565b6001600160a01b03811661132e5760405162461bcd60e51b815260206004820152602660248201527f4f776e61626c653a206e6577206f776e657220697320746865207a65726f206160448201526564647265737360d01b6064820152608401610629565b600080546040516001600160a01b03808516939216917f8be0079c531659141344cd1fd0a4f28419497f9722a3daafe3b4186f6b6457e091a3600080546001600160a01b0319166001600160a01b0392909216919091179055565b600080611396838561216e565b9050838110156113e85760405162461bcd60e51b815260206004820152601b60248201527f536166654d6174683a206164646974696f6e206f766572666c6f7700000000006044820152606401610629565b9392505050565b600260015414156114425760405162461bcd60e51b815260206004820152601f60248201527f5265656e7472616e637947756172643a207265656e7472616e742063616c6c006044820152606401610629565b6002600155821580159061146e57506001600160a01b0384166000908152601760205260409020548311155b61148a5760405162461bcd60e51b815260040161062990612144565b6001600160a01b0384166000908152601460209081526040808320868452909152902054158015906114df57506001600160a01b03841660009081526014602090815260408083208684529091529020548211155b6115205760405162461bcd60e51b8152602060048201526012602482015271696e73756666696369656e742066756e647360701b6044820152606401610629565b60008061152e868686611cd5565b9150915060008460001461154b576115468584611389565b611570565b6001600160a01b03871660009081526014602090815260408083208984529091529020545b6001600160a01b03881660009081526014602090815260408083208a84529091529020549091506115a190826119bd565b6001600160a01b03881660009081526014602090815260408083208a84529091529020556018546115d290826119bd565b6018556001600160a01b0387166000908152601460209081526040808320898452909152902054611622576001600160a01b03871660009081526015602090815260408083208984529091528120555b6000841561170c57611648670de0b6b3a7640000610cc161164161116a565b85906119ff565b905061165482826119bd565b6004549092506001600160a01b031663a9059cbb611670610f62565b6040516001600160e01b031960e084901b1681526001600160a01b03909116600482015260248101849052604401602060405180830381600087803b1580156116b857600080fd5b505af11580156116cc573d6000803e3d6000fd5b505050506040513d601f19601f820116820180604052508101906116f09190611fa8565b61170c5760405162461bcd60e51b8152600401610629906120d4565b6004805460405163a9059cbb60e01b81526001600160a01b038b8116938201939093526024810185905291169063a9059cbb90604401602060405180830381600087803b15801561175c57600080fd5b505af1158015611770573d6000803e3d6000fd5b505050506040513d601f19601f820116820180604052508101906117949190611fa8565b6117b05760405162461bcd60e51b8152600401610629906120d4565b6001600160a01b03881660008181526014602090815260408083208b845282529182902054825186815291820185905281830152606081018790526080810186905290518992917f6b4651e8f4162f82274a25e57a29f7ed9156d17078e76dd4d05f04ba08831aa4919081900360a00190a3505060018055505050505050565b60028201546118415780825561185b565b61184e8260020154611cc1565b1561185b57600182015482555b600182015542600290910155565b60006113e883836040518060400160405280601a81526020017f536166654d6174683a206469766973696f6e206279207a65726f000000000000815250611e58565b806118f85760405162461bcd60e51b815260206004820152601860248201527f73686f756c642062652067726561746572207468616e203000000000000000006044820152606401610629565b60068401544290611931576040805160608101825285815260208101859052018290528385556001850183905560028501829055611966565b60068501546119439062093a80611389565b811115611966576003850154855560048501546001860155600585015460028601555b604080516060810182528581526020810185905201829052600385019390935560048401919091556005830155600690910155565b60006119aa8260400151611cc1565b6119b5578151610fc7565b506020015190565b60006113e883836040518060400160405280601e81526020017f536166654d6174683a207375627472616374696f6e206f766572666c6f770000815250611e8f565b600082611a0e57506000610fc7565b6000611a1a83856121a8565b905082611a278583612186565b146113e85760405162461bcd60e51b815260206004820152602160248201527f536166654d6174683a206d756c7469706c69636174696f6e206f766572666c6f6044820152607760f81b6064820152608401610629565b600080600080611a9e62093a80866006015461138990919063ffffffff16565b4211905080611ab857845460018601546002870154611ac8565b6003850154600486015460058701545b935093509350509193909250565b60026001541415611b295760405162461bcd60e51b815260206004820152601f60248201527f5265656e7472616e637947756172643a207265656e7472616e742063616c6c006044820152606401610629565b600260015580611b875760405162461bcd60e51b8152602060048201526024808201527f6465706f73697420616d6f756e742073686f756c64206265206d6f72652074686044820152630616e20360e41b6064820152608401610629565b600354611bc95760405162461bcd60e51b815260206004820152601060248201526f195b5a5cdcda5bdb881cdd1bdc1c195960821b6044820152606401610629565b600080611bd885856000611cd5565b6001600160a01b038716600090815260146020908152604080832089845290915281205492945090925090611c0d9085611389565b6001600160a01b03871660009081526014602090815260408083208984529091529020819055601854909150611c439085611389565b601855426001600160a01b03871660008181526015602090815260408083208a845282529182902093909355805187815292830184905282018590526060820184905286917f0a5c854539f6e93fcd4a8397bfae8bdb751b4e819840f1c8681e6ad7ff19c5b59060800160405180910390a350506001805550505050565b6000611ccd8282611389565b421192915050565b6001600160a01b03831660009081526014602090815260408083208584529091528120548190818415611d085784611d0a565b815b6001600160a01b03881660009081526015602090815260408083208a8452909152812054919250908190611d3e9084610a1e565b90925090508115611e4a57600480546040516340c10f1960e01b81523092810192909252602482018490526001600160a01b0316906340c10f1990604401602060405180830381600087803b158015611d9657600080fd5b505af1158015611daa573d6000803e3d6000fd5b505050506040513d601f19601f82011682018060405250810190611dce9190611fa8565b611e0b5760405162461bcd60e51b815260206004820152600e60248201526d1b5a5b9d1a5b99c819985a5b195960921b6044820152606401610629565b611e158483611389565b6001600160a01b038a1660009081526014602090815260408083208c8452909152902055601854611e469083611389565b6018555b909890975095505050505050565b60008183611e795760405162461bcd60e51b8152600401610629919061204a565b506000611e868486612186565b95945050505050565b60008184841115611eb35760405162461bcd60e51b8152600401610629919061204a565b506000611e8684866121c7565b80356001600160a01b0381168114611ed757600080fd5b919050565b600060208284031215611eee57600080fd5b6113e882611ec0565b60008060408385031215611f0a57600080fd5b611f1383611ec0565b946020939093013593505050565b60008060008060608587031215611f3757600080fd5b611f4085611ec0565b935060208501359250604085013567ffffffffffffffff80821115611f6457600080fd5b818701915087601f830112611f7857600080fd5b813581811115611f8757600080fd5b886020828501011115611f9957600080fd5b95989497505060200194505050565b600060208284031215611fba57600080fd5b815180151581146113e857600080fd5b600060208284031215611fdc57600080fd5b5035919050565b600060208284031215611ff557600080fd5b5051919050565b60008060006060848603121561201157600080fd5b505081359360208301359350604090920135919050565b6000806040838503121561203b57600080fd5b50508035926020909101359150565b600060208083528351808285015260005b818110156120775785810183015185820160400152820161205b565b81811115612089576000604083870101525b50601f01601f1916929092016040019392505050565b6020808252818101527f4f776e61626c653a2063616c6c6572206973206e6f7420746865206f776e6572604082015260600190565b6020808252600f908201526e1d1c985b9cd9995c8819985a5b1959608a1b604082015260600190565b60208082526027908201527f73686f756c64206265206c657373207468616e206f7220657175616c20746f20604082015266189032ba3432b960c91b606082015260800190565b60208082526010908201526f1ddc9bdb99c819195c1bdcda5d081a5960821b604082015260600190565b600082198211156121815761218161220f565b500190565b6000826121a357634e487b7160e01b600052601260045260246000fd5b500490565b60008160001904831182151516156121c2576121c261220f565b500290565b6000828210156121d9576121d961220f565b500390565b60006000198214156121f2576121f261220f565b5060010190565b634e487b7160e01b600052600160045260246000fd5b634e487b7160e01b600052601160045260246000fdfea2646970667358221220e4622d3b3ddd3f0edbfaeda7f3343a85defa673b98b113a4a18ef105537b6fe464736f6c634300080700334f776e61626c653a2063616c6c6572206973206e6f7420746865206f776e6572",
  "immutableReferences": {},
  "source": "pragma solidity ^0.8.7;\r\n\r\n\r\n// SPDX-License-Identifier: Unlicensed\r\ninterface IERC20 {\r\n\r\n    function totalSupply() external view returns (uint256);\r\n\r\n\r\n    /**\r\n     * @dev Returns the amount of tokens owned by `account`.\r\n     */\r\n    function balanceOf(address account) external view returns (uint256);\r\n\r\n    /**\r\n     * @dev Moves `amount` tokens from the caller's account to `recipient`.\r\n     *\r\n     * Returns a boolean value indicating whether the operation succeeded.\r\n     *\r\n     * Emits a {Transfer} event.\r\n     */\r\n    function transfer(address recipient, uint256 amount) external returns (bool);\r\n\r\n    /**\r\n     * @dev Returns the remaining number of tokens that `spender` will be\r\n     * allowed to spend on behalf of `owner` through {transferFrom}. This is\r\n     * zero by default.\r\n     *\r\n     * This value changes when {approve} or {transferFrom} are called.\r\n     */\r\n    function allowance(address owner, address spender) external view returns (uint256);\r\n\r\n    /**\r\n     * @dev Sets `amount` as the allowance of `spender` over the caller's tokens.\r\n     *\r\n     * Returns a boolean value indicating whether the operation succeeded.\r\n     *\r\n     * IMPORTANT: Beware that changing an allowance with this method brings the risk\r\n     * that someone may use both the old and the new allowance by unfortunate\r\n     * transaction ordering. One possible solution to mitigate this race\r\n     * condition is to first reduce the spender's allowance to 0 and set the\r\n     * desired value afterwards:\r\n     * https://github.com/ethereum/EIPs/issues/20#issuecomment-263524729\r\n     *\r\n     * Emits an {Approval} event.\r\n     */\r\n    function approve(address spender, uint256 amount) external returns (bool);\r\n\r\n    /**\r\n     * @dev Moves `amount` tokens from `sender` to `recipient` using the\r\n     * allowance mechanism. `amount` is then deducted from the caller's\r\n     * allowance.\r\n     *\r\n     * Returns a boolean value indicating whether the operation succeeded.\r\n     *\r\n     * Emits a {Transfer} event.\r\n     */\r\n    function transferFrom(address sender, address recipient, uint256 amount) external returns (bool);\r\n\r\n    /**\r\n     * @dev Emitted when `value` tokens are moved from one account (`from`) to\r\n     * another (`to`).\r\n     *\r\n     * Note that `value` may be zero.\r\n     */\r\n    event Transfer(address indexed from, address indexed to, uint256 value);\r\n\r\n    /**\r\n     * @dev Emitted when the allowance of a `spender` for an `owner` is set by\r\n     * a call to {approve}. `value` is the new allowance.\r\n     */\r\n    event Approval(address indexed owner, address indexed spender, uint256 value);\r\n}\r\n\r\n\r\n\r\n\r\nlibrary SafeMath {\r\n    /**\r\n     * @dev Returns the addition of two unsigned integers, reverting on\r\n     * overflow.\r\n     *\r\n     * Counterpart to Solidity's `+` operator.\r\n     *\r\n     * Requirements:\r\n     *\r\n     * - Addition cannot overflow.\r\n     */\r\n    function add(uint256 a, uint256 b) internal pure returns (uint256) {\r\n        uint256 c = a + b;\r\n        require(c >= a, \"SafeMath: addition overflow\");\r\n\r\n        return c;\r\n    }\r\n\r\n    /**\r\n     * @dev Returns the subtraction of two unsigned integers, reverting on\r\n     * overflow (when the result is negative).\r\n     *\r\n     * Counterpart to Solidity's `-` operator.\r\n     *\r\n     * Requirements:\r\n     *\r\n     * - Subtraction cannot overflow.\r\n     */\r\n    function sub(uint256 a, uint256 b) internal pure returns (uint256) {\r\n        return sub(a, b, \"SafeMath: subtraction overflow\");\r\n    }\r\n\r\n    /**\r\n     * @dev Returns the subtraction of two unsigned integers, reverting with custom message on\r\n     * overflow (when the result is negative).\r\n     *\r\n     * Counterpart to Solidity's `-` operator.\r\n     *\r\n     * Requirements:\r\n     *\r\n     * - Subtraction cannot overflow.\r\n     */\r\n    function sub(uint256 a, uint256 b, string memory errorMessage) internal pure returns (uint256) {\r\n        require(b <= a, errorMessage);\r\n        uint256 c = a - b;\r\n\r\n        return c;\r\n    }\r\n\r\n    /**\r\n     * @dev Returns the multiplication of two unsigned integers, reverting on\r\n     * overflow.\r\n     *\r\n     * Counterpart to Solidity's `*` operator.\r\n     *\r\n     * Requirements:\r\n     *\r\n     * - Multiplication cannot overflow.\r\n     */\r\n    function mul(uint256 a, uint256 b) internal pure returns (uint256) {\r\n        // Gas optimization: this is cheaper than requiring 'a' not being zero, but the\r\n        // benefit is lost if 'b' is also tested.\r\n        // See: https://github.com/OpenZeppelin/openzeppelin-contracts/pull/522\r\n        if (a == 0) {\r\n            return 0;\r\n        }\r\n\r\n        uint256 c = a * b;\r\n        require(c / a == b, \"SafeMath: multiplication overflow\");\r\n\r\n        return c;\r\n    }\r\n\r\n    /**\r\n     * @dev Returns the integer division of two unsigned integers. Reverts on\r\n     * division by zero. The result is rounded towards zero.\r\n     *\r\n     * Counterpart to Solidity's `/` operator. Note: this function uses a\r\n     * `revert` opcode (which leaves remaining gas untouched) while Solidity\r\n     * uses an invalid opcode to revert (consuming all remaining gas).\r\n     *\r\n     * Requirements:\r\n     *\r\n     * - The divisor cannot be zero.\r\n     */\r\n    function div(uint256 a, uint256 b) internal pure returns (uint256) {\r\n        return div(a, b, \"SafeMath: division by zero\");\r\n    }\r\n\r\n    /**\r\n     * @dev Returns the integer division of two unsigned integers. Reverts with custom message on\r\n     * division by zero. The result is rounded towards zero.\r\n     *\r\n     * Counterpart to Solidity's `/` operator. Note: this function uses a\r\n     * `revert` opcode (which leaves remaining gas untouched) while Solidity\r\n     * uses an invalid opcode to revert (consuming all remaining gas).\r\n     *\r\n     * Requirements:\r\n     *\r\n     * - The divisor cannot be zero.\r\n     */\r\n    function div(uint256 a, uint256 b, string memory errorMessage) internal pure returns (uint256) {\r\n        require(b > 0, errorMessage);\r\n        uint256 c = a / b;\r\n        // assert(a == b * c + a % b); // There is no case in which this doesn't hold\r\n\r\n        return c;\r\n    }\r\n\r\n    /**\r\n     * @dev Returns the remainder of dividing two unsigned integers. (unsigned integer modulo),\r\n     * Reverts when dividing by zero.\r\n     *\r\n     * Counterpart to Solidity's `%` operator. This function uses a `revert`\r\n     * opcode (which leaves remaining gas untouched) while Solidity uses an\r\n     * invalid opcode to revert (consuming all remaining gas).\r\n     *\r\n     * Requirements:\r\n     *\r\n     * - The divisor cannot be zero.\r\n     */\r\n    function mod(uint256 a, uint256 b) internal pure returns (uint256) {\r\n        return mod(a, b, \"SafeMath: modulo by zero\");\r\n    }\r\n\r\n    /**\r\n     * @dev Returns the remainder of dividing two unsigned integers. (unsigned integer modulo),\r\n     * Reverts with custom message when dividing by zero.\r\n     *\r\n     * Counterpart to Solidity's `%` operator. This function uses a `revert`\r\n     * opcode (which leaves remaining gas untouched) while Solidity uses an\r\n     * invalid opcode to revert (consuming all remaining gas).\r\n     *\r\n     * Requirements:\r\n     *\r\n     * - The divisor cannot be zero.\r\n     */\r\n    function mod(uint256 a, uint256 b, string memory errorMessage) internal pure returns (uint256) {\r\n        require(b != 0, errorMessage);\r\n        return a % b;\r\n    }\r\n}\r\n\r\n\r\n/**\r\n * @dev Collection of functions related to the address type\r\n */\r\nlibrary Address {\r\n    /**\r\n     * @dev Returns true if `account` is a contract.\r\n     *\r\n     * [IMPORTANT]\r\n     * ====\r\n     * It is unsafe to assume that an address for which this function returns\r\n     * false is an externally-owned account (EOA) and not a contract.\r\n     *\r\n     * Among others, `isContract` will return false for the following\r\n     * types of addresses:\r\n     *\r\n     *  - an externally-owned account\r\n     *  - a contract in construction\r\n     *  - an address where a contract will be created\r\n     *  - an address where a contract lived, but was destroyed\r\n     * ====\r\n     */\r\n    function isContract(address account) internal view returns (bool) {\r\n        // This method relies on extcodesize, which returns 0 for contracts in\r\n        // construction, since the code is only stored at the end of the\r\n        // constructor execution.\r\n\r\n        uint256 size;\r\n        // solhint-disable-next-line no-inline-assembly\r\n        assembly { size := extcodesize(account) }\r\n        return size > 0;\r\n    }\r\n\r\n    /**\r\n     * @dev Replacement for Solidity's `transfer`: sends `amount` wei to\r\n     * `recipient`, forwarding all available gas and reverting on errors.\r\n     *\r\n     * https://eips.ethereum.org/EIPS/eip-1884[EIP1884] increases the gas cost\r\n     * of certain opcodes, possibly making contracts go over the 2300 gas limit\r\n     * imposed by `transfer`, making them unable to receive funds via\r\n     * `transfer`. {sendValue} removes this limitation.\r\n     *\r\n     * https://diligence.consensys.net/posts/2019/09/stop-using-soliditys-transfer-now/[Learn more].\r\n     *\r\n     * IMPORTANT: because control is transferred to `recipient`, care must be\r\n     * taken to not create reentrancy vulnerabilities. Consider using\r\n     * {ReentrancyGuard} or the\r\n     * https://solidity.readthedocs.io/en/v0.5.11/security-considerations.html#use-the-checks-effects-interactions-pattern[checks-effects-interactions pattern].\r\n     */\r\n    function sendValue(address payable recipient, uint256 amount) internal {\r\n        require(address(this).balance >= amount, \"Address: insufficient balance\");\r\n\r\n        // solhint-disable-next-line avoid-low-level-calls, avoid-call-value\r\n        (bool success, ) = recipient.call{ value: amount }(\"\");\r\n        require(success, \"Address: unable to send value, recipient may have reverted\");\r\n    }\r\n\r\n    /**\r\n     * @dev Performs a Solidity function call using a low level `call`. A\r\n     * plain`call` is an unsafe replacement for a function call: use this\r\n     * function instead.\r\n     *\r\n     * If `target` reverts with a revert reason, it is bubbled up by this\r\n     * function (like regular Solidity function calls).\r\n     *\r\n     * Returns the raw returned data. To convert to the expected return value,\r\n     * use https://solidity.readthedocs.io/en/latest/units-and-global-variables.html?highlight=abi.decode#abi-encoding-and-decoding-functions[`abi.decode`].\r\n     *\r\n     * Requirements:\r\n     *\r\n     * - `target` must be a contract.\r\n     * - calling `target` with `data` must not revert.\r\n     *\r\n     * _Available since v3.1._\r\n     */\r\n    function functionCall(address target, bytes memory data) internal returns (bytes memory) {\r\n      return functionCall(target, data, \"Address: low-level call failed\");\r\n    }\r\n\r\n    /**\r\n     * @dev Same as {xref-Address-functionCall-address-bytes-}[`functionCall`], but with\r\n     * `errorMessage` as a fallback revert reason when `target` reverts.\r\n     *\r\n     * _Available since v3.1._\r\n     */\r\n    function functionCall(address target, bytes memory data, string memory errorMessage) internal returns (bytes memory) {\r\n        return functionCallWithValue(target, data, 0, errorMessage);\r\n    }\r\n\r\n    /**\r\n     * @dev Same as {xref-Address-functionCall-address-bytes-}[`functionCall`],\r\n     * but also transferring `value` wei to `target`.\r\n     *\r\n     * Requirements:\r\n     *\r\n     * - the calling contract must have an ETH balance of at least `value`.\r\n     * - the called Solidity function must be `payable`.\r\n     *\r\n     * _Available since v3.1._\r\n     */\r\n    function functionCallWithValue(address target, bytes memory data, uint256 value) internal returns (bytes memory) {\r\n        return functionCallWithValue(target, data, value, \"Address: low-level call with value failed\");\r\n    }\r\n\r\n    /**\r\n     * @dev Same as {xref-Address-functionCallWithValue-address-bytes-uint256-}[`functionCallWithValue`], but\r\n     * with `errorMessage` as a fallback revert reason when `target` reverts.\r\n     *\r\n     * _Available since v3.1._\r\n     */\r\n    function functionCallWithValue(address target, bytes memory data, uint256 value, string memory errorMessage) internal returns (bytes memory) {\r\n        require(address(this).balance >= value, \"Address: insufficient balance for call\");\r\n        require(isContract(target), \"Address: call to non-contract\");\r\n\r\n        // solhint-disable-next-line avoid-low-level-calls\r\n        (bool success, bytes memory returndata) = target.call{ value: value }(data);\r\n        return _verifyCallResult(success, returndata, errorMessage);\r\n    }\r\n\r\n    /**\r\n     * @dev Same as {xref-Address-functionCall-address-bytes-}[`functionCall`],\r\n     * but performing a static call.\r\n     *\r\n     * _Available since v3.3._\r\n     */\r\n    function functionStaticCall(address target, bytes memory data) internal view returns (bytes memory) {\r\n        return functionStaticCall(target, data, \"Address: low-level static call failed\");\r\n    }\r\n\r\n    /**\r\n     * @dev Same as {xref-Address-functionCall-address-bytes-string-}[`functionCall`],\r\n     * but performing a static call.\r\n     *\r\n     * _Available since v3.3._\r\n     */\r\n    function functionStaticCall(address target, bytes memory data, string memory errorMessage) internal view returns (bytes memory) {\r\n        require(isContract(target), \"Address: static call to non-contract\");\r\n\r\n        // solhint-disable-next-line avoid-low-level-calls\r\n        (bool success, bytes memory returndata) = target.staticcall(data);\r\n        return _verifyCallResult(success, returndata, errorMessage);\r\n    }\r\n\r\n    /**\r\n     * @dev Same as {xref-Address-functionCall-address-bytes-}[`functionCall`],\r\n     * but performing a delegate call.\r\n     *\r\n     * _Available since v3.4._\r\n     */\r\n    function functionDelegateCall(address target, bytes memory data) internal returns (bytes memory) {\r\n        return functionDelegateCall(target, data, \"Address: low-level delegate call failed\");\r\n    }\r\n\r\n    /**\r\n     * @dev Same as {xref-Address-functionCall-address-bytes-string-}[`functionCall`],\r\n     * but performing a delegate call.\r\n     *\r\n     * _Available since v3.4._\r\n     */\r\n    function functionDelegateCall(address target, bytes memory data, string memory errorMessage) internal returns (bytes memory) {\r\n        require(isContract(target), \"Address: delegate call to non-contract\");\r\n\r\n        // solhint-disable-next-line avoid-low-level-calls\r\n        (bool success, bytes memory returndata) = target.delegatecall(data);\r\n        return _verifyCallResult(success, returndata, errorMessage);\r\n    }\r\n\r\n    function _verifyCallResult(bool success, bytes memory returndata, string memory errorMessage) private pure returns(bytes memory) {\r\n        if (success) {\r\n            return returndata;\r\n        } else {\r\n            // Look for revert reason and bubble it up if present\r\n            if (returndata.length > 0) {\r\n                // The easiest way to bubble the revert reason is using memory via assembly\r\n\r\n                // solhint-disable-next-line no-inline-assembly\r\n                assembly {\r\n                    let returndata_size := mload(returndata)\r\n                    revert(add(32, returndata), returndata_size)\r\n                }\r\n            } else {\r\n                revert(errorMessage);\r\n            }\r\n        }\r\n    }\r\n}\r\n\r\nlibrary ExtendedMath {\r\n    /**\r\n     * @return The given number raised to the power of 2\r\n     */\r\n    function pow2(uint256 a) internal pure returns (uint256) {\r\n        if (a == 0) {\r\n            return 0;\r\n        }\r\n        uint256 c = a * a;\r\n        require(c / a == a, \"ExtendedMath: squaring overflow\");\r\n        return c;\r\n    }\r\n\r\n    \r\n    function sqrt(uint y) internal pure returns (uint z) {\r\n        if (y > 3) {\r\n            z = y;\r\n            uint x = y / 2 + 1;\r\n            while (x < z) {\r\n                z = x;\r\n                x = (y / x + x) / 2;\r\n            }\r\n        } else if (y != 0) {\r\n            z = 1;\r\n        }\r\n    }\r\n}\r\n\r\nlibrary Sigmoid {\r\n    using SafeMath for uint256;\r\n    using ExtendedMath for uint256;\r\n\r\n    // The period after which the new value of the parameter is set\r\n    uint256 public constant PARAM_UPDATE_DELAY = 7 days;\r\n\r\n    struct Params {\r\n        uint256 a;\r\n        int256 b;\r\n        uint256 c;\r\n    }\r\n\r\n    struct State {\r\n        Params oldParams;\r\n        Params newParams;\r\n        uint256 timestamp;\r\n    }\r\n\r\n    /**\r\n     * @dev Sets sigmoid parameters\r\n     * @param _a Sigmoid parameter A.\r\n     * @param _b Sigmoid parameter B.\r\n     * @param _c Sigmoid parameter C.\r\n     */\r\n    function setParameters(State storage self, uint256 _a, int256 _b, uint256 _c) internal {\r\n        require(_c != 0, \"should be greater than 0\"); // prevent division by zero\r\n        uint256 currentTimestamp = _now();\r\n        if (self.timestamp == 0) {\r\n            self.oldParams = Params(_a, _b, _c);\r\n        } else if (currentTimestamp > self.timestamp.add(PARAM_UPDATE_DELAY)) {\r\n            self.oldParams = self.newParams;\r\n        }\r\n        self.newParams = Params(_a, _b, _c);\r\n        self.timestamp = currentTimestamp;\r\n    }\r\n\r\n    /**\r\n     * @return Sigmoid parameters\r\n     */\r\n    function getParameters(State storage self) internal view returns (uint256, int256, uint256) {\r\n        bool isUpdated = _now() > self.timestamp.add(PARAM_UPDATE_DELAY);\r\n        return isUpdated ?\r\n            (self.newParams.a, self.newParams.b, self.newParams.c) :\r\n            (self.oldParams.a, self.oldParams.b, self.oldParams.c);\r\n    }\r\n\r\n    /**\r\n     * @return The corresponding Y value for a given X value\r\n     */\r\n    function calculate(State storage self, int256 _x) internal view returns (uint256) {\r\n        (uint256 a, int256 b, uint256 c) = getParameters(self);\r\n        int256 k = _x - b;\r\n        if (k < 0) return 0;\r\n        uint256 uk = uint256(k);\r\n        return a.mul(uk).div(uk.pow2().add(c).sqrt());\r\n    }\r\n\r\n    /**\r\n     * @return Returns current timestamp.\r\n     */\r\n    function _now() internal view returns (uint256) {\r\n        // Note that the timestamp can have a 900-second error:\r\n        // https://github.com/ethereum/wiki/blob/c02254611f218f43cbb07517ca8e5d00fd6d6d75/Block-Protocol-2.0.md\r\n        return block.timestamp; // solium-disable-line security/no-block-members\r\n    }\r\n}\r\n\r\n\r\nabstract contract Context {\r\n    function _msgSender() internal view virtual returns (address) {\r\n        return msg.sender;\r\n    }\r\n\r\n    function _msgData() internal view virtual returns (bytes calldata) {\r\n        this; // silence state mutability warning without generating bytecode - see https://github.com/ethereum/solidity/issues/2691\r\n        return msg.data;\r\n    }\r\n}\r\n\r\n/**\r\n * @dev Contract module which provides a basic access control mechanism, where\r\n * there is an account (an owner) that can be granted exclusive access to\r\n * specific functions.\r\n *\r\n * By default, the owner account will be the one that deploys the contract. This\r\n * can later be changed with {transferOwnership}.\r\n *\r\n * This module is used through inheritance. It will make available the modifier\r\n * `onlyOwner`, which can be applied to your functions to restrict their use to\r\n * the owner.\r\n */\r\nabstract contract Ownable is Context {\r\n    address private _owner;\r\n\r\n    event OwnershipTransferred(address indexed previousOwner, address indexed newOwner);\r\n\r\n    /**\r\n     * @dev Initializes the contract setting the deployer as the initial owner.\r\n     */\r\n    constructor () {\r\n        address msgSender = _msgSender();\r\n        _owner = msgSender;\r\n        emit OwnershipTransferred(address(0), msgSender);\r\n    }\r\n\r\n    /**\r\n     * @dev Returns the address of the current owner.\r\n     */\r\n    function owner() public view virtual returns (address) {\r\n        return _owner;\r\n    }\r\n\r\n    /**\r\n     * @dev Throws if called by any account other than the owner.\r\n     */\r\n    modifier onlyOwner() {\r\n        require(owner() == _msgSender(), \"Ownable: caller is not the owner\");\r\n        _;\r\n    }\r\n\r\n    /**\r\n     * @dev Leaves the contract without owner. It will not be possible to call\r\n     * `onlyOwner` functions anymore. Can only be called by the current owner.\r\n     *\r\n     * NOTE: Renouncing ownership will leave the contract without an owner,\r\n     * thereby removing any functionality that is only available to the owner.\r\n     */\r\n    function renounceOwnership() public virtual onlyOwner {\r\n        emit OwnershipTransferred(_owner, address(0));\r\n        _owner = address(0);\r\n    }\r\n\r\n    /**\r\n     * @dev Transfers ownership of the contract to a new account (`newOwner`).\r\n     * Can only be called by the current owner.\r\n     */\r\n    function transferOwnership(address newOwner) public virtual onlyOwner {\r\n        require(newOwner != address(0), \"Ownable: new owner is the zero address\");\r\n        emit OwnershipTransferred(_owner, newOwner);\r\n        _owner = newOwner;\r\n    }\r\n}\r\n\r\nabstract contract ReentrancyGuard {\r\n    // Booleans are more expensive than uint256 or any type that takes up a full\r\n    // word because each write operation emits an extra SLOAD to first read the\r\n    // slot's contents, replace the bits taken up by the boolean, and then write\r\n    // back. This is the compiler's defense against contract upgrades and\r\n    // pointer aliasing, and it cannot be disabled.\r\n\r\n    // The values being non-zero value makes deployment a bit more expensive,\r\n    // but in exchange the refund on every call to nonReentrant will be lower in\r\n    // amount. Since refunds are capped to a percentage of the total\r\n    // transaction's gas, it is best to keep them low in cases like this one, to\r\n    // increase the likelihood of the full refund coming into effect.\r\n    uint256 private constant _NOT_ENTERED = 1;\r\n    uint256 private constant _ENTERED = 2;\r\n\r\n    uint256 private _status;\r\n\r\n    constructor() {\r\n        _status = _NOT_ENTERED;\r\n    }\r\n\r\n    /**\r\n     * @dev Prevents a contract from calling itself, directly or indirectly.\r\n     * Calling a `nonReentrant` function from another `nonReentrant`\r\n     * function is not supported. It is possible to prevent this from happening\r\n     * by making the `nonReentrant` function external, and make it call a\r\n     * `private` function that does the actual work.\r\n     */\r\n    modifier nonReentrant() {\r\n        // On the first call to nonReentrant, _notEntered will be true\r\n        require(_status != _ENTERED, \"ReentrancyGuard: reentrant call\");\r\n\r\n        // Any calls to nonReentrant after this point will fail\r\n        _status = _ENTERED;\r\n\r\n        _;\r\n\r\n        // By storing the original value once again, a refund is triggered (see\r\n        // https://eips.ethereum.org/EIPS/eip-2200)\r\n        _status = _NOT_ENTERED;\r\n    }\r\n}\r\n\r\nlibrary SafeERC20 {\r\n    using Address for address;\r\n\r\n    function safeTransfer(\r\n        IERC20 token,\r\n        address to,\r\n        uint256 value\r\n    ) internal {\r\n        _callOptionalReturn(token, abi.encodeWithSelector(token.transfer.selector, to, value));\r\n    }\r\n\r\n    function safeTransferFrom(\r\n        IERC20 token,\r\n        address from,\r\n        address to,\r\n        uint256 value\r\n    ) internal {\r\n        _callOptionalReturn(token, abi.encodeWithSelector(token.transferFrom.selector, from, to, value));\r\n    }\r\n\r\n    /**\r\n     * @dev Deprecated. This function has issues similar to the ones found in\r\n     * {IERC20-approve}, and its usage is discouraged.\r\n     *\r\n     * Whenever possible, use {safeIncreaseAllowance} and\r\n     * {safeDecreaseAllowance} instead.\r\n     */\r\n    function safeApprove(\r\n        IERC20 token,\r\n        address spender,\r\n        uint256 value\r\n    ) internal {\r\n        // safeApprove should only be called when setting an initial allowance,\r\n        // or when resetting it to zero. To increase and decrease it, use\r\n        // 'safeIncreaseAllowance' and 'safeDecreaseAllowance'\r\n        require(\r\n            (value == 0) || (token.allowance(address(this), spender) == 0),\r\n            \"SafeERC20: approve from non-zero to non-zero allowance\"\r\n        );\r\n        _callOptionalReturn(token, abi.encodeWithSelector(token.approve.selector, spender, value));\r\n    }\r\n\r\n    function safeIncreaseAllowance(\r\n        IERC20 token,\r\n        address spender,\r\n        uint256 value\r\n    ) internal {\r\n        uint256 newAllowance = token.allowance(address(this), spender) + value;\r\n        _callOptionalReturn(token, abi.encodeWithSelector(token.approve.selector, spender, newAllowance));\r\n    }\r\n\r\n    function safeDecreaseAllowance(\r\n        IERC20 token,\r\n        address spender,\r\n        uint256 value\r\n    ) internal {\r\n        unchecked {\r\n            uint256 oldAllowance = token.allowance(address(this), spender);\r\n            require(oldAllowance >= value, \"SafeERC20: decreased allowance below zero\");\r\n            uint256 newAllowance = oldAllowance - value;\r\n            _callOptionalReturn(token, abi.encodeWithSelector(token.approve.selector, spender, newAllowance));\r\n        }\r\n    }\r\n\r\n    /**\r\n     * @dev Imitates a Solidity high-level call (i.e. a regular function call to a contract), relaxing the requirement\r\n     * on the return value: the return value is optional (but if data is returned, it must not be false).\r\n     * @param token The token targeted by the call.\r\n     * @param data The call data (encoded using abi.encode or one of its variants).\r\n     */\r\n    function _callOptionalReturn(IERC20 token, bytes memory data) private {\r\n        // We need to perform a low level call here, to bypass Solidity's return data size checking mechanism, since\r\n        // we're implementing it ourselves. We use {Address.functionCall} to perform this call, which verifies that\r\n        // the target address contains contract code and also asserts for success in the low-level call.\r\n\r\n        bytes memory returndata = address(token).functionCall(data, \"SafeERC20: low-level call failed\");\r\n        if (returndata.length > 0) {\r\n            // Return data is optional\r\n            require(abi.decode(returndata, (bool)), \"SafeERC20: ERC20 operation did not succeed\");\r\n        }\r\n    }\r\n}\r\n\r\n\r\n\r\ninterface IERC20Mintable {\r\n    function transfer(address _to, uint256 _value) external returns (bool);\r\n    function transferFrom(address _from, address _to, uint256 _value) external returns (bool);\r\n    function mint(address _to, uint256 _value) external returns (bool);\r\n    function balanceOf(address _account) external view returns (uint256);\r\n    function totalSupply() external view returns (uint256);\r\n}\r\n\r\n/**\r\n * @title EasyStaking\r\n *\r\n * Note: all percentage values are between 0 (0%) and 1 (100%)\r\n * and represented as fixed point numbers containing 18 decimals like with Ether\r\n * 100% == 1 ether\r\n */\r\ncontract NanoStaking is Ownable, ReentrancyGuard {\r\n    using Address for address;\r\n    using SafeMath for uint256;\r\n    using SafeERC20 for IERC20;\r\n    using Sigmoid for Sigmoid.State;\r\n\r\n    /**\r\n     * @dev Emitted when a user deposits tokens.\r\n     * @param sender User address.\r\n     * @param id User's unique deposit ID.\r\n     * @param amount The amount of deposited tokens.\r\n     * @param balance Current user balance.\r\n     * @param accruedEmission User's accrued emission.\r\n     * @param prevDepositDuration Duration of the previous deposit in seconds.\r\n     */\r\n    event Deposited(\r\n        address indexed sender,\r\n        uint256 indexed id,\r\n        uint256 amount,\r\n        uint256 balance,\r\n        uint256 accruedEmission,\r\n        uint256 prevDepositDuration\r\n    );\r\n\r\n    /**\r\n     * @dev Emitted when a user requests withdrawal.\r\n     * @param sender User address.\r\n     * @param id User's unique deposit ID.\r\n     */\r\n    event WithdrawalRequested(address indexed sender, uint256 indexed id);\r\n\r\n    /**\r\n     * @dev Emitted when a user withdraws tokens.\r\n     * @param sender User address.\r\n     * @param id User's unique deposit ID.\r\n     * @param amount The amount of withdrawn tokens.\r\n     * @param fee The withdrawal fee.\r\n     * @param balance Current user balance.\r\n     * @param accruedEmission User's accrued emission.\r\n     * @param lastDepositDuration Duration of the last deposit in seconds.\r\n     */\r\n    event Withdrawn(\r\n        address indexed sender,\r\n        uint256 indexed id,\r\n        uint256 amount,\r\n        uint256 fee,\r\n        uint256 balance,\r\n        uint256 accruedEmission,\r\n        uint256 lastDepositDuration\r\n    );\r\n\r\n    /**\r\n     * @dev Emitted when a new fee value is set.\r\n     * @param value A new fee value.\r\n     * @param sender The owner address at the moment of fee changing.\r\n     */\r\n    event FeeSet(uint256 value, address sender);\r\n\r\n    /**\r\n     * @dev Emitted when a new withdrawal lock duration value is set.\r\n     * @param value A new withdrawal lock duration value.\r\n     * @param sender The owner address at the moment of value changing.\r\n     */\r\n    event WithdrawalLockDurationSet(uint256 value, address sender);\r\n\r\n    /**\r\n     * @dev Emitted when a new withdrawal unlock duration value is set.\r\n     * @param value A new withdrawal unlock duration value.\r\n     * @param sender The owner address at the moment of value changing.\r\n     */\r\n    event WithdrawalUnlockDurationSet(uint256 value, address sender);\r\n\r\n    /**\r\n     * @dev Emitted when a new total supply factor value is set.\r\n     * @param value A new total supply factor value.\r\n     * @param sender The owner address at the moment of value changing.\r\n     */\r\n    event TotalSupplyFactorSet(uint256 value, address sender);\r\n\r\n    /**\r\n     * @dev Emitted when new sigmoid parameters values are set.\r\n     * @param a A new parameter A value.\r\n     * @param b A new parameter B value.\r\n     * @param c A new parameter C value.\r\n     * @param sender The owner address at the moment of value changing.\r\n     */\r\n    event SigmoidParametersSet(uint256 a, int256 b, uint256 c, address sender);\r\n\r\n    /**\r\n     * @dev Emitted when a new Liquidity Providers Reward address value is set.\r\n     * @param value A new address value.\r\n     * @param sender The owner address at the moment of address changing.\r\n     */\r\n    event LiquidityProvidersRewardAddressSet(address value, address sender);\r\n\r\n    uint256 private constant YEAR = 365 days;\r\n    // The maximum emission rate (in percentage)\r\n    uint256 public constant MAX_EMISSION_RATE = 150000000000000 wei; // 15%, 0.15 ether\r\n    // The period after which the new value of the parameter is set\r\n    uint256 public constant PARAM_UPDATE_DELAY = 0;\r\n    \r\n    uint256 public startingEmissionTime;\r\n    uint256 public tokensPerSec = 1 * (10 ** 12 );\r\n\r\n    // STAKE token\r\n    IERC20Mintable public token;\r\n\r\n    struct UintParam {\r\n        uint256 oldValue;\r\n        uint256 newValue;\r\n        uint256 timestamp;\r\n    }\r\n\r\n    struct AddressParam {\r\n        address oldValue;\r\n        address newValue;\r\n        uint256 timestamp;\r\n    }\r\n\r\n    // The address for the Liquidity Providers reward\r\n    AddressParam public liquidityProvidersRewardAddressParam;\r\n    // The fee of the forced withdrawal (in percentage)\r\n    UintParam public feeParam;\r\n    // The time from the request after which the withdrawal will be available (in seconds)\r\n    UintParam public withdrawalLockDurationParam;\r\n    // The time during which the withdrawal will be available from the moment of unlocking (in seconds)\r\n    UintParam public withdrawalUnlockDurationParam;\r\n    // Total supply factor for calculating emission rate (in percentage)\r\n    UintParam public totalSupplyFactorParam;\r\n\r\n    // The deposit balances of users\r\n    mapping (address => mapping (uint256 => uint256)) public balances;\r\n    // The dates of users' deposits\r\n    mapping (address => mapping (uint256 => uint256)) public depositDates;\r\n    // The dates of users' withdrawal requests\r\n    mapping (address => mapping (uint256 => uint256)) public withdrawalRequestsDates;\r\n    // The last deposit id\r\n    mapping (address => uint256) public lastDepositIds;\r\n    // The total staked amount\r\n    uint256 public totalStaked;\r\n\r\n    // Variable that prevents _deposit method from being called 2 times\r\n    bool private locked;\r\n    // The library that is used to calculate user's current emission rate\r\n    Sigmoid.State private sigmoid;\r\n\r\n   \r\n    constructor(\r\n        \r\n    ) {\r\n        \r\n        //require(_tokenAddress.isContract(), \"not a contract address\");\r\n      \r\n       \r\n        token = IERC20Mintable( 0x6b8f718E992F5184B43f591662655f79303F4f00 );\r\n        setFee(0);\r\n        setWithdrawalLockDuration( 0 );\r\n        setWithdrawalUnlockDuration( 3600 );\r\n        \r\n        setLiquidityProvidersRewardAddress( msg.sender );\r\n        startingEmissionTime = block.timestamp;\r\n       \r\n    }\r\n\r\n    /**\r\n     * @dev This method is used to deposit tokens to a new deposit.\r\n     * It generates a new deposit ID and calls another public \"deposit\" method. See its description.\r\n     * @param _amount The amount to deposit.\r\n     */\r\n    function deposit(uint256 _amount) external {\r\n        deposit(++lastDepositIds[msg.sender], _amount);\r\n    }\r\n\r\n    /**\r\n     * @dev This method is used to deposit tokens to the deposit opened before.\r\n     * It calls the internal \"_deposit\" method and transfers tokens from sender to contract.\r\n     * Sender must approve tokens first.\r\n     *\r\n     * Instead this, user can use the simple \"transfer\" method of STAKE token contract to make a deposit.\r\n     * Sender's approval is not needed in this case.\r\n     *\r\n     * Note: each call updates the deposit date so be careful if you want to make a long staking.\r\n     *\r\n     * @param _depositId User's unique deposit ID.\r\n     * @param _amount The amount to deposit.\r\n     */\r\n    function deposit(uint256 _depositId, uint256 _amount) public {\r\n        require(_depositId > 0 && _depositId <= lastDepositIds[msg.sender], \"wrong deposit id\");\r\n        _deposit(msg.sender, _depositId, _amount);\r\n        _setLocked(true);\r\n        require(token.transferFrom(msg.sender, address(this), _amount), \"transfer failed\");\r\n        _setLocked(false);\r\n    }\r\n\r\n    /**\r\n     * @dev This method is called when STAKE tokens are transferred to this contract.\r\n     * using \"transfer\", \"transferFrom\", or \"transferAndCall\" method of STAKE token contract.\r\n     * It generates a new deposit ID and calls the internal \"_deposit\" method.\r\n     * @param _sender The sender of tokens.\r\n     * @param _amount The transferred amount.\r\n     * @return true if successful\r\n     */\r\n    function onTokenTransfer(address _sender, uint256 _amount, bytes calldata) external returns (bool) {\r\n        require(msg.sender == address(token), \"only token contract is allowed\");\r\n        if (!locked) {\r\n            _deposit(_sender, ++lastDepositIds[_sender], _amount);\r\n        }\r\n        return true;\r\n    }\r\n\r\n    /**\r\n     * @dev This method is used to make a forced withdrawal with a fee.\r\n     * It calls the internal \"_withdraw\" method.\r\n     * @param _depositId User's unique deposit ID.\r\n     * @param _amount The amount to withdraw (0 - to withdraw all).\r\n     */\r\n    function makeForcedWithdrawal(uint256 _depositId, uint256 _amount) external {\r\n        _withdraw(msg.sender, _depositId, _amount, true);\r\n    }\r\n\r\n    /**\r\n     * @dev This method is used to request a withdrawal without a fee.\r\n     * It sets the date of the request.\r\n     *\r\n     * Note: each call updates the date of the request so don't call this method twice during the lock.\r\n     *\r\n     * @param _depositId User's unique deposit ID.\r\n     */\r\n    function requestWithdrawal(uint256 _depositId) external {\r\n        require(_depositId > 0 && _depositId <= lastDepositIds[msg.sender], \"wrong deposit id\");\r\n        withdrawalRequestsDates[msg.sender][_depositId] = _now();\r\n        emit WithdrawalRequested(msg.sender, _depositId);\r\n    }\r\n\r\n    /**\r\n     * @dev This method is used to make a requested withdrawal.\r\n     * It calls the internal \"_withdraw\" method and resets the date of the request.\r\n     *\r\n     * If sender didn't call this method during the unlock period (if timestamp >= lockEnd + withdrawalUnlockDuration)\r\n     * they have to call \"requestWithdrawal\" one more time.\r\n     *\r\n     * @param _depositId User's unique deposit ID.\r\n     * @param _amount The amount to withdraw (0 - to withdraw all).\r\n     */\r\n    function makeRequestedWithdrawal(uint256 _depositId, uint256 _amount) external {\r\n        uint256 requestDate = withdrawalRequestsDates[msg.sender][_depositId];\r\n        require(requestDate > 0, \"withdrawal wasn't requested\");\r\n        uint256 timestamp = _now();\r\n        uint256 lockEnd = requestDate.add(withdrawalLockDuration());\r\n        require(timestamp >= lockEnd, \"too early\");\r\n        require(timestamp < lockEnd.add(withdrawalUnlockDuration()), \"too late\");\r\n        withdrawalRequestsDates[msg.sender][_depositId] = 0;\r\n        _withdraw(msg.sender, _depositId, _amount, false);\r\n    }\r\n\r\n   \r\n    /**\r\n     * @dev Sets the fee for forced withdrawals. Can only be called by owner.\r\n     * @param _value The new fee value (in percentage).\r\n     */\r\n    function setFee(uint256 _value) public onlyOwner {\r\n        require(_value <= 1 ether, \"should be less than or equal to 1 ether\");\r\n        _updateUintParam(feeParam, _value);\r\n        emit FeeSet(_value, msg.sender);\r\n    }\r\n\r\n    /**\r\n     * @dev Sets the time from the request after which the withdrawal will be available.\r\n     * Can only be called by owner.\r\n     * @param _value The new duration value (in seconds).\r\n     */\r\n    function setWithdrawalLockDuration(uint256 _value) public onlyOwner {\r\n        require(_value <= 30 days, \"shouldn't be greater than 30 days\");\r\n        _updateUintParam(withdrawalLockDurationParam, _value);\r\n        emit WithdrawalLockDurationSet(_value, msg.sender);\r\n    }\r\n\r\n    /**\r\n     * @dev Sets the time during which the withdrawal will be available from the moment of unlocking.\r\n     * Can only be called by owner.\r\n     * @param _value The new duration value (in seconds).\r\n     */\r\n    function setWithdrawalUnlockDuration(uint256 _value) public onlyOwner {\r\n        require(_value >= 1 hours, \"shouldn't be less than 1 hour\");\r\n        _updateUintParam(withdrawalUnlockDurationParam, _value);\r\n        emit WithdrawalUnlockDurationSet(_value, msg.sender);\r\n    }\r\n\r\n    /**\r\n     * @dev Sets total supply factor for calculating emission rate.\r\n     * Can only be called by owner.\r\n     * @param _value The new factor value (in percentage).\r\n     */\r\n    function setTotalSupplyFactor(uint256 _value) public onlyOwner {\r\n        require(_value <= 1 ether, \"should be less than or equal to 1 ether\");\r\n        _updateUintParam(totalSupplyFactorParam, _value);\r\n        emit TotalSupplyFactorSet(_value, msg.sender);\r\n    }\r\n\r\n    /**\r\n     * @dev Sets parameters of the sigmoid that is used to calculate the user's current emission rate.\r\n     * Can only be called by owner.\r\n     * @param _a Sigmoid parameter A. Unsigned integer.\r\n     * @param _b Sigmoid parameter B. Signed integer.\r\n     * @param _c Sigmoid parameter C. Unsigned integer. Cannot be zero.\r\n     */\r\n    function setSigmoidParameters(uint256 _a, int256 _b, uint256 _c) public onlyOwner {\r\n        require(_a <= MAX_EMISSION_RATE.div(2), \"should be less than or equal to a half of the maximum emission rate\");\r\n        sigmoid.setParameters(_a, _b, _c);\r\n        emit SigmoidParametersSet(_a, _b, _c, msg.sender);\r\n    }\r\n\r\n    /**\r\n     * @dev Sets the address for the Liquidity Providers reward.\r\n     * Can only be called by owner.\r\n     * @param _address The new address.\r\n     */\r\n    function setLiquidityProvidersRewardAddress(address _address) public onlyOwner {\r\n        require(_address != address(0), \"zero address\");\r\n        require(_address != address(this), \"wrong address\");\r\n        AddressParam memory param = liquidityProvidersRewardAddressParam;\r\n        if (param.timestamp == 0) {\r\n            param.oldValue = _address;\r\n        } else if (_paramUpdateDelayElapsed(param.timestamp)) {\r\n            param.oldValue = param.newValue;\r\n        }\r\n        param.newValue = _address;\r\n        param.timestamp = _now();\r\n        liquidityProvidersRewardAddressParam = param;\r\n        emit LiquidityProvidersRewardAddressSet(_address, msg.sender);\r\n    }\r\n\r\n    /**\r\n     * @return Returns current fee.\r\n     */\r\n    function fee() public view returns (uint256) {\r\n        return _getUintParamValue(feeParam);\r\n    }\r\n\r\n    /**\r\n     * @return Returns current withdrawal lock duration.\r\n     */\r\n    function withdrawalLockDuration() public view returns (uint256) {\r\n        return _getUintParamValue(withdrawalLockDurationParam);\r\n    }\r\n\r\n    /**\r\n     * @return Returns current withdrawal unlock duration.\r\n     */\r\n    function withdrawalUnlockDuration() public view returns (uint256) {\r\n        return _getUintParamValue(withdrawalUnlockDurationParam);\r\n    }\r\n\r\n    /**\r\n     * @return Returns current total supply factor.\r\n     */\r\n    function totalSupplyFactor() public view returns (uint256) {\r\n        return _getUintParamValue(totalSupplyFactorParam);\r\n    }\r\n\r\n    /**\r\n     * @return Returns current liquidity providers reward address.\r\n     */\r\n    function liquidityProvidersRewardAddress() public view returns (address) {\r\n        AddressParam memory param = liquidityProvidersRewardAddressParam;\r\n        return _paramUpdateDelayElapsed(param.timestamp) ? param.newValue : param.oldValue;\r\n    }\r\n\r\n    /**\r\n     * @return Emission rate based on the ratio of total staked to total supply.\r\n     */\r\n    function getSupplyBasedEmissionRate() public view returns (uint256) {\r\n        uint256 totalSupply = token.totalSupply();\r\n        uint256 factor = totalSupplyFactor();\r\n        if (factor == 0) return 0;\r\n        uint256 target = totalSupply.mul(factor).div(1 ether);\r\n        uint256 maxSupplyBasedEmissionRate = MAX_EMISSION_RATE.div(2); // 7.5%\r\n        if (totalStaked >= target) {\r\n            return maxSupplyBasedEmissionRate;\r\n        }\r\n        return maxSupplyBasedEmissionRate.mul(totalStaked).div(target);\r\n    }\r\n\r\n  /*\r\n    function getAccruedEmission(\r\n        uint256 _depositDate,\r\n        uint256 _amount\r\n    ) public view returns ( uint256 userShare, uint256 timePassed) {\r\n        if (_amount == 0 || _depositDate == 0) return (0, 0 );\r\n        timePassed = _now().sub(_depositDate);\r\n        if (timePassed == 0) return (0, 0 );\r\n        uint256 userEmissionRate = sigmoid.calculate(int256(timePassed));\r\n        userEmissionRate = userEmissionRate.add(getSupplyBasedEmissionRate());\r\n        if (userEmissionRate == 0) return (0, timePassed);\r\n        assert(userEmissionRate <= MAX_EMISSION_RATE);\r\n        //total = _amount.mul(MAX_EMISSION_RATE).mul(timePassed).div(YEAR * 1 ether);\r\n        userShare = _amount.mul(userEmissionRate).mul(timePassed).div(YEAR * 1 ether);\r\n    }\r\n    */\r\n    \r\n    function getAccruedEmission(\r\n        uint256 _depositDate,\r\n        uint256 _amount\r\n    ) public  view returns ( uint256 userShare, uint256 timePassed) {\r\n        if (_amount == 0 || _depositDate == 0) return (0, 0 );\r\n        timePassed = _now().sub(_depositDate);\r\n        if (timePassed == 0) return (0, 0 );\r\n        uint256 userEmissionRate = getUserEmissionShare ( _amount);\r\n        if (userEmissionRate == 0) return (0, timePassed);\r\n        assert(userEmissionRate <= MAX_EMISSION_RATE);\r\n        userShare = userEmissionRate.mul(timePassed);\r\n    }\r\n    \r\n    \r\n    function getUserEmissionShare (  uint256 _amount ) public view returns(uint256){\r\n        \r\n        return ( _amount * tokensPerSec).div(totalStaked);\r\n        \r\n    }\r\n    \r\n    function getUserShare ( address _user, uint256 _depositId ) public view returns(  uint256 userShare, uint256 timePassed){\r\n        \r\n        uint256 _depositDate = depositDates[_user][_depositId];\r\n        (  userShare, timePassed) = getAccruedEmission(  _depositDate, balances[_user][_depositId] );\r\n    }\r\n\r\n    function getMyShare ( uint256 _depositId ) public view returns(  uint256 userShare, uint256 timePassed){\r\n        \r\n        uint256 _depositDate = depositDates[msg.sender][_depositId];\r\n        (  userShare, timePassed) = getAccruedEmission(  _depositDate, balances[msg.sender][_depositId] );\r\n    }\r\n\r\n\r\n   \r\n    function getSigmoidParameters() public view returns (uint256 a, int256 b, uint256 c) {\r\n        return sigmoid.getParameters();\r\n    }\r\n\r\n    /**\r\n     * @dev Calls internal \"_mint\" method, increases the user balance, and updates the deposit date.\r\n     * @param _sender The address of the sender.\r\n     * @param _id User's unique deposit ID.\r\n     * @param _amount The amount to deposit.\r\n     */\r\n    function _deposit(address _sender, uint256 _id, uint256 _amount) internal nonReentrant {\r\n        require(_amount > 0, \"deposit amount should be more than 0\");\r\n      \r\n        if ( tokensPerSec == 0) revert(\"emission stopped\");\r\n        (uint256 userShare, uint256 timePassed) = _mint(_sender, _id, 0);\r\n        uint256 newBalance = balances[_sender][_id].add(_amount);\r\n        balances[_sender][_id] = newBalance;\r\n        totalStaked = totalStaked.add(_amount);\r\n        depositDates[_sender][_id] = _now();\r\n        emit Deposited(_sender, _id, _amount, newBalance, userShare, timePassed);\r\n    }\r\n\r\n    /**\r\n     * @dev Calls internal \"_mint\" method and then transfers tokens to the sender.\r\n     * @param _sender The address of the sender.\r\n     * @param _id User's unique deposit ID.\r\n     * @param _amount The amount to withdraw (0 - to withdraw all).\r\n     * @param _forced Defines whether to apply fee (true), or not (false).\r\n     */\r\n    function _withdraw(address _sender, uint256 _id, uint256 _amount, bool _forced) internal nonReentrant {\r\n        require(_id > 0 && _id <= lastDepositIds[_sender], \"wrong deposit id\");\r\n        require(balances[_sender][_id] > 0 && balances[_sender][_id] >= _amount, \"insufficient funds\");\r\n        \r\n        (uint256 accruedEmission, uint256 timePassed) = _mint(_sender, _id, _amount);\r\n        \r\n        uint256 amount = _amount == 0 ? balances[_sender][_id] : _amount.add(accruedEmission);\r\n        balances[_sender][_id] = balances[_sender][_id].sub(amount);\r\n        totalStaked = totalStaked.sub(amount);\r\n        if (balances[_sender][_id] == 0) {\r\n            depositDates[_sender][_id] = 0;\r\n        }\r\n        uint256 feeValue = 0;\r\n        if (_forced) {\r\n            feeValue = amount.mul(fee()).div(1 ether);\r\n            amount = amount.sub(feeValue);\r\n            require(token.transfer(liquidityProvidersRewardAddress(), feeValue), \"transfer failed\");\r\n        }\r\n        require(token.transfer(_sender, amount), \"transfer failed\");\r\n        emit Withdrawn(_sender, _id, amount, feeValue, balances[_sender][_id], accruedEmission, timePassed);\r\n       \r\n    }\r\n\r\n   \r\n    function _mint(address _user, uint256 _id, uint256 _amount) internal  returns (uint256, uint256) {\r\n        uint256 currentBalance = balances[_user][_id];\r\n        uint256 amount = _amount == 0 ? currentBalance : _amount;\r\n        (  uint256 userShare, uint256 timePassed) = getAccruedEmission(depositDates[_user][_id], amount);\r\n        if ( userShare > 0) {\r\n            require(token.mint(address(this), userShare), \"minting failed\");\r\n             balances[_user][_id] = currentBalance.add(userShare);\r\n             totalStaked = totalStaked.add(userShare);\r\n            \r\n        }\r\n        return (userShare, timePassed);\r\n    }\r\n\r\n    /**\r\n     * @dev Sets the next value of the parameter and the timestamp of this setting.\r\n     */\r\n    function _updateUintParam(UintParam storage _param, uint256 _newValue) internal {\r\n        if (_param.timestamp == 0) {\r\n            _param.oldValue = _newValue;\r\n        } else if (_paramUpdateDelayElapsed(_param.timestamp)) {\r\n            _param.oldValue = _param.newValue;\r\n        }\r\n        _param.newValue = _newValue;\r\n        _param.timestamp = _now();\r\n    }\r\n\r\n    /**\r\n     * @return Returns the current value of the parameter.\r\n     */\r\n    function _getUintParamValue(UintParam memory _param) internal view returns (uint256) {\r\n        return _paramUpdateDelayElapsed(_param.timestamp) ? _param.newValue : _param.oldValue;\r\n    }\r\n\r\n    /**\r\n     * @return Returns true if param update delay elapsed.\r\n     */\r\n    function _paramUpdateDelayElapsed(uint256 _paramTimestamp) internal view returns (bool) {\r\n        return _now() > _paramTimestamp.add(PARAM_UPDATE_DELAY);\r\n    }\r\n\r\n    /**\r\n     * @dev Sets lock to prevent reentrance.\r\n     */\r\n    function _setLocked(bool _locked) internal {\r\n        locked = _locked;\r\n    }\r\n\r\n    /**\r\n     * @return Returns current timestamp.\r\n     */\r\n    function _now() internal view returns (uint256) {\r\n        // Note that the timestamp can have a 900-second error:\r\n        // https://github.com/ethereum/wiki/blob/c02254611f218f43cbb07517ca8e5d00fd6d6d75/Block-Protocol-2.0.md\r\n        return block.timestamp; // solium-disable-line security/no-block-members\r\n    }\r\n}",
  "sourcePath": "C:/warbotui/Warbot_new_UI/contracts/nanostaking.sol",
  "compiler": {
    "name": "solc",
    "version": "0.8.7+commit.e28d00a7.Emscripten.clang"
  },
  "schemaVersion": "3.4.1",
  "updatedAt": "2021-09-07T15:01:21.247Z",
  "devdoc": {
    "events": {
      "Deposited(address,uint256,uint256,uint256,uint256,uint256)": {
        "details": "Emitted when a user deposits tokens.",
        "params": {
          "accruedEmission": "User's accrued emission.",
          "amount": "The amount of deposited tokens.",
          "balance": "Current user balance.",
          "id": "User's unique deposit ID.",
          "prevDepositDuration": "Duration of the previous deposit in seconds.",
          "sender": "User address."
        }
      },
      "FeeSet(uint256,address)": {
        "details": "Emitted when a new fee value is set.",
        "params": {
          "sender": "The owner address at the moment of fee changing.",
          "value": "A new fee value."
        }
      },
      "LiquidityProvidersRewardAddressSet(address,address)": {
        "details": "Emitted when a new Liquidity Providers Reward address value is set.",
        "params": {
          "sender": "The owner address at the moment of address changing.",
          "value": "A new address value."
        }
      },
      "SigmoidParametersSet(uint256,int256,uint256,address)": {
        "details": "Emitted when new sigmoid parameters values are set.",
        "params": {
          "a": "A new parameter A value.",
          "b": "A new parameter B value.",
          "c": "A new parameter C value.",
          "sender": "The owner address at the moment of value changing."
        }
      },
      "TotalSupplyFactorSet(uint256,address)": {
        "details": "Emitted when a new total supply factor value is set.",
        "params": {
          "sender": "The owner address at the moment of value changing.",
          "value": "A new total supply factor value."
        }
      },
      "WithdrawalLockDurationSet(uint256,address)": {
        "details": "Emitted when a new withdrawal lock duration value is set.",
        "params": {
          "sender": "The owner address at the moment of value changing.",
          "value": "A new withdrawal lock duration value."
        }
      },
      "WithdrawalRequested(address,uint256)": {
        "details": "Emitted when a user requests withdrawal.",
        "params": {
          "id": "User's unique deposit ID.",
          "sender": "User address."
        }
      },
      "WithdrawalUnlockDurationSet(uint256,address)": {
        "details": "Emitted when a new withdrawal unlock duration value is set.",
        "params": {
          "sender": "The owner address at the moment of value changing.",
          "value": "A new withdrawal unlock duration value."
        }
      },
      "Withdrawn(address,uint256,uint256,uint256,uint256,uint256,uint256)": {
        "details": "Emitted when a user withdraws tokens.",
        "params": {
          "accruedEmission": "User's accrued emission.",
          "amount": "The amount of withdrawn tokens.",
          "balance": "Current user balance.",
          "fee": "The withdrawal fee.",
          "id": "User's unique deposit ID.",
          "lastDepositDuration": "Duration of the last deposit in seconds.",
          "sender": "User address."
        }
      }
    },
    "kind": "dev",
    "methods": {
      "deposit(uint256)": {
        "details": "This method is used to deposit tokens to a new deposit. It generates a new deposit ID and calls another public \"deposit\" method. See its description.",
        "params": {
          "_amount": "The amount to deposit."
        }
      },
      "deposit(uint256,uint256)": {
        "details": "This method is used to deposit tokens to the deposit opened before. It calls the internal \"_deposit\" method and transfers tokens from sender to contract. Sender must approve tokens first. Instead this, user can use the simple \"transfer\" method of STAKE token contract to make a deposit. Sender's approval is not needed in this case. Note: each call updates the deposit date so be careful if you want to make a long staking.",
        "params": {
          "_amount": "The amount to deposit.",
          "_depositId": "User's unique deposit ID."
        }
      },
      "fee()": {
        "returns": {
          "_0": "Returns current fee."
        }
      },
      "getSupplyBasedEmissionRate()": {
        "returns": {
          "_0": "Emission rate based on the ratio of total staked to total supply."
        }
      },
      "liquidityProvidersRewardAddress()": {
        "returns": {
          "_0": "Returns current liquidity providers reward address."
        }
      },
      "makeForcedWithdrawal(uint256,uint256)": {
        "details": "This method is used to make a forced withdrawal with a fee. It calls the internal \"_withdraw\" method.",
        "params": {
          "_amount": "The amount to withdraw (0 - to withdraw all).",
          "_depositId": "User's unique deposit ID."
        }
      },
      "makeRequestedWithdrawal(uint256,uint256)": {
        "details": "This method is used to make a requested withdrawal. It calls the internal \"_withdraw\" method and resets the date of the request. If sender didn't call this method during the unlock period (if timestamp >= lockEnd + withdrawalUnlockDuration) they have to call \"requestWithdrawal\" one more time.",
        "params": {
          "_amount": "The amount to withdraw (0 - to withdraw all).",
          "_depositId": "User's unique deposit ID."
        }
      },
      "onTokenTransfer(address,uint256,bytes)": {
        "details": "This method is called when STAKE tokens are transferred to this contract. using \"transfer\", \"transferFrom\", or \"transferAndCall\" method of STAKE token contract. It generates a new deposit ID and calls the internal \"_deposit\" method.",
        "params": {
          "_amount": "The transferred amount.",
          "_sender": "The sender of tokens."
        },
        "returns": {
          "_0": "true if successful"
        }
      },
      "owner()": {
        "details": "Returns the address of the current owner."
      },
      "renounceOwnership()": {
        "details": "Leaves the contract without owner. It will not be possible to call `onlyOwner` functions anymore. Can only be called by the current owner. NOTE: Renouncing ownership will leave the contract without an owner, thereby removing any functionality that is only available to the owner."
      },
      "requestWithdrawal(uint256)": {
        "details": "This method is used to request a withdrawal without a fee. It sets the date of the request. Note: each call updates the date of the request so don't call this method twice during the lock.",
        "params": {
          "_depositId": "User's unique deposit ID."
        }
      },
      "setFee(uint256)": {
        "details": "Sets the fee for forced withdrawals. Can only be called by owner.",
        "params": {
          "_value": "The new fee value (in percentage)."
        }
      },
      "setLiquidityProvidersRewardAddress(address)": {
        "details": "Sets the address for the Liquidity Providers reward. Can only be called by owner.",
        "params": {
          "_address": "The new address."
        }
      },
      "setSigmoidParameters(uint256,int256,uint256)": {
        "details": "Sets parameters of the sigmoid that is used to calculate the user's current emission rate. Can only be called by owner.",
        "params": {
          "_a": "Sigmoid parameter A. Unsigned integer.",
          "_b": "Sigmoid parameter B. Signed integer.",
          "_c": "Sigmoid parameter C. Unsigned integer. Cannot be zero."
        }
      },
      "setTotalSupplyFactor(uint256)": {
        "details": "Sets total supply factor for calculating emission rate. Can only be called by owner.",
        "params": {
          "_value": "The new factor value (in percentage)."
        }
      },
      "setWithdrawalLockDuration(uint256)": {
        "details": "Sets the time from the request after which the withdrawal will be available. Can only be called by owner.",
        "params": {
          "_value": "The new duration value (in seconds)."
        }
      },
      "setWithdrawalUnlockDuration(uint256)": {
        "details": "Sets the time during which the withdrawal will be available from the moment of unlocking. Can only be called by owner.",
        "params": {
          "_value": "The new duration value (in seconds)."
        }
      },
      "totalSupplyFactor()": {
        "returns": {
          "_0": "Returns current total supply factor."
        }
      },
      "transferOwnership(address)": {
        "details": "Transfers ownership of the contract to a new account (`newOwner`). Can only be called by the current owner."
      },
      "withdrawalLockDuration()": {
        "returns": {
          "_0": "Returns current withdrawal lock duration."
        }
      },
      "withdrawalUnlockDuration()": {
        "returns": {
          "_0": "Returns current withdrawal unlock duration."
        }
      }
    },
    "title": "EasyStaking Note: all percentage values are between 0 (0%) and 1 (100%) and represented as fixed point numbers containing 18 decimals like with Ether 100% == 1 ether",
    "version": 1
  },
  "userdoc": {
    "kind": "user",
    "methods": {},
    "version": 1
  }
}