{
  "contractName": "Ownable",
  "abi": [
    {
      "inputs": [],
      "stateMutability": "nonpayable",
      "type": "constructor"
    },
    {
      "anonymous": false,
      "inputs": [
        {
          "indexed": true,
          "internalType": "address",
          "name": "previousOwner",
          "type": "address"
        },
        {
          "indexed": true,
          "internalType": "address",
          "name": "newOwner",
          "type": "address"
        }
      ],
      "name": "OwnershipTransferred",
      "type": "event"
    },
    {
      "inputs": [],
      "name": "owner",
      "outputs": [
        {
          "internalType": "address",
          "name": "",
          "type": "address"
        }
      ],
      "stateMutability": "view",
      "type": "function"
    },
    {
      "inputs": [],
      "name": "renounceOwnership",
      "outputs": [],
      "stateMutability": "nonpayable",
      "type": "function"
    },
    {
      "inputs": [
        {
          "internalType": "address",
          "name": "newOwner",
          "type": "address"
        }
      ],
      "name": "transferOwnership",
      "outputs": [],
      "stateMutability": "nonpayable",
      "type": "function"
    },
    {
      "inputs": [],
      "name": "geUnlockTime",
      "outputs": [
        {
          "internalType": "uint256",
          "name": "",
          "type": "uint256"
        }
      ],
      "stateMutability": "view",
      "type": "function"
    },
    {
      "inputs": [
        {
          "internalType": "uint256",
          "name": "time",
          "type": "uint256"
        }
      ],
      "name": "lock",
      "outputs": [],
      "stateMutability": "nonpayable",
      "type": "function"
    },
    {
      "inputs": [],
      "name": "unlock",
      "outputs": [],
      "stateMutability": "nonpayable",
      "type": "function"
    }
  ],
  "bytecode": "0x608060405234801561001057600080fd5b50600080546001600160a01b031916339081178255604051909182917f8be0079c531659141344cd1fd0a4f28419497f9722a3daafe3b4186f6b6457e0908290a350610498806100616000396000f3fe608060405234801561001057600080fd5b50600436106100625760003560e01c8063715018a6146100675780638da5cb5b14610071578063a69df4b514610091578063b6c5232414610099578063dd467064146100aa578063f2fde38b146100bd575b600080fd5b61006f6100d0565b005b6000546040516001600160a01b0390911681526020015b60405180910390f35b61006f61013b565b600254604051908152602001610088565b61006f6100b83660046103ce565b610241565b61006f6100cb36600461039e565b6102c6565b6000546001600160a01b031633146101035760405162461bcd60e51b81526004016100fa906103e7565b60405180910390fd5b600080546040516001600160a01b0390911690600080516020610443833981519152908390a3600080546001600160a01b0319169055565b6001546001600160a01b031633146101a15760405162461bcd60e51b815260206004820152602360248201527f596f7520646f6e27742068617665207065726d697373696f6e20746f20756e6c6044820152626f636b60e81b60648201526084016100fa565b60025442116101f25760405162461bcd60e51b815260206004820152601f60248201527f436f6e7472616374206973206c6f636b656420756e74696c203720646179730060448201526064016100fa565b600154600080546040516001600160a01b03938416939091169160008051602061044383398151915291a3600154600080546001600160a01b0319166001600160a01b03909216919091179055565b6000546001600160a01b0316331461026b5760405162461bcd60e51b81526004016100fa906103e7565b60008054600180546001600160a01b03199081166001600160a01b0384161790915516905561029a814261041c565b600255600080546040516001600160a01b0390911690600080516020610443833981519152908390a350565b6000546001600160a01b031633146102f05760405162461bcd60e51b81526004016100fa906103e7565b6001600160a01b0381166103555760405162461bcd60e51b815260206004820152602660248201527f4f776e61626c653a206e6577206f776e657220697320746865207a65726f206160448201526564647265737360d01b60648201526084016100fa565b600080546040516001600160a01b038085169392169160008051602061044383398151915291a3600080546001600160a01b0319166001600160a01b0392909216919091179055565b6000602082840312156103b057600080fd5b81356001600160a01b03811681146103c757600080fd5b9392505050565b6000602082840312156103e057600080fd5b5035919050565b6020808252818101527f4f776e61626c653a2063616c6c6572206973206e6f7420746865206f776e6572604082015260600190565b6000821982111561043d57634e487b7160e01b600052601160045260246000fd5b50019056fe8be0079c531659141344cd1fd0a4f28419497f9722a3daafe3b4186f6b6457e0a2646970667358221220f00bb38f759c784cfb5985810f6921b65ec268f8737f69047729f5f8e3df7b0864736f6c63430008060033",
  "immutableReferences": {},
  "source": "/**\r\n *Submitted for verification at BscScan.com on 2021-03-01\r\n*/\r\n\r\n/**\r\n *Submitted for verification at BscScan.com on 2021-03-01\r\n*/\r\n\r\n/**\r\n  \r\n   #BEE\r\n   \r\n   #LIQ+#RFI+#SHIB+#DOGE = #BEE\r\n\r\n   #SAFEMOON features:\r\n   3% fee auto add to the liquidity pool to locked forever when selling\r\n   2% fee auto distribute to all holders\r\n   I created a black hole so #Bee token will deflate itself in supply with every transaction\r\n   50% Supply is burned at start.\r\n   \r\n\r\n */\r\n\r\npragma solidity ^0.8.6;\r\n// SPDX-License-Identifier: Unlicensed\r\ninterface IERC20 {\r\n\r\n    function totalSupply() external view returns (uint256);\r\n\r\n    /**\r\n     * @dev Returns the amount of tokens owned by `account`.\r\n     */\r\n    function balanceOf(address account) external view returns (uint256);\r\n\r\n    /**\r\n     * @dev Moves `amount` tokens from the caller's account to `recipient`.\r\n     *\r\n     * Returns a boolean value indicating whether the operation succeeded.\r\n     *\r\n     * Emits a {Transfer} event.\r\n     */\r\n    function transfer(address recipient, uint256 amount) external returns (bool);\r\n\r\n    /**\r\n     * @dev Returns the remaining number of tokens that `spender` will be\r\n     * allowed to spend on behalf of `owner` through {transferFrom}. This is\r\n     * zero by default.\r\n     *\r\n     * This value changes when {approve} or {transferFrom} are called.\r\n     */\r\n    function allowance(address owner, address spender) external view returns (uint256);\r\n\r\n    /**\r\n     * @dev Sets `amount` as the allowance of `spender` over the caller's tokens.\r\n     *\r\n     * Returns a boolean value indicating whether the operation succeeded.\r\n     *\r\n     * IMPORTANT: Beware that changing an allowance with this method brings the risk\r\n     * that someone may use both the old and the new allowance by unfortunate\r\n     * transaction ordering. One possible solution to mitigate this race\r\n     * condition is to first reduce the spender's allowance to 0 and set the\r\n     * desired value afterwards:\r\n     * https://github.com/ethereum/EIPs/issues/20#issuecomment-263524729\r\n     *\r\n     * Emits an {Approval} event.\r\n     */\r\n    function approve(address spender, uint256 amount) external returns (bool);\r\n\r\n    /**\r\n     * @dev Moves `amount` tokens from `sender` to `recipient` using the\r\n     * allowance mechanism. `amount` is then deducted from the caller's\r\n     * allowance.\r\n     *\r\n     * Returns a boolean value indicating whether the operation succeeded.\r\n     *\r\n     * Emits a {Transfer} event.\r\n     */\r\n    function transferFrom(address sender, address recipient, uint256 amount) external returns (bool);\r\n\r\n    /**\r\n     * @dev Emitted when `value` tokens are moved from one account (`from`) to\r\n     * another (`to`).\r\n     *\r\n     * Note that `value` may be zero.\r\n     */\r\n    event Transfer(address indexed from, address indexed to, uint256 value);\r\n\r\n    /**\r\n     * @dev Emitted when the allowance of a `spender` for an `owner` is set by\r\n     * a call to {approve}. `value` is the new allowance.\r\n     */\r\n    event Approval(address indexed owner, address indexed spender, uint256 value);\r\n}\r\n\r\n\r\n\r\n/**\r\n * @dev Wrappers over Solidity's arithmetic operations with added overflow\r\n * checks.\r\n *\r\n * Arithmetic operations in Solidity wrap on overflow. This can easily result\r\n * in bugs, because programmers usually assume that an overflow raises an\r\n * error, which is the standard behavior in high level programming languages.\r\n * `SafeMath` restores this intuition by reverting the transaction when an\r\n * operation overflows.\r\n *\r\n * Using this library instead of the unchecked operations eliminates an entire\r\n * class of bugs, so it's recommended to use it always.\r\n */\r\n \r\nlibrary SafeMath {\r\n    /**\r\n     * @dev Returns the addition of two unsigned integers, reverting on\r\n     * overflow.\r\n     *\r\n     * Counterpart to Solidity's `+` operator.\r\n     *\r\n     * Requirements:\r\n     *\r\n     * - Addition cannot overflow.\r\n     */\r\n    function add(uint256 a, uint256 b) internal pure returns (uint256) {\r\n        uint256 c = a + b;\r\n        require(c >= a, \"SafeMath: addition overflow\");\r\n\r\n        return c;\r\n    }\r\n\r\n    /**\r\n     * @dev Returns the subtraction of two unsigned integers, reverting on\r\n     * overflow (when the result is negative).\r\n     *\r\n     * Counterpart to Solidity's `-` operator.\r\n     *\r\n     * Requirements:\r\n     *\r\n     * - Subtraction cannot overflow.\r\n     */\r\n    function sub(uint256 a, uint256 b) internal pure returns (uint256) {\r\n        return sub(a, b, \"SafeMath: subtraction overflow\");\r\n    }\r\n\r\n    /**\r\n     * @dev Returns the subtraction of two unsigned integers, reverting with custom message on\r\n     * overflow (when the result is negative).\r\n     *\r\n     * Counterpart to Solidity's `-` operator.\r\n     *\r\n     * Requirements:\r\n     *\r\n     * - Subtraction cannot overflow.\r\n     */\r\n    function sub(uint256 a, uint256 b, string memory errorMessage) internal pure returns (uint256) {\r\n        require(b <= a, errorMessage);\r\n        uint256 c = a - b;\r\n\r\n        return c;\r\n    }\r\n\r\n    /**\r\n     * @dev Returns the multiplication of two unsigned integers, reverting on\r\n     * overflow.\r\n     *\r\n     * Counterpart to Solidity's `*` operator.\r\n     *\r\n     * Requirements:\r\n     *\r\n     * - Multiplication cannot overflow.\r\n     */\r\n    function mul(uint256 a, uint256 b) internal pure returns (uint256) {\r\n        // Gas optimization: this is cheaper than requiring 'a' not being zero, but the\r\n        // benefit is lost if 'b' is also tested.\r\n        // See: https://github.com/OpenZeppelin/openzeppelin-contracts/pull/522\r\n        if (a == 0) {\r\n            return 0;\r\n        }\r\n\r\n        uint256 c = a * b;\r\n        require(c / a == b, \"SafeMath: multiplication overflow\");\r\n\r\n        return c;\r\n    }\r\n\r\n    /**\r\n     * @dev Returns the integer division of two unsigned integers. Reverts on\r\n     * division by zero. The result is rounded towards zero.\r\n     *\r\n     * Counterpart to Solidity's `/` operator. Note: this function uses a\r\n     * `revert` opcode (which leaves remaining gas untouched) while Solidity\r\n     * uses an invalid opcode to revert (consuming all remaining gas).\r\n     *\r\n     * Requirements:\r\n     *\r\n     * - The divisor cannot be zero.\r\n     */\r\n    function div(uint256 a, uint256 b) internal pure returns (uint256) {\r\n        return div(a, b, \"SafeMath: division by zero\");\r\n    }\r\n\r\n    /**\r\n     * @dev Returns the integer division of two unsigned integers. Reverts with custom message on\r\n     * division by zero. The result is rounded towards zero.\r\n     *\r\n     * Counterpart to Solidity's `/` operator. Note: this function uses a\r\n     * `revert` opcode (which leaves remaining gas untouched) while Solidity\r\n     * uses an invalid opcode to revert (consuming all remaining gas).\r\n     *\r\n     * Requirements:\r\n     *\r\n     * - The divisor cannot be zero.\r\n     */\r\n    function div(uint256 a, uint256 b, string memory errorMessage) internal pure returns (uint256) {\r\n        require(b > 0, errorMessage);\r\n        uint256 c = a / b;\r\n        // assert(a == b * c + a % b); // There is no case in which this doesn't hold\r\n\r\n        return c;\r\n    }\r\n\r\n    /**\r\n     * @dev Returns the remainder of dividing two unsigned integers. (unsigned integer modulo),\r\n     * Reverts when dividing by zero.\r\n     *\r\n     * Counterpart to Solidity's `%` operator. This function uses a `revert`\r\n     * opcode (which leaves remaining gas untouched) while Solidity uses an\r\n     * invalid opcode to revert (consuming all remaining gas).\r\n     *\r\n     * Requirements:\r\n     *\r\n     * - The divisor cannot be zero.\r\n     */\r\n    function mod(uint256 a, uint256 b) internal pure returns (uint256) {\r\n        return mod(a, b, \"SafeMath: modulo by zero\");\r\n    }\r\n\r\n    /**\r\n     * @dev Returns the remainder of dividing two unsigned integers. (unsigned integer modulo),\r\n     * Reverts with custom message when dividing by zero.\r\n     *\r\n     * Counterpart to Solidity's `%` operator. This function uses a `revert`\r\n     * opcode (which leaves remaining gas untouched) while Solidity uses an\r\n     * invalid opcode to revert (consuming all remaining gas).\r\n     *\r\n     * Requirements:\r\n     *\r\n     * - The divisor cannot be zero.\r\n     */\r\n    function mod(uint256 a, uint256 b, string memory errorMessage) internal pure returns (uint256) {\r\n        require(b != 0, errorMessage);\r\n        return a % b;\r\n    }\r\n}\r\n\r\nabstract contract Context {\r\n    function _msgSender() internal view virtual returns (address payable) {\r\n        return payable(msg.sender);\r\n    }\r\n\r\n    function _msgData() internal view virtual returns (bytes memory) {\r\n        this; // silence state mutability warning without generating bytecode - see https://github.com/ethereum/solidity/issues/2691\r\n        return msg.data;\r\n    }\r\n}\r\n\r\n\r\n/**\r\n * @dev Collection of functions related to the address type\r\n */\r\nlibrary Address {\r\n    /**\r\n     * @dev Returns true if `account` is a contract.\r\n     *\r\n     * [IMPORTANT]\r\n     * ====\r\n     * It is unsafe to assume that an address for which this function returns\r\n     * false is an externally-owned account (EOA) and not a contract.\r\n     *\r\n     * Among others, `isContract` will return false for the following\r\n     * types of addresses:\r\n     *\r\n     *  - an externally-owned account\r\n     *  - a contract in construction\r\n     *  - an address where a contract will be created\r\n     *  - an address where a contract lived, but was destroyed\r\n     * ====\r\n     */\r\n    function isContract(address account) internal view returns (bool) {\r\n        // According to EIP-1052, 0x0 is the value returned for not-yet created accounts\r\n        // and 0xc5d2460186f7233c927e7db2dcc703c0e500b653ca82273b7bfad8045d85a470 is returned\r\n        // for accounts without code, i.e. `keccak256('')`\r\n        bytes32 codehash;\r\n        bytes32 accountHash = 0xc5d2460186f7233c927e7db2dcc703c0e500b653ca82273b7bfad8045d85a470;\r\n        // solhint-disable-next-line no-inline-assembly\r\n        assembly { codehash := extcodehash(account) }\r\n        return (codehash != accountHash && codehash != 0x0);\r\n    }\r\n\r\n    /**\r\n     * @dev Replacement for Solidity's `transfer`: sends `amount` wei to\r\n     * `recipient`, forwarding all available gas and reverting on errors.\r\n     *\r\n     * https://eips.ethereum.org/EIPS/eip-1884[EIP1884] increases the gas cost\r\n     * of certain opcodes, possibly making contracts go over the 2300 gas limit\r\n     * imposed by `transfer`, making them unable to receive funds via\r\n     * `transfer`. {sendValue} removes this limitation.\r\n     *\r\n     * https://diligence.consensys.net/posts/2019/09/stop-using-soliditys-transfer-now/[Learn more].\r\n     *\r\n     * IMPORTANT: because control is transferred to `recipient`, care must be\r\n     * taken to not create reentrancy vulnerabilities. Consider using\r\n     * {ReentrancyGuard} or the\r\n     * https://solidity.readthedocs.io/en/v0.5.11/security-considerations.html#use-the-checks-effects-interactions-pattern[checks-effects-interactions pattern].\r\n     */\r\n    function sendValue(address payable recipient, uint256 amount) internal {\r\n        require(address(this).balance >= amount, \"Address: insufficient balance\");\r\n\r\n        // solhint-disable-next-line avoid-low-level-calls, avoid-call-value\r\n        (bool success, ) = recipient.call{ value: amount }(\"\");\r\n        require(success, \"Address: unable to send value, recipient may have reverted\");\r\n    }\r\n\r\n    /**\r\n     * @dev Performs a Solidity function call using a low level `call`. A\r\n     * plain`call` is an unsafe replacement for a function call: use this\r\n     * function instead.\r\n     *\r\n     * If `target` reverts with a revert reason, it is bubbled up by this\r\n     * function (like regular Solidity function calls).\r\n     *\r\n     * Returns the raw returned data. To convert to the expected return value,\r\n     * use https://solidity.readthedocs.io/en/latest/units-and-global-variables.html?highlight=abi.decode#abi-encoding-and-decoding-functions[`abi.decode`].\r\n     *\r\n     * Requirements:\r\n     *\r\n     * - `target` must be a contract.\r\n     * - calling `target` with `data` must not revert.\r\n     *\r\n     * _Available since v3.1._\r\n     */\r\n    function functionCall(address target, bytes memory data) internal returns (bytes memory) {\r\n      return functionCall(target, data, \"Address: low-level call failed\");\r\n    }\r\n\r\n    /**\r\n     * @dev Same as {xref-Address-functionCall-address-bytes-}[`functionCall`], but with\r\n     * `errorMessage` as a fallback revert reason when `target` reverts.\r\n     *\r\n     * _Available since v3.1._\r\n     */\r\n    function functionCall(address target, bytes memory data, string memory errorMessage) internal returns (bytes memory) {\r\n        return _functionCallWithValue(target, data, 0, errorMessage);\r\n    }\r\n\r\n    /**\r\n     * @dev Same as {xref-Address-functionCall-address-bytes-}[`functionCall`],\r\n     * but also transferring `value` wei to `target`.\r\n     *\r\n     * Requirements:\r\n     *\r\n     * - the calling contract must have an ETH balance of at least `value`.\r\n     * - the called Solidity function must be `payable`.\r\n     *\r\n     * _Available since v3.1._\r\n     */\r\n    function functionCallWithValue(address target, bytes memory data, uint256 value) internal returns (bytes memory) {\r\n        return functionCallWithValue(target, data, value, \"Address: low-level call with value failed\");\r\n    }\r\n\r\n    /**\r\n     * @dev Same as {xref-Address-functionCallWithValue-address-bytes-uint256-}[`functionCallWithValue`], but\r\n     * with `errorMessage` as a fallback revert reason when `target` reverts.\r\n     *\r\n     * _Available since v3.1._\r\n     */\r\n    function functionCallWithValue(address target, bytes memory data, uint256 value, string memory errorMessage) internal returns (bytes memory) {\r\n        require(address(this).balance >= value, \"Address: insufficient balance for call\");\r\n        return _functionCallWithValue(target, data, value, errorMessage);\r\n    }\r\n\r\n    function _functionCallWithValue(address target, bytes memory data, uint256 weiValue, string memory errorMessage) private returns (bytes memory) {\r\n        require(isContract(target), \"Address: call to non-contract\");\r\n\r\n        // solhint-disable-next-line avoid-low-level-calls\r\n        (bool success, bytes memory returndata) = target.call{ value: weiValue }(data);\r\n        if (success) {\r\n            return returndata;\r\n        } else {\r\n            // Look for revert reason and bubble it up if present\r\n            if (returndata.length > 0) {\r\n                // The easiest way to bubble the revert reason is using memory via assembly\r\n\r\n                // solhint-disable-next-line no-inline-assembly\r\n                assembly {\r\n                    let returndata_size := mload(returndata)\r\n                    revert(add(32, returndata), returndata_size)\r\n                }\r\n            } else {\r\n                revert(errorMessage);\r\n            }\r\n        }\r\n    }\r\n}\r\n\r\n/**\r\n * @dev Contract module which provides a basic access control mechanism, where\r\n * there is an account (an owner) that can be granted exclusive access to\r\n * specific functions.\r\n *\r\n * By default, the owner account will be the one that deploys the contract. This\r\n * can later be changed with {transferOwnership}.\r\n *\r\n * This module is used through inheritance. It will make available the modifier\r\n * `onlyOwner`, which can be applied to your functions to restrict their use to\r\n * the owner.\r\n */\r\ncontract Ownable is Context {\r\n    address private _owner;\r\n    address private _previousOwner;\r\n    uint256 private _lockTime;\r\n\r\n    event OwnershipTransferred(address indexed previousOwner, address indexed newOwner);\r\n\r\n    /**\r\n     * @dev Initializes the contract setting the deployer as the initial owner.\r\n     */\r\n    constructor ()  {\r\n        address msgSender = _msgSender();\r\n        _owner = msgSender;\r\n        emit OwnershipTransferred(address(0), msgSender);\r\n    }\r\n\r\n    /**\r\n     * @dev Returns the address of the current owner.\r\n     */\r\n    function owner() public view returns (address) {\r\n        return _owner;\r\n    }\r\n\r\n    /**\r\n     * @dev Throws if called by any account other than the owner.\r\n     */\r\n    modifier onlyOwner() {\r\n        require(_owner == _msgSender(), \"Ownable: caller is not the owner\");\r\n        _;\r\n    }\r\n\r\n     /**\r\n     * @dev Leaves the contract without owner. It will not be possible to call\r\n     * `onlyOwner` functions anymore. Can only be called by the current owner.\r\n     *\r\n     * NOTE: Renouncing ownership will leave the contract without an owner,\r\n     * thereby removing any functionality that is only available to the owner.\r\n     */\r\n    function renounceOwnership() public virtual onlyOwner {\r\n        emit OwnershipTransferred(_owner, address(0));\r\n        _owner = address(0);\r\n    }\r\n\r\n    /**\r\n     * @dev Transfers ownership of the contract to a new account (`newOwner`).\r\n     * Can only be called by the current owner.\r\n     */\r\n    function transferOwnership(address newOwner) public virtual onlyOwner {\r\n        require(newOwner != address(0), \"Ownable: new owner is the zero address\");\r\n        emit OwnershipTransferred(_owner, newOwner);\r\n        _owner = newOwner;\r\n    }\r\n\r\n    function geUnlockTime() public view returns (uint256) {\r\n        return _lockTime;\r\n    }\r\n\r\n    //Locks the contract for owner for the amount of time provided\r\n    function lock(uint256 time) public virtual onlyOwner {\r\n        _previousOwner = _owner;\r\n        _owner = address(0);\r\n        _lockTime = block.timestamp + time;\r\n        emit OwnershipTransferred(_owner, address(0));\r\n    }\r\n    \r\n    //Unlocks the contract for owner when _lockTime is exceeds\r\n    function unlock() public virtual {\r\n        require(_previousOwner == msg.sender, \"You don't have permission to unlock\");\r\n        require( block.timestamp > _lockTime , \"Contract is locked until 7 days\");\r\n        emit OwnershipTransferred(_owner, _previousOwner);\r\n        _owner = _previousOwner;\r\n    }\r\n}\r\n\r\ncontract WarBotStatsData is Ownable{\r\n \r\n    \r\n    using SafeMath for uint256;\r\n    mapping ( uint256 => uint256 ) public WarbotXP;\r\n    mapping ( uint256 => uint256 ) public WarbotLevel;\r\n    // 0 tractor\r\n    // 1 walker\r\n    // 2 air drone\r\n    \r\n    mapping ( uint256 => uint8 ) public WarbotType;\r\n    mapping ( uint256 => uint256 ) public warbotLevelCount;\r\n    mapping ( uint256 => uint256 ) public warbotWins;\r\n    mapping ( uint256 => uint256 ) public warbotLosses;\r\n    mapping ( uint256 => WarBotProfile ) public WarBotProfiles;\r\n    mapping ( uint256 =>  WarBotCurrentStat ) public  WarBotCurrentStats;\r\n    mapping ( uint256 => address ) public WarbotHandOff;\r\n    mapping ( uint256 => uint256 ) public lastWarAt;\r\n    \r\n    address public oracle;\r\n    address[] public EngineContracts;\r\n    \r\n    mapping ( uint256 => bool ) public RequestReroll;\r\n    \r\n    event levelStatsRerollRequested ( uint256 _warbot );\r\n    event levelStatsRolled ( uint256 _warbot );\r\n    \r\n    event WarbotDamaged ( uint256 _warbot, uint256 _damage );\r\n    event WarbotAttackDamaged ( uint256 _warbot, uint256 _damage );\r\n    event WarbotDefenseDamaged ( uint256 _warbot, uint256 _damage );\r\n    event WarbotSpeedDamaged ( uint256 _warbot, uint256 _damage );\r\n    \r\n    event WarbotRepaired ( uint256 _warbot, uint256 _repair );\r\n    event WarbotAttackRepaired ( uint256 _warbot, uint256 _damage );\r\n    event WarbotDefenseRepaired ( uint256 _warbot, uint256 _damage );\r\n    event WarbotSpeedRepaired ( uint256 _warbot, uint256 _damage );\r\n    event warbotUpgraded ( uint256 _warbot, uint256 _level );\r\n   \r\n\r\n    \r\n    struct WarBotProfile {\r\n           \r\n            address creator;\r\n            uint256 hitpoints;\r\n            uint256 attack;\r\n            uint256 defense;\r\n            uint256 speed;\r\n            uint256 slots;\r\n            uint256 rerollCount;\r\n            uint256 basehitpoints;\r\n            uint256 baseattack;\r\n            uint256 basedefense;\r\n            uint256 basespeed;\r\n            uint256[] globalXYZ;\r\n            uint8 movement;\r\n            \r\n            \r\n    }    \r\n    \r\n    struct WarBotCurrentStat {\r\n        \r\n        bool _levelinit;\r\n        uint256   _warbothitpoints;\r\n        uint256   _warbotattack;\r\n        uint256   _warbotdefense;\r\n        uint256   _warbotspeed;\r\n        uint256[] _xyz;\r\n        uint256[] _specialeffect;\r\n        uint256[] _specialduration;\r\n        uint8[]   _nftslots;\r\n        uint8     _movement;\r\n    }\r\n    \r\n    \r\n    constructor () {\r\n        oracle = 0x7cE0E55703F12D03Eb53B918aD6B9EB80d188afB;\r\n    }\r\n    \r\n    \r\n    function setWarBotGlobalXYZ ( uint256 _warbot, uint256[] memory _xyz ) public {\r\n        \r\n        WarBotProfiles[_warbot].globalXYZ= _xyz;\r\n    }\r\n    \r\n    function getWarBotGlobalXYZ ( uint256 _warbot ) public view returns(uint256[] memory){\r\n        \r\n        return WarBotProfiles[_warbot].globalXYZ;\r\n    }\r\n    \r\n    \r\n    \r\n    function setWarBotWins ( uint256 _warbot ) public {\r\n        \r\n        warbotWins[_warbot]++;\r\n    }\r\n    \r\n    function setWarBotLosses ( uint256 _warbot ) public {\r\n        \r\n        warbotLosses[_warbot]++;\r\n    }\r\n    \r\n    function incrementWarbotRerollCount ( uint256 _warbot ) public onlyEngine {\r\n        \r\n        WarBotProfiles[_warbot].rerollCount++;\r\n    }\r\n    \r\n    function getRerollCount ( uint256 _warbot ) public view returns(uint256) {\r\n        \r\n        return WarBotProfiles[_warbot].rerollCount;\r\n    }\r\n             \r\n    function setWarbotHandoff ( uint256 _warbot ) public {\r\n        \r\n        WarbotHandOff[ _warbot ] = msg.sender;\r\n    }\r\n    \r\n    function incrementWarbotXP ( uint256 _warbot, uint256 _xp ) public {\r\n        \r\n        WarbotXP[ _warbot ] += _xp;\r\n    }\r\n    \r\n    function getOracle ( ) public view returns (address){\r\n        \r\n        return oracle;\r\n    }\r\n    \r\n    function getWarBotLevel ( uint256 _warbot ) public view returns (uint256){\r\n        \r\n        return WarbotLevel[ _warbot ];\r\n    }\r\n    \r\n    function setWarBotCurrentStats( uint256 _warbot, uint256 _warbothitpoints,  uint256 _warbotattack, uint256 _warbotdefense, \r\n                                   uint256 _warbotspeed, uint256[] memory _xyz, uint256[]  memory _specialeffect, \r\n                                   uint256[] memory _specialduration , uint8[] memory _nftslots) public {\r\n        \r\n         WarBotCurrentStats[_warbot]._warbothitpoints   = _warbothitpoints;  \r\n         WarBotCurrentStats[_warbot]._warbotattack = _warbotattack;\r\n         WarBotCurrentStats[_warbot]._warbotdefense = _warbotdefense;\r\n         WarBotCurrentStats[_warbot]._warbotspeed = _warbotspeed;\r\n         WarBotCurrentStats[_warbot]._xyz = _xyz;\r\n         WarBotCurrentStats[_warbot]._specialeffect = _specialeffect;\r\n         WarBotCurrentStats[_warbot]._specialduration = _specialduration;\r\n         WarBotCurrentStats[_warbot]._nftslots = _nftslots;\r\n    }\r\n    \r\n    function repairWarbot( uint256 _warbot, uint256 _warbothitpoints,  uint256 _warbotattack, uint256 _warbotdefense, \r\n                                   uint256 _warbotspeed, uint8 _movement  ) public {\r\n        \r\n         if ( WarBotCurrentStats[_warbot]._warbothitpoints + _warbothitpoints > WarBotProfiles[_warbot].hitpoints ) _warbothitpoints = WarBotProfiles[_warbot].hitpoints;\r\n         if ( WarBotCurrentStats[_warbot]._warbotattack + _warbotdefense > WarBotProfiles[_warbot].defense ) _warbothitpoints = WarBotProfiles[_warbot].defense;\r\n         if ( WarBotCurrentStats[_warbot]._warbotdefense + _warbotattack > WarBotProfiles[_warbot].attack ) _warbothitpoints = WarBotProfiles[_warbot].attack;\r\n         if ( WarBotCurrentStats[_warbot]._warbotspeed + _warbotspeed > WarBotProfiles[_warbot].speed ) _warbothitpoints = WarBotProfiles[_warbot].speed;\r\n         if ( _movement > WarBotProfiles[_warbot].movement) _warbothitpoints = WarBotProfiles[_warbot].movement;\r\n         \r\n         WarBotCurrentStats[_warbot]._warbothitpoints   += _warbothitpoints;  \r\n         WarBotCurrentStats[_warbot]._warbotattack += _warbotattack;\r\n         WarBotCurrentStats[_warbot]._warbotdefense += _warbotdefense;\r\n         WarBotCurrentStats[_warbot]._warbotspeed += _warbotspeed;\r\n         WarBotCurrentStats[_warbot]._movement += _movement;\r\n        \r\n    }\r\n    \r\n    \r\n    \r\n    \r\n    \r\n    \r\n    function getWarbotProfile ( uint256 _warbot ) public view returns( WarBotProfile memory ){\r\n        return WarBotProfiles[_warbot];\r\n    }\r\n    \r\n    function getWarbotCurrentStats ( uint256 _warbot ) public view returns( WarBotCurrentStat memory ){\r\n        return WarBotCurrentStats[_warbot];\r\n    }\r\n    \r\n    function getWarbotCurrentMovement ( uint256 _warbot ) public view returns( uint8  ){\r\n        return WarBotCurrentStats[_warbot]._movement;\r\n    }\r\n    \r\n    function getWarbotCurrentAttack ( uint256 _warbot ) public view returns( uint256  ){\r\n        return WarBotCurrentStats[_warbot]._warbotattack;\r\n    }\r\n    \r\n    function getWarbotCurrentDefense ( uint256 _warbot ) public view returns( uint256  ){\r\n        return WarBotCurrentStats[_warbot]._warbotdefense;\r\n    }\r\n    \r\n    function getWarbotCurrentSpeed ( uint256 _warbot ) public view returns( uint256  ){\r\n        return WarBotCurrentStats[_warbot]._warbotspeed;\r\n    }\r\n    \r\n    function setWarbotType ( uint256 _warbot, uint8 _type ) public onlyOracle {\r\n        \r\n        WarbotType[ _warbot ] = _type;\r\n    }\r\n    \r\n    function rollStats ( uint256 _warbot, uint256 _hitpoints, uint256 _attack, uint256 _defense, uint256 _speed, uint8 _type, uint8 _movement ) public onlyOracle {\r\n        \r\n        WarBotProfiles[ _warbot ].hitpoints = WarBotProfiles[ _warbot ].basehitpoints + _hitpoints;\r\n        WarBotProfiles[ _warbot ].attack = WarBotProfiles[ _warbot ].baseattack + _attack;\r\n        WarBotProfiles[ _warbot ].defense = WarBotProfiles[ _warbot ].basedefense + _defense;\r\n        WarBotProfiles[ _warbot ].speed = WarBotProfiles[ _warbot ].basespeed + _speed;\r\n        RequestReroll[_warbot]=false;\r\n        if (_type > 0 ) setWarbotType ( _warbot, _type );\r\n        if (_movement > 0 ) WarBotProfiles[ _warbot ].movement += _movement;\r\n        if ( WarBotCurrentStats[ _warbot ]._levelinit == false ) {\r\n            \r\n            \r\n             WarBotCurrentStats[_warbot]._warbothitpoints   =  WarBotProfiles[ _warbot ].basehitpoints + _hitpoints;\r\n             WarBotCurrentStats[_warbot]._warbotattack = WarBotProfiles[ _warbot ].baseattack + _attack;\r\n             WarBotCurrentStats[_warbot]._warbotdefense = WarBotProfiles[ _warbot ].basedefense + _defense;\r\n             WarBotCurrentStats[_warbot]._warbotspeed = WarBotProfiles[ _warbot ].basespeed + _speed;\r\n             WarBotCurrentStats[ _warbot ]._levelinit = true;\r\n        }\r\n        \r\n        emit levelStatsRolled ( _warbot );\r\n    }\r\n    \r\n    \r\n    function requestRerollOfStats ( uint256 _warbot ) public onlyEngine {\r\n        \r\n        RequestReroll[_warbot] = true;\r\n        emit levelStatsRerollRequested ( _warbot );\r\n    }\r\n    \r\n    function setSlots( uint256 _warbot, uint8 _slots ) public {\r\n        WarBotProfiles[_warbot].slots = _slots;\r\n    }\r\n    \r\n    function setCreator( uint256 _warbot, address _creator ) public {\r\n        WarBotProfiles[_warbot].creator = _creator;\r\n    }\r\n    \r\n     function getCreator( uint256 _warbot ) public view returns(address) {\r\n       return  WarBotProfiles[_warbot].creator;\r\n     }\r\n    \r\n    function zeroWarbotLevel( uint256 _warbot ) public {\r\n        uint256 _level = WarbotLevel[_warbot];\r\n        WarbotLevel[_warbot] = 0;\r\n        warbotLevelCount[_level].sub(1);\r\n        \r\n        \r\n    }\r\n    \r\n    function incrementWarbotLevel( uint256 _warbot ) public {\r\n        uint256 _level = WarbotLevel[_warbot];\r\n        WarbotLevel[_warbot]++;\r\n        warbotLevelCount[WarbotLevel[_warbot]]++;\r\n        if( _level != 0 ) warbotLevelCount[_level]--;\r\n        requestRerollOfStats(_warbot);\r\n        WarBotProfiles[_warbot].basehitpoints = WarBotProfiles[ _warbot ].hitpoints;\r\n        WarBotProfiles[_warbot].baseattack = WarBotProfiles[ _warbot ].attack;\r\n        WarBotProfiles[_warbot].basedefense = WarBotProfiles[ _warbot ].defense;\r\n        WarBotProfiles[_warbot].basespeed = WarBotProfiles[ _warbot ].speed;\r\n        WarBotProfiles[ _warbot ].rerollCount = 0;\r\n        WarBotCurrentStats[ _warbot ]._levelinit = false;\r\n        emit warbotUpgraded ( _warbot, WarbotLevel[_warbot] );\r\n        \r\n    }\r\n    \r\n    \r\n    \r\n    function incrementReroll( uint256 _warbot ) public {\r\n        WarBotProfiles[_warbot].rerollCount++;\r\n    }\r\n    \r\n    function getCurrentRerollCount( uint256 _warbot ) public view returns(uint256) {\r\n        return WarBotProfiles[_warbot].rerollCount;\r\n    }\r\n    \r\n    function setCurrentHitPoint( uint256 _warbot , uint256 _warbothitpoints) public {\r\n        WarBotCurrentStats[_warbot]._warbothitpoints   = _warbothitpoints; \r\n        \r\n    }\r\n    \r\n    function getCurrentHitPoint( uint256 _warbot ) public view returns(uint256){\r\n        return WarBotCurrentStats[_warbot]._warbothitpoints; \r\n        \r\n    }\r\n    \r\n    function damageWarbot ( uint256 _warbot, uint256 _damage )  public {\r\n        unchecked{ WarBotCurrentStats[_warbot]._warbothitpoints -= _damage; }\r\n        if ( WarBotCurrentStats[_warbot]._warbothitpoints >   WarBotProfiles[_warbot].hitpoints )  \r\n                                                            WarBotCurrentStats[_warbot]._warbothitpoints = 0;\r\n        emit WarbotDamaged ( _warbot, _damage );\r\n        \r\n    }\r\n    \r\n    function repairWarbot ( uint256 _warbot, uint256 _repair )  public {\r\n        WarBotCurrentStats[_warbot]._warbothitpoints += _repair; \r\n        if ( WarBotCurrentStats[_warbot]._warbothitpoints >   WarBotProfiles[_warbot].hitpoints )  \r\n                                                            WarBotCurrentStats[_warbot]._warbothitpoints = WarBotProfiles[_warbot].hitpoints;\r\n        emit WarbotRepaired (  _warbot, _repair ); \r\n    }\r\n    \r\n    \r\n    function damageWarbotDefense ( uint256 _warbot, uint256 _damage )  public {\r\n       unchecked{ WarBotCurrentStats[_warbot]._warbotdefense -= _damage; }\r\n        if ( WarBotCurrentStats[_warbot]._warbotdefense >   WarBotProfiles[_warbot].defense )  \r\n                                                            WarBotCurrentStats[_warbot]._warbotdefense = 0;\r\n        emit  WarbotDefenseDamaged (  _warbot, _damage );\r\n    }\r\n    \r\n    function repairWarbotDefense ( uint256 _warbot, uint256 _repair )  public {\r\n        WarBotCurrentStats[_warbot]._warbotdefense += _repair; \r\n        if ( WarBotCurrentStats[_warbot]._warbotdefense >   WarBotProfiles[_warbot].defense )  \r\n                                                            WarBotCurrentStats[_warbot]._warbotdefense = WarBotProfiles[_warbot].defense;\r\n        emit WarbotDefenseRepaired (  _warbot, _repair ); \r\n    \r\n        \r\n    }\r\n    \r\n    function damageWarbotAttack ( uint256 _warbot, uint256 _damage )  public {\r\n        unchecked{WarBotCurrentStats[_warbot]._warbotattack -= _damage; }\r\n        if ( WarBotCurrentStats[_warbot]._warbotattack >   WarBotProfiles[_warbot].attack )  \r\n                                                            WarBotCurrentStats[_warbot]._warbotattack = 0;\r\n        emit WarbotAttackDamaged ( _warbot, _damage );\r\n    }\r\n    \r\n    function repairWarbotAttack ( uint256 _warbot, uint256 _repair )  public {\r\n        WarBotCurrentStats[_warbot]._warbotattack += _repair; \r\n        if ( WarBotCurrentStats[_warbot]._warbotattack >   WarBotProfiles[_warbot].attack )  \r\n                                                            WarBotCurrentStats[_warbot]._warbotattack = WarBotProfiles[_warbot].attack;\r\n        emit WarbotAttackRepaired (  _warbot, _repair ); \r\n        \r\n    }\r\n    \r\n    function damageWarbotSpeed ( uint256 _warbot, uint256 _damage )  public {\r\n        unchecked{WarBotCurrentStats[_warbot]._warbotspeed -= _damage; }\r\n        if ( WarBotCurrentStats[_warbot]._warbotspeed >   WarBotProfiles[_warbot].speed )  \r\n                                                            WarBotCurrentStats[_warbot]._warbotspeed = 0;\r\n         emit WarbotSpeedDamaged (  _warbot, _damage );\r\n    }\r\n    \r\n    function repairWarbotSpeed ( uint256 _warbot, uint256 _repair )  public {\r\n        WarBotCurrentStats[_warbot]._warbotspeed += _repair; \r\n        if ( WarBotCurrentStats[_warbot]._warbotspeed >   WarBotProfiles[_warbot].speed )  \r\n                                                            WarBotCurrentStats[_warbot]._warbotspeed = WarBotProfiles[_warbot].speed;\r\n        emit WarbotSpeedRepaired (  _warbot, _repair );                                                    \r\n        \r\n    }\r\n    \r\n     function damageWarbotMovement ( uint256 _warbot, uint8 _damage )  public {\r\n        unchecked{WarBotCurrentStats[_warbot]._movement -= _damage; }\r\n        if ( WarBotCurrentStats[_warbot]._movement >   WarBotProfiles[_warbot].movement )  \r\n                                                            WarBotCurrentStats[_warbot]._movement = 0;\r\n         emit WarbotSpeedDamaged (  _warbot, _damage );\r\n    }\r\n    \r\n    function repairWarbotMovement ( uint256 _warbot, uint8 _repair )  public {\r\n        WarBotCurrentStats[_warbot]._movement += _repair; \r\n        if ( WarBotCurrentStats[_warbot]._movement >   WarBotProfiles[_warbot].movement )  \r\n                                                            WarBotCurrentStats[_warbot]._movement = WarBotProfiles[_warbot].movement;\r\n        emit WarbotSpeedRepaired (  _warbot, _repair );                                                    \r\n        \r\n    }\r\n    \r\n    \r\n    \r\n    function bindCardtoWarbot( uint256 _warbot, uint8 _cardtype, uint8 _bonus ) public {\r\n        \r\n        \r\n        WarBotProfile storage _profile = WarBotProfiles[_warbot];\r\n        if ( _cardtype == 1 ) _profile.attack += _bonus;\r\n        if ( _cardtype == 2 ) _profile.defense += _bonus;\r\n        if ( _cardtype == 3 )_profile.speed += _bonus;\r\n        if ( _cardtype == 4 )_profile.hitpoints += _bonus;\r\n       \r\n        \r\n    }\r\n    \r\n    \r\n    function setWarbotHandoff ( uint256 _warbot, address _contract ) public {\r\n        WarbotHandOff[_warbot] = _contract;\r\n        \r\n    }\r\n    \r\n    \r\n    function setEngineContracts ( address[] memory _addresses ) public onlyOwner {\r\n        EngineContracts = _addresses;\r\n    }\r\n    \r\n    function setOracle ( address _address ) public onlyOwner {\r\n        oracle = _address;\r\n    }\r\n    \r\n    \r\n    \r\n    \r\n    \r\n    modifier onlyEngine() {\r\n\r\n        bool team_member = false;\r\n        for( uint i=0; i < EngineContracts.length ; i++){\r\n          if( EngineContracts[i] == msg.sender ) team_member = true;\r\n        }\r\n        require(team_member == true , 'Game Engine Contracts Only');\r\n        _;\r\n    }\r\n    \r\n    modifier onlyOracle() {\r\n        require( msg.sender == oracle, \"Oracle Only\");\r\n        _;\r\n    }\r\n    \r\n    \r\n}",
  "sourcePath": "C:/warbots/warbotsFix/warbots/contracts/warbotstatsdata.sol",
  "compiler": {
    "name": "solc",
    "version": "0.8.6+commit.11564f7e.Emscripten.clang"
  },
  "schemaVersion": "3.4.1",
  "updatedAt": "2021-07-26T19:41:34.415Z",
  "devdoc": {
    "details": "Contract module which provides a basic access control mechanism, where there is an account (an owner) that can be granted exclusive access to specific functions. By default, the owner account will be the one that deploys the contract. This can later be changed with {transferOwnership}. This module is used through inheritance. It will make available the modifier `onlyOwner`, which can be applied to your functions to restrict their use to the owner.",
    "kind": "dev",
    "methods": {
      "constructor": {
        "details": "Initializes the contract setting the deployer as the initial owner."
      },
      "owner()": {
        "details": "Returns the address of the current owner."
      },
      "renounceOwnership()": {
        "details": "Leaves the contract without owner. It will not be possible to call `onlyOwner` functions anymore. Can only be called by the current owner. NOTE: Renouncing ownership will leave the contract without an owner, thereby removing any functionality that is only available to the owner."
      },
      "transferOwnership(address)": {
        "details": "Transfers ownership of the contract to a new account (`newOwner`). Can only be called by the current owner."
      }
    },
    "version": 1
  },
  "userdoc": {
    "kind": "user",
    "methods": {},
    "version": 1
  }
}