{
  "contractName": "Sigmoid",
  "abi": [
    {
      "inputs": [],
      "name": "PARAM_UPDATE_DELAY",
      "outputs": [
        {
          "internalType": "uint256",
          "name": "",
          "type": "uint256"
        }
      ],
      "stateMutability": "view",
      "type": "function"
    }
  ],
  "bytecode": "0x6089610038600b82828239805160001a607314602b57634e487b7160e01b600052600060045260246000fd5b30600052607381538281f3fe730000000000000000000000000000000000000000301460806040526004361060335760003560e01c8063db51ef92146038575b600080fd5b604162093a8081565b60405190815260200160405180910390f3fea26469706673582212201567caf382ffb3e8e458887cec6b867fba9b7afe7db3b91b64e30df11fbabfa364736f6c63430008070033",
  "immutableReferences": {},
  "source": "pragma solidity ^0.8.0;\n\n\n// SPDX-License-Identifier: Unlicensed\ninterface IERC20 {\n\n    function totalSupply() external view returns (uint256);\n\n\n    /**\n     * @dev Returns the amount of tokens owned by `account`.\n     */\n    function balanceOf(address account) external view returns (uint256);\n\n    /**\n     * @dev Moves `amount` tokens from the caller's account to `recipient`.\n     *\n     * Returns a boolean value indicating whether the operation succeeded.\n     *\n     * Emits a {Transfer} event.\n     */\n    function transfer(address recipient, uint256 amount) external returns (bool);\n\n    /**\n     * @dev Returns the remaining number of tokens that `spender` will be\n     * allowed to spend on behalf of `owner` through {transferFrom}. This is\n     * zero by default.\n     *\n     * This value changes when {approve} or {transferFrom} are called.\n     */\n    function allowance(address owner, address spender) external view returns (uint256);\n\n    /**\n     * @dev Sets `amount` as the allowance of `spender` over the caller's tokens.\n     *\n     * Returns a boolean value indicating whether the operation succeeded.\n     *\n     * IMPORTANT: Beware that changing an allowance with this method brings the risk\n     * that someone may use both the old and the new allowance by unfortunate\n     * transaction ordering. One possible solution to mitigate this race\n     * condition is to first reduce the spender's allowance to 0 and set the\n     * desired value afterwards:\n     * https://github.com/ethereum/EIPs/issues/20#issuecomment-263524729\n     *\n     * Emits an {Approval} event.\n     */\n    function approve(address spender, uint256 amount) external returns (bool);\n\n    /**\n     * @dev Moves `amount` tokens from `sender` to `recipient` using the\n     * allowance mechanism. `amount` is then deducted from the caller's\n     * allowance.\n     *\n     * Returns a boolean value indicating whether the operation succeeded.\n     *\n     * Emits a {Transfer} event.\n     */\n    function transferFrom(address sender, address recipient, uint256 amount) external returns (bool);\n\n    /**\n     * @dev Emitted when `value` tokens are moved from one account (`from`) to\n     * another (`to`).\n     *\n     * Note that `value` may be zero.\n     */\n    event Transfer(address indexed from, address indexed to, uint256 value);\n\n    /**\n     * @dev Emitted when the allowance of a `spender` for an `owner` is set by\n     * a call to {approve}. `value` is the new allowance.\n     */\n    event Approval(address indexed owner, address indexed spender, uint256 value);\n}\n\n\n\n\nlibrary SafeMath {\n    /**\n     * @dev Returns the addition of two unsigned integers, reverting on\n     * overflow.\n     *\n     * Counterpart to Solidity's `+` operator.\n     *\n     * Requirements:\n     *\n     * - Addition cannot overflow.\n     */\n    function add(uint256 a, uint256 b) internal pure returns (uint256) {\n        uint256 c = a + b;\n        require(c >= a, \"SafeMath: addition overflow\");\n\n        return c;\n    }\n\n    /**\n     * @dev Returns the subtraction of two unsigned integers, reverting on\n     * overflow (when the result is negative).\n     *\n     * Counterpart to Solidity's `-` operator.\n     *\n     * Requirements:\n     *\n     * - Subtraction cannot overflow.\n     */\n    function sub(uint256 a, uint256 b) internal pure returns (uint256) {\n        return sub(a, b, \"SafeMath: subtraction overflow\");\n    }\n\n    /**\n     * @dev Returns the subtraction of two unsigned integers, reverting with custom message on\n     * overflow (when the result is negative).\n     *\n     * Counterpart to Solidity's `-` operator.\n     *\n     * Requirements:\n     *\n     * - Subtraction cannot overflow.\n     */\n    function sub(uint256 a, uint256 b, string memory errorMessage) internal pure returns (uint256) {\n        require(b <= a, errorMessage);\n        uint256 c = a - b;\n\n        return c;\n    }\n\n    /**\n     * @dev Returns the multiplication of two unsigned integers, reverting on\n     * overflow.\n     *\n     * Counterpart to Solidity's `*` operator.\n     *\n     * Requirements:\n     *\n     * - Multiplication cannot overflow.\n     */\n    function mul(uint256 a, uint256 b) internal pure returns (uint256) {\n        // Gas optimization: this is cheaper than requiring 'a' not being zero, but the\n        // benefit is lost if 'b' is also tested.\n        // See: https://github.com/OpenZeppelin/openzeppelin-contracts/pull/522\n        if (a == 0) {\n            return 0;\n        }\n\n        uint256 c = a * b;\n        require(c / a == b, \"SafeMath: multiplication overflow\");\n\n        return c;\n    }\n\n    /**\n     * @dev Returns the integer division of two unsigned integers. Reverts on\n     * division by zero. The result is rounded towards zero.\n     *\n     * Counterpart to Solidity's `/` operator. Note: this function uses a\n     * `revert` opcode (which leaves remaining gas untouched) while Solidity\n     * uses an invalid opcode to revert (consuming all remaining gas).\n     *\n     * Requirements:\n     *\n     * - The divisor cannot be zero.\n     */\n    function div(uint256 a, uint256 b) internal pure returns (uint256) {\n        return div(a, b, \"SafeMath: division by zero\");\n    }\n\n    /**\n     * @dev Returns the integer division of two unsigned integers. Reverts with custom message on\n     * division by zero. The result is rounded towards zero.\n     *\n     * Counterpart to Solidity's `/` operator. Note: this function uses a\n     * `revert` opcode (which leaves remaining gas untouched) while Solidity\n     * uses an invalid opcode to revert (consuming all remaining gas).\n     *\n     * Requirements:\n     *\n     * - The divisor cannot be zero.\n     */\n    function div(uint256 a, uint256 b, string memory errorMessage) internal pure returns (uint256) {\n        require(b > 0, errorMessage);\n        uint256 c = a / b;\n        // assert(a == b * c + a % b); // There is no case in which this doesn't hold\n\n        return c;\n    }\n\n    /**\n     * @dev Returns the remainder of dividing two unsigned integers. (unsigned integer modulo),\n     * Reverts when dividing by zero.\n     *\n     * Counterpart to Solidity's `%` operator. This function uses a `revert`\n     * opcode (which leaves remaining gas untouched) while Solidity uses an\n     * invalid opcode to revert (consuming all remaining gas).\n     *\n     * Requirements:\n     *\n     * - The divisor cannot be zero.\n     */\n    function mod(uint256 a, uint256 b) internal pure returns (uint256) {\n        return mod(a, b, \"SafeMath: modulo by zero\");\n    }\n\n    /**\n     * @dev Returns the remainder of dividing two unsigned integers. (unsigned integer modulo),\n     * Reverts with custom message when dividing by zero.\n     *\n     * Counterpart to Solidity's `%` operator. This function uses a `revert`\n     * opcode (which leaves remaining gas untouched) while Solidity uses an\n     * invalid opcode to revert (consuming all remaining gas).\n     *\n     * Requirements:\n     *\n     * - The divisor cannot be zero.\n     */\n    function mod(uint256 a, uint256 b, string memory errorMessage) internal pure returns (uint256) {\n        require(b != 0, errorMessage);\n        return a % b;\n    }\n}\n\n\n/**\n * @dev Collection of functions related to the address type\n */\nlibrary Address {\n    /**\n     * @dev Returns true if `account` is a contract.\n     *\n     * [IMPORTANT]\n     * ====\n     * It is unsafe to assume that an address for which this function returns\n     * false is an externally-owned account (EOA) and not a contract.\n     *\n     * Among others, `isContract` will return false for the following\n     * types of addresses:\n     *\n     *  - an externally-owned account\n     *  - a contract in construction\n     *  - an address where a contract will be created\n     *  - an address where a contract lived, but was destroyed\n     * ====\n     */\n    function isContract(address account) internal view returns (bool) {\n        // This method relies on extcodesize, which returns 0 for contracts in\n        // construction, since the code is only stored at the end of the\n        // constructor execution.\n\n        uint256 size;\n        // solhint-disable-next-line no-inline-assembly\n        assembly { size := extcodesize(account) }\n        return size > 0;\n    }\n\n    /**\n     * @dev Replacement for Solidity's `transfer`: sends `amount` wei to\n     * `recipient`, forwarding all available gas and reverting on errors.\n     *\n     * https://eips.ethereum.org/EIPS/eip-1884[EIP1884] increases the gas cost\n     * of certain opcodes, possibly making contracts go over the 2300 gas limit\n     * imposed by `transfer`, making them unable to receive funds via\n     * `transfer`. {sendValue} removes this limitation.\n     *\n     * https://diligence.consensys.net/posts/2019/09/stop-using-soliditys-transfer-now/[Learn more].\n     *\n     * IMPORTANT: because control is transferred to `recipient`, care must be\n     * taken to not create reentrancy vulnerabilities. Consider using\n     * {ReentrancyGuard} or the\n     * https://solidity.readthedocs.io/en/v0.5.11/security-considerations.html#use-the-checks-effects-interactions-pattern[checks-effects-interactions pattern].\n     */\n    function sendValue(address payable recipient, uint256 amount) internal {\n        require(address(this).balance >= amount, \"Address: insufficient balance\");\n\n        // solhint-disable-next-line avoid-low-level-calls, avoid-call-value\n        (bool success, ) = recipient.call{ value: amount }(\"\");\n        require(success, \"Address: unable to send value, recipient may have reverted\");\n    }\n\n    /**\n     * @dev Performs a Solidity function call using a low level `call`. A\n     * plain`call` is an unsafe replacement for a function call: use this\n     * function instead.\n     *\n     * If `target` reverts with a revert reason, it is bubbled up by this\n     * function (like regular Solidity function calls).\n     *\n     * Returns the raw returned data. To convert to the expected return value,\n     * use https://solidity.readthedocs.io/en/latest/units-and-global-variables.html?highlight=abi.decode#abi-encoding-and-decoding-functions[`abi.decode`].\n     *\n     * Requirements:\n     *\n     * - `target` must be a contract.\n     * - calling `target` with `data` must not revert.\n     *\n     * _Available since v3.1._\n     */\n    function functionCall(address target, bytes memory data) internal returns (bytes memory) {\n      return functionCall(target, data, \"Address: low-level call failed\");\n    }\n\n    /**\n     * @dev Same as {xref-Address-functionCall-address-bytes-}[`functionCall`], but with\n     * `errorMessage` as a fallback revert reason when `target` reverts.\n     *\n     * _Available since v3.1._\n     */\n    function functionCall(address target, bytes memory data, string memory errorMessage) internal returns (bytes memory) {\n        return functionCallWithValue(target, data, 0, errorMessage);\n    }\n\n    /**\n     * @dev Same as {xref-Address-functionCall-address-bytes-}[`functionCall`],\n     * but also transferring `value` wei to `target`.\n     *\n     * Requirements:\n     *\n     * - the calling contract must have an ETH balance of at least `value`.\n     * - the called Solidity function must be `payable`.\n     *\n     * _Available since v3.1._\n     */\n    function functionCallWithValue(address target, bytes memory data, uint256 value) internal returns (bytes memory) {\n        return functionCallWithValue(target, data, value, \"Address: low-level call with value failed\");\n    }\n\n    /**\n     * @dev Same as {xref-Address-functionCallWithValue-address-bytes-uint256-}[`functionCallWithValue`], but\n     * with `errorMessage` as a fallback revert reason when `target` reverts.\n     *\n     * _Available since v3.1._\n     */\n    function functionCallWithValue(address target, bytes memory data, uint256 value, string memory errorMessage) internal returns (bytes memory) {\n        require(address(this).balance >= value, \"Address: insufficient balance for call\");\n        require(isContract(target), \"Address: call to non-contract\");\n\n        // solhint-disable-next-line avoid-low-level-calls\n        (bool success, bytes memory returndata) = target.call{ value: value }(data);\n        return _verifyCallResult(success, returndata, errorMessage);\n    }\n\n    /**\n     * @dev Same as {xref-Address-functionCall-address-bytes-}[`functionCall`],\n     * but performing a static call.\n     *\n     * _Available since v3.3._\n     */\n    function functionStaticCall(address target, bytes memory data) internal view returns (bytes memory) {\n        return functionStaticCall(target, data, \"Address: low-level static call failed\");\n    }\n\n    /**\n     * @dev Same as {xref-Address-functionCall-address-bytes-string-}[`functionCall`],\n     * but performing a static call.\n     *\n     * _Available since v3.3._\n     */\n    function functionStaticCall(address target, bytes memory data, string memory errorMessage) internal view returns (bytes memory) {\n        require(isContract(target), \"Address: static call to non-contract\");\n\n        // solhint-disable-next-line avoid-low-level-calls\n        (bool success, bytes memory returndata) = target.staticcall(data);\n        return _verifyCallResult(success, returndata, errorMessage);\n    }\n\n    /**\n     * @dev Same as {xref-Address-functionCall-address-bytes-}[`functionCall`],\n     * but performing a delegate call.\n     *\n     * _Available since v3.4._\n     */\n    function functionDelegateCall(address target, bytes memory data) internal returns (bytes memory) {\n        return functionDelegateCall(target, data, \"Address: low-level delegate call failed\");\n    }\n\n    /**\n     * @dev Same as {xref-Address-functionCall-address-bytes-string-}[`functionCall`],\n     * but performing a delegate call.\n     *\n     * _Available since v3.4._\n     */\n    function functionDelegateCall(address target, bytes memory data, string memory errorMessage) internal returns (bytes memory) {\n        require(isContract(target), \"Address: delegate call to non-contract\");\n\n        // solhint-disable-next-line avoid-low-level-calls\n        (bool success, bytes memory returndata) = target.delegatecall(data);\n        return _verifyCallResult(success, returndata, errorMessage);\n    }\n\n    function _verifyCallResult(bool success, bytes memory returndata, string memory errorMessage) private pure returns(bytes memory) {\n        if (success) {\n            return returndata;\n        } else {\n            // Look for revert reason and bubble it up if present\n            if (returndata.length > 0) {\n                // The easiest way to bubble the revert reason is using memory via assembly\n\n                // solhint-disable-next-line no-inline-assembly\n                assembly {\n                    let returndata_size := mload(returndata)\n                    revert(add(32, returndata), returndata_size)\n                }\n            } else {\n                revert(errorMessage);\n            }\n        }\n    }\n}\n\nlibrary ExtendedMath {\n    /**\n     * @return The given number raised to the power of 2\n     */\n    function pow2(uint256 a) internal pure returns (uint256) {\n        if (a == 0) {\n            return 0;\n        }\n        uint256 c = a * a;\n        require(c / a == a, \"ExtendedMath: squaring overflow\");\n        return c;\n    }\n\n    \n    function sqrt(uint y) internal pure returns (uint z) {\n        if (y > 3) {\n            z = y;\n            uint x = y / 2 + 1;\n            while (x < z) {\n                z = x;\n                x = (y / x + x) / 2;\n            }\n        } else if (y != 0) {\n            z = 1;\n        }\n    }\n}\n\nlibrary Sigmoid {\n    using SafeMath for uint256;\n    using ExtendedMath for uint256;\n\n    // The period after which the new value of the parameter is set\n    uint256 public constant PARAM_UPDATE_DELAY = 7 days;\n\n    struct Params {\n        uint256 a;\n        int256 b;\n        uint256 c;\n    }\n\n    struct State {\n        Params oldParams;\n        Params newParams;\n        uint256 timestamp;\n    }\n\n    /**\n     * @dev Sets sigmoid parameters\n     * @param _a Sigmoid parameter A.\n     * @param _b Sigmoid parameter B.\n     * @param _c Sigmoid parameter C.\n     */\n    function setParameters(State storage self, uint256 _a, int256 _b, uint256 _c) internal {\n        require(_c != 0, \"should be greater than 0\"); // prevent division by zero\n        uint256 currentTimestamp = _now();\n        if (self.timestamp == 0) {\n            self.oldParams = Params(_a, _b, _c);\n        } else if (currentTimestamp > self.timestamp.add(PARAM_UPDATE_DELAY)) {\n            self.oldParams = self.newParams;\n        }\n        self.newParams = Params(_a, _b, _c);\n        self.timestamp = currentTimestamp;\n    }\n\n    /**\n     * @return Sigmoid parameters\n     */\n    function getParameters(State storage self) internal view returns (uint256, int256, uint256) {\n        bool isUpdated = _now() > self.timestamp.add(PARAM_UPDATE_DELAY);\n        return isUpdated ?\n            (self.newParams.a, self.newParams.b, self.newParams.c) :\n            (self.oldParams.a, self.oldParams.b, self.oldParams.c);\n    }\n\n    /**\n     * @return The corresponding Y value for a given X value\n     */\n    function calculate(State storage self, int256 _x) internal view returns (uint256) {\n        (uint256 a, int256 b, uint256 c) = getParameters(self);\n        int256 k = _x - b;\n        if (k < 0) return 0;\n        uint256 uk = uint256(k);\n        return a.mul(uk).div(uk.pow2().add(c).sqrt());\n    }\n\n    /**\n     * @return Returns current timestamp.\n     */\n    function _now() internal view returns (uint256) {\n        // Note that the timestamp can have a 900-second error:\n        // https://github.com/ethereum/wiki/blob/c02254611f218f43cbb07517ca8e5d00fd6d6d75/Block-Protocol-2.0.md\n        return block.timestamp; // solium-disable-line security/no-block-members\n    }\n}\n\n\nabstract contract Context {\n    function _msgSender() internal view virtual returns (address) {\n        return msg.sender;\n    }\n\n    function _msgData() internal view virtual returns (bytes calldata) {\n        this; // silence state mutability warning without generating bytecode - see https://github.com/ethereum/solidity/issues/2691\n        return msg.data;\n    }\n}\n\n/**\n * @dev Contract module which provides a basic access control mechanism, where\n * there is an account (an owner) that can be granted exclusive access to\n * specific functions.\n *\n * By default, the owner account will be the one that deploys the contract. This\n * can later be changed with {transferOwnership}.\n *\n * This module is used through inheritance. It will make available the modifier\n * `onlyOwner`, which can be applied to your functions to restrict their use to\n * the owner.\n */\nabstract contract Ownable is Context {\n    address private _owner;\n\n    event OwnershipTransferred(address indexed previousOwner, address indexed newOwner);\n\n    /**\n     * @dev Initializes the contract setting the deployer as the initial owner.\n     */\n    constructor () {\n        address msgSender = _msgSender();\n        _owner = msgSender;\n        emit OwnershipTransferred(address(0), msgSender);\n    }\n\n    /**\n     * @dev Returns the address of the current owner.\n     */\n    function owner() public view virtual returns (address) {\n        return _owner;\n    }\n\n    /**\n     * @dev Throws if called by any account other than the owner.\n     */\n    modifier onlyOwner() {\n        require(owner() == _msgSender(), \"Ownable: caller is not the owner\");\n        _;\n    }\n\n    /**\n     * @dev Leaves the contract without owner. It will not be possible to call\n     * `onlyOwner` functions anymore. Can only be called by the current owner.\n     *\n     * NOTE: Renouncing ownership will leave the contract without an owner,\n     * thereby removing any functionality that is only available to the owner.\n     */\n    function renounceOwnership() public virtual onlyOwner {\n        emit OwnershipTransferred(_owner, address(0));\n        _owner = address(0);\n    }\n\n    /**\n     * @dev Transfers ownership of the contract to a new account (`newOwner`).\n     * Can only be called by the current owner.\n     */\n    function transferOwnership(address newOwner) public virtual onlyOwner {\n        require(newOwner != address(0), \"Ownable: new owner is the zero address\");\n        emit OwnershipTransferred(_owner, newOwner);\n        _owner = newOwner;\n    }\n}\n\nabstract contract ReentrancyGuard {\n    // Booleans are more expensive than uint256 or any type that takes up a full\n    // word because each write operation emits an extra SLOAD to first read the\n    // slot's contents, replace the bits taken up by the boolean, and then write\n    // back. This is the compiler's defense against contract upgrades and\n    // pointer aliasing, and it cannot be disabled.\n\n    // The values being non-zero value makes deployment a bit more expensive,\n    // but in exchange the refund on every call to nonReentrant will be lower in\n    // amount. Since refunds are capped to a percentage of the total\n    // transaction's gas, it is best to keep them low in cases like this one, to\n    // increase the likelihood of the full refund coming into effect.\n    uint256 private constant _NOT_ENTERED = 1;\n    uint256 private constant _ENTERED = 2;\n\n    uint256 private _status;\n\n    constructor() {\n        _status = _NOT_ENTERED;\n    }\n\n    /**\n     * @dev Prevents a contract from calling itself, directly or indirectly.\n     * Calling a `nonReentrant` function from another `nonReentrant`\n     * function is not supported. It is possible to prevent this from happening\n     * by making the `nonReentrant` function external, and make it call a\n     * `private` function that does the actual work.\n     */\n    modifier nonReentrant() {\n        // On the first call to nonReentrant, _notEntered will be true\n        require(_status != _ENTERED, \"ReentrancyGuard: reentrant call\");\n\n        // Any calls to nonReentrant after this point will fail\n        _status = _ENTERED;\n\n        _;\n\n        // By storing the original value once again, a refund is triggered (see\n        // https://eips.ethereum.org/EIPS/eip-2200)\n        _status = _NOT_ENTERED;\n    }\n}\n\nlibrary SafeERC20 {\n    using Address for address;\n\n    function safeTransfer(\n        IERC20 token,\n        address to,\n        uint256 value\n    ) internal {\n        _callOptionalReturn(token, abi.encodeWithSelector(token.transfer.selector, to, value));\n    }\n\n    function safeTransferFrom(\n        IERC20 token,\n        address from,\n        address to,\n        uint256 value\n    ) internal {\n        _callOptionalReturn(token, abi.encodeWithSelector(token.transferFrom.selector, from, to, value));\n    }\n\n    /**\n     * @dev Deprecated. This function has issues similar to the ones found in\n     * {IERC20-approve}, and its usage is discouraged.\n     *\n     * Whenever possible, use {safeIncreaseAllowance} and\n     * {safeDecreaseAllowance} instead.\n     */\n    function safeApprove(\n        IERC20 token,\n        address spender,\n        uint256 value\n    ) internal {\n        // safeApprove should only be called when setting an initial allowance,\n        // or when resetting it to zero. To increase and decrease it, use\n        // 'safeIncreaseAllowance' and 'safeDecreaseAllowance'\n        require(\n            (value == 0) || (token.allowance(address(this), spender) == 0),\n            \"SafeERC20: approve from non-zero to non-zero allowance\"\n        );\n        _callOptionalReturn(token, abi.encodeWithSelector(token.approve.selector, spender, value));\n    }\n\n    function safeIncreaseAllowance(\n        IERC20 token,\n        address spender,\n        uint256 value\n    ) internal {\n        uint256 newAllowance = token.allowance(address(this), spender) + value;\n        _callOptionalReturn(token, abi.encodeWithSelector(token.approve.selector, spender, newAllowance));\n    }\n\n    function safeDecreaseAllowance(\n        IERC20 token,\n        address spender,\n        uint256 value\n    ) internal {\n        unchecked {\n            uint256 oldAllowance = token.allowance(address(this), spender);\n            require(oldAllowance >= value, \"SafeERC20: decreased allowance below zero\");\n            uint256 newAllowance = oldAllowance - value;\n            _callOptionalReturn(token, abi.encodeWithSelector(token.approve.selector, spender, newAllowance));\n        }\n    }\n\n    /**\n     * @dev Imitates a Solidity high-level call (i.e. a regular function call to a contract), relaxing the requirement\n     * on the return value: the return value is optional (but if data is returned, it must not be false).\n     * @param token The token targeted by the call.\n     * @param data The call data (encoded using abi.encode or one of its variants).\n     */\n    function _callOptionalReturn(IERC20 token, bytes memory data) private {\n        // We need to perform a low level call here, to bypass Solidity's return data size checking mechanism, since\n        // we're implementing it ourselves. We use {Address.functionCall} to perform this call, which verifies that\n        // the target address contains contract code and also asserts for success in the low-level call.\n\n        bytes memory returndata = address(token).functionCall(data, \"SafeERC20: low-level call failed\");\n        if (returndata.length > 0) {\n            // Return data is optional\n            require(abi.decode(returndata, (bool)), \"SafeERC20: ERC20 operation did not succeed\");\n        }\n    }\n}\n\n\n\ninterface IERC20Mintable {\n    function transfer(address _to, uint256 _value) external returns (bool);\n    function transferFrom(address _from, address _to, uint256 _value) external returns (bool);\n    function mint(address _to, uint256 _value) external returns (bool);\n    function balanceOf(address _account) external view returns (uint256);\n    function totalSupply() external view returns (uint256);\n}\n\n/**\n * @title EasyStaking\n *\n * Note: all percentage values are between 0 (0%) and 1 (100%)\n * and represented as fixed point numbers containing 18 decimals like with Ether\n * 100% == 1 ether\n */\ncontract NanoStaking is Ownable, ReentrancyGuard {\n    using Address for address;\n    using SafeMath for uint256;\n    using SafeERC20 for IERC20;\n    using Sigmoid for Sigmoid.State;\n\n    /**\n     * @dev Emitted when a user deposits tokens.\n     * @param sender User address.\n     * @param id User's unique deposit ID.\n     * @param amount The amount of deposited tokens.\n     * @param balance Current user balance.\n     * @param accruedEmission User's accrued emission.\n     * @param prevDepositDuration Duration of the previous deposit in seconds.\n     */\n    event Deposited(\n        address indexed sender,\n        uint256 indexed id,\n        uint256 amount,\n        uint256 balance,\n        uint256 accruedEmission,\n        uint256 prevDepositDuration\n    );\n\n    /**\n     * @dev Emitted when a user requests withdrawal.\n     * @param sender User address.\n     * @param id User's unique deposit ID.\n     */\n    event WithdrawalRequested(address indexed sender, uint256 indexed id);\n\n    /**\n     * @dev Emitted when a user withdraws tokens.\n     * @param sender User address.\n     * @param id User's unique deposit ID.\n     * @param amount The amount of withdrawn tokens.\n     * @param fee The withdrawal fee.\n     * @param balance Current user balance.\n     * @param accruedEmission User's accrued emission.\n     * @param lastDepositDuration Duration of the last deposit in seconds.\n     */\n    event Withdrawn(\n        address indexed sender,\n        uint256 indexed id,\n        uint256 amount,\n        uint256 fee,\n        uint256 balance,\n        uint256 accruedEmission,\n        uint256 lastDepositDuration\n    );\n\n    /**\n     * @dev Emitted when a new fee value is set.\n     * @param value A new fee value.\n     * @param sender The owner address at the moment of fee changing.\n     */\n    event FeeSet(uint256 value, address sender);\n\n    /**\n     * @dev Emitted when a new withdrawal lock duration value is set.\n     * @param value A new withdrawal lock duration value.\n     * @param sender The owner address at the moment of value changing.\n     */\n    event WithdrawalLockDurationSet(uint256 value, address sender);\n\n    /**\n     * @dev Emitted when a new withdrawal unlock duration value is set.\n     * @param value A new withdrawal unlock duration value.\n     * @param sender The owner address at the moment of value changing.\n     */\n    event WithdrawalUnlockDurationSet(uint256 value, address sender);\n\n    /**\n     * @dev Emitted when a new total supply factor value is set.\n     * @param value A new total supply factor value.\n     * @param sender The owner address at the moment of value changing.\n     */\n    event TotalSupplyFactorSet(uint256 value, address sender);\n\n    /**\n     * @dev Emitted when new sigmoid parameters values are set.\n     * @param a A new parameter A value.\n     * @param b A new parameter B value.\n     * @param c A new parameter C value.\n     * @param sender The owner address at the moment of value changing.\n     */\n    event SigmoidParametersSet(uint256 a, int256 b, uint256 c, address sender);\n\n    /**\n     * @dev Emitted when a new Liquidity Providers Reward address value is set.\n     * @param value A new address value.\n     * @param sender The owner address at the moment of address changing.\n     */\n    event LiquidityProvidersRewardAddressSet(address value, address sender);\n\n    uint256 private constant YEAR = 365 days;\n    // The maximum emission rate (in percentage)\n    uint256 public constant MAX_EMISSION_RATE = 150000000000000 wei; // 15%, 0.15 ether\n    // The period after which the new value of the parameter is set\n    uint256 public constant PARAM_UPDATE_DELAY = 0;\n    \n    uint256 public startingEmissionTime;\n    uint256 public tokensPerSec = 1 * (10 ** 12 );\n\n    // STAKE token\n    IERC20Mintable public token;\n\n    struct UintParam {\n        uint256 oldValue;\n        uint256 newValue;\n        uint256 timestamp;\n    }\n\n    struct AddressParam {\n        address oldValue;\n        address newValue;\n        uint256 timestamp;\n    }\n\n    // The address for the Liquidity Providers reward\n    AddressParam public liquidityProvidersRewardAddressParam;\n    // The fee of the forced withdrawal (in percentage)\n    UintParam public feeParam;\n    // The time from the request after which the withdrawal will be available (in seconds)\n    UintParam public withdrawalLockDurationParam;\n    // The time during which the withdrawal will be available from the moment of unlocking (in seconds)\n    UintParam public withdrawalUnlockDurationParam;\n    // Total supply factor for calculating emission rate (in percentage)\n    UintParam public totalSupplyFactorParam;\n\n    // The deposit balances of users\n    mapping (address => mapping (uint256 => uint256)) public balances;\n    // The dates of users' deposits\n    mapping (address => mapping (uint256 => uint256)) public depositDates;\n    // The dates of users' withdrawal requests\n    mapping (address => mapping (uint256 => uint256)) public withdrawalRequestsDates;\n    // The last deposit id\n    mapping (address => uint256) public lastDepositIds;\n    // The total staked amount\n    uint256 public totalStaked;\n\n    // Variable that prevents _deposit method from being called 2 times\n    bool private locked;\n    // The library that is used to calculate user's current emission rate\n    Sigmoid.State private sigmoid;\n\n   \n    constructor(\n        \n    ) {\n        \n        //require(_tokenAddress.isContract(), \"not a contract address\");\n      \n       \n        token = IERC20Mintable( 0x6b8f718E992F5184B43f591662655f79303F4f00 );\n        setFee(0);\n        setWithdrawalLockDuration( 0 );\n        setWithdrawalUnlockDuration( 3600 );\n        \n        setLiquidityProvidersRewardAddress( msg.sender );\n        startingEmissionTime = block.timestamp;\n       \n    }\n\n    /**\n     * @dev This method is used to deposit tokens to a new deposit.\n     * It generates a new deposit ID and calls another public \"deposit\" method. See its description.\n     * @param _amount The amount to deposit.\n     */\n    function deposit(uint256 _amount) external {\n        deposit(++lastDepositIds[msg.sender], _amount);\n    }\n\n    /**\n     * @dev This method is used to deposit tokens to the deposit opened before.\n     * It calls the internal \"_deposit\" method and transfers tokens from sender to contract.\n     * Sender must approve tokens first.\n     *\n     * Instead this, user can use the simple \"transfer\" method of STAKE token contract to make a deposit.\n     * Sender's approval is not needed in this case.\n     *\n     * Note: each call updates the deposit date so be careful if you want to make a long staking.\n     *\n     * @param _depositId User's unique deposit ID.\n     * @param _amount The amount to deposit.\n     */\n    function deposit(uint256 _depositId, uint256 _amount) public {\n        require(_depositId > 0 && _depositId <= lastDepositIds[msg.sender], \"wrong deposit id\");\n        _deposit(msg.sender, _depositId, _amount);\n        _setLocked(true);\n        require(token.transferFrom(msg.sender, address(this), _amount), \"transfer failed\");\n        _setLocked(false);\n    }\n\n    /**\n     * @dev This method is called when STAKE tokens are transferred to this contract.\n     * using \"transfer\", \"transferFrom\", or \"transferAndCall\" method of STAKE token contract.\n     * It generates a new deposit ID and calls the internal \"_deposit\" method.\n     * @param _sender The sender of tokens.\n     * @param _amount The transferred amount.\n     * @return true if successful\n     */\n    function onTokenTransfer(address _sender, uint256 _amount, bytes calldata) external returns (bool) {\n        require(msg.sender == address(token), \"only token contract is allowed\");\n        if (!locked) {\n            _deposit(_sender, ++lastDepositIds[_sender], _amount);\n        }\n        return true;\n    }\n\n    /**\n     * @dev This method is used to make a forced withdrawal with a fee.\n     * It calls the internal \"_withdraw\" method.\n     * @param _depositId User's unique deposit ID.\n     * @param _amount The amount to withdraw (0 - to withdraw all).\n     */\n    function makeForcedWithdrawal(uint256 _depositId, uint256 _amount) external {\n        _withdraw(msg.sender, _depositId, _amount, true);\n    }\n\n    /**\n     * @dev This method is used to request a withdrawal without a fee.\n     * It sets the date of the request.\n     *\n     * Note: each call updates the date of the request so don't call this method twice during the lock.\n     *\n     * @param _depositId User's unique deposit ID.\n     */\n    function requestWithdrawal(uint256 _depositId) external {\n        require(_depositId > 0 && _depositId <= lastDepositIds[msg.sender], \"wrong deposit id\");\n        withdrawalRequestsDates[msg.sender][_depositId] = _now();\n        emit WithdrawalRequested(msg.sender, _depositId);\n    }\n\n    /**\n     * @dev This method is used to make a requested withdrawal.\n     * It calls the internal \"_withdraw\" method and resets the date of the request.\n     *\n     * If sender didn't call this method during the unlock period (if timestamp >= lockEnd + withdrawalUnlockDuration)\n     * they have to call \"requestWithdrawal\" one more time.\n     *\n     * @param _depositId User's unique deposit ID.\n     * @param _amount The amount to withdraw (0 - to withdraw all).\n     */\n    function makeRequestedWithdrawal(uint256 _depositId, uint256 _amount) external {\n        uint256 requestDate = withdrawalRequestsDates[msg.sender][_depositId];\n        require(requestDate > 0, \"withdrawal wasn't requested\");\n        uint256 timestamp = _now();\n        uint256 lockEnd = requestDate.add(withdrawalLockDuration());\n        require(timestamp >= lockEnd, \"too early\");\n        require(timestamp < lockEnd.add(withdrawalUnlockDuration()), \"too late\");\n        withdrawalRequestsDates[msg.sender][_depositId] = 0;\n        _withdraw(msg.sender, _depositId, _amount, false);\n    }\n\n   \n    /**\n     * @dev Sets the fee for forced withdrawals. Can only be called by owner.\n     * @param _value The new fee value (in percentage).\n     */\n    function setFee(uint256 _value) public onlyOwner {\n        require(_value <= 1 ether, \"should be less than or equal to 1 ether\");\n        _updateUintParam(feeParam, _value);\n        emit FeeSet(_value, msg.sender);\n    }\n\n    /**\n     * @dev Sets the time from the request after which the withdrawal will be available.\n     * Can only be called by owner.\n     * @param _value The new duration value (in seconds).\n     */\n    function setWithdrawalLockDuration(uint256 _value) public onlyOwner {\n        require(_value <= 30 days, \"shouldn't be greater than 30 days\");\n        _updateUintParam(withdrawalLockDurationParam, _value);\n        emit WithdrawalLockDurationSet(_value, msg.sender);\n    }\n\n    /**\n     * @dev Sets the time during which the withdrawal will be available from the moment of unlocking.\n     * Can only be called by owner.\n     * @param _value The new duration value (in seconds).\n     */\n    function setWithdrawalUnlockDuration(uint256 _value) public onlyOwner {\n        require(_value >= 1 hours, \"shouldn't be less than 1 hour\");\n        _updateUintParam(withdrawalUnlockDurationParam, _value);\n        emit WithdrawalUnlockDurationSet(_value, msg.sender);\n    }\n\n    /**\n     * @dev Sets total supply factor for calculating emission rate.\n     * Can only be called by owner.\n     * @param _value The new factor value (in percentage).\n     */\n    function setTotalSupplyFactor(uint256 _value) public onlyOwner {\n        require(_value <= 1 ether, \"should be less than or equal to 1 ether\");\n        _updateUintParam(totalSupplyFactorParam, _value);\n        emit TotalSupplyFactorSet(_value, msg.sender);\n    }\n\n    /**\n     * @dev Sets parameters of the sigmoid that is used to calculate the user's current emission rate.\n     * Can only be called by owner.\n     * @param _a Sigmoid parameter A. Unsigned integer.\n     * @param _b Sigmoid parameter B. Signed integer.\n     * @param _c Sigmoid parameter C. Unsigned integer. Cannot be zero.\n     */\n    function setSigmoidParameters(uint256 _a, int256 _b, uint256 _c) public onlyOwner {\n        require(_a <= MAX_EMISSION_RATE.div(2), \"should be less than or equal to a half of the maximum emission rate\");\n        sigmoid.setParameters(_a, _b, _c);\n        emit SigmoidParametersSet(_a, _b, _c, msg.sender);\n    }\n\n    /**\n     * @dev Sets the address for the Liquidity Providers reward.\n     * Can only be called by owner.\n     * @param _address The new address.\n     */\n    function setLiquidityProvidersRewardAddress(address _address) public onlyOwner {\n        require(_address != address(0), \"zero address\");\n        require(_address != address(this), \"wrong address\");\n        AddressParam memory param = liquidityProvidersRewardAddressParam;\n        if (param.timestamp == 0) {\n            param.oldValue = _address;\n        } else if (_paramUpdateDelayElapsed(param.timestamp)) {\n            param.oldValue = param.newValue;\n        }\n        param.newValue = _address;\n        param.timestamp = _now();\n        liquidityProvidersRewardAddressParam = param;\n        emit LiquidityProvidersRewardAddressSet(_address, msg.sender);\n    }\n\n    /**\n     * @return Returns current fee.\n     */\n    function fee() public view returns (uint256) {\n        return _getUintParamValue(feeParam);\n    }\n\n    /**\n     * @return Returns current withdrawal lock duration.\n     */\n    function withdrawalLockDuration() public view returns (uint256) {\n        return _getUintParamValue(withdrawalLockDurationParam);\n    }\n\n    /**\n     * @return Returns current withdrawal unlock duration.\n     */\n    function withdrawalUnlockDuration() public view returns (uint256) {\n        return _getUintParamValue(withdrawalUnlockDurationParam);\n    }\n\n    /**\n     * @return Returns current total supply factor.\n     */\n    function totalSupplyFactor() public view returns (uint256) {\n        return _getUintParamValue(totalSupplyFactorParam);\n    }\n\n    /**\n     * @return Returns current liquidity providers reward address.\n     */\n    function liquidityProvidersRewardAddress() public view returns (address) {\n        AddressParam memory param = liquidityProvidersRewardAddressParam;\n        return _paramUpdateDelayElapsed(param.timestamp) ? param.newValue : param.oldValue;\n    }\n\n    /**\n     * @return Emission rate based on the ratio of total staked to total supply.\n     */\n    function getSupplyBasedEmissionRate() public view returns (uint256) {\n        uint256 totalSupply = token.totalSupply();\n        uint256 factor = totalSupplyFactor();\n        if (factor == 0) return 0;\n        uint256 target = totalSupply.mul(factor).div(1 ether);\n        uint256 maxSupplyBasedEmissionRate = MAX_EMISSION_RATE.div(2); // 7.5%\n        if (totalStaked >= target) {\n            return maxSupplyBasedEmissionRate;\n        }\n        return maxSupplyBasedEmissionRate.mul(totalStaked).div(target);\n    }\n\n  /*\n    function getAccruedEmission(\n        uint256 _depositDate,\n        uint256 _amount\n    ) public view returns ( uint256 userShare, uint256 timePassed) {\n        if (_amount == 0 || _depositDate == 0) return (0, 0 );\n        timePassed = _now().sub(_depositDate);\n        if (timePassed == 0) return (0, 0 );\n        uint256 userEmissionRate = sigmoid.calculate(int256(timePassed));\n        userEmissionRate = userEmissionRate.add(getSupplyBasedEmissionRate());\n        if (userEmissionRate == 0) return (0, timePassed);\n        assert(userEmissionRate <= MAX_EMISSION_RATE);\n        //total = _amount.mul(MAX_EMISSION_RATE).mul(timePassed).div(YEAR * 1 ether);\n        userShare = _amount.mul(userEmissionRate).mul(timePassed).div(YEAR * 1 ether);\n    }\n    */\n    \n    function getAccruedEmission(\n        uint256 _depositDate,\n        uint256 _amount\n    ) public  view returns ( uint256 userShare, uint256 timePassed) {\n        if (_amount == 0 || _depositDate == 0) return (0, 0 );\n        timePassed = _now().sub(_depositDate);\n        if (timePassed == 0) return (0, 0 );\n        uint256 userEmissionRate = getUserEmissionShare ( _amount);\n        if (userEmissionRate == 0) return (0, timePassed);\n        assert(userEmissionRate <= MAX_EMISSION_RATE);\n        userShare = userEmissionRate.mul(timePassed);\n    }\n    \n    \n    function getUserEmissionShare (  uint256 _amount ) public view returns(uint256){\n        \n        return ( _amount * tokensPerSec).div(totalStaked);\n        \n    }\n    \n    function getUserShare ( address _user, uint256 _depositId ) public view returns(  uint256 userShare, uint256 timePassed){\n        \n        uint256 _depositDate = depositDates[_user][_depositId];\n        (  userShare, timePassed) = getAccruedEmission(  _depositDate, balances[_user][_depositId] );\n    }\n\n    function getMyShare ( uint256 _depositId ) public view returns(  uint256 userShare, uint256 timePassed){\n        \n        uint256 _depositDate = depositDates[msg.sender][_depositId];\n        (  userShare, timePassed) = getAccruedEmission(  _depositDate, balances[msg.sender][_depositId] );\n    }\n\n\n   \n    function getSigmoidParameters() public view returns (uint256 a, int256 b, uint256 c) {\n        return sigmoid.getParameters();\n    }\n\n    /**\n     * @dev Calls internal \"_mint\" method, increases the user balance, and updates the deposit date.\n     * @param _sender The address of the sender.\n     * @param _id User's unique deposit ID.\n     * @param _amount The amount to deposit.\n     */\n    function _deposit(address _sender, uint256 _id, uint256 _amount) internal nonReentrant {\n        require(_amount > 0, \"deposit amount should be more than 0\");\n      \n        if ( tokensPerSec == 0) revert(\"emission stopped\");\n        (uint256 userShare, uint256 timePassed) = _mint(_sender, _id, 0);\n        uint256 newBalance = balances[_sender][_id].add(_amount);\n        balances[_sender][_id] = newBalance;\n        totalStaked = totalStaked.add(_amount);\n        depositDates[_sender][_id] = _now();\n        emit Deposited(_sender, _id, _amount, newBalance, userShare, timePassed);\n    }\n\n    /**\n     * @dev Calls internal \"_mint\" method and then transfers tokens to the sender.\n     * @param _sender The address of the sender.\n     * @param _id User's unique deposit ID.\n     * @param _amount The amount to withdraw (0 - to withdraw all).\n     * @param _forced Defines whether to apply fee (true), or not (false).\n     */\n    function _withdraw(address _sender, uint256 _id, uint256 _amount, bool _forced) internal nonReentrant {\n        require(_id > 0 && _id <= lastDepositIds[_sender], \"wrong deposit id\");\n        require(balances[_sender][_id] > 0 && balances[_sender][_id] >= _amount, \"insufficient funds\");\n        \n        (uint256 accruedEmission, uint256 timePassed) = _mint(_sender, _id, _amount);\n        \n        uint256 amount = _amount == 0 ? balances[_sender][_id] : _amount.add(accruedEmission);\n        balances[_sender][_id] = balances[_sender][_id].sub(amount);\n        totalStaked = totalStaked.sub(amount);\n        if (balances[_sender][_id] == 0) {\n            depositDates[_sender][_id] = 0;\n        }\n        uint256 feeValue = 0;\n        if (_forced) {\n            feeValue = amount.mul(fee()).div(1 ether);\n            amount = amount.sub(feeValue);\n            require(token.transfer(liquidityProvidersRewardAddress(), feeValue), \"transfer failed\");\n        }\n        require(token.transfer(_sender, amount), \"transfer failed\");\n        emit Withdrawn(_sender, _id, amount, feeValue, balances[_sender][_id], accruedEmission, timePassed);\n       \n    }\n\n   \n    function _mint(address _user, uint256 _id, uint256 _amount) internal  returns (uint256, uint256) {\n        uint256 currentBalance = balances[_user][_id];\n        uint256 amount = _amount == 0 ? currentBalance : _amount;\n        (  uint256 userShare, uint256 timePassed) = getAccruedEmission(depositDates[_user][_id], amount);\n        if ( userShare > 0) {\n            require(token.mint(address(this), userShare), \"minting failed\");\n             balances[_user][_id] = currentBalance.add(userShare);\n             totalStaked = totalStaked.add(userShare);\n            \n        }\n        return (userShare, timePassed);\n    }\n\n    /**\n     * @dev Sets the next value of the parameter and the timestamp of this setting.\n     */\n    function _updateUintParam(UintParam storage _param, uint256 _newValue) internal {\n        if (_param.timestamp == 0) {\n            _param.oldValue = _newValue;\n        } else if (_paramUpdateDelayElapsed(_param.timestamp)) {\n            _param.oldValue = _param.newValue;\n        }\n        _param.newValue = _newValue;\n        _param.timestamp = _now();\n    }\n\n    /**\n     * @return Returns the current value of the parameter.\n     */\n    function _getUintParamValue(UintParam memory _param) internal view returns (uint256) {\n        return _paramUpdateDelayElapsed(_param.timestamp) ? _param.newValue : _param.oldValue;\n    }\n\n    /**\n     * @return Returns true if param update delay elapsed.\n     */\n    function _paramUpdateDelayElapsed(uint256 _paramTimestamp) internal view returns (bool) {\n        return _now() > _paramTimestamp.add(PARAM_UPDATE_DELAY);\n    }\n\n    /**\n     * @dev Sets lock to prevent reentrance.\n     */\n    function _setLocked(bool _locked) internal {\n        locked = _locked;\n    }\n\n    /**\n     * @return Returns current timestamp.\n     */\n    function _now() internal view returns (uint256) {\n        // Note that the timestamp can have a 900-second error:\n        // https://github.com/ethereum/wiki/blob/c02254611f218f43cbb07517ca8e5d00fd6d6d75/Block-Protocol-2.0.md\n        return block.timestamp; // solium-disable-line security/no-block-members\n    }\n}",
  "sourcePath": "/Volumes/WORK/warbot/warbotui/contracts/nanostaking.sol",
  "compiler": {
    "name": "solc",
    "version": "0.8.7+commit.e28d00a7.Emscripten.clang"
  },
  "schemaVersion": "3.4.3",
  "updatedAt": "2021-10-05T15:52:51.223Z",
  "devdoc": {
    "kind": "dev",
    "methods": {},
    "version": 1
  },
  "userdoc": {
    "kind": "user",
    "methods": {},
    "version": 1
  }
}