{
  "contractName": "Sigmoid",
  "abi": [
    {
      "inputs": [],
      "name": "PARAM_UPDATE_DELAY",
      "outputs": [
        {
          "internalType": "uint256",
          "name": "",
          "type": "uint256"
        }
      ],
      "stateMutability": "view",
      "type": "function"
    }
  ],
  "bytecode": "0x6089610038600b82828239805160001a607314602b57634e487b7160e01b600052600060045260246000fd5b30600052607381538281f3fe730000000000000000000000000000000000000000301460806040526004361060335760003560e01c8063db51ef92146038575b600080fd5b604162093a8081565b60405190815260200160405180910390f3fea2646970667358221220eca9ec43f2ac8bd2fab244762c82563fff98f355bc4bcb5d635426a431c176fd64736f6c63430008060033",
  "immutableReferences": {},
  "source": "pragma solidity 0.8.6;\r\n\r\n\r\n// SPDX-License-Identifier: Unlicensed\r\ninterface IERC20 {\r\n\r\n    function totalSupply() external view returns (uint256);\r\n\r\n\r\n    /**\r\n     * @dev Returns the amount of tokens owned by `account`.\r\n     */\r\n    function balanceOf(address account) external view returns (uint256);\r\n\r\n    /**\r\n     * @dev Moves `amount` tokens from the caller's account to `recipient`.\r\n     *\r\n     * Returns a boolean value indicating whether the operation succeeded.\r\n     *\r\n     * Emits a {Transfer} event.\r\n     */\r\n    function transfer(address recipient, uint256 amount) external returns (bool);\r\n\r\n    /**\r\n     * @dev Returns the remaining number of tokens that `spender` will be\r\n     * allowed to spend on behalf of `owner` through {transferFrom}. This is\r\n     * zero by default.\r\n     *\r\n     * This value changes when {approve} or {transferFrom} are called.\r\n     */\r\n    function allowance(address owner, address spender) external view returns (uint256);\r\n\r\n    /**\r\n     * @dev Sets `amount` as the allowance of `spender` over the caller's tokens.\r\n     *\r\n     * Returns a boolean value indicating whether the operation succeeded.\r\n     *\r\n     * IMPORTANT: Beware that changing an allowance with this method brings the risk\r\n     * that someone may use both the old and the new allowance by unfortunate\r\n     * transaction ordering. One possible solution to mitigate this race\r\n     * condition is to first reduce the spender's allowance to 0 and set the\r\n     * desired value afterwards:\r\n     * https://github.com/ethereum/EIPs/issues/20#issuecomment-263524729\r\n     *\r\n     * Emits an {Approval} event.\r\n     */\r\n    function approve(address spender, uint256 amount) external returns (bool);\r\n\r\n    /**\r\n     * @dev Moves `amount` tokens from `sender` to `recipient` using the\r\n     * allowance mechanism. `amount` is then deducted from the caller's\r\n     * allowance.\r\n     *\r\n     * Returns a boolean value indicating whether the operation succeeded.\r\n     *\r\n     * Emits a {Transfer} event.\r\n     */\r\n    function transferFrom(address sender, address recipient, uint256 amount) external returns (bool);\r\n\r\n    /**\r\n     * @dev Emitted when `value` tokens are moved from one account (`from`) to\r\n     * another (`to`).\r\n     *\r\n     * Note that `value` may be zero.\r\n     */\r\n    event Transfer(address indexed from, address indexed to, uint256 value);\r\n\r\n    /**\r\n     * @dev Emitted when the allowance of a `spender` for an `owner` is set by\r\n     * a call to {approve}. `value` is the new allowance.\r\n     */\r\n    event Approval(address indexed owner, address indexed spender, uint256 value);\r\n}\r\n\r\n\r\n\r\n\r\nlibrary SafeMath {\r\n    /**\r\n     * @dev Returns the addition of two unsigned integers, reverting on\r\n     * overflow.\r\n     *\r\n     * Counterpart to Solidity's `+` operator.\r\n     *\r\n     * Requirements:\r\n     *\r\n     * - Addition cannot overflow.\r\n     */\r\n    function add(uint256 a, uint256 b) internal pure returns (uint256) {\r\n        uint256 c = a + b;\r\n        require(c >= a, \"SafeMath: addition overflow\");\r\n\r\n        return c;\r\n    }\r\n\r\n    /**\r\n     * @dev Returns the subtraction of two unsigned integers, reverting on\r\n     * overflow (when the result is negative).\r\n     *\r\n     * Counterpart to Solidity's `-` operator.\r\n     *\r\n     * Requirements:\r\n     *\r\n     * - Subtraction cannot overflow.\r\n     */\r\n    function sub(uint256 a, uint256 b) internal pure returns (uint256) {\r\n        return sub(a, b, \"SafeMath: subtraction overflow\");\r\n    }\r\n\r\n    /**\r\n     * @dev Returns the subtraction of two unsigned integers, reverting with custom message on\r\n     * overflow (when the result is negative).\r\n     *\r\n     * Counterpart to Solidity's `-` operator.\r\n     *\r\n     * Requirements:\r\n     *\r\n     * - Subtraction cannot overflow.\r\n     */\r\n    function sub(uint256 a, uint256 b, string memory errorMessage) internal pure returns (uint256) {\r\n        require(b <= a, errorMessage);\r\n        uint256 c = a - b;\r\n\r\n        return c;\r\n    }\r\n\r\n    /**\r\n     * @dev Returns the multiplication of two unsigned integers, reverting on\r\n     * overflow.\r\n     *\r\n     * Counterpart to Solidity's `*` operator.\r\n     *\r\n     * Requirements:\r\n     *\r\n     * - Multiplication cannot overflow.\r\n     */\r\n    function mul(uint256 a, uint256 b) internal pure returns (uint256) {\r\n        // Gas optimization: this is cheaper than requiring 'a' not being zero, but the\r\n        // benefit is lost if 'b' is also tested.\r\n        // See: https://github.com/OpenZeppelin/openzeppelin-contracts/pull/522\r\n        if (a == 0) {\r\n            return 0;\r\n        }\r\n\r\n        uint256 c = a * b;\r\n        require(c / a == b, \"SafeMath: multiplication overflow\");\r\n\r\n        return c;\r\n    }\r\n\r\n    /**\r\n     * @dev Returns the integer division of two unsigned integers. Reverts on\r\n     * division by zero. The result is rounded towards zero.\r\n     *\r\n     * Counterpart to Solidity's `/` operator. Note: this function uses a\r\n     * `revert` opcode (which leaves remaining gas untouched) while Solidity\r\n     * uses an invalid opcode to revert (consuming all remaining gas).\r\n     *\r\n     * Requirements:\r\n     *\r\n     * - The divisor cannot be zero.\r\n     */\r\n    function div(uint256 a, uint256 b) internal pure returns (uint256) {\r\n        return div(a, b, \"SafeMath: division by zero\");\r\n    }\r\n\r\n    /**\r\n     * @dev Returns the integer division of two unsigned integers. Reverts with custom message on\r\n     * division by zero. The result is rounded towards zero.\r\n     *\r\n     * Counterpart to Solidity's `/` operator. Note: this function uses a\r\n     * `revert` opcode (which leaves remaining gas untouched) while Solidity\r\n     * uses an invalid opcode to revert (consuming all remaining gas).\r\n     *\r\n     * Requirements:\r\n     *\r\n     * - The divisor cannot be zero.\r\n     */\r\n    function div(uint256 a, uint256 b, string memory errorMessage) internal pure returns (uint256) {\r\n        require(b > 0, errorMessage);\r\n        uint256 c = a / b;\r\n        // assert(a == b * c + a % b); // There is no case in which this doesn't hold\r\n\r\n        return c;\r\n    }\r\n\r\n    /**\r\n     * @dev Returns the remainder of dividing two unsigned integers. (unsigned integer modulo),\r\n     * Reverts when dividing by zero.\r\n     *\r\n     * Counterpart to Solidity's `%` operator. This function uses a `revert`\r\n     * opcode (which leaves remaining gas untouched) while Solidity uses an\r\n     * invalid opcode to revert (consuming all remaining gas).\r\n     *\r\n     * Requirements:\r\n     *\r\n     * - The divisor cannot be zero.\r\n     */\r\n    function mod(uint256 a, uint256 b) internal pure returns (uint256) {\r\n        return mod(a, b, \"SafeMath: modulo by zero\");\r\n    }\r\n\r\n    /**\r\n     * @dev Returns the remainder of dividing two unsigned integers. (unsigned integer modulo),\r\n     * Reverts with custom message when dividing by zero.\r\n     *\r\n     * Counterpart to Solidity's `%` operator. This function uses a `revert`\r\n     * opcode (which leaves remaining gas untouched) while Solidity uses an\r\n     * invalid opcode to revert (consuming all remaining gas).\r\n     *\r\n     * Requirements:\r\n     *\r\n     * - The divisor cannot be zero.\r\n     */\r\n    function mod(uint256 a, uint256 b, string memory errorMessage) internal pure returns (uint256) {\r\n        require(b != 0, errorMessage);\r\n        return a % b;\r\n    }\r\n}\r\n\r\n\r\n/**\r\n * @dev Collection of functions related to the address type\r\n */\r\nlibrary Address {\r\n    /**\r\n     * @dev Returns true if `account` is a contract.\r\n     *\r\n     * [IMPORTANT]\r\n     * ====\r\n     * It is unsafe to assume that an address for which this function returns\r\n     * false is an externally-owned account (EOA) and not a contract.\r\n     *\r\n     * Among others, `isContract` will return false for the following\r\n     * types of addresses:\r\n     *\r\n     *  - an externally-owned account\r\n     *  - a contract in construction\r\n     *  - an address where a contract will be created\r\n     *  - an address where a contract lived, but was destroyed\r\n     * ====\r\n     */\r\n    function isContract(address account) internal view returns (bool) {\r\n        // This method relies on extcodesize, which returns 0 for contracts in\r\n        // construction, since the code is only stored at the end of the\r\n        // constructor execution.\r\n\r\n        uint256 size;\r\n        // solhint-disable-next-line no-inline-assembly\r\n        assembly { size := extcodesize(account) }\r\n        return size > 0;\r\n    }\r\n\r\n    /**\r\n     * @dev Replacement for Solidity's `transfer`: sends `amount` wei to\r\n     * `recipient`, forwarding all available gas and reverting on errors.\r\n     *\r\n     * https://eips.ethereum.org/EIPS/eip-1884[EIP1884] increases the gas cost\r\n     * of certain opcodes, possibly making contracts go over the 2300 gas limit\r\n     * imposed by `transfer`, making them unable to receive funds via\r\n     * `transfer`. {sendValue} removes this limitation.\r\n     *\r\n     * https://diligence.consensys.net/posts/2019/09/stop-using-soliditys-transfer-now/[Learn more].\r\n     *\r\n     * IMPORTANT: because control is transferred to `recipient`, care must be\r\n     * taken to not create reentrancy vulnerabilities. Consider using\r\n     * {ReentrancyGuard} or the\r\n     * https://solidity.readthedocs.io/en/v0.5.11/security-considerations.html#use-the-checks-effects-interactions-pattern[checks-effects-interactions pattern].\r\n     */\r\n    function sendValue(address payable recipient, uint256 amount) internal {\r\n        require(address(this).balance >= amount, \"Address: insufficient balance\");\r\n\r\n        // solhint-disable-next-line avoid-low-level-calls, avoid-call-value\r\n        (bool success, ) = recipient.call{ value: amount }(\"\");\r\n        require(success, \"Address: unable to send value, recipient may have reverted\");\r\n    }\r\n\r\n    /**\r\n     * @dev Performs a Solidity function call using a low level `call`. A\r\n     * plain`call` is an unsafe replacement for a function call: use this\r\n     * function instead.\r\n     *\r\n     * If `target` reverts with a revert reason, it is bubbled up by this\r\n     * function (like regular Solidity function calls).\r\n     *\r\n     * Returns the raw returned data. To convert to the expected return value,\r\n     * use https://solidity.readthedocs.io/en/latest/units-and-global-variables.html?highlight=abi.decode#abi-encoding-and-decoding-functions[`abi.decode`].\r\n     *\r\n     * Requirements:\r\n     *\r\n     * - `target` must be a contract.\r\n     * - calling `target` with `data` must not revert.\r\n     *\r\n     * _Available since v3.1._\r\n     */\r\n    function functionCall(address target, bytes memory data) internal returns (bytes memory) {\r\n      return functionCall(target, data, \"Address: low-level call failed\");\r\n    }\r\n\r\n    /**\r\n     * @dev Same as {xref-Address-functionCall-address-bytes-}[`functionCall`], but with\r\n     * `errorMessage` as a fallback revert reason when `target` reverts.\r\n     *\r\n     * _Available since v3.1._\r\n     */\r\n    function functionCall(address target, bytes memory data, string memory errorMessage) internal returns (bytes memory) {\r\n        return functionCallWithValue(target, data, 0, errorMessage);\r\n    }\r\n\r\n    /**\r\n     * @dev Same as {xref-Address-functionCall-address-bytes-}[`functionCall`],\r\n     * but also transferring `value` wei to `target`.\r\n     *\r\n     * Requirements:\r\n     *\r\n     * - the calling contract must have an ETH balance of at least `value`.\r\n     * - the called Solidity function must be `payable`.\r\n     *\r\n     * _Available since v3.1._\r\n     */\r\n    function functionCallWithValue(address target, bytes memory data, uint256 value) internal returns (bytes memory) {\r\n        return functionCallWithValue(target, data, value, \"Address: low-level call with value failed\");\r\n    }\r\n\r\n    /**\r\n     * @dev Same as {xref-Address-functionCallWithValue-address-bytes-uint256-}[`functionCallWithValue`], but\r\n     * with `errorMessage` as a fallback revert reason when `target` reverts.\r\n     *\r\n     * _Available since v3.1._\r\n     */\r\n    function functionCallWithValue(address target, bytes memory data, uint256 value, string memory errorMessage) internal returns (bytes memory) {\r\n        require(address(this).balance >= value, \"Address: insufficient balance for call\");\r\n        require(isContract(target), \"Address: call to non-contract\");\r\n\r\n        // solhint-disable-next-line avoid-low-level-calls\r\n        (bool success, bytes memory returndata) = target.call{ value: value }(data);\r\n        return _verifyCallResult(success, returndata, errorMessage);\r\n    }\r\n\r\n    /**\r\n     * @dev Same as {xref-Address-functionCall-address-bytes-}[`functionCall`],\r\n     * but performing a static call.\r\n     *\r\n     * _Available since v3.3._\r\n     */\r\n    function functionStaticCall(address target, bytes memory data) internal view returns (bytes memory) {\r\n        return functionStaticCall(target, data, \"Address: low-level static call failed\");\r\n    }\r\n\r\n    /**\r\n     * @dev Same as {xref-Address-functionCall-address-bytes-string-}[`functionCall`],\r\n     * but performing a static call.\r\n     *\r\n     * _Available since v3.3._\r\n     */\r\n    function functionStaticCall(address target, bytes memory data, string memory errorMessage) internal view returns (bytes memory) {\r\n        require(isContract(target), \"Address: static call to non-contract\");\r\n\r\n        // solhint-disable-next-line avoid-low-level-calls\r\n        (bool success, bytes memory returndata) = target.staticcall(data);\r\n        return _verifyCallResult(success, returndata, errorMessage);\r\n    }\r\n\r\n    /**\r\n     * @dev Same as {xref-Address-functionCall-address-bytes-}[`functionCall`],\r\n     * but performing a delegate call.\r\n     *\r\n     * _Available since v3.4._\r\n     */\r\n    function functionDelegateCall(address target, bytes memory data) internal returns (bytes memory) {\r\n        return functionDelegateCall(target, data, \"Address: low-level delegate call failed\");\r\n    }\r\n\r\n    /**\r\n     * @dev Same as {xref-Address-functionCall-address-bytes-string-}[`functionCall`],\r\n     * but performing a delegate call.\r\n     *\r\n     * _Available since v3.4._\r\n     */\r\n    function functionDelegateCall(address target, bytes memory data, string memory errorMessage) internal returns (bytes memory) {\r\n        require(isContract(target), \"Address: delegate call to non-contract\");\r\n\r\n        // solhint-disable-next-line avoid-low-level-calls\r\n        (bool success, bytes memory returndata) = target.delegatecall(data);\r\n        return _verifyCallResult(success, returndata, errorMessage);\r\n    }\r\n\r\n    function _verifyCallResult(bool success, bytes memory returndata, string memory errorMessage) private pure returns(bytes memory) {\r\n        if (success) {\r\n            return returndata;\r\n        } else {\r\n            // Look for revert reason and bubble it up if present\r\n            if (returndata.length > 0) {\r\n                // The easiest way to bubble the revert reason is using memory via assembly\r\n\r\n                // solhint-disable-next-line no-inline-assembly\r\n                assembly {\r\n                    let returndata_size := mload(returndata)\r\n                    revert(add(32, returndata), returndata_size)\r\n                }\r\n            } else {\r\n                revert(errorMessage);\r\n            }\r\n        }\r\n    }\r\n}\r\n\r\nlibrary ExtendedMath {\r\n    /**\r\n     * @return The given number raised to the power of 2\r\n     */\r\n    function pow2(uint256 a) internal pure returns (uint256) {\r\n        if (a == 0) {\r\n            return 0;\r\n        }\r\n        uint256 c = a * a;\r\n        require(c / a == a, \"ExtendedMath: squaring overflow\");\r\n        return c;\r\n    }\r\n\r\n    \r\n    function sqrt(uint y) internal pure returns (uint z) {\r\n        if (y > 3) {\r\n            z = y;\r\n            uint x = y / 2 + 1;\r\n            while (x < z) {\r\n                z = x;\r\n                x = (y / x + x) / 2;\r\n            }\r\n        } else if (y != 0) {\r\n            z = 1;\r\n        }\r\n    }\r\n}\r\n\r\nlibrary Sigmoid {\r\n    using SafeMath for uint256;\r\n    using ExtendedMath for uint256;\r\n\r\n    // The period after which the new value of the parameter is set\r\n    uint256 public constant PARAM_UPDATE_DELAY = 7 days;\r\n\r\n    struct Params {\r\n        uint256 a;\r\n        int256 b;\r\n        uint256 c;\r\n    }\r\n\r\n    struct State {\r\n        Params oldParams;\r\n        Params newParams;\r\n        uint256 timestamp;\r\n    }\r\n\r\n    /**\r\n     * @dev Sets sigmoid parameters\r\n     * @param _a Sigmoid parameter A.\r\n     * @param _b Sigmoid parameter B.\r\n     * @param _c Sigmoid parameter C.\r\n     */\r\n    function setParameters(State storage self, uint256 _a, int256 _b, uint256 _c) internal {\r\n        require(_c != 0, \"should be greater than 0\"); // prevent division by zero\r\n        uint256 currentTimestamp = _now();\r\n        if (self.timestamp == 0) {\r\n            self.oldParams = Params(_a, _b, _c);\r\n        } else if (currentTimestamp > self.timestamp.add(PARAM_UPDATE_DELAY)) {\r\n            self.oldParams = self.newParams;\r\n        }\r\n        self.newParams = Params(_a, _b, _c);\r\n        self.timestamp = currentTimestamp;\r\n    }\r\n\r\n    /**\r\n     * @return Sigmoid parameters\r\n     */\r\n    function getParameters(State storage self) internal view returns (uint256, int256, uint256) {\r\n        bool isUpdated = _now() > self.timestamp.add(PARAM_UPDATE_DELAY);\r\n        return isUpdated ?\r\n            (self.newParams.a, self.newParams.b, self.newParams.c) :\r\n            (self.oldParams.a, self.oldParams.b, self.oldParams.c);\r\n    }\r\n\r\n    /**\r\n     * @return The corresponding Y value for a given X value\r\n     */\r\n    function calculate(State storage self, int256 _x) internal view returns (uint256) {\r\n        (uint256 a, int256 b, uint256 c) = getParameters(self);\r\n        int256 k = _x - b;\r\n        if (k < 0) return 0;\r\n        uint256 uk = uint256(k);\r\n        return a.mul(uk).div(uk.pow2().add(c).sqrt());\r\n    }\r\n\r\n    /**\r\n     * @return Returns current timestamp.\r\n     */\r\n    function _now() internal view returns (uint256) {\r\n        // Note that the timestamp can have a 900-second error:\r\n        // https://github.com/ethereum/wiki/blob/c02254611f218f43cbb07517ca8e5d00fd6d6d75/Block-Protocol-2.0.md\r\n        return block.timestamp; // solium-disable-line security/no-block-members\r\n    }\r\n}\r\n\r\n\r\nabstract contract Context {\r\n    function _msgSender() internal view virtual returns (address) {\r\n        return msg.sender;\r\n    }\r\n\r\n    function _msgData() internal view virtual returns (bytes calldata) {\r\n        this; // silence state mutability warning without generating bytecode - see https://github.com/ethereum/solidity/issues/2691\r\n        return msg.data;\r\n    }\r\n}\r\n\r\n/**\r\n * @dev Contract module which provides a basic access control mechanism, where\r\n * there is an account (an owner) that can be granted exclusive access to\r\n * specific functions.\r\n *\r\n * By default, the owner account will be the one that deploys the contract. This\r\n * can later be changed with {transferOwnership}.\r\n *\r\n * This module is used through inheritance. It will make available the modifier\r\n * `onlyOwner`, which can be applied to your functions to restrict their use to\r\n * the owner.\r\n */\r\nabstract contract Ownable is Context {\r\n    address private _owner;\r\n\r\n    event OwnershipTransferred(address indexed previousOwner, address indexed newOwner);\r\n\r\n    /**\r\n     * @dev Initializes the contract setting the deployer as the initial owner.\r\n     */\r\n    constructor () {\r\n        address msgSender = _msgSender();\r\n        _owner = msgSender;\r\n        emit OwnershipTransferred(address(0), msgSender);\r\n    }\r\n\r\n    /**\r\n     * @dev Returns the address of the current owner.\r\n     */\r\n    function owner() public view virtual returns (address) {\r\n        return _owner;\r\n    }\r\n\r\n    /**\r\n     * @dev Throws if called by any account other than the owner.\r\n     */\r\n    modifier onlyOwner() {\r\n        require(owner() == _msgSender(), \"Ownable: caller is not the owner\");\r\n        _;\r\n    }\r\n\r\n    /**\r\n     * @dev Leaves the contract without owner. It will not be possible to call\r\n     * `onlyOwner` functions anymore. Can only be called by the current owner.\r\n     *\r\n     * NOTE: Renouncing ownership will leave the contract without an owner,\r\n     * thereby removing any functionality that is only available to the owner.\r\n     */\r\n    function renounceOwnership() public virtual onlyOwner {\r\n        emit OwnershipTransferred(_owner, address(0));\r\n        _owner = address(0);\r\n    }\r\n\r\n    /**\r\n     * @dev Transfers ownership of the contract to a new account (`newOwner`).\r\n     * Can only be called by the current owner.\r\n     */\r\n    function transferOwnership(address newOwner) public virtual onlyOwner {\r\n        require(newOwner != address(0), \"Ownable: new owner is the zero address\");\r\n        emit OwnershipTransferred(_owner, newOwner);\r\n        _owner = newOwner;\r\n    }\r\n}\r\n\r\nabstract contract ReentrancyGuard {\r\n    // Booleans are more expensive than uint256 or any type that takes up a full\r\n    // word because each write operation emits an extra SLOAD to first read the\r\n    // slot's contents, replace the bits taken up by the boolean, and then write\r\n    // back. This is the compiler's defense against contract upgrades and\r\n    // pointer aliasing, and it cannot be disabled.\r\n\r\n    // The values being non-zero value makes deployment a bit more expensive,\r\n    // but in exchange the refund on every call to nonReentrant will be lower in\r\n    // amount. Since refunds are capped to a percentage of the total\r\n    // transaction's gas, it is best to keep them low in cases like this one, to\r\n    // increase the likelihood of the full refund coming into effect.\r\n    uint256 private constant _NOT_ENTERED = 1;\r\n    uint256 private constant _ENTERED = 2;\r\n\r\n    uint256 private _status;\r\n\r\n    constructor() {\r\n        _status = _NOT_ENTERED;\r\n    }\r\n\r\n    /**\r\n     * @dev Prevents a contract from calling itself, directly or indirectly.\r\n     * Calling a `nonReentrant` function from another `nonReentrant`\r\n     * function is not supported. It is possible to prevent this from happening\r\n     * by making the `nonReentrant` function external, and make it call a\r\n     * `private` function that does the actual work.\r\n     */\r\n    modifier nonReentrant() {\r\n        // On the first call to nonReentrant, _notEntered will be true\r\n        require(_status != _ENTERED, \"ReentrancyGuard: reentrant call\");\r\n\r\n        // Any calls to nonReentrant after this point will fail\r\n        _status = _ENTERED;\r\n\r\n        _;\r\n\r\n        // By storing the original value once again, a refund is triggered (see\r\n        // https://eips.ethereum.org/EIPS/eip-2200)\r\n        _status = _NOT_ENTERED;\r\n    }\r\n}\r\n\r\nlibrary SafeERC20 {\r\n    using Address for address;\r\n\r\n    function safeTransfer(\r\n        IERC20 token,\r\n        address to,\r\n        uint256 value\r\n    ) internal {\r\n        _callOptionalReturn(token, abi.encodeWithSelector(token.transfer.selector, to, value));\r\n    }\r\n\r\n    function safeTransferFrom(\r\n        IERC20 token,\r\n        address from,\r\n        address to,\r\n        uint256 value\r\n    ) internal {\r\n        _callOptionalReturn(token, abi.encodeWithSelector(token.transferFrom.selector, from, to, value));\r\n    }\r\n\r\n    /**\r\n     * @dev Deprecated. This function has issues similar to the ones found in\r\n     * {IERC20-approve}, and its usage is discouraged.\r\n     *\r\n     * Whenever possible, use {safeIncreaseAllowance} and\r\n     * {safeDecreaseAllowance} instead.\r\n     */\r\n    function safeApprove(\r\n        IERC20 token,\r\n        address spender,\r\n        uint256 value\r\n    ) internal {\r\n        // safeApprove should only be called when setting an initial allowance,\r\n        // or when resetting it to zero. To increase and decrease it, use\r\n        // 'safeIncreaseAllowance' and 'safeDecreaseAllowance'\r\n        require(\r\n            (value == 0) || (token.allowance(address(this), spender) == 0),\r\n            \"SafeERC20: approve from non-zero to non-zero allowance\"\r\n        );\r\n        _callOptionalReturn(token, abi.encodeWithSelector(token.approve.selector, spender, value));\r\n    }\r\n\r\n    function safeIncreaseAllowance(\r\n        IERC20 token,\r\n        address spender,\r\n        uint256 value\r\n    ) internal {\r\n        uint256 newAllowance = token.allowance(address(this), spender) + value;\r\n        _callOptionalReturn(token, abi.encodeWithSelector(token.approve.selector, spender, newAllowance));\r\n    }\r\n\r\n    function safeDecreaseAllowance(\r\n        IERC20 token,\r\n        address spender,\r\n        uint256 value\r\n    ) internal {\r\n        unchecked {\r\n            uint256 oldAllowance = token.allowance(address(this), spender);\r\n            require(oldAllowance >= value, \"SafeERC20: decreased allowance below zero\");\r\n            uint256 newAllowance = oldAllowance - value;\r\n            _callOptionalReturn(token, abi.encodeWithSelector(token.approve.selector, spender, newAllowance));\r\n        }\r\n    }\r\n\r\n    /**\r\n     * @dev Imitates a Solidity high-level call (i.e. a regular function call to a contract), relaxing the requirement\r\n     * on the return value: the return value is optional (but if data is returned, it must not be false).\r\n     * @param token The token targeted by the call.\r\n     * @param data The call data (encoded using abi.encode or one of its variants).\r\n     */\r\n    function _callOptionalReturn(IERC20 token, bytes memory data) private {\r\n        // We need to perform a low level call here, to bypass Solidity's return data size checking mechanism, since\r\n        // we're implementing it ourselves. We use {Address.functionCall} to perform this call, which verifies that\r\n        // the target address contains contract code and also asserts for success in the low-level call.\r\n\r\n        bytes memory returndata = address(token).functionCall(data, \"SafeERC20: low-level call failed\");\r\n        if (returndata.length > 0) {\r\n            // Return data is optional\r\n            require(abi.decode(returndata, (bool)), \"SafeERC20: ERC20 operation did not succeed\");\r\n        }\r\n    }\r\n}\r\n\r\n\r\n\r\ninterface IERC20Mintable {\r\n    function transfer(address _to, uint256 _value) external returns (bool);\r\n    function transferFrom(address _from, address _to, uint256 _value) external returns (bool);\r\n    function mint(address _to, uint256 _value) external returns (bool);\r\n    function balanceOf(address _account) external view returns (uint256);\r\n    function totalSupply() external view returns (uint256);\r\n}\r\n\r\n/**\r\n * @title EasyStaking\r\n *\r\n * Note: all percentage values are between 0 (0%) and 1 (100%)\r\n * and represented as fixed point numbers containing 18 decimals like with Ether\r\n * 100% == 1 ether\r\n */\r\ncontract NanoStaking is Ownable, ReentrancyGuard {\r\n    using Address for address;\r\n    using SafeMath for uint256;\r\n    using SafeERC20 for IERC20;\r\n    using Sigmoid for Sigmoid.State;\r\n\r\n    /**\r\n     * @dev Emitted when a user deposits tokens.\r\n     * @param sender User address.\r\n     * @param id User's unique deposit ID.\r\n     * @param amount The amount of deposited tokens.\r\n     * @param balance Current user balance.\r\n     * @param accruedEmission User's accrued emission.\r\n     * @param prevDepositDuration Duration of the previous deposit in seconds.\r\n     */\r\n    event Deposited(\r\n        address indexed sender,\r\n        uint256 indexed id,\r\n        uint256 amount,\r\n        uint256 balance,\r\n        uint256 accruedEmission,\r\n        uint256 prevDepositDuration\r\n    );\r\n\r\n    /**\r\n     * @dev Emitted when a user requests withdrawal.\r\n     * @param sender User address.\r\n     * @param id User's unique deposit ID.\r\n     */\r\n    event WithdrawalRequested(address indexed sender, uint256 indexed id);\r\n\r\n    /**\r\n     * @dev Emitted when a user withdraws tokens.\r\n     * @param sender User address.\r\n     * @param id User's unique deposit ID.\r\n     * @param amount The amount of withdrawn tokens.\r\n     * @param fee The withdrawal fee.\r\n     * @param balance Current user balance.\r\n     * @param accruedEmission User's accrued emission.\r\n     * @param lastDepositDuration Duration of the last deposit in seconds.\r\n     */\r\n    event Withdrawn(\r\n        address indexed sender,\r\n        uint256 indexed id,\r\n        uint256 amount,\r\n        uint256 fee,\r\n        uint256 balance,\r\n        uint256 accruedEmission,\r\n        uint256 lastDepositDuration\r\n    );\r\n\r\n    /**\r\n     * @dev Emitted when a new fee value is set.\r\n     * @param value A new fee value.\r\n     * @param sender The owner address at the moment of fee changing.\r\n     */\r\n    event FeeSet(uint256 value, address sender);\r\n\r\n    /**\r\n     * @dev Emitted when a new withdrawal lock duration value is set.\r\n     * @param value A new withdrawal lock duration value.\r\n     * @param sender The owner address at the moment of value changing.\r\n     */\r\n    event WithdrawalLockDurationSet(uint256 value, address sender);\r\n\r\n    /**\r\n     * @dev Emitted when a new withdrawal unlock duration value is set.\r\n     * @param value A new withdrawal unlock duration value.\r\n     * @param sender The owner address at the moment of value changing.\r\n     */\r\n    event WithdrawalUnlockDurationSet(uint256 value, address sender);\r\n\r\n    /**\r\n     * @dev Emitted when a new total supply factor value is set.\r\n     * @param value A new total supply factor value.\r\n     * @param sender The owner address at the moment of value changing.\r\n     */\r\n    event TotalSupplyFactorSet(uint256 value, address sender);\r\n\r\n    /**\r\n     * @dev Emitted when new sigmoid parameters values are set.\r\n     * @param a A new parameter A value.\r\n     * @param b A new parameter B value.\r\n     * @param c A new parameter C value.\r\n     * @param sender The owner address at the moment of value changing.\r\n     */\r\n    event SigmoidParametersSet(uint256 a, int256 b, uint256 c, address sender);\r\n\r\n    /**\r\n     * @dev Emitted when a new Liquidity Providers Reward address value is set.\r\n     * @param value A new address value.\r\n     * @param sender The owner address at the moment of address changing.\r\n     */\r\n    event LiquidityProvidersRewardAddressSet(address value, address sender);\r\n\r\n    uint256 private constant YEAR = 365 days;\r\n    // The maximum emission rate (in percentage)\r\n    uint256 public constant MAX_EMISSION_RATE = 150000000000000 wei; // 15%, 0.15 ether\r\n    // The period after which the new value of the parameter is set\r\n    uint256 public constant PARAM_UPDATE_DELAY = 0;\r\n    \r\n    uint256 public startingEmissionTime;\r\n    uint256 public tokensPerSec = 1 * (10 ** 12 );\r\n\r\n    // STAKE token\r\n    IERC20Mintable public token;\r\n\r\n    struct UintParam {\r\n        uint256 oldValue;\r\n        uint256 newValue;\r\n        uint256 timestamp;\r\n    }\r\n\r\n    struct AddressParam {\r\n        address oldValue;\r\n        address newValue;\r\n        uint256 timestamp;\r\n    }\r\n\r\n    // The address for the Liquidity Providers reward\r\n    AddressParam public liquidityProvidersRewardAddressParam;\r\n    // The fee of the forced withdrawal (in percentage)\r\n    UintParam public feeParam;\r\n    // The time from the request after which the withdrawal will be available (in seconds)\r\n    UintParam public withdrawalLockDurationParam;\r\n    // The time during which the withdrawal will be available from the moment of unlocking (in seconds)\r\n    UintParam public withdrawalUnlockDurationParam;\r\n    // Total supply factor for calculating emission rate (in percentage)\r\n    UintParam public totalSupplyFactorParam;\r\n\r\n    // The deposit balances of users\r\n    mapping (address => mapping (uint256 => uint256)) public balances;\r\n    // The dates of users' deposits\r\n    mapping (address => mapping (uint256 => uint256)) public depositDates;\r\n    // The dates of users' withdrawal requests\r\n    mapping (address => mapping (uint256 => uint256)) public withdrawalRequestsDates;\r\n    // The last deposit id\r\n    mapping (address => uint256) public lastDepositIds;\r\n    // The total staked amount\r\n    uint256 public totalStaked;\r\n\r\n    // Variable that prevents _deposit method from being called 2 times\r\n    bool private locked;\r\n    // The library that is used to calculate user's current emission rate\r\n    Sigmoid.State private sigmoid;\r\n\r\n   \r\n    constructor(\r\n        \r\n    ) {\r\n        \r\n        //require(_tokenAddress.isContract(), \"not a contract address\");\r\n      \r\n       \r\n        token = IERC20Mintable( 0x6b8f718E992F5184B43f591662655f79303F4f00 );\r\n        setFee(0);\r\n        setWithdrawalLockDuration( 0 );\r\n        setWithdrawalUnlockDuration( 3600 );\r\n        \r\n        setLiquidityProvidersRewardAddress( msg.sender );\r\n        startingEmissionTime = block.timestamp;\r\n       \r\n    }\r\n\r\n    /**\r\n     * @dev This method is used to deposit tokens to a new deposit.\r\n     * It generates a new deposit ID and calls another public \"deposit\" method. See its description.\r\n     * @param _amount The amount to deposit.\r\n     */\r\n    function deposit(uint256 _amount) external {\r\n        deposit(++lastDepositIds[msg.sender], _amount);\r\n    }\r\n\r\n    /**\r\n     * @dev This method is used to deposit tokens to the deposit opened before.\r\n     * It calls the internal \"_deposit\" method and transfers tokens from sender to contract.\r\n     * Sender must approve tokens first.\r\n     *\r\n     * Instead this, user can use the simple \"transfer\" method of STAKE token contract to make a deposit.\r\n     * Sender's approval is not needed in this case.\r\n     *\r\n     * Note: each call updates the deposit date so be careful if you want to make a long staking.\r\n     *\r\n     * @param _depositId User's unique deposit ID.\r\n     * @param _amount The amount to deposit.\r\n     */\r\n    function deposit(uint256 _depositId, uint256 _amount) public {\r\n        require(_depositId > 0 && _depositId <= lastDepositIds[msg.sender], \"wrong deposit id\");\r\n        _deposit(msg.sender, _depositId, _amount);\r\n        _setLocked(true);\r\n        require(token.transferFrom(msg.sender, address(this), _amount), \"transfer failed\");\r\n        _setLocked(false);\r\n    }\r\n\r\n    /**\r\n     * @dev This method is called when STAKE tokens are transferred to this contract.\r\n     * using \"transfer\", \"transferFrom\", or \"transferAndCall\" method of STAKE token contract.\r\n     * It generates a new deposit ID and calls the internal \"_deposit\" method.\r\n     * @param _sender The sender of tokens.\r\n     * @param _amount The transferred amount.\r\n     * @return true if successful\r\n     */\r\n    function onTokenTransfer(address _sender, uint256 _amount, bytes calldata) external returns (bool) {\r\n        require(msg.sender == address(token), \"only token contract is allowed\");\r\n        if (!locked) {\r\n            _deposit(_sender, ++lastDepositIds[_sender], _amount);\r\n        }\r\n        return true;\r\n    }\r\n\r\n    /**\r\n     * @dev This method is used to make a forced withdrawal with a fee.\r\n     * It calls the internal \"_withdraw\" method.\r\n     * @param _depositId User's unique deposit ID.\r\n     * @param _amount The amount to withdraw (0 - to withdraw all).\r\n     */\r\n    function makeForcedWithdrawal(uint256 _depositId, uint256 _amount) external {\r\n        _withdraw(msg.sender, _depositId, _amount, true);\r\n    }\r\n\r\n    /**\r\n     * @dev This method is used to request a withdrawal without a fee.\r\n     * It sets the date of the request.\r\n     *\r\n     * Note: each call updates the date of the request so don't call this method twice during the lock.\r\n     *\r\n     * @param _depositId User's unique deposit ID.\r\n     */\r\n    function requestWithdrawal(uint256 _depositId) external {\r\n        require(_depositId > 0 && _depositId <= lastDepositIds[msg.sender], \"wrong deposit id\");\r\n        withdrawalRequestsDates[msg.sender][_depositId] = _now();\r\n        emit WithdrawalRequested(msg.sender, _depositId);\r\n    }\r\n\r\n    /**\r\n     * @dev This method is used to make a requested withdrawal.\r\n     * It calls the internal \"_withdraw\" method and resets the date of the request.\r\n     *\r\n     * If sender didn't call this method during the unlock period (if timestamp >= lockEnd + withdrawalUnlockDuration)\r\n     * they have to call \"requestWithdrawal\" one more time.\r\n     *\r\n     * @param _depositId User's unique deposit ID.\r\n     * @param _amount The amount to withdraw (0 - to withdraw all).\r\n     */\r\n    function makeRequestedWithdrawal(uint256 _depositId, uint256 _amount) external {\r\n        uint256 requestDate = withdrawalRequestsDates[msg.sender][_depositId];\r\n        require(requestDate > 0, \"withdrawal wasn't requested\");\r\n        uint256 timestamp = _now();\r\n        uint256 lockEnd = requestDate.add(withdrawalLockDuration());\r\n        require(timestamp >= lockEnd, \"too early\");\r\n        require(timestamp < lockEnd.add(withdrawalUnlockDuration()), \"too late\");\r\n        withdrawalRequestsDates[msg.sender][_depositId] = 0;\r\n        _withdraw(msg.sender, _depositId, _amount, false);\r\n    }\r\n\r\n   \r\n    /**\r\n     * @dev Sets the fee for forced withdrawals. Can only be called by owner.\r\n     * @param _value The new fee value (in percentage).\r\n     */\r\n    function setFee(uint256 _value) public onlyOwner {\r\n        require(_value <= 1 ether, \"should be less than or equal to 1 ether\");\r\n        _updateUintParam(feeParam, _value);\r\n        emit FeeSet(_value, msg.sender);\r\n    }\r\n\r\n    /**\r\n     * @dev Sets the time from the request after which the withdrawal will be available.\r\n     * Can only be called by owner.\r\n     * @param _value The new duration value (in seconds).\r\n     */\r\n    function setWithdrawalLockDuration(uint256 _value) public onlyOwner {\r\n        require(_value <= 30 days, \"shouldn't be greater than 30 days\");\r\n        _updateUintParam(withdrawalLockDurationParam, _value);\r\n        emit WithdrawalLockDurationSet(_value, msg.sender);\r\n    }\r\n\r\n    /**\r\n     * @dev Sets the time during which the withdrawal will be available from the moment of unlocking.\r\n     * Can only be called by owner.\r\n     * @param _value The new duration value (in seconds).\r\n     */\r\n    function setWithdrawalUnlockDuration(uint256 _value) public onlyOwner {\r\n        require(_value >= 1 hours, \"shouldn't be less than 1 hour\");\r\n        _updateUintParam(withdrawalUnlockDurationParam, _value);\r\n        emit WithdrawalUnlockDurationSet(_value, msg.sender);\r\n    }\r\n\r\n    /**\r\n     * @dev Sets total supply factor for calculating emission rate.\r\n     * Can only be called by owner.\r\n     * @param _value The new factor value (in percentage).\r\n     */\r\n    function setTotalSupplyFactor(uint256 _value) public onlyOwner {\r\n        require(_value <= 1 ether, \"should be less than or equal to 1 ether\");\r\n        _updateUintParam(totalSupplyFactorParam, _value);\r\n        emit TotalSupplyFactorSet(_value, msg.sender);\r\n    }\r\n\r\n    /**\r\n     * @dev Sets parameters of the sigmoid that is used to calculate the user's current emission rate.\r\n     * Can only be called by owner.\r\n     * @param _a Sigmoid parameter A. Unsigned integer.\r\n     * @param _b Sigmoid parameter B. Signed integer.\r\n     * @param _c Sigmoid parameter C. Unsigned integer. Cannot be zero.\r\n     */\r\n    function setSigmoidParameters(uint256 _a, int256 _b, uint256 _c) public onlyOwner {\r\n        require(_a <= MAX_EMISSION_RATE.div(2), \"should be less than or equal to a half of the maximum emission rate\");\r\n        sigmoid.setParameters(_a, _b, _c);\r\n        emit SigmoidParametersSet(_a, _b, _c, msg.sender);\r\n    }\r\n\r\n    /**\r\n     * @dev Sets the address for the Liquidity Providers reward.\r\n     * Can only be called by owner.\r\n     * @param _address The new address.\r\n     */\r\n    function setLiquidityProvidersRewardAddress(address _address) public onlyOwner {\r\n        require(_address != address(0), \"zero address\");\r\n        require(_address != address(this), \"wrong address\");\r\n        AddressParam memory param = liquidityProvidersRewardAddressParam;\r\n        if (param.timestamp == 0) {\r\n            param.oldValue = _address;\r\n        } else if (_paramUpdateDelayElapsed(param.timestamp)) {\r\n            param.oldValue = param.newValue;\r\n        }\r\n        param.newValue = _address;\r\n        param.timestamp = _now();\r\n        liquidityProvidersRewardAddressParam = param;\r\n        emit LiquidityProvidersRewardAddressSet(_address, msg.sender);\r\n    }\r\n\r\n    /**\r\n     * @return Returns current fee.\r\n     */\r\n    function fee() public view returns (uint256) {\r\n        return _getUintParamValue(feeParam);\r\n    }\r\n\r\n    /**\r\n     * @return Returns current withdrawal lock duration.\r\n     */\r\n    function withdrawalLockDuration() public view returns (uint256) {\r\n        return _getUintParamValue(withdrawalLockDurationParam);\r\n    }\r\n\r\n    /**\r\n     * @return Returns current withdrawal unlock duration.\r\n     */\r\n    function withdrawalUnlockDuration() public view returns (uint256) {\r\n        return _getUintParamValue(withdrawalUnlockDurationParam);\r\n    }\r\n\r\n    /**\r\n     * @return Returns current total supply factor.\r\n     */\r\n    function totalSupplyFactor() public view returns (uint256) {\r\n        return _getUintParamValue(totalSupplyFactorParam);\r\n    }\r\n\r\n    /**\r\n     * @return Returns current liquidity providers reward address.\r\n     */\r\n    function liquidityProvidersRewardAddress() public view returns (address) {\r\n        AddressParam memory param = liquidityProvidersRewardAddressParam;\r\n        return _paramUpdateDelayElapsed(param.timestamp) ? param.newValue : param.oldValue;\r\n    }\r\n\r\n    /**\r\n     * @return Emission rate based on the ratio of total staked to total supply.\r\n     */\r\n    function getSupplyBasedEmissionRate() public view returns (uint256) {\r\n        uint256 totalSupply = token.totalSupply();\r\n        uint256 factor = totalSupplyFactor();\r\n        if (factor == 0) return 0;\r\n        uint256 target = totalSupply.mul(factor).div(1 ether);\r\n        uint256 maxSupplyBasedEmissionRate = MAX_EMISSION_RATE.div(2); // 7.5%\r\n        if (totalStaked >= target) {\r\n            return maxSupplyBasedEmissionRate;\r\n        }\r\n        return maxSupplyBasedEmissionRate.mul(totalStaked).div(target);\r\n    }\r\n\r\n  /*\r\n    function getAccruedEmission(\r\n        uint256 _depositDate,\r\n        uint256 _amount\r\n    ) public view returns ( uint256 userShare, uint256 timePassed) {\r\n        if (_amount == 0 || _depositDate == 0) return (0, 0 );\r\n        timePassed = _now().sub(_depositDate);\r\n        if (timePassed == 0) return (0, 0 );\r\n        uint256 userEmissionRate = sigmoid.calculate(int256(timePassed));\r\n        userEmissionRate = userEmissionRate.add(getSupplyBasedEmissionRate());\r\n        if (userEmissionRate == 0) return (0, timePassed);\r\n        assert(userEmissionRate <= MAX_EMISSION_RATE);\r\n        //total = _amount.mul(MAX_EMISSION_RATE).mul(timePassed).div(YEAR * 1 ether);\r\n        userShare = _amount.mul(userEmissionRate).mul(timePassed).div(YEAR * 1 ether);\r\n    }\r\n    */\r\n    \r\n    function getAccruedEmission(\r\n        uint256 _depositDate,\r\n        uint256 _amount\r\n    ) public  view returns ( uint256 userShare, uint256 timePassed) {\r\n        if (_amount == 0 || _depositDate == 0) return (0, 0 );\r\n        timePassed = _now().sub(_depositDate);\r\n        if (timePassed == 0) return (0, 0 );\r\n        uint256 userEmissionRate = getUserEmissionShare ( _amount);\r\n        if (userEmissionRate == 0) return (0, timePassed);\r\n        assert(userEmissionRate <= MAX_EMISSION_RATE);\r\n        userShare = userEmissionRate.mul(timePassed);\r\n    }\r\n    \r\n    \r\n    function getUserEmissionShare (  uint256 _amount ) public view returns(uint256){\r\n        \r\n        return ( _amount * tokensPerSec).div(totalStaked);\r\n        \r\n    }\r\n    \r\n    function getUserShare ( address _user, uint256 _depositId ) public view returns(  uint256 userShare, uint256 timePassed){\r\n        \r\n        uint256 _depositDate = depositDates[_user][_depositId];\r\n        (  userShare, timePassed) = getAccruedEmission(  _depositDate, balances[_user][_depositId] );\r\n    }\r\n\r\n    function getMyShare ( uint256 _depositId ) public view returns(  uint256 userShare, uint256 timePassed){\r\n        \r\n        uint256 _depositDate = depositDates[msg.sender][_depositId];\r\n        (  userShare, timePassed) = getAccruedEmission(  _depositDate, balances[msg.sender][_depositId] );\r\n    }\r\n\r\n\r\n   \r\n    function getSigmoidParameters() public view returns (uint256 a, int256 b, uint256 c) {\r\n        return sigmoid.getParameters();\r\n    }\r\n\r\n    /**\r\n     * @dev Calls internal \"_mint\" method, increases the user balance, and updates the deposit date.\r\n     * @param _sender The address of the sender.\r\n     * @param _id User's unique deposit ID.\r\n     * @param _amount The amount to deposit.\r\n     */\r\n    function _deposit(address _sender, uint256 _id, uint256 _amount) internal nonReentrant {\r\n        require(_amount > 0, \"deposit amount should be more than 0\");\r\n      \r\n        if ( tokensPerSec == 0) revert(\"emission stopped\");\r\n        (uint256 userShare, uint256 timePassed) = _mint(_sender, _id, 0);\r\n        uint256 newBalance = balances[_sender][_id].add(_amount);\r\n        balances[_sender][_id] = newBalance;\r\n        totalStaked = totalStaked.add(_amount);\r\n        depositDates[_sender][_id] = _now();\r\n        emit Deposited(_sender, _id, _amount, newBalance, userShare, timePassed);\r\n    }\r\n\r\n    /**\r\n     * @dev Calls internal \"_mint\" method and then transfers tokens to the sender.\r\n     * @param _sender The address of the sender.\r\n     * @param _id User's unique deposit ID.\r\n     * @param _amount The amount to withdraw (0 - to withdraw all).\r\n     * @param _forced Defines whether to apply fee (true), or not (false).\r\n     */\r\n    function _withdraw(address _sender, uint256 _id, uint256 _amount, bool _forced) internal nonReentrant {\r\n        require(_id > 0 && _id <= lastDepositIds[_sender], \"wrong deposit id\");\r\n        require(balances[_sender][_id] > 0 && balances[_sender][_id] >= _amount, \"insufficient funds\");\r\n        \r\n        (uint256 accruedEmission, uint256 timePassed) = _mint(_sender, _id, _amount);\r\n        \r\n        uint256 amount = _amount == 0 ? balances[_sender][_id] : _amount.add(accruedEmission);\r\n        balances[_sender][_id] = balances[_sender][_id].sub(amount);\r\n        totalStaked = totalStaked.sub(amount);\r\n        if (balances[_sender][_id] == 0) {\r\n            depositDates[_sender][_id] = 0;\r\n        }\r\n        uint256 feeValue = 0;\r\n        if (_forced) {\r\n            feeValue = amount.mul(fee()).div(1 ether);\r\n            amount = amount.sub(feeValue);\r\n            require(token.transfer(liquidityProvidersRewardAddress(), feeValue), \"transfer failed\");\r\n        }\r\n        require(token.transfer(_sender, amount), \"transfer failed\");\r\n        emit Withdrawn(_sender, _id, amount, feeValue, balances[_sender][_id], accruedEmission, timePassed);\r\n       \r\n    }\r\n\r\n   \r\n    function _mint(address _user, uint256 _id, uint256 _amount) internal  returns (uint256, uint256) {\r\n        uint256 currentBalance = balances[_user][_id];\r\n        uint256 amount = _amount == 0 ? currentBalance : _amount;\r\n        (  uint256 userShare, uint256 timePassed) = getAccruedEmission(depositDates[_user][_id], amount);\r\n        if ( userShare > 0) {\r\n            require(token.mint(address(this), userShare), \"minting failed\");\r\n             balances[_user][_id] = currentBalance.add(userShare);\r\n             totalStaked = totalStaked.add(userShare);\r\n            \r\n        }\r\n        return (userShare, timePassed);\r\n    }\r\n\r\n    /**\r\n     * @dev Sets the next value of the parameter and the timestamp of this setting.\r\n     */\r\n    function _updateUintParam(UintParam storage _param, uint256 _newValue) internal {\r\n        if (_param.timestamp == 0) {\r\n            _param.oldValue = _newValue;\r\n        } else if (_paramUpdateDelayElapsed(_param.timestamp)) {\r\n            _param.oldValue = _param.newValue;\r\n        }\r\n        _param.newValue = _newValue;\r\n        _param.timestamp = _now();\r\n    }\r\n\r\n    /**\r\n     * @return Returns the current value of the parameter.\r\n     */\r\n    function _getUintParamValue(UintParam memory _param) internal view returns (uint256) {\r\n        return _paramUpdateDelayElapsed(_param.timestamp) ? _param.newValue : _param.oldValue;\r\n    }\r\n\r\n    /**\r\n     * @return Returns true if param update delay elapsed.\r\n     */\r\n    function _paramUpdateDelayElapsed(uint256 _paramTimestamp) internal view returns (bool) {\r\n        return _now() > _paramTimestamp.add(PARAM_UPDATE_DELAY);\r\n    }\r\n\r\n    /**\r\n     * @dev Sets lock to prevent reentrance.\r\n     */\r\n    function _setLocked(bool _locked) internal {\r\n        locked = _locked;\r\n    }\r\n\r\n    /**\r\n     * @return Returns current timestamp.\r\n     */\r\n    function _now() internal view returns (uint256) {\r\n        // Note that the timestamp can have a 900-second error:\r\n        // https://github.com/ethereum/wiki/blob/c02254611f218f43cbb07517ca8e5d00fd6d6d75/Block-Protocol-2.0.md\r\n        return block.timestamp; // solium-disable-line security/no-block-members\r\n    }\r\n}",
  "sourcePath": "C:/warbots/warbotsFix/warbots/contracts/nanostaking.sol",
  "compiler": {
    "name": "solc",
    "version": "0.8.6+commit.11564f7e.Emscripten.clang"
  },
  "schemaVersion": "3.4.1",
  "updatedAt": "2021-07-26T19:38:43.926Z",
  "devdoc": {
    "kind": "dev",
    "methods": {},
    "version": 1
  },
  "userdoc": {
    "kind": "user",
    "methods": {},
    "version": 1
  }
}