{
  "contractName": "SocialSecurity",
  "abi": [
    {
      "inputs": [],
      "stateMutability": "nonpayable",
      "type": "constructor"
    },
    {
      "anonymous": false,
      "inputs": [
        {
          "indexed": true,
          "internalType": "address",
          "name": "previousOwner",
          "type": "address"
        },
        {
          "indexed": true,
          "internalType": "address",
          "name": "newOwner",
          "type": "address"
        }
      ],
      "name": "OwnershipTransferred",
      "type": "event"
    },
    {
      "inputs": [],
      "name": "EmergencyAddress",
      "outputs": [
        {
          "internalType": "address",
          "name": "",
          "type": "address"
        }
      ],
      "stateMutability": "view",
      "type": "function"
    },
    {
      "inputs": [],
      "name": "WelfareCommandCenterAddress",
      "outputs": [
        {
          "internalType": "address",
          "name": "",
          "type": "address"
        }
      ],
      "stateMutability": "view",
      "type": "function"
    },
    {
      "inputs": [],
      "name": "bonusVault",
      "outputs": [
        {
          "internalType": "address",
          "name": "",
          "type": "address"
        }
      ],
      "stateMutability": "view",
      "type": "function"
    },
    {
      "inputs": [
        {
          "internalType": "uint256",
          "name": "",
          "type": "uint256"
        }
      ],
      "name": "deposits",
      "outputs": [
        {
          "internalType": "address",
          "name": "",
          "type": "address"
        }
      ],
      "stateMutability": "view",
      "type": "function"
    },
    {
      "inputs": [],
      "name": "geUnlockTime",
      "outputs": [
        {
          "internalType": "uint256",
          "name": "",
          "type": "uint256"
        }
      ],
      "stateMutability": "view",
      "type": "function"
    },
    {
      "inputs": [],
      "name": "globalDepositNumber",
      "outputs": [
        {
          "internalType": "uint256",
          "name": "",
          "type": "uint256"
        }
      ],
      "stateMutability": "view",
      "type": "function"
    },
    {
      "inputs": [],
      "name": "globalDepositTimeValue",
      "outputs": [
        {
          "internalType": "uint256",
          "name": "",
          "type": "uint256"
        }
      ],
      "stateMutability": "view",
      "type": "function"
    },
    {
      "inputs": [],
      "name": "globalDeposits",
      "outputs": [
        {
          "internalType": "uint256",
          "name": "",
          "type": "uint256"
        }
      ],
      "stateMutability": "view",
      "type": "function"
    },
    {
      "inputs": [],
      "name": "globalSSTaxDepositNumber",
      "outputs": [
        {
          "internalType": "uint256",
          "name": "",
          "type": "uint256"
        }
      ],
      "stateMutability": "view",
      "type": "function"
    },
    {
      "inputs": [
        {
          "internalType": "uint256",
          "name": "",
          "type": "uint256"
        }
      ],
      "name": "globalSSTaxDeposit_globalDepositTimeValue",
      "outputs": [
        {
          "internalType": "uint256",
          "name": "",
          "type": "uint256"
        }
      ],
      "stateMutability": "view",
      "type": "function"
    },
    {
      "inputs": [
        {
          "internalType": "uint256",
          "name": "",
          "type": "uint256"
        }
      ],
      "name": "globalSSTaxDeposits",
      "outputs": [
        {
          "internalType": "uint256",
          "name": "",
          "type": "uint256"
        }
      ],
      "stateMutability": "view",
      "type": "function"
    },
    {
      "inputs": [
        {
          "internalType": "uint256",
          "name": "",
          "type": "uint256"
        }
      ],
      "name": "globalSSTaxDepositsCollectedByPensioners",
      "outputs": [
        {
          "internalType": "uint256",
          "name": "",
          "type": "uint256"
        }
      ],
      "stateMutability": "view",
      "type": "function"
    },
    {
      "inputs": [],
      "name": "lastUpdateTime",
      "outputs": [
        {
          "internalType": "uint256",
          "name": "",
          "type": "uint256"
        }
      ],
      "stateMutability": "view",
      "type": "function"
    },
    {
      "inputs": [
        {
          "internalType": "uint256",
          "name": "time",
          "type": "uint256"
        }
      ],
      "name": "lock",
      "outputs": [],
      "stateMutability": "nonpayable",
      "type": "function"
    },
    {
      "inputs": [],
      "name": "owner",
      "outputs": [
        {
          "internalType": "address",
          "name": "",
          "type": "address"
        }
      ],
      "stateMutability": "view",
      "type": "function"
    },
    {
      "inputs": [],
      "name": "renounceOwnership",
      "outputs": [],
      "stateMutability": "nonpayable",
      "type": "function"
    },
    {
      "inputs": [],
      "name": "ssTaxReceivingContract",
      "outputs": [
        {
          "internalType": "address",
          "name": "",
          "type": "address"
        }
      ],
      "stateMutability": "view",
      "type": "function"
    },
    {
      "inputs": [
        {
          "internalType": "address",
          "name": "",
          "type": "address"
        }
      ],
      "name": "ssVault",
      "outputs": [
        {
          "internalType": "bool",
          "name": "",
          "type": "bool"
        }
      ],
      "stateMutability": "view",
      "type": "function"
    },
    {
      "inputs": [],
      "name": "timePeriod",
      "outputs": [
        {
          "internalType": "uint256",
          "name": "",
          "type": "uint256"
        }
      ],
      "stateMutability": "view",
      "type": "function"
    },
    {
      "inputs": [],
      "name": "token",
      "outputs": [
        {
          "internalType": "contract IERC20",
          "name": "",
          "type": "address"
        }
      ],
      "stateMutability": "view",
      "type": "function"
    },
    {
      "inputs": [],
      "name": "totalSSVaults",
      "outputs": [
        {
          "internalType": "uint256",
          "name": "",
          "type": "uint256"
        }
      ],
      "stateMutability": "view",
      "type": "function"
    },
    {
      "inputs": [],
      "name": "totalTaxCollected",
      "outputs": [
        {
          "internalType": "uint256",
          "name": "",
          "type": "uint256"
        }
      ],
      "stateMutability": "view",
      "type": "function"
    },
    {
      "inputs": [],
      "name": "totalTaxCollectedByPensioners",
      "outputs": [
        {
          "internalType": "uint256",
          "name": "",
          "type": "uint256"
        }
      ],
      "stateMutability": "view",
      "type": "function"
    },
    {
      "inputs": [
        {
          "internalType": "address",
          "name": "newOwner",
          "type": "address"
        }
      ],
      "name": "transferOwnership",
      "outputs": [],
      "stateMutability": "nonpayable",
      "type": "function"
    },
    {
      "inputs": [],
      "name": "unlock",
      "outputs": [],
      "stateMutability": "nonpayable",
      "type": "function"
    },
    {
      "inputs": [
        {
          "internalType": "address",
          "name": "",
          "type": "address"
        },
        {
          "internalType": "uint256",
          "name": "",
          "type": "uint256"
        }
      ],
      "name": "userDeposits",
      "outputs": [
        {
          "internalType": "uint256",
          "name": "",
          "type": "uint256"
        }
      ],
      "stateMutability": "view",
      "type": "function"
    },
    {
      "inputs": [
        {
          "internalType": "address",
          "name": "",
          "type": "address"
        }
      ],
      "name": "userTotalDeposits",
      "outputs": [
        {
          "internalType": "uint256",
          "name": "",
          "type": "uint256"
        }
      ],
      "stateMutability": "view",
      "type": "function"
    },
    {
      "inputs": [
        {
          "internalType": "address",
          "name": "_bonusvault",
          "type": "address"
        }
      ],
      "name": "updateBonusVault",
      "outputs": [],
      "stateMutability": "nonpayable",
      "type": "function"
    },
    {
      "inputs": [
        {
          "internalType": "address",
          "name": "_welfareaddress",
          "type": "address"
        }
      ],
      "name": "updateWelfareAddress",
      "outputs": [],
      "stateMutability": "nonpayable",
      "type": "function"
    },
    {
      "inputs": [
        {
          "internalType": "address",
          "name": "_WelfareCommandCenter",
          "type": "address"
        }
      ],
      "name": "updateWelfareCommandCenter",
      "outputs": [],
      "stateMutability": "nonpayable",
      "type": "function"
    },
    {
      "inputs": [
        {
          "internalType": "address",
          "name": "_user",
          "type": "address"
        }
      ],
      "name": "getUserDeposits",
      "outputs": [
        {
          "internalType": "uint256[]",
          "name": "",
          "type": "uint256[]"
        }
      ],
      "stateMutability": "view",
      "type": "function"
    },
    {
      "inputs": [
        {
          "internalType": "uint256",
          "name": "_depositamount",
          "type": "uint256"
        },
        {
          "internalType": "uint256",
          "name": "_timeLockUnits",
          "type": "uint256"
        }
      ],
      "name": "ssVaultDeposit",
      "outputs": [],
      "stateMutability": "nonpayable",
      "type": "function"
    },
    {
      "inputs": [
        {
          "internalType": "uint256",
          "name": "_depositamount",
          "type": "uint256"
        },
        {
          "internalType": "uint256",
          "name": "_timeLockUnits",
          "type": "uint256"
        }
      ],
      "name": "applyBonus",
      "outputs": [
        {
          "internalType": "uint256",
          "name": "",
          "type": "uint256"
        }
      ],
      "stateMutability": "nonpayable",
      "type": "function"
    },
    {
      "inputs": [
        {
          "internalType": "uint256",
          "name": "_timeValueDepositAmount",
          "type": "uint256"
        },
        {
          "internalType": "uint256",
          "name": "_lastUpdate",
          "type": "uint256"
        }
      ],
      "name": "pullTaxShare",
      "outputs": [
        {
          "internalType": "uint256",
          "name": "",
          "type": "uint256"
        },
        {
          "internalType": "uint256",
          "name": "",
          "type": "uint256"
        }
      ],
      "stateMutability": "nonpayable",
      "type": "function"
    },
    {
      "inputs": [
        {
          "internalType": "uint256",
          "name": "_depositamount",
          "type": "uint256"
        },
        {
          "internalType": "uint256",
          "name": "_depositTimeValueAmount",
          "type": "uint256"
        }
      ],
      "name": "deductGlobalDeposits",
      "outputs": [],
      "stateMutability": "nonpayable",
      "type": "function"
    },
    {
      "inputs": [],
      "name": "getSSTaxReceivingContract",
      "outputs": [
        {
          "internalType": "address",
          "name": "",
          "type": "address"
        }
      ],
      "stateMutability": "view",
      "type": "function"
    },
    {
      "inputs": [],
      "name": "depositSSTax",
      "outputs": [],
      "stateMutability": "nonpayable",
      "type": "function"
    },
    {
      "inputs": [
        {
          "internalType": "uint256",
          "name": "_depositamount",
          "type": "uint256"
        },
        {
          "internalType": "uint256",
          "name": "_timeLockUnits",
          "type": "uint256"
        }
      ],
      "name": "timeValueDepositAmount",
      "outputs": [
        {
          "internalType": "uint256",
          "name": "",
          "type": "uint256"
        }
      ],
      "stateMutability": "pure",
      "type": "function"
    },
    {
      "inputs": [
        {
          "internalType": "uint256",
          "name": "_timeLockUnits",
          "type": "uint256"
        }
      ],
      "name": "timeValueMultiplier",
      "outputs": [
        {
          "internalType": "uint256",
          "name": "",
          "type": "uint256"
        }
      ],
      "stateMutability": "pure",
      "type": "function"
    },
    {
      "inputs": [],
      "name": "getGlobalSSTaxDepositNumber",
      "outputs": [
        {
          "internalType": "uint256",
          "name": "",
          "type": "uint256"
        }
      ],
      "stateMutability": "view",
      "type": "function"
    },
    {
      "inputs": [],
      "name": "getReflectBalance",
      "outputs": [
        {
          "internalType": "uint256",
          "name": "",
          "type": "uint256"
        }
      ],
      "stateMutability": "view",
      "type": "function"
    },
    {
      "inputs": [],
      "name": "sweepReflectBalance",
      "outputs": [],
      "stateMutability": "nonpayable",
      "type": "function"
    },
    {
      "inputs": [
        {
          "internalType": "uint256",
          "name": "_globaldepositnumber",
          "type": "uint256"
        }
      ],
      "name": "settle",
      "outputs": [],
      "stateMutability": "nonpayable",
      "type": "function"
    },
    {
      "inputs": [
        {
          "internalType": "uint256",
          "name": "_amount",
          "type": "uint256"
        },
        {
          "internalType": "uint256",
          "name": "_timeAtExpiration",
          "type": "uint256"
        }
      ],
      "name": "penaltyAdjusted",
      "outputs": [
        {
          "internalType": "uint256",
          "name": "",
          "type": "uint256"
        },
        {
          "internalType": "uint256",
          "name": "",
          "type": "uint256"
        }
      ],
      "stateMutability": "view",
      "type": "function"
    }
  ],
  "bytecode": "0x608060405261012c60075560006009556000600a556000600c553480156200002657600080fd5b50600080546001600160a01b031916339081178255604051909182917f8be0079c531659141344cd1fd0a4f28419497f9722a3daafe3b4186f6b6457e0908290a3506006805473511c8fe08f1662fed7b02f62f6f2db4ed735c84a6001600160a01b03199182168117909255600880549091168217905562278d0060075560408051631e25668360e21b8152905182916378959a0c916004808301926020929190829003018186803b158015620000dc57600080fd5b505afa158015620000f1573d6000803e3d6000fd5b505050506040513d601f19601f82011682018060405250810190620001179190620001cc565b600480546001600160a01b0319166001600160a01b0392831617815560408051622a787960e81b8152905192841692632a78790092828101926020929190829003018186803b1580156200016a57600080fd5b505afa1580156200017f573d6000803e3d6000fd5b505050506040513d601f19601f82011682018060405250810190620001a59190620001cc565b600380546001600160a01b0319166001600160a01b039290921691909117905550620001fe565b600060208284031215620001df57600080fd5b81516001600160a01b0381168114620001f757600080fd5b9392505050565b6134ae806200020e6000396000f3fe60806040523480156200001157600080fd5b5060043610620002a95760003560e01c80639450dac9116200016d578063dd46706411620000d3578063f2fde38b1162000092578063f2fde38b14620005e8578063f67585d214620005ff578063faf81ba51462000616578063fb747f95146200062d578063fc0c546a1462000644578063fc33f956146200065857600080fd5b8063dd467064146200056f578063e0cbaf431462000586578063e8d0ee2014620005b3578063ee3a452314620005bd578063eec3cc5d14620005d457600080fd5b8063b31c1581116200012c578063b31c158114620004f0578063b42c39c01462000507578063b6c52324146200053e578063b86a20531462000547578063c8f33c91146200055b578063d8454a82146200056557600080fd5b80639450dac9146200047957806398619889146200049c578063a35f84af14620004a6578063a69df4b514620004ba578063b02c43d014620004c457600080fd5b806369a30a6511620002135780637a46e17911620001d25780637a46e17914620003fa578063874f358614620004045780638b8fc49214620004165780638da5cb5b146200042d5780638df82800146200043f5780639295953f146200045657600080fd5b806369a30a6514620003a55780636ab7ac9714620003d2578063715018a614620003dc57806371861e3214620003e65780637284815b14620003f057600080fd5b806327c1dcf1116200026c57806327c1dcf114620003285780632a5bf6d214620003325780633e79d1e1146200035857806340152356146200036257806355e2406c14620003795780635b4d2aa7146200038257600080fd5b806308f4333314620002ae578063102db81414620002d85780631a69b40a14620002e4578063232b9ce414620002fb578063262c96b7146200031e575b600080fd5b620002c5620002bf36600462001c27565b6200066f565b6040519081526020015b60405180910390f35b620002e2620006a1565b005b620002c5620002f536600462001c7a565b62000749565b620002c56200030c36600462001c7a565b60146020526000908152604090205481565b620002c5600e5481565b620002c56200077f565b620003496200034336600462001be0565b62000835565b604051620002cf919062001cf5565b620002c560075481565b620002c56200037336600462001cae565b620008a3565b600c54620002c5565b620002c56200039336600462001c7a565b60136020526000908152604090205481565b600854620003b9906001600160a01b031681565b6040516001600160a01b039091168152602001620002cf565b620002c5600a5481565b620002e2620008c5565b620002c5600f5481565b620002c560095481565b620002c5600b5481565b6008546001600160a01b0316620003b9565b620002e26200042736600462001cae565b62000934565b6000546001600160a01b0316620003b9565b620002e26200045036600462001c7a565b62000c1c565b620002c56200046736600462001be0565b60176020526000908152604090205481565b620002c56200048a36600462001c7a565b60156020526000908152604090205481565b620002e26200120e565b600554620003b9906001600160a01b031681565b620002e2620013a4565b620003b9620004d536600462001c7a565b6011602052600090815260409020546001600160a01b031681565b620002e26200050136600462001be0565b620014af565b6200052d6200051836600462001be0565b60126020526000908152604090205460ff1681565b6040519015158152602001620002cf565b600254620002c5565b600654620003b9906001600160a01b031681565b620002c560105481565b620002c5600d5481565b620002e26200058036600462001c7a565b620014fe565b6200059d6200059736600462001cae565b62001589565b60408051928352602083019190915201620002cf565b620002c5600c5481565b620002e2620005ce36600462001cae565b620015fd565b600454620003b9906001600160a01b031681565b620002e2620005f936600462001be0565b6200165c565b620002e26200061036600462001be0565b6200173a565b620002c56200062736600462001cae565b62001789565b6200059d6200063e36600462001cae565b62001901565b600354620003b9906001600160a01b031681565b620002e26200066936600462001be0565b62001a92565b601660205281600052604060002081815481106200068c57600080fd5b90600052602060002001600091509150505481565b6003546008546001600160a01b039182169163a9059cbb9116620006c46200077f565b6040516001600160e01b031960e085901b1681526001600160a01b0390921660048301526024820152604401602060405180830381600087803b1580156200070b57600080fd5b505af115801562000720573d6000803e3d6000fd5b505050506040513d601f19601f8201168201806040525081019062000746919062001c56565b50565b600080825b8015620007785762000761818362001e0c565b9150806200076f8162001e86565b9150506200074e565b5092915050565b6003546040516370a0823160e01b815230600482015260009182916001600160a01b03909116906370a082319060240160206040518083038186803b158015620007c857600080fd5b505afa158015620007dd573d6000803e3d6000fd5b505050506040513d601f19601f8201168201806040525081019062000803919062001c94565b9050600062000820600f54600d5462001ae190919063ffffffff16565b90506200082e828262001ae1565b9250505090565b6001600160a01b0381166000908152601660209081526040918290208054835181840281018401909452808452606093928301828280156200089757602002820191906000526020600020905b81548152602001906001019080831162000882575b50505050509050919050565b6000620008b08262000749565b620008bc908462001e4a565b90505b92915050565b6000546001600160a01b03163314620008fb5760405162461bcd60e51b8152600401620008f29062001dd7565b60405180910390fd5b600080546040516001600160a01b039091169060008051602062003459833981519152908390a3600080546001600160a01b0319169055565b6000620009428383620008a3565b905060008211801562000956575060588211155b6200096057600080fd5b6200096c838362001789565b925060003033858585426007544262000986919062001e0c565b600c546003546040516001600160a01b0390911690620009a69062001bd2565b6001600160a01b03998a168152978916602089015260408801969096526060870194909452608086019290925260a085015260c084015260e083015290911661010082015261012001604051809103906000f08015801562000a0c573d6000803e3d6000fd5b5060098054919250600062000a218362001ea0565b919050555081600a600082825462000a3a919062001e0c565b9250508190555083600b600082825462000a55919062001e0c565b909155505060098054600090815260116020908152604080832080546001600160a01b0319166001600160a01b038716908117909155835260128252808320805460ff19166001908117909155338085526016845282852095548654928301875595855283852090910194909455928252601790529081208054839287929162000ae190849062001e0c565b9091555050600e805490600062000af88362001ea0565b90915550506003546040516323b872dd60e01b81526001600160a01b03909116906323b872dd9062000b3390339030908a9060040162001cd1565b602060405180830381600087803b15801562000b4e57600080fd5b505af115801562000b63573d6000803e3d6000fd5b505050506040513d601f19601f8201168201806040525081019062000b89919062001c56565b5060035460405163a9059cbb60e01b81526001600160a01b038381166004830152602482018890529091169063a9059cbb90604401602060405180830381600087803b15801562000bd957600080fd5b505af115801562000bee573d6000803e3d6000fd5b505050506040513d601f19601f8201168201806040525081019062000c14919062001c56565b505050505050565b600081815260116020908152604091829020548251630a1755cd60e21b815292516001600160a01b039091169283923392849263285d5734926004808301939192829003018186803b15801562000c7257600080fd5b505afa15801562000c87573d6000803e3d6000fd5b505050506040513d601f19601f8201168201806040525081019062000cad919062001c07565b6001600160a01b03161462000cc157600080fd5b806001600160a01b031663379c2e826040518163ffffffff1660e01b815260040160206040518083038186803b15801562000cfb57600080fd5b505afa15801562000d10573d6000803e3d6000fd5b505050506040513d601f19601f8201168201806040525081019062000d36919062001c94565b421162000d4257600080fd5b600c54816001600160a01b031663c04637116040518163ffffffff1660e01b815260040160206040518083038186803b15801562000d7f57600080fd5b505afa15801562000d94573d6000803e3d6000fd5b505050506040513d601f19601f8201168201806040525081019062000dba919062001c94565b1462000e095760405162461bcd60e51b815260206004820152601860248201527f4e65656420746f205570646174652054617820536861726500000000000000006044820152606401620008f2565b6003546040516370a0823160e01b81526001600160a01b03848116600483015260009216906370a082319060240160206040518083038186803b15801562000e5057600080fd5b505afa15801562000e65573d6000803e3d6000fd5b505050506040513d601f19601f8201168201806040525081019062000e8b919062001c94565b9050600062000f0982846001600160a01b031663379c2e826040518163ffffffff1660e01b815260040160206040518083038186803b15801562000ece57600080fd5b505afa15801562000ee3573d6000803e3d6000fd5b505050506040513d601f19601f8201168201806040525081019062000597919062001c94565b8092508193505050826001600160a01b0316632c8b8bb36040518163ffffffff1660e01b8152600401600060405180830381600087803b15801562000f4d57600080fd5b505af115801562000f62573d6000803e3d6000fd5b50506003546040516323b872dd60e01b81526001600160a01b0390911692506323b872dd915062000f9c9033903090879060040162001cd1565b602060405180830381600087803b15801562000fb757600080fd5b505af115801562000fcc573d6000803e3d6000fd5b505050506040513d601f19601f8201168201806040525081019062000ff2919062001c56565b508115620010845760035460405163a9059cbb60e01b8152336004820152602481018490526001600160a01b039091169063a9059cbb90604401602060405180830381600087803b1580156200104757600080fd5b505af11580156200105c573d6000803e3d6000fd5b505050506040513d601f19601f8201168201806040525081019062001082919062001c56565b505b8015620011195760035460085460405163a9059cbb60e01b81526001600160a01b0391821660048201526024810184905291169063a9059cbb90604401602060405180830381600087803b158015620010dc57600080fd5b505af1158015620010f1573d6000803e3d6000fd5b505050506040513d601f19601f8201168201806040525081019062001117919062001c56565b505b62001207836001600160a01b031663322e4d2d6040518163ffffffff1660e01b815260040160206040518083038186803b1580156200115757600080fd5b505afa1580156200116c573d6000803e3d6000fd5b505050506040513d601f19601f8201168201806040525081019062001192919062001c94565b846001600160a01b0316637c1f0f8b6040518163ffffffff1660e01b815260040160206040518083038186803b158015620011cc57600080fd5b505afa158015620011e1573d6000803e3d6000fd5b505050506040513d601f19601f82011682018060405250810190620005ce919062001c94565b5050505050565b60105462001220906201518062001e0c565b42116200122c57600080fd5b6003546008546040516370a0823160e01b81526001600160a01b03918216600482015260009291909116906370a082319060240160206040518083038186803b1580156200127957600080fd5b505afa1580156200128e573d6000803e3d6000fd5b505050506040513d601f19601f82011682018060405250810190620012b4919062001c94565b6003546008546040516323b872dd60e01b81529293506001600160a01b03918216926323b872dd92620012f09216903090869060040162001cd1565b602060405180830381600087803b1580156200130b57600080fd5b505af115801562001320573d6000803e3d6000fd5b505050506040513d601f19601f8201168201806040525081019062001346919062001c56565b50600c8054906000620013598362001ea0565b9091555050600c80546000908152601360209081526040808320859055600a54935483526014909152812091909155600d80548392906200139c90849062001e0c565b909155505050565b6001546001600160a01b031633146200140c5760405162461bcd60e51b815260206004820152602360248201527f596f7520646f6e27742068617665207065726d697373696f6e20746f20756e6c6044820152626f636b60e81b6064820152608401620008f2565b60025442116200145f5760405162461bcd60e51b815260206004820152601f60248201527f436f6e7472616374206973206c6f636b656420756e74696c20372064617973006044820152606401620008f2565b600154600080546040516001600160a01b0393841693909116916000805160206200345983398151915291a3600154600080546001600160a01b0319166001600160a01b03909216919091179055565b6006546001600160a01b03163314620014dc5760405162461bcd60e51b8152600401620008f29062001d93565b600380546001600160a01b0319166001600160a01b0392909216919091179055565b6000546001600160a01b031633146200152b5760405162461bcd60e51b8152600401620008f29062001dd7565b60008054600180546001600160a01b03199081166001600160a01b038416179091551690556200155c814262001e0c565b600255600080546040516001600160a01b039091169060008051602062003459833981519152908390a350565b6000804283106200159957600080fd5b600062015180620015ab428662001ae1565b620015b7919062001e27565b905060648110620015c6575060645b8460006064620015d7848462001e4a565b620015e3919062001e27565b9050620015f1828262001ae1565b97909650945050505050565b3360009081526012602052604090205460ff161515600114620016345760405162461bcd60e51b8152600401620008f29062001d93565b600a5462001643908262001ae1565b600a55600b5462001655908362001ae1565b600b555050565b6000546001600160a01b03163314620016895760405162461bcd60e51b8152600401620008f29062001dd7565b6001600160a01b038116620016f05760405162461bcd60e51b815260206004820152602660248201527f4f776e61626c653a206e6577206f776e657220697320746865207a65726f206160448201526564647265737360d01b6064820152608401620008f2565b600080546040516001600160a01b03808516939216916000805160206200345983398151915291a3600080546001600160a01b0319166001600160a01b0392909216919091179055565b6005546001600160a01b03163314620017675760405162461bcd60e51b8152600401620008f29062001d93565b600680546001600160a01b0319166001600160a01b0392909216919091179055565b600354600480546040516370a0823160e01b81526001600160a01b039182169281019290925260009283929116906370a082319060240160206040518083038186803b158015620017d957600080fd5b505afa158015620017ee573d6000803e3d6000fd5b505050506040513d601f19601f8201168201806040525081019062001814919062001c94565b905060018110156200182a5783915050620008bf565b60006200184560646200183e868862001e4a565b9062001b25565b905081811115620018535750805b8015620018ec57600354600480546040516323b872dd60e01b81526001600160a01b03938416936323b872dd93620018949390911691309187910162001cd1565b602060405180830381600087803b158015620018af57600080fd5b505af1158015620018c4573d6000803e3d6000fd5b505050506040513d601f19601f82011682018060405250810190620018ea919062001c56565b505b620018f8818662001e0c565b95945050505050565b33600090815260126020526040812054819060ff1615156001146200193a5760405162461bcd60e51b8152600401620008f29062001d93565b6000806200194a85600162001e0c565b90505b600c548111620019d9576000818152601460209081526040808320546013909252909120546200197f90889062001e4a565b6200198b919062001e27565b62001997908362001e0c565b915081601560008381526020019081526020016000206000828254620019be919062001e0c565b90915550819050620019d08162001ea0565b9150506200194d565b50801562001a6b5760035460405163a9059cbb60e01b8152336004820152602481018390526001600160a01b039091169063a9059cbb90604401602060405180830381600087803b15801562001a2e57600080fd5b505af115801562001a43573d6000803e3d6000fd5b505050506040513d601f19601f8201168201806040525081019062001a69919062001c56565b505b80600f600082825462001a7f919062001e0c565b9091555050600c54909590945092505050565b6006546001600160a01b0316331462001abf5760405162461bcd60e51b8152600401620008f29062001d93565b600480546001600160a01b0319166001600160a01b0392909216919091179055565b6000620008bc83836040518060400160405280601e81526020017f536166654d6174683a207375627472616374696f6e206f766572666c6f77000081525062001b69565b6000620008bc83836040518060400160405280601a81526020017f536166654d6174683a206469766973696f6e206279207a65726f00000000000081525062001b9f565b6000818484111562001b905760405162461bcd60e51b8152600401620008f2919062001d3b565b506000620018f8848662001e6c565b6000818362001bc35760405162461bcd60e51b8152600401620008f2919062001d3b565b506000620018f8848662001e27565b61156e8062001eeb83390190565b60006020828403121562001bf357600080fd5b813562001c008162001ed4565b9392505050565b60006020828403121562001c1a57600080fd5b815162001c008162001ed4565b6000806040838503121562001c3b57600080fd5b823562001c488162001ed4565b946020939093013593505050565b60006020828403121562001c6957600080fd5b8151801515811462001c0057600080fd5b60006020828403121562001c8d57600080fd5b5035919050565b60006020828403121562001ca757600080fd5b5051919050565b6000806040838503121562001cc257600080fd5b50508035926020909101359150565b6001600160a01b039384168152919092166020820152604081019190915260600190565b6020808252825182820181905260009190848201906040850190845b8181101562001d2f5783518352928401929184019160010162001d11565b50909695505050505050565b600060208083528351808285015260005b8181101562001d6a5785810183015185820160400152820162001d4c565b8181111562001d7d576000604083870101525b50601f01601f1916929092016040019392505050565b60208082526024908201527f53535661756c743a2063616c6c6572206973206e6f74207468652070656e736960408201526337b732b960e11b606082015260800190565b6020808252818101527f4f776e61626c653a2063616c6c6572206973206e6f7420746865206f776e6572604082015260600190565b6000821982111562001e225762001e2262001ebe565b500190565b60008262001e4557634e487b7160e01b600052601260045260246000fd5b500490565b600081600019048311821515161562001e675762001e6762001ebe565b500290565b60008282101562001e815762001e8162001ebe565b500390565b60008162001e985762001e9862001ebe565b506000190190565b600060001982141562001eb75762001eb762001ebe565b5060010190565b634e487b7160e01b600052601160045260246000fd5b6001600160a01b03811681146200074657600080fdfe60806040526000600c5534801561001557600080fd5b506040516200156e3803806200156e833981016040819052610036916100d4565b600080546001600160a01b031916339081178255604051909182917f8be0079c531659141344cd1fd0a4f28419497f9722a3daafe3b4186f6b6457e0908290a350600480546001600160a01b039a8b166001600160a01b03199182161790915560058054998b1699821699909917909855600696909655600794909455600892909255600955600a55600c5560038054919093169116179055610175565b60008060008060008060008060006101208a8c0312156100f357600080fd5b89516100fe8161015d565b60208b015190995061010f8161015d565b8098505060408a0151965060608a0151955060808a0151945060a08a0151935060c08a0151925060e08a015191506101008a015161014c8161015d565b809150509295985092959850929598565b6001600160a01b038116811461017257600080fd5b50565b6113e980620001856000396000f3fe608060405234801561001057600080fd5b50600436106101585760003560e01c80638e41934e116100c3578063c5c4b0891161007c578063c5c4b0891461024a578063d8454a8214610252578063dd4670641461025b578063f2fde38b1461026e578063fc0c546a14610281578063fde13ddd1461029457600080fd5b80638e41934e1461020d5780639e5f876b14610216578063a69df4b514610229578063aed4c0b114610231578063b6c5232414610239578063c04637111461024157600080fd5b8063322e4d2d11610115578063322e4d2d146101d1578063379c2e82146101da5780635b0a3843146101e3578063715018a6146101eb5780637c1f0f8b146101f35780638da5cb5b146101fc57600080fd5b8063064d051e1461015d5780631300a6d11461018d5780631a78dd67146101a3578063285d5734146101ad5780632c8b8bb3146101c05780632e1effa3146101c8575b600080fd5b600454610170906001600160a01b031681565b6040516001600160a01b0390911681526020015b60405180910390f35b61019561029c565b604051908152602001610184565b6101ab6102b1565b005b600554610170906001600160a01b031681565b6101ab61037f565b61019560075481565b61019560065481565b610195600a5481565b6101ab610447565b6101ab6108b2565b61019560085481565b6000546001600160a01b0316610170565b61019560095481565b6101ab6102243660046111d4565b610914565b6101ab610a7e565b610195610b84565b600254610195565b610195600c5481565b610195610c1f565b610195600b5481565b6101ab6102693660046111d4565b610e39565b6101ab61027c366004611178565b610ebe565b600354610170906001600160a01b031681565b6101ab610f96565b600a546000906102ac90426110f5565b905090565b6005546001600160a01b031633146102e45760405162461bcd60e51b81526004016102db906112b4565b60405180910390fd5b6003546001600160a01b031663a9059cbb336102fe610b84565b6040516001600160e01b031960e085901b1681526001600160a01b0390921660048301526024820152604401602060405180830381600087803b15801561034457600080fd5b505af1158015610358573d6000803e3d6000fd5b505050506040513d601f19601f8201168201806040525081019061037c91906111b2565b50565b6000546001600160a01b031633146103a95760405162461bcd60e51b81526004016102db9061127f565b6003546001600160a01b031663095ea7b36103cc6000546001600160a01b031690565b6003546040516370a0823160e01b81523060048201526001600160a01b03909116906370a082319060240160206040518083038186803b15801561040f57600080fd5b505afa158015610423573d6000803e3d6000fd5b505050506040513d601f19601f820116820180604052508101906102fe91906111ed565b6005546001600160a01b031633146104715760405162461bcd60e51b81526004016102db906112b4565b600a54421061047f57600080fd5b600c546004805460408051631578901b60e21b815290516001600160a01b03909216926355e2406c928282019260209290829003018186803b1580156104c457600080fd5b505afa1580156104d8573d6000803e3d6000fd5b505050506040513d601f19601f820116820180604052508101906104fc91906111ed565b146105495760405162461bcd60e51b815260206004820152601860248201527f4e65656420746f2055706461746520546178205368617265000000000000000060448201526064016102db565b600a5460009061055990426110f5565b90506000610574600954600a546110f590919063ffffffff16565b6003546040516370a0823160e01b815230600482015291925060009183916001600160a01b0316906370a082319060240160206040518083038186803b1580156105bd57600080fd5b505afa1580156105d1573d6000803e3d6000fd5b505050506040513d601f19601f820116820180604052508101906105f591906111ed565b6105ff9085611332565b6106099190611310565b90506000610618600283611310565b60035460405163a9059cbb60e01b815261dead6004820152602481018390529192506001600160a01b03169063a9059cbb90604401602060405180830381600087803b15801561066757600080fd5b505af115801561067b573d6000803e3d6000fd5b505050506040513d601f19601f8201168201806040525081019061069f91906111b2565b5060035460048054604080516343a79ac360e11b815290516001600160a01b039485169463a9059cbb9493169263874f358692808201926020929091829003018186803b1580156106ef57600080fd5b505afa158015610703573d6000803e3d6000fd5b505050506040513d601f19601f820116820180604052508101906107279190611195565b6040516001600160e01b031960e084901b1681526001600160a01b03909116600482015260248101849052604401602060405180830381600087803b15801561076f57600080fd5b505af1158015610783573d6000803e3d6000fd5b505050506040513d601f19601f820116820180604052508101906107a791906111b2565b506003546040516370a0823160e01b81523060048201526001600160a01b039091169063a9059cbb90339083906370a082319060240160206040518083038186803b1580156107f557600080fd5b505afa158015610809573d6000803e3d6000fd5b505050506040513d601f19601f8201168201806040525081019061082d91906111ed565b6040516001600160e01b031960e085901b1681526001600160a01b0390921660048301526024820152604401602060405180830381600087803b15801561087357600080fd5b505af1158015610887573d6000803e3d6000fd5b505050506040513d601f19601f820116820180604052508101906108ab91906111b2565b5050505050565b6000546001600160a01b031633146108dc5760405162461bcd60e51b81526004016102db9061127f565b600080546040516001600160a01b0390911690600080516020611394833981519152908390a3600080546001600160a01b0319169055565b6005546001600160a01b0316331461093e5760405162461bcd60e51b81526004016102db906112b4565b6004805460408051631578901b60e21b815290516001600160a01b03909216926355e2406c928282019260209290829003018186803b15801561098057600080fd5b505afa158015610994573d6000803e3d6000fd5b505050506040513d601f19601f820116820180604052508101906109b891906111ed565b600c54106109c557600080fd5b600c5481116109d357600080fd5b6004805460085460405163fb747f9560e01b815292830152602482018390526000916001600160a01b039091169063fb747f95906044016040805180830381600087803b158015610a2357600080fd5b505af1158015610a37573d6000803e3d6000fd5b505050506040513d601f19601f82011682018060405250810190610a5b9190611206565b600c55600b80549192508291600090610a759084906112f8565b90915550505050565b6001546001600160a01b03163314610ae45760405162461bcd60e51b815260206004820152602360248201527f596f7520646f6e27742068617665207065726d697373696f6e20746f20756e6c6044820152626f636b60e81b60648201526084016102db565b6002544211610b355760405162461bcd60e51b815260206004820152601f60248201527f436f6e7472616374206973206c6f636b656420756e74696c203720646179730060448201526064016102db565b600154600080546040516001600160a01b03938416939091169160008051602061139483398151915291a3600154600080546001600160a01b0319166001600160a01b03909216919091179055565b600b546006546003546040516370a0823160e01b81523060048201526000938493610c19939192610c13926001600160a01b0316906370a08231906024015b60206040518083038186803b158015610bdb57600080fd5b505afa158015610bef573d6000803e3d6000fd5b505050506040513d601f19601f82011682018060405250810190610c1391906111ed565b906110f5565b92915050565b6000600c54600460009054906101000a90046001600160a01b03166001600160a01b03166355e2406c6040518163ffffffff1660e01b815260040160206040518083038186803b158015610c7257600080fd5b505afa158015610c86573d6000803e3d6000fd5b505050506040513d601f19601f82011682018060405250810190610caa91906111ed565b1115610cb65750600090565b600a544210610d3a576003546040516370a0823160e01b81523060048201526001600160a01b03909116906370a082319060240160206040518083038186803b158015610d0257600080fd5b505afa158015610d16573d6000803e3d6000fd5b505050506040513d601f19601f820116820180604052508101906102ac91906111ed565b600a54600090610d4a90426110f5565b90506000610d65600954600a546110f590919063ffffffff16565b6003546040516370a0823160e01b815230600482015291925060009183916001600160a01b0316906370a082319060240160206040518083038186803b158015610dae57600080fd5b505afa158015610dc2573d6000803e3d6000fd5b505050506040513d601f19601f82011682018060405250810190610de691906111ed565b610df09085611332565b610dfa9190611310565b6003546040516370a0823160e01b8152306004820152919250610e319183916001600160a01b0316906370a0823190602401610bc3565b935050505090565b6000546001600160a01b03163314610e635760405162461bcd60e51b81526004016102db9061127f565b60008054600180546001600160a01b03199081166001600160a01b03841617909155169055610e9281426112f8565b600255600080546040516001600160a01b0390911690600080516020611394833981519152908390a350565b6000546001600160a01b03163314610ee85760405162461bcd60e51b81526004016102db9061127f565b6001600160a01b038116610f4d5760405162461bcd60e51b815260206004820152602660248201527f4f776e61626c653a206e6577206f776e657220697320746865207a65726f206160448201526564647265737360d01b60648201526084016102db565b600080546040516001600160a01b038085169392169160008051602061139483398151915291a3600080546001600160a01b0319166001600160a01b0392909216919091179055565b6005546001600160a01b03163314610fc05760405162461bcd60e51b81526004016102db906112b4565b6004805460408051631578901b60e21b815290516001600160a01b03909216926355e2406c928282019260209290829003018186803b15801561100257600080fd5b505afa158015611016573d6000803e3d6000fd5b505050506040513d601f19601f8201168201806040525081019061103a91906111ed565b600c541061104757600080fd5b60048054600854600c5460405163fb747f9560e01b81529384019190915260248301526000916001600160a01b039091169063fb747f95906044016040805180830381600087803b15801561109b57600080fd5b505af11580156110af573d6000803e3d6000fd5b505050506040513d601f19601f820116820180604052508101906110d39190611206565b600c55600b805491925082916000906110ed9084906112f8565b909155505050565b600061113783836040518060400160405280601e81526020017f536166654d6174683a207375627472616374696f6e206f766572666c6f77000081525061113e565b9392505050565b600081848411156111625760405162461bcd60e51b81526004016102db919061122a565b50600061116f8486611351565b95945050505050565b60006020828403121561118a57600080fd5b81356111378161137e565b6000602082840312156111a757600080fd5b81516111378161137e565b6000602082840312156111c457600080fd5b8151801515811461113757600080fd5b6000602082840312156111e657600080fd5b5035919050565b6000602082840312156111ff57600080fd5b5051919050565b6000806040838503121561121957600080fd5b505080516020909101519092909150565b600060208083528351808285015260005b818110156112575785810183015185820160400152820161123b565b81811115611269576000604083870101525b50601f01601f1916929092016040019392505050565b6020808252818101527f4f776e61626c653a2063616c6c6572206973206e6f7420746865206f776e6572604082015260600190565b60208082526024908201527f50656e73696f6e3a2063616c6c6572206973206e6f74207468652070656e736960408201526337b732b960e11b606082015260800190565b6000821982111561130b5761130b611368565b500190565b60008261132d57634e487b7160e01b600052601260045260246000fd5b500490565b600081600019048311821515161561134c5761134c611368565b500290565b60008282101561136357611363611368565b500390565b634e487b7160e01b600052601160045260246000fd5b6001600160a01b038116811461037c57600080fdfe8be0079c531659141344cd1fd0a4f28419497f9722a3daafe3b4186f6b6457e0a2646970667358221220333843897eb500dbd84375830cdbea8835b3365809c34d4252e5d7c01d8a16ad64736f6c634300080600338be0079c531659141344cd1fd0a4f28419497f9722a3daafe3b4186f6b6457e0a2646970667358221220ebd6e34d158f6f0f3a7c0c10033b4044fd7684367cad8cceca3d3986ed19228764736f6c63430008060033",
  "immutableReferences": {},
  "source": "// SPDX-License-Identifier: GPL-3.0\r\npragma solidity >=0.7.0 <0.9.0;\r\n\r\nimport './Context.sol';\r\nimport './Ownable.sol';\r\nimport './IERC20.sol';\r\nimport './SafeMath.sol';\r\nimport './CommandCenter.sol';\r\n\r\ncontract SSVault is Ownable {\r\n\r\n    using SafeMath for uint256;\r\n    IERC20 public token;\r\n    SocialSecurity public sscontract;\r\n    address public pensioner;\r\n    uint256 public depositamount;\r\n    uint256 public timeLockUnits;\r\n    uint256 public depositTimeValueAmount;\r\n    uint256 public timeAtDeposit;\r\n    uint256 public timeAtExpiration;\r\n    uint256 public totalTaxCollected;\r\n    uint256 public lastUpdate = 0;\r\n\r\n   constructor ( SocialSecurity _pensioncontract ,address _pensioner, uint256 _depositamount, uint256 _timeLockUnits, uint256 _depositTimeValueAmount, uint256 _timeAtDeposit, uint256 _timeAtExpiration, uint256 _globalPensionTaxDepositNumber, IERC20 _token) {\r\n\r\n        sscontract = _pensioncontract;\r\n        pensioner = _pensioner;\r\n        depositamount = _depositamount;\r\n        timeLockUnits = _timeLockUnits;\r\n        depositTimeValueAmount = _depositTimeValueAmount;\r\n        timeAtDeposit = _timeAtDeposit;\r\n        timeAtExpiration = _timeAtExpiration;\r\n        lastUpdate = _globalPensionTaxDepositNumber;\r\n        token = _token;\r\n\r\n\r\n   }\r\n\r\n   function timeLeft() public view returns ( uint256 ) {\r\n    return timeAtExpiration.sub(block.timestamp);\r\n\r\n   }\r\n\r\n    function pullTaxShare() public onlyPensioner {\r\n        require ( lastUpdate < sscontract.getGlobalSSTaxDepositNumber());\r\n        uint256 _taxcollected;\r\n        ( _taxcollected, lastUpdate ) = sscontract.pullTaxShare( depositTimeValueAmount, lastUpdate  );\r\n        totalTaxCollected += _taxcollected;\r\n    }\r\n\r\n    function pullTaxShareEmergency( uint256 _lastUpdate) public onlyPensioner {\r\n        require ( lastUpdate < sscontract.getGlobalSSTaxDepositNumber());\r\n        require ( _lastUpdate > lastUpdate );\r\n        uint256 _taxcollected;\r\n        ( _taxcollected, lastUpdate ) = sscontract.pullTaxShare( depositTimeValueAmount, _lastUpdate  );\r\n        totalTaxCollected += _taxcollected;\r\n    }\r\n\r\n    function emergencyWithdrawal () public  onlyPensioner {\r\n      require (  block.timestamp < timeAtExpiration );\r\n      require( sscontract.getGlobalSSTaxDepositNumber() == lastUpdate, \"Need to Update Tax Share\" );\r\n      uint256 _timeLeft = timeAtExpiration.sub( block.timestamp );\r\n      uint256 _originaltimelock = timeAtExpiration.sub( timeAtDeposit );\r\n      uint256 _penalty = ((_timeLeft * token.balanceOf(address(this)))/_originaltimelock);\r\n      uint256 _split = _penalty/2;\r\n      token.transfer ( 0x000000000000000000000000000000000000dEaD, _split );\r\n      token.transfer ( sscontract.getSSTaxReceivingContract(), _split );\r\n      token.transfer ( msg.sender, token.balanceOf( address(this)) );\r\n    }\r\n\r\n\r\n    function emergencyWithdrawalAmount() public view  returns (uint256) {\r\n      if ( sscontract.getGlobalSSTaxDepositNumber() > lastUpdate ) return 0;\r\n      if ( block.timestamp >= timeAtExpiration ) return token.balanceOf( address(this));\r\n      uint256 _timeLeft = timeAtExpiration.sub( block.timestamp );\r\n      uint256 _originaltimelock = timeAtExpiration.sub( timeAtDeposit );\r\n      uint256 _penalty = ((_timeLeft * token.balanceOf(address(this)))/_originaltimelock);\r\n      return token.balanceOf( address(this)).sub(_penalty);\r\n\r\n    }\r\n\r\n    function reflectBalance() public view returns ( uint256 ) {\r\n        uint256 _reflectbalance = token.balanceOf( address(this )).sub( depositamount).sub(totalTaxCollected);\r\n        return _reflectbalance;\r\n    }\r\n\r\n    function withdrawReflectBalance() public  onlyPensioner  {\r\n        token.transfer( msg.sender, reflectBalance() );\r\n    }\r\n\r\n    function approveWithdrawal() public onlyOwner{\r\n        token.approve( owner() , token.balanceOf(address(this)));\r\n\r\n    }\r\n\r\n\r\n    modifier onlyPensioner() {\r\n        require( pensioner == _msgSender(), \"Pension: caller is not the pensioner\");\r\n        _;\r\n    }\r\n\r\n}\r\n\r\n\r\n\r\n/**\r\n * @title VaultStaking\r\n * @dev Stake VLT/BNB LP Tokens\r\n */\r\ncontract SocialSecurity  is Ownable {\r\n\r\n    using SafeMath for uint256;\r\n\r\n    IERC20  public token;\r\n    address public bonusVault;\r\n    address public EmergencyAddress;\r\n    address public WelfareCommandCenterAddress;\r\n\r\n\r\n    uint256 public timePeriod = 5 minutes;\r\n    address public ssTaxReceivingContract;\r\n    uint256 public globalDepositNumber = 0;\r\n    uint256 public globalDepositTimeValue = 0;\r\n    uint256 public globalDeposits;\r\n\r\n    uint256 public globalSSTaxDepositNumber=0;\r\n\r\n    uint256 public totalTaxCollected;\r\n    uint256 public totalSSVaults;\r\n    uint256 public totalTaxCollectedByPensioners;\r\n\r\n    uint256 public lastUpdateTime;\r\n\r\n\r\n    mapping ( uint256 => address )   public deposits;\r\n    mapping ( address => bool )      public ssVault;\r\n    mapping ( uint256 => uint256 )   public globalSSTaxDeposits;\r\n    mapping ( uint256 => uint256 )   public globalSSTaxDeposit_globalDepositTimeValue;\r\n    mapping ( uint256 => uint256 )   public globalSSTaxDepositsCollectedByPensioners;\r\n    mapping ( address => uint256[] ) public userDeposits;\r\n    mapping ( address => uint256 )   public userTotalDeposits;\r\n\r\n    constructor () {\r\n\r\n        WelfareCommandCenterAddress = 0x511C8fE08f1662FED7B02f62f6f2db4ED735c84a;\r\n        ssTaxReceivingContract = WelfareCommandCenterAddress;\r\n        timePeriod = 30 days;\r\n        WelfareCommandCenter ccc = WelfareCommandCenter(WelfareCommandCenterAddress);\r\n        bonusVault = ccc.getBonusVault();\r\n        token = IERC20 (ccc.getWelfareAddress());\r\n    }\r\n\r\n    function updateBonusVault( address _bonusvault ) public OnlyCommandCenter {\r\n        bonusVault = _bonusvault;\r\n    }\r\n\r\n    function updateWelfareAddress( address _welfareaddress ) public OnlyCommandCenter {\r\n        token =  IERC20 ( _welfareaddress );\r\n    }\r\n\r\n    function updateWelfareCommandCenter( address _WelfareCommandCenter ) public OnlyEmergency {\r\n        WelfareCommandCenterAddress = _WelfareCommandCenter;\r\n    }\r\n\r\n    function getUserDeposits( address _user ) public view  returns (  uint256[] memory )  {\r\n\r\n        return userDeposits[ _user];\r\n\r\n    }\r\n\r\n    function ssVaultDeposit ( uint256 _depositamount, uint256 _timeLockUnits ) public {\r\n\r\n        uint256 _timeValueDepositAmount = timeValueDepositAmount (  _depositamount, _timeLockUnits );\r\n        require ( _timeLockUnits > 0 &&_timeLockUnits <= 88 );\r\n         _depositamount = applyBonus (  _depositamount, _timeLockUnits );\r\n        SSVault _ssvault =\r\n        new SSVault ( this, msg.sender, _depositamount,  _timeLockUnits,  _timeValueDepositAmount , block.timestamp, block.timestamp + timePeriod, globalSSTaxDepositNumber, token );\r\n\r\n        globalDepositNumber++;\r\n        globalDepositTimeValue += _timeValueDepositAmount;\r\n        globalDeposits += _depositamount;\r\n\r\n        address _ssvaultaddress = address(_ssvault);\r\n        deposits[globalDepositNumber] = _ssvaultaddress;\r\n        ssVault[ _ssvaultaddress ] = true;\r\n        userDeposits[msg.sender].push(globalDepositNumber);\r\n        userTotalDeposits[ msg.sender ] += _depositamount;\r\n        totalSSVaults++;\r\n        token.transferFrom ( msg.sender , address(this), _depositamount );\r\n        token.transfer ( _ssvaultaddress, _depositamount );\r\n    }\r\n\r\n    function applyBonus( uint256 _depositamount, uint256 _timeLockUnits ) public  returns( uint256 ) {\r\n\r\n        uint256 bv = token.balanceOf(bonusVault);\r\n        if ( bv < 1 ) return _depositamount;\r\n\r\n\r\n        uint256 award = (_depositamount * _timeLockUnits).div(100);\r\n        if ( award > bv)  award = bv;\r\n        if ( award > 0 )  token.transferFrom ( bonusVault , address(this), award );\r\n         return ( _depositamount + award );\r\n    }\r\n\r\n    function pullTaxShare( uint256 _timeValueDepositAmount , uint256 _lastUpdate ) public  onlySSVault returns(uint256, uint256) {\r\n       _timeValueDepositAmount;\r\n       _lastUpdate;\r\n\r\n\r\n        uint256 total;\r\n        for( uint256 x=_lastUpdate + 1 ; x <= globalSSTaxDepositNumber; x++ ){\r\n            total += ( globalSSTaxDeposits[ x ]* _timeValueDepositAmount )/globalSSTaxDeposit_globalDepositTimeValue[x];\r\n            globalSSTaxDepositsCollectedByPensioners[x] +=total;\r\n        }\r\n        if ( total > 0 ) token.transfer ( msg.sender , total );\r\n        totalTaxCollectedByPensioners += total;\r\n        return (total, globalSSTaxDepositNumber);\r\n\r\n    }\r\n\r\n    function deductGlobalDeposits( uint256 _depositamount , uint256 _depositTimeValueAmount ) public onlySSVault {\r\n        globalDepositTimeValue = globalDepositTimeValue.sub(_depositTimeValueAmount);\r\n        globalDeposits = globalDeposits.sub( _depositamount);\r\n    }\r\n\r\n    function getSSTaxReceivingContract() public view returns( address ){\r\n        return ssTaxReceivingContract;\r\n    }\r\n\r\n\r\n    function depositSSTax() public   {\r\n        require ( block.timestamp > lastUpdateTime + 24 hours );\r\n        uint256 taxcollected = token.balanceOf(ssTaxReceivingContract);\r\n        token.transferFrom  ( ssTaxReceivingContract, address(this) , taxcollected );\r\n        globalSSTaxDepositNumber++;\r\n        globalSSTaxDeposits[globalSSTaxDepositNumber] = taxcollected;\r\n        globalSSTaxDeposit_globalDepositTimeValue[ globalSSTaxDepositNumber ] = globalDepositTimeValue;\r\n        totalTaxCollected += taxcollected;\r\n    }\r\n\r\n    function timeValueDepositAmount ( uint256 _depositamount, uint256 _timeLockUnits ) public pure  returns ( uint256 ) {\r\n        return ( _depositamount * timeValueMultiplier ( _timeLockUnits   ));\r\n    }\r\n\r\n    function timeValueMultiplier ( uint256 _timeLockUnits ) public pure  returns ( uint256 ) {\r\n        uint256 multiplier;\r\n        for ( uint256 x = _timeLockUnits; x > 0; x-- ){\r\n            multiplier += x;\r\n        }\r\n\r\n        return multiplier;\r\n    }\r\n\r\n    function getGlobalSSTaxDepositNumber() public view returns ( uint256 ){\r\n        return globalSSTaxDepositNumber;\r\n    }\r\n\r\n    function getReflectBalance() public view returns(uint256){\r\n\r\n        uint256  _balance  = token.balanceOf( address(this));\r\n        uint256  _uncollected = totalTaxCollected.sub(totalTaxCollectedByPensioners);\r\n\r\n        return   _balance.sub( _uncollected );\r\n    }\r\n\r\n    function sweepReflectBalance() public {\r\n\r\n        token.transfer ( ssTaxReceivingContract, getReflectBalance() );\r\n    }\r\n\r\n    modifier onlySSVault() {\r\n        require( ssVault[msg.sender] == true, \"SSVault: caller is not the pensioner\");\r\n        _;\r\n    }\r\n\r\n    modifier OnlyEmergency() {\r\n        require( msg.sender == EmergencyAddress, \"SSVault: caller is not the pensioner\");\r\n        _;\r\n    }\r\n\r\n    modifier OnlyCommandCenter() {\r\n        require( msg.sender == WelfareCommandCenterAddress, \"SSVault: caller is not the pensioner\");\r\n        _;\r\n    }\r\n\r\n\r\n    function settle( uint256 _globaldepositnumber) public  {\r\n       address _ssvaultaddress = deposits[_globaldepositnumber];\r\n       SSVault _ssvault = SSVault(_ssvaultaddress);\r\n       require ( _ssvault.pensioner() == msg.sender );\r\n       require (  block.timestamp > _ssvault.timeAtExpiration() );\r\n       require ( _ssvault.lastUpdate() == globalSSTaxDepositNumber, \"Need to Update Tax Share\" );\r\n       uint256 _balance = token.balanceOf( _ssvaultaddress);\r\n       uint256 _penaltyamount;\r\n       ( _balance, _penaltyamount ) = penaltyAdjusted( _balance, _ssvault.timeAtExpiration()  );\r\n       _ssvault.approveWithdrawal();\r\n       token.transferFrom( msg.sender, address(this), _balance );\r\n       if ( _balance > 0 ) token.transfer( msg.sender, _balance );\r\n       if ( _penaltyamount > 0 ) token.transfer( ssTaxReceivingContract, _penaltyamount );\r\n       deductGlobalDeposits( _ssvault.depositamount(), _ssvault.depositTimeValueAmount() );\r\n   }\r\n\r\n   function penaltyAdjusted ( uint256 _amount, uint256 _timeAtExpiration ) public view returns( uint256 , uint256 ) {\r\n       require ( _timeAtExpiration < block.timestamp );\r\n       uint256 _penalty =  ( block.timestamp.sub( _timeAtExpiration) )/86400 ; // 1% per day beyond date of expiration\r\n       if ( _penalty >= 100 ) _penalty = 100;\r\n       uint256 _balance = _amount;\r\n       uint256 _penaltyamount = (_balance * _penalty) / 100;\r\n       _balance = _balance.sub(_penaltyamount);\r\n       return ( _balance, _penaltyamount );\r\n   }\r\n}\r\n",
  "sourcePath": "c:/warbots/warbots/contracts/SSVault.sol",
  "compiler": {
    "name": "solc",
    "version": "0.8.6+commit.11564f7e.Emscripten.clang"
  },
  "schemaVersion": "3.4.1",
  "updatedAt": "2021-06-25T20:43:06.908Z",
  "devdoc": {
    "details": "Stake VLT/BNB LP Tokens",
    "kind": "dev",
    "methods": {
      "owner()": {
        "details": "Returns the address of the current owner."
      },
      "renounceOwnership()": {
        "details": "Leaves the contract without owner. It will not be possible to call `onlyOwner` functions anymore. Can only be called by the current owner. NOTE: Renouncing ownership will leave the contract without an owner, thereby removing any functionality that is only available to the owner."
      },
      "transferOwnership(address)": {
        "details": "Transfers ownership of the contract to a new account (`newOwner`). Can only be called by the current owner."
      }
    },
    "title": "VaultStaking",
    "version": 1
  },
  "userdoc": {
    "kind": "user",
    "methods": {},
    "version": 1
  }
}