{
  "contractName": "WarBotStatsData",
  "abi": [
    {
      "anonymous": false,
      "inputs": [
        {
          "indexed": true,
          "internalType": "address",
          "name": "previousOwner",
          "type": "address"
        },
        {
          "indexed": true,
          "internalType": "address",
          "name": "newOwner",
          "type": "address"
        }
      ],
      "name": "OwnershipTransferred",
      "type": "event"
    },
    {
      "anonymous": false,
      "inputs": [
        {
          "indexed": false,
          "internalType": "uint256",
          "name": "_warbot",
          "type": "uint256"
        },
        {
          "indexed": false,
          "internalType": "uint256",
          "name": "_damage",
          "type": "uint256"
        }
      ],
      "name": "WarbotAttackDamaged",
      "type": "event"
    },
    {
      "anonymous": false,
      "inputs": [
        {
          "indexed": false,
          "internalType": "uint256",
          "name": "_warbot",
          "type": "uint256"
        },
        {
          "indexed": false,
          "internalType": "uint256",
          "name": "_damage",
          "type": "uint256"
        }
      ],
      "name": "WarbotAttackRepaired",
      "type": "event"
    },
    {
      "anonymous": false,
      "inputs": [
        {
          "indexed": false,
          "internalType": "uint256",
          "name": "_warbot",
          "type": "uint256"
        },
        {
          "indexed": false,
          "internalType": "uint256",
          "name": "_damage",
          "type": "uint256"
        }
      ],
      "name": "WarbotDamaged",
      "type": "event"
    },
    {
      "anonymous": false,
      "inputs": [
        {
          "indexed": false,
          "internalType": "uint256",
          "name": "_warbot",
          "type": "uint256"
        },
        {
          "indexed": false,
          "internalType": "uint256",
          "name": "_damage",
          "type": "uint256"
        }
      ],
      "name": "WarbotDefenseDamaged",
      "type": "event"
    },
    {
      "anonymous": false,
      "inputs": [
        {
          "indexed": false,
          "internalType": "uint256",
          "name": "_warbot",
          "type": "uint256"
        },
        {
          "indexed": false,
          "internalType": "uint256",
          "name": "_damage",
          "type": "uint256"
        }
      ],
      "name": "WarbotDefenseRepaired",
      "type": "event"
    },
    {
      "anonymous": false,
      "inputs": [
        {
          "indexed": false,
          "internalType": "uint256",
          "name": "_warbot",
          "type": "uint256"
        },
        {
          "indexed": false,
          "internalType": "uint256",
          "name": "_repair",
          "type": "uint256"
        }
      ],
      "name": "WarbotRepaired",
      "type": "event"
    },
    {
      "anonymous": false,
      "inputs": [
        {
          "indexed": false,
          "internalType": "uint256",
          "name": "_warbot",
          "type": "uint256"
        },
        {
          "indexed": false,
          "internalType": "uint256",
          "name": "_damage",
          "type": "uint256"
        }
      ],
      "name": "WarbotSpeedDamaged",
      "type": "event"
    },
    {
      "anonymous": false,
      "inputs": [
        {
          "indexed": false,
          "internalType": "uint256",
          "name": "_warbot",
          "type": "uint256"
        },
        {
          "indexed": false,
          "internalType": "uint256",
          "name": "_damage",
          "type": "uint256"
        }
      ],
      "name": "WarbotSpeedRepaired",
      "type": "event"
    },
    {
      "anonymous": false,
      "inputs": [
        {
          "indexed": false,
          "internalType": "uint256",
          "name": "_warbot",
          "type": "uint256"
        }
      ],
      "name": "levelStatsRerollRequested",
      "type": "event"
    },
    {
      "anonymous": false,
      "inputs": [
        {
          "indexed": false,
          "internalType": "uint256",
          "name": "_warbot",
          "type": "uint256"
        }
      ],
      "name": "levelStatsRolled",
      "type": "event"
    },
    {
      "anonymous": false,
      "inputs": [
        {
          "indexed": false,
          "internalType": "uint256",
          "name": "_warbot",
          "type": "uint256"
        },
        {
          "indexed": false,
          "internalType": "uint256",
          "name": "_level",
          "type": "uint256"
        }
      ],
      "name": "warbotUpgraded",
      "type": "event"
    },
    {
      "inputs": [
        {
          "internalType": "uint256",
          "name": "",
          "type": "uint256"
        }
      ],
      "name": "EngineContracts",
      "outputs": [
        {
          "internalType": "address",
          "name": "",
          "type": "address"
        }
      ],
      "stateMutability": "view",
      "type": "function"
    },
    {
      "inputs": [
        {
          "internalType": "uint256",
          "name": "",
          "type": "uint256"
        }
      ],
      "name": "RequestReroll",
      "outputs": [
        {
          "internalType": "bool",
          "name": "",
          "type": "bool"
        }
      ],
      "stateMutability": "view",
      "type": "function"
    },
    {
      "inputs": [
        {
          "internalType": "uint256",
          "name": "",
          "type": "uint256"
        }
      ],
      "name": "WarBotCurrentStats",
      "outputs": [
        {
          "internalType": "uint256",
          "name": "_warbothitpoints",
          "type": "uint256"
        },
        {
          "internalType": "uint256",
          "name": "_warbotattack",
          "type": "uint256"
        },
        {
          "internalType": "uint256",
          "name": "_warbotdefense",
          "type": "uint256"
        },
        {
          "internalType": "uint256",
          "name": "_warbotspeed",
          "type": "uint256"
        },
        {
          "internalType": "uint8",
          "name": "_movement",
          "type": "uint8"
        }
      ],
      "stateMutability": "view",
      "type": "function"
    },
    {
      "inputs": [
        {
          "internalType": "uint256",
          "name": "",
          "type": "uint256"
        }
      ],
      "name": "WarBotProfiles",
      "outputs": [
        {
          "internalType": "address",
          "name": "creator",
          "type": "address"
        },
        {
          "internalType": "uint256",
          "name": "hitpoints",
          "type": "uint256"
        },
        {
          "internalType": "uint256",
          "name": "attack",
          "type": "uint256"
        },
        {
          "internalType": "uint256",
          "name": "defense",
          "type": "uint256"
        },
        {
          "internalType": "uint256",
          "name": "speed",
          "type": "uint256"
        },
        {
          "internalType": "uint256",
          "name": "slots",
          "type": "uint256"
        },
        {
          "internalType": "uint256",
          "name": "rerollCount",
          "type": "uint256"
        },
        {
          "internalType": "uint256",
          "name": "basehitpoints",
          "type": "uint256"
        },
        {
          "internalType": "uint256",
          "name": "baseattack",
          "type": "uint256"
        },
        {
          "internalType": "uint256",
          "name": "basedefense",
          "type": "uint256"
        },
        {
          "internalType": "uint256",
          "name": "basespeed",
          "type": "uint256"
        },
        {
          "internalType": "uint8",
          "name": "movement",
          "type": "uint8"
        }
      ],
      "stateMutability": "view",
      "type": "function"
    },
    {
      "inputs": [
        {
          "internalType": "uint256",
          "name": "",
          "type": "uint256"
        }
      ],
      "name": "WarbotHandOff",
      "outputs": [
        {
          "internalType": "address",
          "name": "",
          "type": "address"
        }
      ],
      "stateMutability": "view",
      "type": "function"
    },
    {
      "inputs": [
        {
          "internalType": "uint256",
          "name": "",
          "type": "uint256"
        }
      ],
      "name": "WarbotLevel",
      "outputs": [
        {
          "internalType": "uint256",
          "name": "",
          "type": "uint256"
        }
      ],
      "stateMutability": "view",
      "type": "function"
    },
    {
      "inputs": [
        {
          "internalType": "uint256",
          "name": "",
          "type": "uint256"
        }
      ],
      "name": "WarbotType",
      "outputs": [
        {
          "internalType": "uint8",
          "name": "",
          "type": "uint8"
        }
      ],
      "stateMutability": "view",
      "type": "function"
    },
    {
      "inputs": [
        {
          "internalType": "uint256",
          "name": "",
          "type": "uint256"
        }
      ],
      "name": "WarbotXP",
      "outputs": [
        {
          "internalType": "uint256",
          "name": "",
          "type": "uint256"
        }
      ],
      "stateMutability": "view",
      "type": "function"
    },
    {
      "inputs": [],
      "name": "geUnlockTime",
      "outputs": [
        {
          "internalType": "uint256",
          "name": "",
          "type": "uint256"
        }
      ],
      "stateMutability": "view",
      "type": "function"
    },
    {
      "inputs": [
        {
          "internalType": "uint256",
          "name": "time",
          "type": "uint256"
        }
      ],
      "name": "lock",
      "outputs": [],
      "stateMutability": "nonpayable",
      "type": "function"
    },
    {
      "inputs": [],
      "name": "oracle",
      "outputs": [
        {
          "internalType": "address",
          "name": "",
          "type": "address"
        }
      ],
      "stateMutability": "view",
      "type": "function"
    },
    {
      "inputs": [],
      "name": "owner",
      "outputs": [
        {
          "internalType": "address",
          "name": "",
          "type": "address"
        }
      ],
      "stateMutability": "view",
      "type": "function"
    },
    {
      "inputs": [],
      "name": "renounceOwnership",
      "outputs": [],
      "stateMutability": "nonpayable",
      "type": "function"
    },
    {
      "inputs": [
        {
          "internalType": "address",
          "name": "newOwner",
          "type": "address"
        }
      ],
      "name": "transferOwnership",
      "outputs": [],
      "stateMutability": "nonpayable",
      "type": "function"
    },
    {
      "inputs": [],
      "name": "unlock",
      "outputs": [],
      "stateMutability": "nonpayable",
      "type": "function"
    },
    {
      "inputs": [
        {
          "internalType": "uint256",
          "name": "",
          "type": "uint256"
        }
      ],
      "name": "warbotLevelCount",
      "outputs": [
        {
          "internalType": "uint256",
          "name": "",
          "type": "uint256"
        }
      ],
      "stateMutability": "view",
      "type": "function"
    },
    {
      "inputs": [
        {
          "internalType": "uint256",
          "name": "",
          "type": "uint256"
        }
      ],
      "name": "warbotLosses",
      "outputs": [
        {
          "internalType": "uint256",
          "name": "",
          "type": "uint256"
        }
      ],
      "stateMutability": "view",
      "type": "function"
    },
    {
      "inputs": [
        {
          "internalType": "uint256",
          "name": "",
          "type": "uint256"
        }
      ],
      "name": "warbotWins",
      "outputs": [
        {
          "internalType": "uint256",
          "name": "",
          "type": "uint256"
        }
      ],
      "stateMutability": "view",
      "type": "function"
    },
    {
      "inputs": [
        {
          "internalType": "uint256",
          "name": "_warbot",
          "type": "uint256"
        },
        {
          "internalType": "uint256[]",
          "name": "_xyz",
          "type": "uint256[]"
        }
      ],
      "name": "setWarBotGlobalXYZ",
      "outputs": [],
      "stateMutability": "nonpayable",
      "type": "function"
    },
    {
      "inputs": [
        {
          "internalType": "uint256",
          "name": "_warbot",
          "type": "uint256"
        }
      ],
      "name": "getWarBotGlobalXYZ",
      "outputs": [
        {
          "internalType": "uint256[]",
          "name": "",
          "type": "uint256[]"
        }
      ],
      "stateMutability": "view",
      "type": "function"
    },
    {
      "inputs": [
        {
          "internalType": "uint256",
          "name": "_warbot",
          "type": "uint256"
        }
      ],
      "name": "setWarBotWins",
      "outputs": [],
      "stateMutability": "nonpayable",
      "type": "function"
    },
    {
      "inputs": [
        {
          "internalType": "uint256",
          "name": "_warbot",
          "type": "uint256"
        }
      ],
      "name": "setWarBotLosses",
      "outputs": [],
      "stateMutability": "nonpayable",
      "type": "function"
    },
    {
      "inputs": [
        {
          "internalType": "uint256",
          "name": "_warbot",
          "type": "uint256"
        }
      ],
      "name": "incrementWarbotRerollCount",
      "outputs": [],
      "stateMutability": "nonpayable",
      "type": "function"
    },
    {
      "inputs": [
        {
          "internalType": "uint256",
          "name": "_warbot",
          "type": "uint256"
        }
      ],
      "name": "getRerollCount",
      "outputs": [
        {
          "internalType": "uint256",
          "name": "",
          "type": "uint256"
        }
      ],
      "stateMutability": "view",
      "type": "function"
    },
    {
      "inputs": [
        {
          "internalType": "uint256",
          "name": "_warbot",
          "type": "uint256"
        },
        {
          "internalType": "uint256",
          "name": "_xp",
          "type": "uint256"
        }
      ],
      "name": "incrementWarbotXP",
      "outputs": [],
      "stateMutability": "nonpayable",
      "type": "function"
    },
    {
      "inputs": [],
      "name": "getOracle",
      "outputs": [
        {
          "internalType": "address",
          "name": "",
          "type": "address"
        }
      ],
      "stateMutability": "view",
      "type": "function"
    },
    {
      "inputs": [
        {
          "internalType": "uint256",
          "name": "_warbot",
          "type": "uint256"
        }
      ],
      "name": "getWarBotLevel",
      "outputs": [
        {
          "internalType": "uint256",
          "name": "",
          "type": "uint256"
        }
      ],
      "stateMutability": "view",
      "type": "function"
    },
    {
      "inputs": [
        {
          "internalType": "uint256",
          "name": "_warbot",
          "type": "uint256"
        },
        {
          "internalType": "uint256",
          "name": "_warbothitpoints",
          "type": "uint256"
        },
        {
          "internalType": "uint256",
          "name": "_warbotattack",
          "type": "uint256"
        },
        {
          "internalType": "uint256",
          "name": "_warbotdefense",
          "type": "uint256"
        },
        {
          "internalType": "uint256",
          "name": "_warbotspeed",
          "type": "uint256"
        },
        {
          "internalType": "uint256[]",
          "name": "_xyz",
          "type": "uint256[]"
        },
        {
          "internalType": "uint256[]",
          "name": "_specialeffect",
          "type": "uint256[]"
        },
        {
          "internalType": "uint256[]",
          "name": "_specialduration",
          "type": "uint256[]"
        },
        {
          "internalType": "uint8[]",
          "name": "_nftslots",
          "type": "uint8[]"
        }
      ],
      "name": "setWarBotCurrentStats",
      "outputs": [],
      "stateMutability": "nonpayable",
      "type": "function"
    },
    {
      "inputs": [
        {
          "internalType": "uint256",
          "name": "_warbot",
          "type": "uint256"
        }
      ],
      "name": "getWarbotProfile",
      "outputs": [
        {
          "components": [
            {
              "internalType": "address",
              "name": "creator",
              "type": "address"
            },
            {
              "internalType": "uint256",
              "name": "hitpoints",
              "type": "uint256"
            },
            {
              "internalType": "uint256",
              "name": "attack",
              "type": "uint256"
            },
            {
              "internalType": "uint256",
              "name": "defense",
              "type": "uint256"
            },
            {
              "internalType": "uint256",
              "name": "speed",
              "type": "uint256"
            },
            {
              "internalType": "uint256",
              "name": "slots",
              "type": "uint256"
            },
            {
              "internalType": "uint256",
              "name": "rerollCount",
              "type": "uint256"
            },
            {
              "internalType": "uint256",
              "name": "basehitpoints",
              "type": "uint256"
            },
            {
              "internalType": "uint256",
              "name": "baseattack",
              "type": "uint256"
            },
            {
              "internalType": "uint256",
              "name": "basedefense",
              "type": "uint256"
            },
            {
              "internalType": "uint256",
              "name": "basespeed",
              "type": "uint256"
            },
            {
              "internalType": "uint256[]",
              "name": "globalXYZ",
              "type": "uint256[]"
            },
            {
              "internalType": "uint8",
              "name": "movement",
              "type": "uint8"
            }
          ],
          "internalType": "struct WarBotStatsData.WarBotProfile",
          "name": "",
          "type": "tuple"
        }
      ],
      "stateMutability": "view",
      "type": "function"
    },
    {
      "inputs": [
        {
          "internalType": "uint256",
          "name": "_warbot",
          "type": "uint256"
        }
      ],
      "name": "getWarbotCurrentStats",
      "outputs": [
        {
          "components": [
            {
              "internalType": "uint256",
              "name": "_warbothitpoints",
              "type": "uint256"
            },
            {
              "internalType": "uint256",
              "name": "_warbotattack",
              "type": "uint256"
            },
            {
              "internalType": "uint256",
              "name": "_warbotdefense",
              "type": "uint256"
            },
            {
              "internalType": "uint256",
              "name": "_warbotspeed",
              "type": "uint256"
            },
            {
              "internalType": "uint256[]",
              "name": "_xyz",
              "type": "uint256[]"
            },
            {
              "internalType": "uint256[]",
              "name": "_specialeffect",
              "type": "uint256[]"
            },
            {
              "internalType": "uint256[]",
              "name": "_specialduration",
              "type": "uint256[]"
            },
            {
              "internalType": "uint8[]",
              "name": "_nftslots",
              "type": "uint8[]"
            },
            {
              "internalType": "uint8",
              "name": "_movement",
              "type": "uint8"
            }
          ],
          "internalType": "struct WarBotStatsData.WarBotCurrentStat",
          "name": "",
          "type": "tuple"
        }
      ],
      "stateMutability": "view",
      "type": "function"
    },
    {
      "inputs": [
        {
          "internalType": "uint256",
          "name": "_warbot",
          "type": "uint256"
        }
      ],
      "name": "getWarbotCurrentMovement",
      "outputs": [
        {
          "internalType": "uint8",
          "name": "",
          "type": "uint8"
        }
      ],
      "stateMutability": "view",
      "type": "function"
    },
    {
      "inputs": [
        {
          "internalType": "uint256",
          "name": "_warbot",
          "type": "uint256"
        }
      ],
      "name": "getWarbotCurrentAttack",
      "outputs": [
        {
          "internalType": "uint256",
          "name": "",
          "type": "uint256"
        }
      ],
      "stateMutability": "view",
      "type": "function"
    },
    {
      "inputs": [
        {
          "internalType": "uint256",
          "name": "_warbot",
          "type": "uint256"
        }
      ],
      "name": "getWarbotCurrentDefense",
      "outputs": [
        {
          "internalType": "uint256",
          "name": "",
          "type": "uint256"
        }
      ],
      "stateMutability": "view",
      "type": "function"
    },
    {
      "inputs": [
        {
          "internalType": "uint256",
          "name": "_warbot",
          "type": "uint256"
        }
      ],
      "name": "getWarbotCurrentSpeed",
      "outputs": [
        {
          "internalType": "uint256",
          "name": "",
          "type": "uint256"
        }
      ],
      "stateMutability": "view",
      "type": "function"
    },
    {
      "inputs": [
        {
          "internalType": "uint256",
          "name": "_warbot",
          "type": "uint256"
        },
        {
          "internalType": "uint8",
          "name": "_type",
          "type": "uint8"
        }
      ],
      "name": "setWarbotType",
      "outputs": [],
      "stateMutability": "nonpayable",
      "type": "function"
    },
    {
      "inputs": [
        {
          "internalType": "uint256",
          "name": "_warbot",
          "type": "uint256"
        },
        {
          "internalType": "uint256",
          "name": "_hitpoints",
          "type": "uint256"
        },
        {
          "internalType": "uint256",
          "name": "_attack",
          "type": "uint256"
        },
        {
          "internalType": "uint256",
          "name": "_defense",
          "type": "uint256"
        },
        {
          "internalType": "uint256",
          "name": "_speed",
          "type": "uint256"
        },
        {
          "internalType": "uint8",
          "name": "_type",
          "type": "uint8"
        }
      ],
      "name": "rollStats",
      "outputs": [],
      "stateMutability": "nonpayable",
      "type": "function"
    },
    {
      "inputs": [
        {
          "internalType": "uint256",
          "name": "_warbot",
          "type": "uint256"
        }
      ],
      "name": "requestRerollOfStats",
      "outputs": [],
      "stateMutability": "nonpayable",
      "type": "function"
    },
    {
      "inputs": [
        {
          "internalType": "uint256",
          "name": "_warbot",
          "type": "uint256"
        },
        {
          "internalType": "uint8",
          "name": "_slots",
          "type": "uint8"
        }
      ],
      "name": "setSlots",
      "outputs": [],
      "stateMutability": "nonpayable",
      "type": "function"
    },
    {
      "inputs": [
        {
          "internalType": "uint256",
          "name": "_warbot",
          "type": "uint256"
        },
        {
          "internalType": "address",
          "name": "_creator",
          "type": "address"
        }
      ],
      "name": "setCreator",
      "outputs": [],
      "stateMutability": "nonpayable",
      "type": "function"
    },
    {
      "inputs": [
        {
          "internalType": "uint256",
          "name": "_warbot",
          "type": "uint256"
        }
      ],
      "name": "getCreator",
      "outputs": [
        {
          "internalType": "address",
          "name": "",
          "type": "address"
        }
      ],
      "stateMutability": "view",
      "type": "function"
    },
    {
      "inputs": [
        {
          "internalType": "uint256",
          "name": "_warbot",
          "type": "uint256"
        }
      ],
      "name": "zeroWarbotLevel",
      "outputs": [],
      "stateMutability": "nonpayable",
      "type": "function"
    },
    {
      "inputs": [
        {
          "internalType": "uint256",
          "name": "_warbot",
          "type": "uint256"
        }
      ],
      "name": "incrementWarbotLevel",
      "outputs": [],
      "stateMutability": "nonpayable",
      "type": "function"
    },
    {
      "inputs": [
        {
          "internalType": "uint256",
          "name": "_warbot",
          "type": "uint256"
        }
      ],
      "name": "incrementReroll",
      "outputs": [],
      "stateMutability": "nonpayable",
      "type": "function"
    },
    {
      "inputs": [
        {
          "internalType": "uint256",
          "name": "_warbot",
          "type": "uint256"
        }
      ],
      "name": "getCurrentRerollCount",
      "outputs": [
        {
          "internalType": "uint256",
          "name": "",
          "type": "uint256"
        }
      ],
      "stateMutability": "view",
      "type": "function"
    },
    {
      "inputs": [
        {
          "internalType": "uint256",
          "name": "_warbot",
          "type": "uint256"
        },
        {
          "internalType": "uint256",
          "name": "_warbothitpoints",
          "type": "uint256"
        }
      ],
      "name": "setCurrentHitPoint",
      "outputs": [],
      "stateMutability": "nonpayable",
      "type": "function"
    },
    {
      "inputs": [
        {
          "internalType": "uint256",
          "name": "_warbot",
          "type": "uint256"
        }
      ],
      "name": "getCurrentHitPoint",
      "outputs": [
        {
          "internalType": "uint256",
          "name": "",
          "type": "uint256"
        }
      ],
      "stateMutability": "view",
      "type": "function"
    },
    {
      "inputs": [
        {
          "internalType": "uint256",
          "name": "_warbot",
          "type": "uint256"
        },
        {
          "internalType": "uint256",
          "name": "_damage",
          "type": "uint256"
        }
      ],
      "name": "damageWarbot",
      "outputs": [],
      "stateMutability": "nonpayable",
      "type": "function"
    },
    {
      "inputs": [
        {
          "internalType": "uint256",
          "name": "_warbot",
          "type": "uint256"
        },
        {
          "internalType": "uint256",
          "name": "_repair",
          "type": "uint256"
        }
      ],
      "name": "repairWarbot",
      "outputs": [],
      "stateMutability": "nonpayable",
      "type": "function"
    },
    {
      "inputs": [
        {
          "internalType": "uint256",
          "name": "_warbot",
          "type": "uint256"
        },
        {
          "internalType": "uint256",
          "name": "_damage",
          "type": "uint256"
        }
      ],
      "name": "damageWarbotDefense",
      "outputs": [],
      "stateMutability": "nonpayable",
      "type": "function"
    },
    {
      "inputs": [
        {
          "internalType": "uint256",
          "name": "_warbot",
          "type": "uint256"
        },
        {
          "internalType": "uint256",
          "name": "_repair",
          "type": "uint256"
        }
      ],
      "name": "repairWarbotDefense",
      "outputs": [],
      "stateMutability": "nonpayable",
      "type": "function"
    },
    {
      "inputs": [
        {
          "internalType": "uint256",
          "name": "_warbot",
          "type": "uint256"
        },
        {
          "internalType": "uint256",
          "name": "_damage",
          "type": "uint256"
        }
      ],
      "name": "damageWarbotAttack",
      "outputs": [],
      "stateMutability": "nonpayable",
      "type": "function"
    },
    {
      "inputs": [
        {
          "internalType": "uint256",
          "name": "_warbot",
          "type": "uint256"
        },
        {
          "internalType": "uint256",
          "name": "_repair",
          "type": "uint256"
        }
      ],
      "name": "repairWarbotAttack",
      "outputs": [],
      "stateMutability": "nonpayable",
      "type": "function"
    },
    {
      "inputs": [
        {
          "internalType": "uint256",
          "name": "_warbot",
          "type": "uint256"
        },
        {
          "internalType": "uint256",
          "name": "_damage",
          "type": "uint256"
        }
      ],
      "name": "damageWarbotSpeed",
      "outputs": [],
      "stateMutability": "nonpayable",
      "type": "function"
    },
    {
      "inputs": [
        {
          "internalType": "uint256",
          "name": "_warbot",
          "type": "uint256"
        },
        {
          "internalType": "uint256",
          "name": "_repair",
          "type": "uint256"
        }
      ],
      "name": "repairWarbotSpeed",
      "outputs": [],
      "stateMutability": "nonpayable",
      "type": "function"
    },
    {
      "inputs": [
        {
          "internalType": "uint256",
          "name": "_warbot",
          "type": "uint256"
        },
        {
          "internalType": "uint8",
          "name": "_cardtype",
          "type": "uint8"
        },
        {
          "internalType": "uint8",
          "name": "_bonus",
          "type": "uint8"
        }
      ],
      "name": "bindCardtoWarbot",
      "outputs": [],
      "stateMutability": "nonpayable",
      "type": "function"
    },
    {
      "inputs": [
        {
          "internalType": "uint256",
          "name": "_warbot",
          "type": "uint256"
        }
      ],
      "name": "setWarbotHandoff",
      "outputs": [],
      "stateMutability": "nonpayable",
      "type": "function"
    },
    {
      "inputs": [
        {
          "internalType": "uint256",
          "name": "_warbot",
          "type": "uint256"
        },
        {
          "internalType": "address",
          "name": "_contract",
          "type": "address"
        }
      ],
      "name": "setWarbotHandoff",
      "outputs": [],
      "stateMutability": "nonpayable",
      "type": "function"
    },
    {
      "inputs": [
        {
          "internalType": "address[]",
          "name": "_addresses",
          "type": "address[]"
        }
      ],
      "name": "setEngineContracts",
      "outputs": [],
      "stateMutability": "nonpayable",
      "type": "function"
    },
    {
      "inputs": [
        {
          "internalType": "address",
          "name": "_address",
          "type": "address"
        }
      ],
      "name": "setOracle",
      "outputs": [],
      "stateMutability": "nonpayable",
      "type": "function"
    }
  ],
  "bytecode": "0x608060405234801561001057600080fd5b50600080546001600160a01b031916339081178255604051909182917f8be0079c531659141344cd1fd0a4f28419497f9722a3daafe3b4186f6b6457e0908290a3506126fb806100616000396000f3fe608060405234801561001057600080fd5b50600436106103995760003560e01c80638da5cb5b116101e9578063bd0e30561161010f578063dd467064116100ad578063e6239a351161007c578063e6239a3514610a8e578063f28156f714610aae578063f2fde38b14610ac1578063fb121b1e14610ad457600080fd5b8063dd46706414610a0e578063de0e7f2f14610a21578063df36182814610a41578063e323185714610a6457600080fd5b8063c38d0a89116100e9578063c38d0a89146109ac578063c6291ae4146109bf578063d48e638a146109d2578063dcf9da85146109fb57600080fd5b8063bd0e305614610953578063bf3b7bf414610966578063bfd7768a1461098957600080fd5b80639e50210611610187578063a7a3556a11610156578063a7a3556a14610912578063a90b4eff14610925578063aa4456ec14610938578063b6c523241461094b57600080fd5b80639e502106146108a85780639e6abc90146108e4578063a49f8e74146108f7578063a69df4b51461090a57600080fd5b80638fd1f7df116101c35780638fd1f7df146107ce57806391686f53146107e1578063942a83ff1461081d5780639905f2921461088857600080fd5b80638da5cb5b146107975780638ec3c027146107a85780638fc73fb5146107bb57600080fd5b80635db5078b116102ce57806372db30531161026c5780637dc0d1d01161023b5780637dc0d1d0146107405780637fc731fd1461075357806381aaa15514610773578063833b1fce1461078657600080fd5b806372db3053146106e757806374a0dff4146106fa5780637ab2cc4f1461071a5780637adbf9731461072d57600080fd5b80636b04e199116102a85780636b04e199146106b95780636bdb61b6146106cc578063715018a6146106df57806372ab4ec9146104bf57600080fd5b80635db5078b1461067357806362f0fbb714610693578063636642bb146106a657600080fd5b80632f52064f1161033b578063367304191161031557806336730419146105df5780633bd40fc0146105f25780635b39a161146106255780635ce0ca0f1461065357600080fd5b80632f52064f1461058c578063336dc51d146105ac57806333e8d0db146105cc57600080fd5b8063184ab4a911610377578063184ab4a9146104bf5780631a19b121146104f05780631db64792146105285780631e69a5e31461056957600080fd5b8063054fd5271461039e5780630ef9caca146103c75780631614d695146103dc575b600080fd5b6103b16103ac366004612132565b610af4565b6040516103be91906124e7565b60405180910390f35b6103da6103d53660046121be565b610c63565b005b6104596103ea366004612132565b600960208190526000918252604090912080546001820154600283015460038401546004850154600586015460068701546007880154600889015499890154600a8a0154600c909a01546001600160a01b039099169a9799969895979496939592949193919290919060ff168c565b604080516001600160a01b03909d168d5260208d019b909b52998b019890985260608a0196909652608089019490945260a088019290925260c087015260e086015261010085015261012084015261014083015260ff16610160820152610180016103be565b6104e26104cd366004612132565b60009081526009602052604090206006015490565b6040519081526020016103be565b6105166104fe366004612132565b6000908152600a602052604090206008015460ff1690565b60405160ff90911681526020016103be565b610551610536366004612132565b600b602052600090815260409020546001600160a01b031681565b6040516001600160a01b0390911681526020016103be565b6104e2610577366004612132565b6000908152600a602052604090206002015490565b6104e261059a366004612132565b60076020526000908152604090205481565b6104e26105ba366004612132565b60009081526004602052604090205490565b6103da6105da366004612177565b610d01565b6103da6105ed3660046121e0565b610d2b565b610615610600366004612132565b600e6020526000908152604090205460ff1681565b60405190151581526020016103be565b6103da610633366004612132565b6000908152600b6020526040902080546001600160a01b03191633179055565b6104e2610661366004612132565b60066020526000908152604090205481565b610686610681366004612132565b610de6565b6040516103be9190612424565b6103da6106a13660046121be565b611006565b6105516106b4366004612132565b61102d565b6103da6106c73660046121be565b611057565b6103da6106da366004612132565b6110fc565b6103da6111d7565b6103da6106f53660046121be565b611239565b6104e2610708366004612132565b60086020526000908152604090205481565b6103da6107283660046122be565b6112c6565b6103da61073b366004612071565b61140e565b600c54610551906001600160a01b031681565b6103da6107613660046121be565b6000918252600a602052604090912055565b6103da610781366004612093565b61145a565b600c546001600160a01b0316610551565b6000546001600160a01b0316610551565b6103da6107b636600461230f565b61149b565b6103da6107c9366004612132565b611505565b6103da6107dc366004612132565b611600565b6103da6107ef36600461214b565b60009182526009602052604090912080546001600160a01b0319166001600160a01b03909216919091179055565b61085d61082b366004612132565b600a60205260009081526040902080546001820154600283015460038401546008909401549293919290919060ff1685565b60408051958652602086019490945292840191909152606083015260ff16608082015260a0016103be565b6104e2610896366004612132565b6000908152600a602052604090205490565b6103da6108b636600461214b565b6000918252600b602052604090912080546001600160a01b0319166001600160a01b03909216919091179055565b6103da6108f23660046121be565b611622565b6103da610905366004612132565b6116be565b6103da6116d8565b6103da610920366004612132565b6117de565b6103da610933366004612132565b611812565b6103da6109463660046121be565b61182f565b6002546104e2565b6103da6109613660046121be565b6118c5565b6104e2610974366004612132565b6000908152600a602052604090206001015490565b610516610997366004612132565b60056020526000908152604090205460ff1681565b6103da6109ba3660046121be565b61196a565b6103da6109cd3660046121be565b611a0f565b6105516109e0366004612132565b6000908152600960205260409020546001600160a01b031690565b6103da610a09366004612132565b611aa5565b6103da610a1c366004612132565b611b9b565b610a34610a2f366004612132565b611c20565b6040516103be91906123dc565b6104e2610a4f366004612132565b6000908152600a602052604090206003015490565b6103da610a7236600461230f565b60009182526009602052604090912060ff909116600590910155565b6104e2610a9c366004612132565b60036020526000908152604090205481565b6103da610abc366004612332565b611c85565b6103da610acf366004612071565b611d3d565b6104e2610ae2366004612132565b60046020526000908152604090205481565b610b6b604051806101a0016040528060006001600160a01b031681526020016000815260200160008152602001600081526020016000815260200160008152602001600081526020016000815260200160008152602001600081526020016000815260200160608152602001600060ff1681525090565b60008281526009602081815260409283902083516101a08101855281546001600160a01b031681526001820154818401526002820154818601526003820154606082015260048201546080820152600582015460a0820152600682015460c0820152600782015460e0820152600882015461010082015292810154610120840152600a810154610140840152600b8101805485518185028101850190965280865293949193610160860193830182828015610c4557602002820191906000526020600020905b815481526020019060010190808311610c31575b5050509183525050600c919091015460ff1660209091015292915050565b6000828152600a602052604081206001018054839290610c8490849061261a565b9091555050600082815260096020908152604080832060020154600a909252909120600101541115610cc3576000828152600a60205260408120600101555b60408051838152602081018390527f54fcb70dd79f1d6c4570dc5039da4ead94ebd70d7034ff4e69b53d597247988291015b60405180910390a15050565b60008281526009602090815260409091208251610d2692600b90920191840190611e15565b505050565b6000898152600a602090815260409091208981556001810189905560028101889055600381018790558551610d6892600490920191870190611e15565b506000898152600a602090815260409091208451610d8e92600590920191860190611e15565b506000898152600a602090815260409091208351610db492600690920191850190611e15565b506000898152600a602090815260409091208251610dda92600790920191840190611e60565b50505050505050505050565b610e386040518061012001604052806000815260200160008152602001600081526020016000815260200160608152602001606081526020016060815260200160608152602001600060ff1681525090565b6000828152600a602090815260409182902082516101208101845281548152600182015481840152600282015481850152600382015460608201526004820180548551818602810186019096528086529194929360808601939290830182828015610ec257602002820191906000526020600020905b815481526020019060010190808311610eae575b5050505050815260200160058201805480602002602001604051908101604052809291908181526020018280548015610f1a57602002820191906000526020600020905b815481526020019060010190808311610f06575b5050505050815260200160068201805480602002602001604051908101604052809291908181526020018280548015610f7257602002820191906000526020600020905b815481526020019060010190808311610f5e575b5050505050815260200160078201805480602002602001604051908101604052809291908181526020018280548015610fe857602002820191906000526020600020906000905b825461010083900a900460ff16815260206001928301818104948501949093039092029101808411610fb95790505b50505091835250506008919091015460ff1660209091015292915050565b60008281526003602052604081208054839290611024908490612602565b90915550505050565b600d818154811061103d57600080fd5b6000918252602090912001546001600160a01b0316905081565b6000828152600a602052604081206002018054839290611078908490612602565b9091555050600082815260096020908152604080832060030154600a9092529091206002015411156110c657600082815260096020908152604080832060030154600a909252909120600201555b60408051838152602081018390527f57d770566372c85653ae52c7c72bfb8b3bad94b6dffc302f37ac5ca219723d9d9101610cf5565b6000805b600d5481101561115957336001600160a01b0316600d828154811061112757611127612679565b6000918252602090912001546001600160a01b0316141561114757600191505b8061115181612648565b915050611100565b506001811515146111b15760405162461bcd60e51b815260206004820152601a60248201527f47616d6520456e67696e6520436f6e747261637473204f6e6c7900000000000060448201526064015b60405180910390fd5b60008281526009602052604081206006018054916111ce83612648565b91905055505050565b6000546001600160a01b031633146112015760405162461bcd60e51b81526004016111a8906123ef565b600080546040516001600160a01b03909116906000805160206126a6833981519152908390a3600080546001600160a01b0319169055565b6000828152600a60205260408120805483929061125790849061261a565b9091555050600082815260096020908152604080832060010154600a909252909120541115611290576000828152600a60205260408120555b60408051838152602081018390527f1f824f8262dfb7346e7fca1ff10ed956a913f2ee96b761703abb8a75d480c0359101610cf5565b600c546001600160a01b0316331461130e5760405162461bcd60e51b815260206004820152600b60248201526a4f7261636c65204f6e6c7960a81b60448201526064016111a8565b60008681526009602052604090206007015461132b908690612602565b6000878152600960205260409020600181019190915560080154611350908590612602565b600087815260096020819052604090912060028101929092550154611376908490612602565b60008781526009602052604090206003810191909155600a015461139b908390612602565b600087815260096020908152604080832060040193909355600e905220805460ff1916905560ff8116156113d3576113d3868261149b565b6040518681527f23e44c29d5a44f614d06e1703094ffe1df74cca218963a86800034f34912f7ce9060200160405180910390a1505050505050565b6000546001600160a01b031633146114385760405162461bcd60e51b81526004016111a8906123ef565b600c80546001600160a01b0319166001600160a01b0392909216919091179055565b6000546001600160a01b031633146114845760405162461bcd60e51b81526004016111a8906123ef565b805161149790600d906020840190611f01565b5050565b600c546001600160a01b031633146114e35760405162461bcd60e51b815260206004820152600b60248201526a4f7261636c65204f6e6c7960a81b60448201526064016111a8565b600091825260056020526040909120805460ff191660ff909216919091179055565b6000805b600d5481101561156257336001600160a01b0316600d828154811061153057611530612679565b6000918252602090912001546001600160a01b0316141561155057600191505b8061155a81612648565b915050611509565b506001811515146115b55760405162461bcd60e51b815260206004820152601a60248201527f47616d6520456e67696e6520436f6e747261637473204f6e6c7900000000000060448201526064016111a8565b6000828152600e602052604090819020805460ff19166001179055517fdd5584841985f3187b4258e169a48a9577c0700c537f99caa5d8d66024a0607f90610cf59084815260200190565b600081815260076020526040812080549161161a83612648565b919050555050565b6000828152600a602052604081208054839290611640908490612602565b9091555050600082815260096020908152604080832060010154600a90925290912054111561168857600082815260096020908152604080832060010154600a909252909120555b60408051838152602081018390527f027ef0b7a55591888412a26dbfd77e709f95e93ddad7306b12882efb997821639101610cf5565b600081815260086020526040812080549161161a83612648565b6001546001600160a01b0316331461173e5760405162461bcd60e51b815260206004820152602360248201527f596f7520646f6e27742068617665207065726d697373696f6e20746f20756e6c6044820152626f636b60e81b60648201526084016111a8565b600254421161178f5760405162461bcd60e51b815260206004820152601f60248201527f436f6e7472616374206973206c6f636b656420756e74696c203720646179730060448201526064016111a8565b600154600080546040516001600160a01b0393841693909116916000805160206126a683398151915291a3600154600080546001600160a01b0319166001600160a01b03909216919091179055565b600081815260046020908152604080832080549084905580845281842054845260069092528220805491926111ce83612631565b600081815260096020526040812060060180549161161a83612648565b6000828152600a60205260408120600201805483929061185090849061261a565b9091555050600082815260096020908152604080832060030154600a90925290912060020154111561188f576000828152600a60205260408120600201555b60408051838152602081018390527f95bbb4c3b0cf8b25d46e55226cae513149ab30ccb4334e2a77e5c807ba05b1559101610cf5565b6000828152600a6020526040812060010180548392906118e6908490612602565b9091555050600082815260096020908152604080832060020154600a90925290912060010154111561193457600082815260096020908152604080832060020154600a909252909120600101555b60408051838152602081018390527f6dac19f13c67cd0c5c9505cf398eb59f30a1c57e2b464ac620cebfd0c3156a389101610cf5565b6000828152600a60205260408120600301805483929061198b908490612602565b9091555050600082815260096020908152604080832060040154600a9092529091206003015411156119d957600082815260096020908152604080832060040154600a909252909120600301555b60408051838152602081018390527f957daea7c64e81a08db0c4891ddef8c6eccc839eca99a7e1d6ab8015133ba6759101610cf5565b6000828152600a602052604081206003018054839290611a3090849061261a565b9091555050600082815260096020908152604080832060040154600a909252909120600301541115611a6f576000828152600a60205260408120600301555b60408051838152602081018390527fe63fc0ba9cb0526f7fed401434afe9e55704d8b9efcfe73adde60e6b3864bb289101610cf5565b6000818152600460205260408120805491829190611ac283612648565b9091555050600082815260046020908152604080832054835260069091528120805491611aee83612648565b90915550508015611b19576000818152600660205260408120805491611b1383612631565b91905055505b611b2282611505565b60008281526009602081815260408084206001810154600782015560028101546008820155600381015493810193909355600480840154600a9094019390935591815291819020548151858152928301527f83552bf770e7992364e0b5849bd6d49ba643697bf386a601a245adb62b7bad039101610cf5565b6000546001600160a01b03163314611bc55760405162461bcd60e51b81526004016111a8906123ef565b60008054600180546001600160a01b03199081166001600160a01b03841617909155169055611bf48142612602565b600255600080546040516001600160a01b03909116906000805160206126a6833981519152908390a350565b600081815260096020908152604091829020600b01805483518184028101840190945280845260609392830182828015611c7957602002820191906000526020600020905b815481526020019060010190808311611c65575b50505050509050919050565b6000838152600960205260409020600160ff84161415611cbc578160ff16816002016000828254611cb69190612602565b90915550505b8260ff1660021415611ce5578160ff16816003016000828254611cdf9190612602565b90915550505b8260ff1660031415611d0e578160ff16816004016000828254611d089190612602565b90915550505b8260ff1660041415611d37578160ff16816001016000828254611d319190612602565b90915550505b50505050565b6000546001600160a01b03163314611d675760405162461bcd60e51b81526004016111a8906123ef565b6001600160a01b038116611dcc5760405162461bcd60e51b815260206004820152602660248201527f4f776e61626c653a206e6577206f776e657220697320746865207a65726f206160448201526564647265737360d01b60648201526084016111a8565b600080546040516001600160a01b03808516939216916000805160206126a683398151915291a3600080546001600160a01b0319166001600160a01b0392909216919091179055565b828054828255906000526020600020908101928215611e50579160200282015b82811115611e50578251825591602001919060010190611e35565b50611e5c929150611f56565b5090565b82805482825590600052602060002090601f01602090048101928215611e505791602002820160005b83821115611ec757835183826101000a81548160ff021916908360ff1602179055509260200192600101602081600001049283019260010302611e89565b8015611ef45782816101000a81549060ff0219169055600101602081600001049283019260010302611ec7565b5050611e5c929150611f56565b828054828255906000526020600020908101928215611e50579160200282015b82811115611e5057825182546001600160a01b0319166001600160a01b03909116178255602090920191600190910190611f21565b5b80821115611e5c5760008155600101611f57565b80356001600160a01b0381168114611f8257600080fd5b919050565b600082601f830112611f9857600080fd5b81356020611fad611fa8836125de565b6125ad565b80838252828201915082860187848660051b8901011115611fcd57600080fd5b60005b85811015611fec57813584529284019290840190600101611fd0565b5090979650505050505050565b600082601f83011261200a57600080fd5b8135602061201a611fa8836125de565b80838252828201915082860187848660051b890101111561203a57600080fd5b60005b85811015611fec5761204e82612060565b8452928401929084019060010161203d565b803560ff81168114611f8257600080fd5b60006020828403121561208357600080fd5b61208c82611f6b565b9392505050565b600060208083850312156120a657600080fd5b823567ffffffffffffffff8111156120bd57600080fd5b8301601f810185136120ce57600080fd5b80356120dc611fa8826125de565b80828252848201915084840188868560051b87010111156120fc57600080fd5b600094505b838510156121265761211281611f6b565b835260019490940193918501918501612101565b50979650505050505050565b60006020828403121561214457600080fd5b5035919050565b6000806040838503121561215e57600080fd5b8235915061216e60208401611f6b565b90509250929050565b6000806040838503121561218a57600080fd5b82359150602083013567ffffffffffffffff8111156121a857600080fd5b6121b485828601611f87565b9150509250929050565b600080604083850312156121d157600080fd5b50508035926020909101359150565b60008060008060008060008060006101208a8c0312156121ff57600080fd5b8935985060208a0135975060408a0135965060608a0135955060808a0135945060a08a013567ffffffffffffffff8082111561223a57600080fd5b6122468d838e01611f87565b955060c08c013591508082111561225c57600080fd5b6122688d838e01611f87565b945060e08c013591508082111561227e57600080fd5b61228a8d838e01611f87565b93506101008c01359150808211156122a157600080fd5b506122ae8c828d01611ff9565b9150509295985092959850929598565b60008060008060008060c087890312156122d757600080fd5b863595506020870135945060408701359350606087013592506080870135915061230360a08801612060565b90509295509295509295565b6000806040838503121561232257600080fd5b8235915061216e60208401612060565b60008060006060848603121561234757600080fd5b8335925061235760208501612060565b915061236560408501612060565b90509250925092565b600081518084526020808501945080840160005b8381101561239e57815187529582019590820190600101612382565b509495945050505050565b600081518084526020808501945080840160005b8381101561239e57815160ff16875295820195908201906001016123bd565b60208152600061208c602083018461236e565b6020808252818101527f4f776e61626c653a2063616c6c6572206973206e6f7420746865206f776e6572604082015260600190565b6020815281516020820152602082015160408201526040820151606082015260608201516080820152600060808301516101208060a085015261246b61014085018361236e565b915060a0850151601f19808685030160c0870152612489848361236e565b935060c08701519150808685030160e08701526124a6848361236e565b935060e087015191506101008187860301818801526124c585846123a9565b945080880151925050506124dd8286018260ff169052565b5090949350505050565b602081526125016020820183516001600160a01b03169052565b602082015160408201526040820151606082015260608201516080820152608082015160a082015260a082015160c082015260c082015160e0820152600060e08301516101008181850152808501519150506101208181850152808501519150506101408181850152808501519150506101608181850152808501519150506101a061018081818601526125996101c086018461236e565b9086015160ff8116838701529092506124dd565b604051601f8201601f1916810167ffffffffffffffff811182821017156125d6576125d661268f565b604052919050565b600067ffffffffffffffff8211156125f8576125f861268f565b5060051b60200190565b6000821982111561261557612615612663565b500190565b60008282101561262c5761262c612663565b500390565b60008161264057612640612663565b506000190190565b600060001982141561265c5761265c612663565b5060010190565b634e487b7160e01b600052601160045260246000fd5b634e487b7160e01b600052603260045260246000fd5b634e487b7160e01b600052604160045260246000fdfe8be0079c531659141344cd1fd0a4f28419497f9722a3daafe3b4186f6b6457e0a2646970667358221220d65caf04e6141023064485db64f98e216d6dbc31639246ec78a5adbe19ca969864736f6c63430008060033",
  "immutableReferences": {},
  "source": "/**\r\n *Submitted for verification at BscScan.com on 2021-03-01\r\n*/\r\n\r\n/**\r\n *Submitted for verification at BscScan.com on 2021-03-01\r\n*/\r\n\r\n/**\r\n  \r\n   #BEE\r\n   \r\n   #LIQ+#RFI+#SHIB+#DOGE = #BEE\r\n\r\n   #SAFEMOON features:\r\n   3% fee auto add to the liquidity pool to locked forever when selling\r\n   2% fee auto distribute to all holders\r\n   I created a black hole so #Bee token will deflate itself in supply with every transaction\r\n   50% Supply is burned at start.\r\n   \r\n\r\n */\r\n\r\npragma solidity ^0.8.6;\r\n// SPDX-License-Identifier: Unlicensed\r\ninterface IERC20 {\r\n\r\n    function totalSupply() external view returns (uint256);\r\n\r\n    /**\r\n     * @dev Returns the amount of tokens owned by `account`.\r\n     */\r\n    function balanceOf(address account) external view returns (uint256);\r\n\r\n    /**\r\n     * @dev Moves `amount` tokens from the caller's account to `recipient`.\r\n     *\r\n     * Returns a boolean value indicating whether the operation succeeded.\r\n     *\r\n     * Emits a {Transfer} event.\r\n     */\r\n    function transfer(address recipient, uint256 amount) external returns (bool);\r\n\r\n    /**\r\n     * @dev Returns the remaining number of tokens that `spender` will be\r\n     * allowed to spend on behalf of `owner` through {transferFrom}. This is\r\n     * zero by default.\r\n     *\r\n     * This value changes when {approve} or {transferFrom} are called.\r\n     */\r\n    function allowance(address owner, address spender) external view returns (uint256);\r\n\r\n    /**\r\n     * @dev Sets `amount` as the allowance of `spender` over the caller's tokens.\r\n     *\r\n     * Returns a boolean value indicating whether the operation succeeded.\r\n     *\r\n     * IMPORTANT: Beware that changing an allowance with this method brings the risk\r\n     * that someone may use both the old and the new allowance by unfortunate\r\n     * transaction ordering. One possible solution to mitigate this race\r\n     * condition is to first reduce the spender's allowance to 0 and set the\r\n     * desired value afterwards:\r\n     * https://github.com/ethereum/EIPs/issues/20#issuecomment-263524729\r\n     *\r\n     * Emits an {Approval} event.\r\n     */\r\n    function approve(address spender, uint256 amount) external returns (bool);\r\n\r\n    /**\r\n     * @dev Moves `amount` tokens from `sender` to `recipient` using the\r\n     * allowance mechanism. `amount` is then deducted from the caller's\r\n     * allowance.\r\n     *\r\n     * Returns a boolean value indicating whether the operation succeeded.\r\n     *\r\n     * Emits a {Transfer} event.\r\n     */\r\n    function transferFrom(address sender, address recipient, uint256 amount) external returns (bool);\r\n\r\n    /**\r\n     * @dev Emitted when `value` tokens are moved from one account (`from`) to\r\n     * another (`to`).\r\n     *\r\n     * Note that `value` may be zero.\r\n     */\r\n    event Transfer(address indexed from, address indexed to, uint256 value);\r\n\r\n    /**\r\n     * @dev Emitted when the allowance of a `spender` for an `owner` is set by\r\n     * a call to {approve}. `value` is the new allowance.\r\n     */\r\n    event Approval(address indexed owner, address indexed spender, uint256 value);\r\n}\r\n\r\n\r\n\r\n/**\r\n * @dev Wrappers over Solidity's arithmetic operations with added overflow\r\n * checks.\r\n *\r\n * Arithmetic operations in Solidity wrap on overflow. This can easily result\r\n * in bugs, because programmers usually assume that an overflow raises an\r\n * error, which is the standard behavior in high level programming languages.\r\n * `SafeMath` restores this intuition by reverting the transaction when an\r\n * operation overflows.\r\n *\r\n * Using this library instead of the unchecked operations eliminates an entire\r\n * class of bugs, so it's recommended to use it always.\r\n */\r\n \r\nlibrary SafeMath {\r\n    /**\r\n     * @dev Returns the addition of two unsigned integers, reverting on\r\n     * overflow.\r\n     *\r\n     * Counterpart to Solidity's `+` operator.\r\n     *\r\n     * Requirements:\r\n     *\r\n     * - Addition cannot overflow.\r\n     */\r\n    function add(uint256 a, uint256 b) internal pure returns (uint256) {\r\n        uint256 c = a + b;\r\n        require(c >= a, \"SafeMath: addition overflow\");\r\n\r\n        return c;\r\n    }\r\n\r\n    /**\r\n     * @dev Returns the subtraction of two unsigned integers, reverting on\r\n     * overflow (when the result is negative).\r\n     *\r\n     * Counterpart to Solidity's `-` operator.\r\n     *\r\n     * Requirements:\r\n     *\r\n     * - Subtraction cannot overflow.\r\n     */\r\n    function sub(uint256 a, uint256 b) internal pure returns (uint256) {\r\n        return sub(a, b, \"SafeMath: subtraction overflow\");\r\n    }\r\n\r\n    /**\r\n     * @dev Returns the subtraction of two unsigned integers, reverting with custom message on\r\n     * overflow (when the result is negative).\r\n     *\r\n     * Counterpart to Solidity's `-` operator.\r\n     *\r\n     * Requirements:\r\n     *\r\n     * - Subtraction cannot overflow.\r\n     */\r\n    function sub(uint256 a, uint256 b, string memory errorMessage) internal pure returns (uint256) {\r\n        require(b <= a, errorMessage);\r\n        uint256 c = a - b;\r\n\r\n        return c;\r\n    }\r\n\r\n    /**\r\n     * @dev Returns the multiplication of two unsigned integers, reverting on\r\n     * overflow.\r\n     *\r\n     * Counterpart to Solidity's `*` operator.\r\n     *\r\n     * Requirements:\r\n     *\r\n     * - Multiplication cannot overflow.\r\n     */\r\n    function mul(uint256 a, uint256 b) internal pure returns (uint256) {\r\n        // Gas optimization: this is cheaper than requiring 'a' not being zero, but the\r\n        // benefit is lost if 'b' is also tested.\r\n        // See: https://github.com/OpenZeppelin/openzeppelin-contracts/pull/522\r\n        if (a == 0) {\r\n            return 0;\r\n        }\r\n\r\n        uint256 c = a * b;\r\n        require(c / a == b, \"SafeMath: multiplication overflow\");\r\n\r\n        return c;\r\n    }\r\n\r\n    /**\r\n     * @dev Returns the integer division of two unsigned integers. Reverts on\r\n     * division by zero. The result is rounded towards zero.\r\n     *\r\n     * Counterpart to Solidity's `/` operator. Note: this function uses a\r\n     * `revert` opcode (which leaves remaining gas untouched) while Solidity\r\n     * uses an invalid opcode to revert (consuming all remaining gas).\r\n     *\r\n     * Requirements:\r\n     *\r\n     * - The divisor cannot be zero.\r\n     */\r\n    function div(uint256 a, uint256 b) internal pure returns (uint256) {\r\n        return div(a, b, \"SafeMath: division by zero\");\r\n    }\r\n\r\n    /**\r\n     * @dev Returns the integer division of two unsigned integers. Reverts with custom message on\r\n     * division by zero. The result is rounded towards zero.\r\n     *\r\n     * Counterpart to Solidity's `/` operator. Note: this function uses a\r\n     * `revert` opcode (which leaves remaining gas untouched) while Solidity\r\n     * uses an invalid opcode to revert (consuming all remaining gas).\r\n     *\r\n     * Requirements:\r\n     *\r\n     * - The divisor cannot be zero.\r\n     */\r\n    function div(uint256 a, uint256 b, string memory errorMessage) internal pure returns (uint256) {\r\n        require(b > 0, errorMessage);\r\n        uint256 c = a / b;\r\n        // assert(a == b * c + a % b); // There is no case in which this doesn't hold\r\n\r\n        return c;\r\n    }\r\n\r\n    /**\r\n     * @dev Returns the remainder of dividing two unsigned integers. (unsigned integer modulo),\r\n     * Reverts when dividing by zero.\r\n     *\r\n     * Counterpart to Solidity's `%` operator. This function uses a `revert`\r\n     * opcode (which leaves remaining gas untouched) while Solidity uses an\r\n     * invalid opcode to revert (consuming all remaining gas).\r\n     *\r\n     * Requirements:\r\n     *\r\n     * - The divisor cannot be zero.\r\n     */\r\n    function mod(uint256 a, uint256 b) internal pure returns (uint256) {\r\n        return mod(a, b, \"SafeMath: modulo by zero\");\r\n    }\r\n\r\n    /**\r\n     * @dev Returns the remainder of dividing two unsigned integers. (unsigned integer modulo),\r\n     * Reverts with custom message when dividing by zero.\r\n     *\r\n     * Counterpart to Solidity's `%` operator. This function uses a `revert`\r\n     * opcode (which leaves remaining gas untouched) while Solidity uses an\r\n     * invalid opcode to revert (consuming all remaining gas).\r\n     *\r\n     * Requirements:\r\n     *\r\n     * - The divisor cannot be zero.\r\n     */\r\n    function mod(uint256 a, uint256 b, string memory errorMessage) internal pure returns (uint256) {\r\n        require(b != 0, errorMessage);\r\n        return a % b;\r\n    }\r\n}\r\n\r\nabstract contract Context {\r\n    function _msgSender() internal view virtual returns (address payable) {\r\n        return payable(msg.sender);\r\n    }\r\n\r\n    function _msgData() internal view virtual returns (bytes memory) {\r\n        this; // silence state mutability warning without generating bytecode - see https://github.com/ethereum/solidity/issues/2691\r\n        return msg.data;\r\n    }\r\n}\r\n\r\n\r\n/**\r\n * @dev Collection of functions related to the address type\r\n */\r\nlibrary Address {\r\n    /**\r\n     * @dev Returns true if `account` is a contract.\r\n     *\r\n     * [IMPORTANT]\r\n     * ====\r\n     * It is unsafe to assume that an address for which this function returns\r\n     * false is an externally-owned account (EOA) and not a contract.\r\n     *\r\n     * Among others, `isContract` will return false for the following\r\n     * types of addresses:\r\n     *\r\n     *  - an externally-owned account\r\n     *  - a contract in construction\r\n     *  - an address where a contract will be created\r\n     *  - an address where a contract lived, but was destroyed\r\n     * ====\r\n     */\r\n    function isContract(address account) internal view returns (bool) {\r\n        // According to EIP-1052, 0x0 is the value returned for not-yet created accounts\r\n        // and 0xc5d2460186f7233c927e7db2dcc703c0e500b653ca82273b7bfad8045d85a470 is returned\r\n        // for accounts without code, i.e. `keccak256('')`\r\n        bytes32 codehash;\r\n        bytes32 accountHash = 0xc5d2460186f7233c927e7db2dcc703c0e500b653ca82273b7bfad8045d85a470;\r\n        // solhint-disable-next-line no-inline-assembly\r\n        assembly { codehash := extcodehash(account) }\r\n        return (codehash != accountHash && codehash != 0x0);\r\n    }\r\n\r\n    /**\r\n     * @dev Replacement for Solidity's `transfer`: sends `amount` wei to\r\n     * `recipient`, forwarding all available gas and reverting on errors.\r\n     *\r\n     * https://eips.ethereum.org/EIPS/eip-1884[EIP1884] increases the gas cost\r\n     * of certain opcodes, possibly making contracts go over the 2300 gas limit\r\n     * imposed by `transfer`, making them unable to receive funds via\r\n     * `transfer`. {sendValue} removes this limitation.\r\n     *\r\n     * https://diligence.consensys.net/posts/2019/09/stop-using-soliditys-transfer-now/[Learn more].\r\n     *\r\n     * IMPORTANT: because control is transferred to `recipient`, care must be\r\n     * taken to not create reentrancy vulnerabilities. Consider using\r\n     * {ReentrancyGuard} or the\r\n     * https://solidity.readthedocs.io/en/v0.5.11/security-considerations.html#use-the-checks-effects-interactions-pattern[checks-effects-interactions pattern].\r\n     */\r\n    function sendValue(address payable recipient, uint256 amount) internal {\r\n        require(address(this).balance >= amount, \"Address: insufficient balance\");\r\n\r\n        // solhint-disable-next-line avoid-low-level-calls, avoid-call-value\r\n        (bool success, ) = recipient.call{ value: amount }(\"\");\r\n        require(success, \"Address: unable to send value, recipient may have reverted\");\r\n    }\r\n\r\n    /**\r\n     * @dev Performs a Solidity function call using a low level `call`. A\r\n     * plain`call` is an unsafe replacement for a function call: use this\r\n     * function instead.\r\n     *\r\n     * If `target` reverts with a revert reason, it is bubbled up by this\r\n     * function (like regular Solidity function calls).\r\n     *\r\n     * Returns the raw returned data. To convert to the expected return value,\r\n     * use https://solidity.readthedocs.io/en/latest/units-and-global-variables.html?highlight=abi.decode#abi-encoding-and-decoding-functions[`abi.decode`].\r\n     *\r\n     * Requirements:\r\n     *\r\n     * - `target` must be a contract.\r\n     * - calling `target` with `data` must not revert.\r\n     *\r\n     * _Available since v3.1._\r\n     */\r\n    function functionCall(address target, bytes memory data) internal returns (bytes memory) {\r\n      return functionCall(target, data, \"Address: low-level call failed\");\r\n    }\r\n\r\n    /**\r\n     * @dev Same as {xref-Address-functionCall-address-bytes-}[`functionCall`], but with\r\n     * `errorMessage` as a fallback revert reason when `target` reverts.\r\n     *\r\n     * _Available since v3.1._\r\n     */\r\n    function functionCall(address target, bytes memory data, string memory errorMessage) internal returns (bytes memory) {\r\n        return _functionCallWithValue(target, data, 0, errorMessage);\r\n    }\r\n\r\n    /**\r\n     * @dev Same as {xref-Address-functionCall-address-bytes-}[`functionCall`],\r\n     * but also transferring `value` wei to `target`.\r\n     *\r\n     * Requirements:\r\n     *\r\n     * - the calling contract must have an ETH balance of at least `value`.\r\n     * - the called Solidity function must be `payable`.\r\n     *\r\n     * _Available since v3.1._\r\n     */\r\n    function functionCallWithValue(address target, bytes memory data, uint256 value) internal returns (bytes memory) {\r\n        return functionCallWithValue(target, data, value, \"Address: low-level call with value failed\");\r\n    }\r\n\r\n    /**\r\n     * @dev Same as {xref-Address-functionCallWithValue-address-bytes-uint256-}[`functionCallWithValue`], but\r\n     * with `errorMessage` as a fallback revert reason when `target` reverts.\r\n     *\r\n     * _Available since v3.1._\r\n     */\r\n    function functionCallWithValue(address target, bytes memory data, uint256 value, string memory errorMessage) internal returns (bytes memory) {\r\n        require(address(this).balance >= value, \"Address: insufficient balance for call\");\r\n        return _functionCallWithValue(target, data, value, errorMessage);\r\n    }\r\n\r\n    function _functionCallWithValue(address target, bytes memory data, uint256 weiValue, string memory errorMessage) private returns (bytes memory) {\r\n        require(isContract(target), \"Address: call to non-contract\");\r\n\r\n        // solhint-disable-next-line avoid-low-level-calls\r\n        (bool success, bytes memory returndata) = target.call{ value: weiValue }(data);\r\n        if (success) {\r\n            return returndata;\r\n        } else {\r\n            // Look for revert reason and bubble it up if present\r\n            if (returndata.length > 0) {\r\n                // The easiest way to bubble the revert reason is using memory via assembly\r\n\r\n                // solhint-disable-next-line no-inline-assembly\r\n                assembly {\r\n                    let returndata_size := mload(returndata)\r\n                    revert(add(32, returndata), returndata_size)\r\n                }\r\n            } else {\r\n                revert(errorMessage);\r\n            }\r\n        }\r\n    }\r\n}\r\n\r\n/**\r\n * @dev Contract module which provides a basic access control mechanism, where\r\n * there is an account (an owner) that can be granted exclusive access to\r\n * specific functions.\r\n *\r\n * By default, the owner account will be the one that deploys the contract. This\r\n * can later be changed with {transferOwnership}.\r\n *\r\n * This module is used through inheritance. It will make available the modifier\r\n * `onlyOwner`, which can be applied to your functions to restrict their use to\r\n * the owner.\r\n */\r\ncontract Ownable is Context {\r\n    address private _owner;\r\n    address private _previousOwner;\r\n    uint256 private _lockTime;\r\n\r\n    event OwnershipTransferred(address indexed previousOwner, address indexed newOwner);\r\n\r\n    /**\r\n     * @dev Initializes the contract setting the deployer as the initial owner.\r\n     */\r\n    constructor ()  {\r\n        address msgSender = _msgSender();\r\n        _owner = msgSender;\r\n        emit OwnershipTransferred(address(0), msgSender);\r\n    }\r\n\r\n    /**\r\n     * @dev Returns the address of the current owner.\r\n     */\r\n    function owner() public view returns (address) {\r\n        return _owner;\r\n    }\r\n\r\n    /**\r\n     * @dev Throws if called by any account other than the owner.\r\n     */\r\n    modifier onlyOwner() {\r\n        require(_owner == _msgSender(), \"Ownable: caller is not the owner\");\r\n        _;\r\n    }\r\n\r\n     /**\r\n     * @dev Leaves the contract without owner. It will not be possible to call\r\n     * `onlyOwner` functions anymore. Can only be called by the current owner.\r\n     *\r\n     * NOTE: Renouncing ownership will leave the contract without an owner,\r\n     * thereby removing any functionality that is only available to the owner.\r\n     */\r\n    function renounceOwnership() public virtual onlyOwner {\r\n        emit OwnershipTransferred(_owner, address(0));\r\n        _owner = address(0);\r\n    }\r\n\r\n    /**\r\n     * @dev Transfers ownership of the contract to a new account (`newOwner`).\r\n     * Can only be called by the current owner.\r\n     */\r\n    function transferOwnership(address newOwner) public virtual onlyOwner {\r\n        require(newOwner != address(0), \"Ownable: new owner is the zero address\");\r\n        emit OwnershipTransferred(_owner, newOwner);\r\n        _owner = newOwner;\r\n    }\r\n\r\n    function geUnlockTime() public view returns (uint256) {\r\n        return _lockTime;\r\n    }\r\n\r\n    //Locks the contract for owner for the amount of time provided\r\n    function lock(uint256 time) public virtual onlyOwner {\r\n        _previousOwner = _owner;\r\n        _owner = address(0);\r\n        _lockTime = block.timestamp + time;\r\n        emit OwnershipTransferred(_owner, address(0));\r\n    }\r\n    \r\n    //Unlocks the contract for owner when _lockTime is exceeds\r\n    function unlock() public virtual {\r\n        require(_previousOwner == msg.sender, \"You don't have permission to unlock\");\r\n        require( block.timestamp > _lockTime , \"Contract is locked until 7 days\");\r\n        emit OwnershipTransferred(_owner, _previousOwner);\r\n        _owner = _previousOwner;\r\n    }\r\n}\r\n\r\ncontract WarBotStatsData is Ownable{\r\n \r\n    \r\n    \r\n    mapping ( uint256 => uint256 ) public WarbotXP;\r\n    mapping ( uint256 => uint256 ) public WarbotLevel;\r\n    // 0 tractor\r\n    // 1 walker\r\n    // 2 air drone\r\n    \r\n    mapping ( uint256 => uint8 ) public WarbotType;\r\n    mapping ( uint256 => uint256 ) public warbotLevelCount;\r\n    mapping ( uint256 => uint256 ) public warbotWins;\r\n    mapping ( uint256 => uint256 ) public warbotLosses;\r\n    mapping ( uint256 => WarBotProfile ) public WarBotProfiles;\r\n    mapping ( uint256 =>  WarBotCurrentStat ) public  WarBotCurrentStats;\r\n    mapping ( uint256 => address ) public WarbotHandOff;\r\n    \r\n    address public oracle;\r\n    address[] public EngineContracts;\r\n    \r\n    mapping ( uint256 => bool ) public RequestReroll;\r\n    \r\n    event levelStatsRerollRequested ( uint256 _warbot );\r\n    event levelStatsRolled ( uint256 _warbot );\r\n    \r\n    event WarbotDamaged ( uint256 _warbot, uint256 _damage );\r\n    event WarbotAttackDamaged ( uint256 _warbot, uint256 _damage );\r\n    event WarbotDefenseDamaged ( uint256 _warbot, uint256 _damage );\r\n    event WarbotSpeedDamaged ( uint256 _warbot, uint256 _damage );\r\n    \r\n    event WarbotRepaired ( uint256 _warbot, uint256 _repair );\r\n    event WarbotAttackRepaired ( uint256 _warbot, uint256 _damage );\r\n    event WarbotDefenseRepaired ( uint256 _warbot, uint256 _damage );\r\n    event WarbotSpeedRepaired ( uint256 _warbot, uint256 _damage );\r\n    event warbotUpgraded ( uint256 _warbot, uint256 _level );\r\n   \r\n\r\n    \r\n    struct WarBotProfile {\r\n           \r\n            address creator;\r\n            uint256 hitpoints;\r\n            uint256 attack;\r\n            uint256 defense;\r\n            uint256 speed;\r\n            uint256 slots;\r\n            uint256 rerollCount;\r\n            uint256 basehitpoints;\r\n            uint256 baseattack;\r\n            uint256 basedefense;\r\n            uint256 basespeed;\r\n            uint256[] globalXYZ;\r\n            uint8 movement;\r\n            \r\n            \r\n    }    \r\n    \r\n    struct WarBotCurrentStat {\r\n        \r\n        uint256   _warbothitpoints;\r\n        uint256   _warbotattack;\r\n        uint256   _warbotdefense;\r\n        uint256   _warbotspeed;\r\n        uint256[] _xyz;\r\n        uint256[] _specialeffect;\r\n        uint256[] _specialduration;\r\n        uint8[]   _nftslots;\r\n        uint8     _movement;\r\n    }\r\n    \r\n    function setWarBotGlobalXYZ ( uint256 _warbot, uint256[] memory _xyz ) public {\r\n        \r\n        WarBotProfiles[_warbot].globalXYZ= _xyz;\r\n    }\r\n    \r\n    function getWarBotGlobalXYZ ( uint256 _warbot ) public view returns(uint256[] memory){\r\n        \r\n        return WarBotProfiles[_warbot].globalXYZ;\r\n    }\r\n    \r\n    \r\n    \r\n    function setWarBotWins ( uint256 _warbot ) public {\r\n        \r\n        warbotWins[_warbot]++;\r\n    }\r\n    \r\n    function setWarBotLosses ( uint256 _warbot ) public {\r\n        \r\n        warbotLosses[_warbot]++;\r\n    }\r\n    \r\n    function incrementWarbotRerollCount ( uint256 _warbot ) public onlyEngine {\r\n        \r\n        WarBotProfiles[_warbot].rerollCount++;\r\n    }\r\n    \r\n    function getRerollCount ( uint256 _warbot ) public view returns(uint256) {\r\n        \r\n        return WarBotProfiles[_warbot].rerollCount;\r\n    }\r\n             \r\n    function setWarbotHandoff ( uint256 _warbot ) public {\r\n        \r\n        WarbotHandOff[ _warbot ] = msg.sender;\r\n    }\r\n    \r\n    function incrementWarbotXP ( uint256 _warbot, uint256 _xp ) public {\r\n        \r\n        WarbotXP[ _warbot ] += _xp;\r\n    }\r\n    \r\n    function getOracle ( ) public view returns (address){\r\n        \r\n        return oracle;\r\n    }\r\n    \r\n    function getWarBotLevel ( uint256 _warbot ) public view returns (uint256){\r\n        \r\n        return WarbotLevel[ _warbot ];\r\n    }\r\n    \r\n    function setWarBotCurrentStats( uint256 _warbot, uint256 _warbothitpoints,  uint256 _warbotattack, uint256 _warbotdefense, \r\n                                   uint256 _warbotspeed, uint256[] memory _xyz, uint256[]  memory _specialeffect, \r\n                                   uint256[] memory _specialduration , uint8[] memory _nftslots) public {\r\n        \r\n         WarBotCurrentStats[_warbot]._warbothitpoints   = _warbothitpoints;  \r\n         WarBotCurrentStats[_warbot]._warbotattack = _warbotattack;\r\n         WarBotCurrentStats[_warbot]._warbotdefense = _warbotdefense;\r\n         WarBotCurrentStats[_warbot]._warbotspeed = _warbotspeed;\r\n         WarBotCurrentStats[_warbot]._xyz = _xyz;\r\n         WarBotCurrentStats[_warbot]._specialeffect = _specialeffect;\r\n         WarBotCurrentStats[_warbot]._specialduration = _specialduration;\r\n         WarBotCurrentStats[_warbot]._nftslots = _nftslots;\r\n         \r\n    }\r\n    \r\n    function getWarbotProfile ( uint256 _warbot ) public view returns( WarBotProfile memory ){\r\n        return WarBotProfiles[_warbot];\r\n    }\r\n    \r\n    function getWarbotCurrentStats ( uint256 _warbot ) public view returns( WarBotCurrentStat memory ){\r\n        return WarBotCurrentStats[_warbot];\r\n    }\r\n    \r\n    function getWarbotCurrentMovement ( uint256 _warbot ) public view returns( uint8  ){\r\n        return WarBotCurrentStats[_warbot]._movement;\r\n    }\r\n    \r\n    function getWarbotCurrentAttack ( uint256 _warbot ) public view returns( uint256  ){\r\n        return WarBotCurrentStats[_warbot]._warbotattack;\r\n    }\r\n    \r\n    function getWarbotCurrentDefense ( uint256 _warbot ) public view returns( uint256  ){\r\n        return WarBotCurrentStats[_warbot]._warbotdefense;\r\n    }\r\n    \r\n    function getWarbotCurrentSpeed ( uint256 _warbot ) public view returns( uint256  ){\r\n        return WarBotCurrentStats[_warbot]._warbotspeed;\r\n    }\r\n    \r\n    function setWarbotType ( uint256 _warbot, uint8 _type ) public onlyOracle {\r\n        \r\n        WarbotType[ _warbot ] = _type;\r\n    }\r\n    \r\n    function rollStats ( uint256 _warbot, uint256 _hitpoints, uint256 _attack, uint256 _defense, uint256 _speed, uint8 _type ) public onlyOracle {\r\n        \r\n        WarBotProfiles[ _warbot ].hitpoints = WarBotProfiles[ _warbot ].basehitpoints + _hitpoints;\r\n        WarBotProfiles[ _warbot ].attack = WarBotProfiles[ _warbot ].baseattack + _attack;\r\n        WarBotProfiles[ _warbot ].defense = WarBotProfiles[ _warbot ].basedefense + _defense;\r\n        WarBotProfiles[ _warbot ].speed = WarBotProfiles[ _warbot ].basespeed + _speed;\r\n        RequestReroll[_warbot]=false;\r\n        if (_type > 0 ) setWarbotType ( _warbot, _type );\r\n        emit levelStatsRolled ( _warbot );\r\n    }\r\n    \r\n    function requestRerollOfStats ( uint256 _warbot ) public onlyEngine {\r\n        \r\n        RequestReroll[_warbot] = true;\r\n        emit levelStatsRerollRequested ( _warbot );\r\n    }\r\n    \r\n    function setSlots( uint256 _warbot, uint8 _slots ) public {\r\n        WarBotProfiles[_warbot].slots = _slots;\r\n    }\r\n    \r\n    function setCreator( uint256 _warbot, address _creator ) public {\r\n        WarBotProfiles[_warbot].creator = _creator;\r\n    }\r\n    \r\n     function getCreator( uint256 _warbot ) public view returns(address) {\r\n       return  WarBotProfiles[_warbot].creator;\r\n     }\r\n    \r\n    function zeroWarbotLevel( uint256 _warbot ) public {\r\n        uint256 _level = WarbotLevel[_warbot];\r\n        WarbotLevel[_warbot] = 0;\r\n        warbotLevelCount[WarbotLevel[_level]]--;\r\n    }\r\n    \r\n    function incrementWarbotLevel( uint256 _warbot ) public {\r\n        uint256 _level = WarbotLevel[_warbot];\r\n        WarbotLevel[_warbot]++;\r\n        warbotLevelCount[WarbotLevel[_warbot]]++;\r\n        if( _level != 0 ) warbotLevelCount[_level]--;\r\n        requestRerollOfStats(_warbot);\r\n        WarBotProfiles[_warbot].basehitpoints = WarBotProfiles[ _warbot ].hitpoints;\r\n        WarBotProfiles[_warbot].baseattack = WarBotProfiles[ _warbot ].attack;\r\n        WarBotProfiles[_warbot].basedefense = WarBotProfiles[ _warbot ].defense;\r\n        WarBotProfiles[_warbot].basespeed = WarBotProfiles[ _warbot ].speed;\r\n        emit warbotUpgraded ( _warbot, WarbotLevel[_warbot] );\r\n        \r\n    }\r\n    \r\n    \r\n    \r\n    function incrementReroll( uint256 _warbot ) public {\r\n        WarBotProfiles[_warbot].rerollCount++;\r\n    }\r\n    \r\n    function getCurrentRerollCount( uint256 _warbot ) public view returns(uint256) {\r\n        return WarBotProfiles[_warbot].rerollCount;\r\n    }\r\n    \r\n    function setCurrentHitPoint( uint256 _warbot , uint256 _warbothitpoints) public {\r\n        WarBotCurrentStats[_warbot]._warbothitpoints   = _warbothitpoints; \r\n        \r\n    }\r\n    \r\n    function getCurrentHitPoint( uint256 _warbot ) public view returns(uint256){\r\n        return WarBotCurrentStats[_warbot]._warbothitpoints; \r\n        \r\n    }\r\n    \r\n    function damageWarbot ( uint256 _warbot, uint256 _damage )  public {\r\n        WarBotCurrentStats[_warbot]._warbothitpoints -= _damage; \r\n        if ( WarBotCurrentStats[_warbot]._warbothitpoints >   WarBotProfiles[_warbot].hitpoints )  \r\n                                                            WarBotCurrentStats[_warbot]._warbothitpoints = 0;\r\n        emit WarbotDamaged ( _warbot, _damage );\r\n        \r\n    }\r\n    \r\n    function repairWarbot ( uint256 _warbot, uint256 _repair )  public {\r\n        WarBotCurrentStats[_warbot]._warbothitpoints += _repair; \r\n        if ( WarBotCurrentStats[_warbot]._warbothitpoints >   WarBotProfiles[_warbot].hitpoints )  \r\n                                                            WarBotCurrentStats[_warbot]._warbothitpoints = WarBotProfiles[_warbot].hitpoints;\r\n        emit WarbotRepaired (  _warbot, _repair ); \r\n    }\r\n    \r\n    \r\n    function damageWarbotDefense ( uint256 _warbot, uint256 _damage )  public {\r\n        WarBotCurrentStats[_warbot]._warbotdefense -= _damage; \r\n        if ( WarBotCurrentStats[_warbot]._warbotdefense >   WarBotProfiles[_warbot].defense )  \r\n                                                            WarBotCurrentStats[_warbot]._warbotdefense = 0;\r\n        emit  WarbotDefenseDamaged (  _warbot, _damage );\r\n    }\r\n    \r\n    function repairWarbotDefense ( uint256 _warbot, uint256 _repair )  public {\r\n        WarBotCurrentStats[_warbot]._warbotdefense += _repair; \r\n        if ( WarBotCurrentStats[_warbot]._warbotdefense >   WarBotProfiles[_warbot].defense )  \r\n                                                            WarBotCurrentStats[_warbot]._warbotdefense = WarBotProfiles[_warbot].defense;\r\n        emit WarbotDefenseRepaired (  _warbot, _repair ); \r\n    \r\n        \r\n    }\r\n    \r\n    function damageWarbotAttack ( uint256 _warbot, uint256 _damage )  public {\r\n        WarBotCurrentStats[_warbot]._warbotattack -= _damage; \r\n        if ( WarBotCurrentStats[_warbot]._warbotattack >   WarBotProfiles[_warbot].attack )  \r\n                                                            WarBotCurrentStats[_warbot]._warbotattack = 0;\r\n        emit WarbotAttackDamaged ( _warbot, _damage );\r\n    }\r\n    \r\n    function repairWarbotAttack ( uint256 _warbot, uint256 _repair )  public {\r\n        WarBotCurrentStats[_warbot]._warbotattack += _repair; \r\n        if ( WarBotCurrentStats[_warbot]._warbotattack >   WarBotProfiles[_warbot].attack )  \r\n                                                            WarBotCurrentStats[_warbot]._warbotattack = WarBotProfiles[_warbot].attack;\r\n        emit WarbotAttackRepaired (  _warbot, _repair ); \r\n        \r\n    }\r\n    \r\n    function damageWarbotSpeed ( uint256 _warbot, uint256 _damage )  public {\r\n        WarBotCurrentStats[_warbot]._warbotspeed -= _damage; \r\n        if ( WarBotCurrentStats[_warbot]._warbotspeed >   WarBotProfiles[_warbot].speed )  \r\n                                                            WarBotCurrentStats[_warbot]._warbotspeed = 0;\r\n         emit WarbotSpeedDamaged (  _warbot, _damage );\r\n    }\r\n    \r\n    function repairWarbotSpeed ( uint256 _warbot, uint256 _repair )  public {\r\n        WarBotCurrentStats[_warbot]._warbotspeed += _repair; \r\n        if ( WarBotCurrentStats[_warbot]._warbotspeed >   WarBotProfiles[_warbot].speed )  \r\n                                                            WarBotCurrentStats[_warbot]._warbotspeed = WarBotProfiles[_warbot].speed;\r\n        emit WarbotSpeedRepaired (  _warbot, _repair );                                                    \r\n        \r\n    }\r\n    \r\n    \r\n    function bindCardtoWarbot( uint256 _warbot, uint8 _cardtype, uint8 _bonus ) public {\r\n        \r\n        \r\n        WarBotProfile storage _profile = WarBotProfiles[_warbot];\r\n        if ( _cardtype == 1 ) _profile.attack += _bonus;\r\n        if ( _cardtype == 2 ) _profile.defense += _bonus;\r\n        if ( _cardtype == 3 )_profile.speed += _bonus;\r\n        if ( _cardtype == 4 )_profile.hitpoints += _bonus;\r\n       \r\n        \r\n    }\r\n    \r\n    \r\n    function setWarbotHandoff ( uint256 _warbot, address _contract ) public {\r\n        WarbotHandOff[_warbot] = _contract;\r\n        \r\n    }\r\n    \r\n    \r\n    function setEngineContracts ( address[] memory _addresses ) public onlyOwner {\r\n        EngineContracts = _addresses;\r\n    }\r\n    \r\n    function setOracle ( address _address ) public onlyOwner {\r\n        oracle = _address;\r\n    }\r\n    \r\n    \r\n    \r\n    \r\n    \r\n    modifier onlyEngine() {\r\n\r\n        bool team_member = false;\r\n        for( uint i=0; i < EngineContracts.length ; i++){\r\n          if( EngineContracts[i] == msg.sender ) team_member = true;\r\n        }\r\n        require(team_member == true , 'Game Engine Contracts Only');\r\n        _;\r\n    }\r\n    \r\n    modifier onlyOracle() {\r\n        require( msg.sender == oracle, \"Oracle Only\");\r\n        _;\r\n    }\r\n    \r\n    \r\n}",
  "sourcePath": "C:/warbots/warbots/contracts/warbotstatsdata.sol",
  "compiler": {
    "name": "solc",
    "version": "0.8.6+commit.11564f7e.Emscripten.clang"
  },
  "schemaVersion": "3.4.1",
  "updatedAt": "2021-07-18T16:27:48.869Z",
  "devdoc": {
    "kind": "dev",
    "methods": {
      "owner()": {
        "details": "Returns the address of the current owner."
      },
      "renounceOwnership()": {
        "details": "Leaves the contract without owner. It will not be possible to call `onlyOwner` functions anymore. Can only be called by the current owner. NOTE: Renouncing ownership will leave the contract without an owner, thereby removing any functionality that is only available to the owner."
      },
      "transferOwnership(address)": {
        "details": "Transfers ownership of the contract to a new account (`newOwner`). Can only be called by the current owner."
      }
    },
    "version": 1
  },
  "userdoc": {
    "kind": "user",
    "methods": {},
    "version": 1
  }
}