{
  "contractName": "WarbotStats",
  "abi": [
    {
      "inputs": [],
      "stateMutability": "nonpayable",
      "type": "constructor"
    },
    {
      "anonymous": false,
      "inputs": [
        {
          "indexed": true,
          "internalType": "address",
          "name": "previousOwner",
          "type": "address"
        },
        {
          "indexed": true,
          "internalType": "address",
          "name": "newOwner",
          "type": "address"
        }
      ],
      "name": "OwnershipTransferred",
      "type": "event"
    },
    {
      "anonymous": false,
      "inputs": [
        {
          "indexed": true,
          "internalType": "uint256",
          "name": "_warbot",
          "type": "uint256"
        },
        {
          "indexed": true,
          "internalType": "uint256",
          "name": "_nftcard",
          "type": "uint256"
        },
        {
          "indexed": false,
          "internalType": "string",
          "name": "_message",
          "type": "string"
        }
      ],
      "name": "bindCardEvent",
      "type": "event"
    },
    {
      "anonymous": false,
      "inputs": [
        {
          "indexed": false,
          "internalType": "uint256",
          "name": "_warbot",
          "type": "uint256"
        }
      ],
      "name": "levelStatsRerollRequested",
      "type": "event"
    },
    {
      "anonymous": false,
      "inputs": [
        {
          "indexed": false,
          "internalType": "uint256",
          "name": "_warbot",
          "type": "uint256"
        }
      ],
      "name": "levelStatsRolled",
      "type": "event"
    },
    {
      "anonymous": false,
      "inputs": [
        {
          "indexed": false,
          "internalType": "uint256",
          "name": "_warbot",
          "type": "uint256"
        }
      ],
      "name": "warbotActivated",
      "type": "event"
    },
    {
      "anonymous": false,
      "inputs": [
        {
          "indexed": true,
          "internalType": "uint256",
          "name": "_warbot",
          "type": "uint256"
        },
        {
          "indexed": true,
          "internalType": "uint256",
          "name": "_level",
          "type": "uint256"
        }
      ],
      "name": "warbotUpgraded",
      "type": "event"
    },
    {
      "inputs": [
        {
          "internalType": "uint256",
          "name": "",
          "type": "uint256"
        },
        {
          "internalType": "uint256",
          "name": "",
          "type": "uint256"
        }
      ],
      "name": "Slots",
      "outputs": [
        {
          "internalType": "uint256",
          "name": "",
          "type": "uint256"
        }
      ],
      "stateMutability": "view",
      "type": "function"
    },
    {
      "inputs": [
        {
          "internalType": "uint256",
          "name": "",
          "type": "uint256"
        }
      ],
      "name": "WarBotProfiles",
      "outputs": [
        {
          "internalType": "bool",
          "name": "requestRoll",
          "type": "bool"
        },
        {
          "internalType": "uint256",
          "name": "hitpoints",
          "type": "uint256"
        },
        {
          "internalType": "uint256",
          "name": "attack",
          "type": "uint256"
        },
        {
          "internalType": "uint256",
          "name": "defense",
          "type": "uint256"
        },
        {
          "internalType": "uint256",
          "name": "speed",
          "type": "uint256"
        },
        {
          "internalType": "uint256",
          "name": "slots",
          "type": "uint256"
        },
        {
          "internalType": "uint256",
          "name": "rerollCount",
          "type": "uint256"
        },
        {
          "internalType": "uint256",
          "name": "basehitpoints",
          "type": "uint256"
        },
        {
          "internalType": "uint256",
          "name": "baseattack",
          "type": "uint256"
        },
        {
          "internalType": "uint256",
          "name": "basedefense",
          "type": "uint256"
        },
        {
          "internalType": "uint256",
          "name": "basespeed",
          "type": "uint256"
        }
      ],
      "stateMutability": "view",
      "type": "function"
    },
    {
      "inputs": [
        {
          "internalType": "uint256",
          "name": "",
          "type": "uint256"
        }
      ],
      "name": "WarbotLevel",
      "outputs": [
        {
          "internalType": "uint256",
          "name": "",
          "type": "uint256"
        }
      ],
      "stateMutability": "view",
      "type": "function"
    },
    {
      "inputs": [],
      "name": "activationcost",
      "outputs": [
        {
          "internalType": "uint256",
          "name": "",
          "type": "uint256"
        }
      ],
      "stateMutability": "view",
      "type": "function"
    },
    {
      "inputs": [],
      "name": "burnAddress",
      "outputs": [
        {
          "internalType": "address",
          "name": "",
          "type": "address"
        }
      ],
      "stateMutability": "view",
      "type": "function"
    },
    {
      "inputs": [
        {
          "internalType": "uint256",
          "name": "",
          "type": "uint256"
        }
      ],
      "name": "creator",
      "outputs": [
        {
          "internalType": "address",
          "name": "",
          "type": "address"
        }
      ],
      "stateMutability": "view",
      "type": "function"
    },
    {
      "inputs": [
        {
          "internalType": "uint256",
          "name": "",
          "type": "uint256"
        }
      ],
      "name": "levelURI",
      "outputs": [
        {
          "internalType": "string",
          "name": "",
          "type": "string"
        }
      ],
      "stateMutability": "view",
      "type": "function"
    },
    {
      "inputs": [],
      "name": "micromachinemanufacturingplant",
      "outputs": [
        {
          "internalType": "address",
          "name": "",
          "type": "address"
        }
      ],
      "stateMutability": "view",
      "type": "function"
    },
    {
      "inputs": [],
      "name": "micromachines",
      "outputs": [
        {
          "internalType": "address",
          "name": "",
          "type": "address"
        }
      ],
      "stateMutability": "view",
      "type": "function"
    },
    {
      "inputs": [],
      "name": "nanomachines",
      "outputs": [
        {
          "internalType": "address",
          "name": "",
          "type": "address"
        }
      ],
      "stateMutability": "view",
      "type": "function"
    },
    {
      "inputs": [],
      "name": "nanonft",
      "outputs": [
        {
          "internalType": "address",
          "name": "",
          "type": "address"
        }
      ],
      "stateMutability": "view",
      "type": "function"
    },
    {
      "inputs": [],
      "name": "oracle",
      "outputs": [
        {
          "internalType": "address",
          "name": "",
          "type": "address"
        }
      ],
      "stateMutability": "view",
      "type": "function"
    },
    {
      "inputs": [],
      "name": "owner",
      "outputs": [
        {
          "internalType": "address",
          "name": "",
          "type": "address"
        }
      ],
      "stateMutability": "view",
      "type": "function"
    },
    {
      "inputs": [],
      "name": "renounceOwnership",
      "outputs": [],
      "stateMutability": "nonpayable",
      "type": "function"
    },
    {
      "inputs": [
        {
          "internalType": "address",
          "name": "newOwner",
          "type": "address"
        }
      ],
      "name": "transferOwnership",
      "outputs": [],
      "stateMutability": "nonpayable",
      "type": "function"
    },
    {
      "inputs": [
        {
          "internalType": "address",
          "name": "",
          "type": "address"
        },
        {
          "internalType": "uint256",
          "name": "",
          "type": "uint256"
        }
      ],
      "name": "usersWarbots",
      "outputs": [
        {
          "internalType": "uint256",
          "name": "",
          "type": "uint256"
        }
      ],
      "stateMutability": "view",
      "type": "function"
    },
    {
      "inputs": [
        {
          "internalType": "uint256",
          "name": "",
          "type": "uint256"
        }
      ],
      "name": "warbotLevelCount",
      "outputs": [
        {
          "internalType": "uint256",
          "name": "",
          "type": "uint256"
        }
      ],
      "stateMutability": "view",
      "type": "function"
    },
    {
      "inputs": [
        {
          "internalType": "uint256",
          "name": "_warbot",
          "type": "uint256"
        }
      ],
      "name": "requestRoll",
      "outputs": [
        {
          "internalType": "bool",
          "name": "",
          "type": "bool"
        }
      ],
      "stateMutability": "view",
      "type": "function"
    },
    {
      "inputs": [
        {
          "internalType": "uint256",
          "name": "_warbot",
          "type": "uint256"
        }
      ],
      "name": "rerollLevelStats",
      "outputs": [],
      "stateMutability": "nonpayable",
      "type": "function"
    },
    {
      "inputs": [
        {
          "internalType": "uint256",
          "name": "_warbot",
          "type": "uint256"
        },
        {
          "internalType": "uint256",
          "name": "_hitpoints",
          "type": "uint256"
        },
        {
          "internalType": "uint256",
          "name": "_attack",
          "type": "uint256"
        },
        {
          "internalType": "uint256",
          "name": "_defense",
          "type": "uint256"
        },
        {
          "internalType": "uint256",
          "name": "_speed",
          "type": "uint256"
        }
      ],
      "name": "rollStats",
      "outputs": [],
      "stateMutability": "nonpayable",
      "type": "function"
    },
    {
      "inputs": [
        {
          "internalType": "uint256",
          "name": "_warbot",
          "type": "uint256"
        },
        {
          "internalType": "uint256",
          "name": "_nftcard",
          "type": "uint256"
        }
      ],
      "name": "bindCard",
      "outputs": [],
      "stateMutability": "nonpayable",
      "type": "function"
    },
    {
      "inputs": [
        {
          "internalType": "uint256",
          "name": "_level",
          "type": "uint256"
        },
        {
          "internalType": "string",
          "name": "_levelURI",
          "type": "string"
        }
      ],
      "name": "setLevelURI",
      "outputs": [],
      "stateMutability": "nonpayable",
      "type": "function"
    },
    {
      "inputs": [
        {
          "internalType": "address",
          "name": "_address",
          "type": "address"
        }
      ],
      "name": "setMicromachines",
      "outputs": [],
      "stateMutability": "nonpayable",
      "type": "function"
    },
    {
      "inputs": [
        {
          "internalType": "address",
          "name": "_address",
          "type": "address"
        }
      ],
      "name": "setNanomachines",
      "outputs": [],
      "stateMutability": "nonpayable",
      "type": "function"
    },
    {
      "inputs": [
        {
          "internalType": "address",
          "name": "_address",
          "type": "address"
        }
      ],
      "name": "setNanoNFT",
      "outputs": [],
      "stateMutability": "nonpayable",
      "type": "function"
    },
    {
      "inputs": [
        {
          "internalType": "address",
          "name": "_address",
          "type": "address"
        }
      ],
      "name": "setMicromachinesManufacturingplant",
      "outputs": [],
      "stateMutability": "nonpayable",
      "type": "function"
    },
    {
      "inputs": [
        {
          "internalType": "uint256",
          "name": "_level",
          "type": "uint256"
        }
      ],
      "name": "levelRequirement",
      "outputs": [
        {
          "internalType": "uint256",
          "name": "",
          "type": "uint256"
        }
      ],
      "stateMutability": "nonpayable",
      "type": "function"
    },
    {
      "inputs": [
        {
          "internalType": "uint256",
          "name": "_warbot",
          "type": "uint256"
        }
      ],
      "name": "activateWarbot",
      "outputs": [],
      "stateMutability": "nonpayable",
      "type": "function"
    },
    {
      "inputs": [
        {
          "internalType": "uint256",
          "name": "_warbot1",
          "type": "uint256"
        },
        {
          "internalType": "uint256",
          "name": "_warbot2",
          "type": "uint256"
        }
      ],
      "name": "upgradeWarbot",
      "outputs": [],
      "stateMutability": "nonpayable",
      "type": "function"
    },
    {
      "inputs": [
        {
          "internalType": "address",
          "name": "_operator",
          "type": "address"
        },
        {
          "internalType": "address",
          "name": "_from",
          "type": "address"
        },
        {
          "internalType": "uint256",
          "name": "_tokenId",
          "type": "uint256"
        },
        {
          "internalType": "bytes",
          "name": "_data",
          "type": "bytes"
        }
      ],
      "name": "onERC721Received",
      "outputs": [
        {
          "internalType": "bytes4",
          "name": "",
          "type": "bytes4"
        }
      ],
      "stateMutability": "view",
      "type": "function"
    }
  ],
  "bytecode": "0x60806040526000805463ffffffff60a01b1916630a85bd0160a11b1790553480156200002a57600080fd5b50600080546001600160a01b031916339081178255604051909182917f8be0079c531659141344cd1fd0a4f28419497f9722a3daafe3b4186f6b6457e0908290a350600280546001600160a01b0319908116738bc3eb7ded0ec83d0a8ef18d327644c04191f7dd17909155600380548216734c0aeeb37210b97956309bb4585c5433cc015f6c1790556005805490911673a99d7622bb560725346007da01284cf3d31a479d1790556040805160e0810190915260b9808252620020fe60208301396001600052600c6020908152815162000128927fd421a5181c571bba3f01190c922c3b2a896fc1d84e86c9f17ac10e67ebef8b5c92019062000171565b50671bc16d674ec80000600655600180546001600160a01b031990811661dead1790915560078054909116737ce0e55703f12d03eb53b918ad6b9eb80d188afb17905562000254565b8280546200017f9062000217565b90600052602060002090601f016020900481019282620001a35760008555620001ee565b82601f10620001be57805160ff1916838001178555620001ee565b82800160010185558215620001ee579182015b82811115620001ee578251825591602001919060010190620001d1565b50620001fc92915062000200565b5090565b5b80821115620001fc576000815560010162000201565b600181811c908216806200022c57607f821691505b602082108114156200024e57634e487b7160e01b600052602260045260246000fd5b50919050565b611e9a80620002646000396000f3fe608060405234801561001057600080fd5b50600436106101da5760003560e01c8063715018a611610104578063c6641998116100a2578063e379422411610071578063e3794224146104f9578063e56b12a51461050c578063f2fde38b1461051f578063fb121b1e1461053257600080fd5b8063c6641998146104ad578063d2205b53146104c0578063d86e7065146104d3578063dd060fe7146104e657600080fd5b80637f732948116100de5780637f7329481461046357806387e691eb146104765780638da5cb5b14610489578063b28394dc1461049a57600080fd5b8063715018a6146104355780637823b0181461043d5780637dc0d1d01461045057600080fd5b806338d170991161017c5780635ce0ca0f1161014b5780635ce0ca0f146103dc57806360eb3dbe146103fc5780636730d5931461040f57806370d5ae051461042257600080fd5b806338d170991461035d5780633eedeacc1461037d5780634e9b0f8a14610390578063510b5158146103b357600080fd5b80631841eb67116101b85780631841eb671461030b578063208a3038146103205780632689436f146103335780632fd6657c1461034a57600080fd5b80630cd01d98146101df578063150b7a021461020f5780631614d6951461024b575b600080fd5b6005546101f2906001600160a01b031681565b6040516001600160a01b0390911681526020015b60405180910390f35b61023261021d366004611887565b600054600160a01b900460e01b949350505050565b6040516001600160e01b03199091168152602001610206565b6102b66102593660046119ae565b600d60205260009081526040902080546001820154600283015460038401546004850154600586015460068701546007880154600889015460098a0154600a909a015460ff9099169997989697959694959394929391929091908b565b604080519b15158c5260208c019a909a52988a01979097526060890195909552608088019390935260a087019190915260c086015260e085015261010084015261012083015261014082015261016001610206565b61031e61031936600461184d565b610552565b005b61031e61032e36600461184d565b6105a7565b61033c60065481565b604051908152602001610206565b61033c610358366004611a5c565b6105f3565b61037061036b3660046119ae565b610624565b6040516102069190611b26565b61031e61038b36600461184d565b6106be565b6103a361039e3660046119ae565b61070a565b6040519015158152602001610206565b6101f26103c13660046119ae565b600b602052600090815260409020546001600160a01b031681565b61033c6103ea3660046119ae565b60096020526000908152604090205481565b61031e61040a3660046119e0565b610736565b61033c61041d3660046119ae565b61077f565b6001546101f2906001600160a01b031681565b61031e610826565b6002546101f2906001600160a01b031681565b6007546101f2906001600160a01b031681565b61031e610471366004611a5c565b61089a565b6004546101f2906001600160a01b031681565b6000546001600160a01b03166101f2565b61031e6104a836600461184d565b610ba6565b6003546101f2906001600160a01b031681565b61031e6104ce3660046119ae565b610bf2565b61031e6104e13660046119ae565b610f39565b61031e6104f4366004611ac7565b611122565b61033c610507366004611967565b61124d565b61031e61051a366004611a5c565b611269565b61031e61052d36600461184d565b6116b5565b61033c6105403660046119ae565b60086020526000908152604090205481565b6000546001600160a01b031633146105855760405162461bcd60e51b815260040161057c90611ba9565b60405180910390fd5b600480546001600160a01b0319166001600160a01b0392909216919091179055565b6000546001600160a01b031633146105d15760405162461bcd60e51b815260040161057c90611ba9565b600380546001600160a01b0319166001600160a01b0392909216919091179055565b600e602052816000526040600020818154811061060f57600080fd5b90600052602060002001600091509150505481565b600c602052600090815260409020805461063d90611dca565b80601f016020809104026020016040519081016040528092919081815260200182805461066990611dca565b80156106b65780601f1061068b576101008083540402835291602001916106b6565b820191906000526020600020905b81548152906001019060200180831161069957829003601f168201915b505050505081565b6000546001600160a01b031633146106e85760405162461bcd60e51b815260040161057c90611ba9565b600280546001600160a01b0319166001600160a01b0392909216919091179055565b6000818152600d602052604081205460ff1615156001141561072e57506001919050565b506000919050565b6000546001600160a01b031633146107605760405162461bcd60e51b815260040161057c90611ba9565b6000838152600c6020526040902061077990838361179f565b50505050565b6003546040805163313ce56760e01b815290516000926001600160a01b031691829163313ce5679160048082019260209290919082900301818887803b1580156107c857600080fd5b505af11580156107dc573d6000803e3d6000fd5b505050506040513d601f19601f8201168201806040525081019061080091906119c7565b61080b90600a611cea565b6108158480611d94565b61081f9190611d94565b9392505050565b6000546001600160a01b031633146108505760405162461bcd60e51b815260040161057c90611ba9565b600080546040516001600160a01b03909116907f8be0079c531659141344cd1fd0a4f28419497f9722a3daafe3b4186f6b6457e0908390a3600080546001600160a01b0319169055565b60008181526008602052604080822054848352912054146108ba57600080fd5b6000828152600860205260409020546108e55760405162461bcd60e51b815260040161057c90611b7b565b60008281526008602052604081205490610900826001611c8f565b6003549091506001600160a01b0316806323b872dd33306109208761077f565b6040518463ffffffff1660e01b815260040161093e93929190611b02565b602060405180830381600087803b15801561095857600080fd5b505af115801561096c573d6000803e3d6000fd5b505050506040513d601f19601f820116820180604052508101906109909190611993565b506005546040516323b872dd60e01b81526001600160a01b039091169081906323b872dd906109c790339030908a90600401611b02565b600060405180830381600087803b1580156109e157600080fd5b505af11580156109f5573d6000803e3d6000fd5b5050604051630852cd8d60e31b8152600481018890526001600160a01b03841692506342966c689150602401600060405180830381600087803b158015610a3b57600080fd5b505af1158015610a4f573d6000803e3d6000fd5b5050506000878152600860209081526040808320879055888352808320839055878352600990915281208054925090610a8783611db3565b90915550506000848152600960205260408120805491610aa683611db3565b90915550506000848152600960205260408120805491610ac583611e05565b90915550506000868152600d60209081526040808320805460ff191660019081178255810154600782015560038101546009820155600480820154600a90920191909155868452600c9092529182902091516382c1a30d60e01b81526001600160a01b038416926382c1a30d92610b3f928b929101611bde565b600060405180830381600087803b158015610b5957600080fd5b505af1158015610b6d573d6000803e3d6000fd5b50506040518592508891507f83552bf770e7992364e0b5849bd6d49ba643697bf386a601a245adb62b7bad0390600090a3505050505050565b6000546001600160a01b03163314610bd05760405162461bcd60e51b815260040161057c90611ba9565b600580546001600160a01b0319166001600160a01b0392909216919091179055565b6005546040516331a9108f60e11b8152600481018390526001600160a01b03909116908190636352211e90602401602060405180830381600087803b158015610c3a57600080fd5b505af1158015610c4e573d6000803e3d6000fd5b505050506040513d601f19601f82011682018060405250810190610c72919061186a565b6001600160a01b0316336001600160a01b031614610c8f57600080fd5b60008281526008602052604090205415610ceb5760405162461bcd60e51b815260206004820152601860248201527f576172626f7420616c7265616479206163746976617465640000000000000000604482015260640161057c565b6003546006546040516323b872dd60e01b81526001600160a01b039092169182916323b872dd91610d23913391309190600401611b02565b602060405180830381600087803b158015610d3d57600080fd5b505af1158015610d51573d6000803e3d6000fd5b505050506040513d601f19601f82011682018060405250810190610d759190611993565b506000838152600d60205260409081902060026005820155805460ff1916600190811790915554600654915163a9059cbb60e01b81526001600160a01b039182166004820152602481019290925282169063a9059cbb90604401602060405180830381600087803b158015610de957600080fd5b505af1158015610dfd573d6000803e3d6000fd5b505050506040513d601f19601f82011682018060405250810190610e219190611993565b50600083815260086020908152604082206001908190558252600990527f92e85d02570a8092d09a6e3a57665bc3815a2699a4074001bf1ccabf660f5a36805491610e6b83611e05565b90915550506000838152600b60205260409081902080546001600160a01b031916339081179091556004805492516336a97fc960e11b815290810186905260248101919091526001600160a01b03909116908190636d52ff9290604401600060405180830381600087803b158015610ee257600080fd5b505af1158015610ef6573d6000803e3d6000fd5b505050507ff53157c8489e6b176e7a02f3a1e078a8ccf25401b44d3ef0dabbd36d80273b0084604051610f2b91815260200190565b60405180910390a150505050565b600081815260086020526040902054610f645760405162461bcd60e51b815260040161057c90611b7b565b6005546040516331a9108f60e11b8152600481018390526001600160a01b03909116908190636352211e90602401602060405180830381600087803b158015610fac57600080fd5b505af1158015610fc0573d6000803e3d6000fd5b505050506040513d601f19601f82011682018060405250810190610fe4919061186a565b6001600160a01b0316336001600160a01b03161461100157600080fd5b6000828152600d6020526040812060060180549161101e83611e05565b90915550506003546000838152600d60205260409020600601546001600160a01b039091169081906323b872dd90339030906110599061077f565b6040518463ffffffff1660e01b815260040161107793929190611b02565b602060405180830381600087803b15801561109157600080fd5b505af11580156110a5573d6000803e3d6000fd5b505050506040513d601f19601f820116820180604052508101906110c99190611993565b506000838152600d602052604090819020805460ff19166001179055517fdd5584841985f3187b4258e169a48a9577c0700c537f99caa5d8d66024a0607f906111159085815260200190565b60405180910390a1505050565b6007546001600160a01b0316331461116a5760405162461bcd60e51b815260206004820152600b60248201526a4f7261636c65204f6e6c7960a81b604482015260640161057c565b6000858152600d60205260409020805460ff191681556007015461118f908590611c8f565b6000868152600d602052604090206001810191909155600801546111b4908490611c8f565b6000868152600d602052604090206002810191909155600901546111d9908390611c8f565b6000868152600d602052604090206003810191909155600a01546111fe908290611c8f565b6000868152600d602090815260409182902060040192909255518681527f23e44c29d5a44f614d06e1703094ffe1df74cca218963a86800034f34912f7ce910160405180910390a15050505050565b600a602052816000526040600020818154811061060f57600080fd5b6000828152600860205260409020546112945760405162461bcd60e51b815260040161057c90611b7b565b6005546040516331a9108f60e11b8152600481018490526001600160a01b03909116908190636352211e90602401602060405180830381600087803b1580156112dc57600080fd5b505af11580156112f0573d6000803e3d6000fd5b505050506040513d601f19601f82011682018060405250810190611314919061186a565b6001600160a01b0316336001600160a01b03161461133157600080fd5b600480546040516323b872dd60e01b81526001600160a01b039091169182916323b872dd916113669133913091899101611b02565b600060405180830381600087803b15801561138057600080fd5b505af1158015611394573d6000803e3d6000fd5b50505050600080600080846001600160a01b031663cb9e2d98886040518263ffffffff1660e01b81526004016113cc91815260200190565b60a060405180830381600087803b1580156113e657600080fd5b505af11580156113fa573d6000803e3d6000fd5b505050506040513d601f19601f8201168201806040525081019061141e9190611a7e565b94509450509350935080151560011515146114735760405162461bcd60e51b815260206004820152601560248201527421b0b9321034b9903737ba103134b73230b136329760591b604482015260640161057c565b6000888152600860205260409020548211156114db5760405162461bcd60e51b815260206004820152602160248201527f576172626f74204c6576656c20526571756972656d656e74206e6f74204d65746044820152601760f91b606482015260840161057c565b8360011415611531576000888152600d602052604081206002018054859290611505908490611c8f565b90915550506000888152600d60205260408120600801805485929061152b908490611c8f565b90915550505b8360021415611587576000888152600d60205260408120600301805485929061155b908490611c8f565b90915550506000888152600d602052604081206009018054859290611581908490611c8f565b90915550505b83600314156115dd576000888152600d6020526040812060040180548592906115b1908490611c8f565b90915550506000888152600d60205260408120600a0180548592906115d7908490611c8f565b90915550505b604051630852cd8d60e31b8152600481018890526001600160a01b038616906342966c6890602401600060405180830381600087803b15801561161f57600080fd5b505af1158015611633573d6000803e3d6000fd5b5050505086887fe2af32250d0d1a5a04cc9f5040098173e304b9de42a8a606e20c66bb594dd70e6040516116a39060208082526022908201527f574152424f5420555047524144454420574954482042494e4441424c45204341604082015261149160f21b606082015260800190565b60405180910390a35050505050505050565b6000546001600160a01b031633146116df5760405162461bcd60e51b815260040161057c90611ba9565b6001600160a01b0381166117445760405162461bcd60e51b815260206004820152602660248201527f4f776e61626c653a206e6577206f776e657220697320746865207a65726f206160448201526564647265737360d01b606482015260840161057c565b600080546040516001600160a01b03808516939216917f8be0079c531659141344cd1fd0a4f28419497f9722a3daafe3b4186f6b6457e091a3600080546001600160a01b0319166001600160a01b0392909216919091179055565b8280546117ab90611dca565b90600052602060002090601f0160209004810192826117cd5760008555611813565b82601f106117e65782800160ff19823516178555611813565b82800160010185558215611813579182015b828111156118135782358255916020019190600101906117f8565b5061181f929150611823565b5090565b5b8082111561181f5760008155600101611824565b8051801515811461184857600080fd5b919050565b60006020828403121561185f57600080fd5b813561081f81611e4c565b60006020828403121561187c57600080fd5b815161081f81611e4c565b6000806000806080858703121561189d57600080fd5b84356118a881611e4c565b935060208501356118b881611e4c565b925060408501359150606085013567ffffffffffffffff808211156118dc57600080fd5b818701915087601f8301126118f057600080fd5b81358181111561190257611902611e36565b604051601f8201601f19908116603f0116810190838211818310171561192a5761192a611e36565b816040528281528a602084870101111561194357600080fd5b82602086016020830137600060208483010152809550505050505092959194509250565b6000806040838503121561197a57600080fd5b823561198581611e4c565b946020939093013593505050565b6000602082840312156119a557600080fd5b61081f82611838565b6000602082840312156119c057600080fd5b5035919050565b6000602082840312156119d957600080fd5b5051919050565b6000806000604084860312156119f557600080fd5b83359250602084013567ffffffffffffffff80821115611a1457600080fd5b818601915086601f830112611a2857600080fd5b813581811115611a3757600080fd5b876020828501011115611a4957600080fd5b6020830194508093505050509250925092565b60008060408385031215611a6f57600080fd5b50508035926020909101359150565b600080600080600060a08688031215611a9657600080fd5b85519450602086015193506040860151925060608601519150611abb60808701611838565b90509295509295909350565b600080600080600060a08688031215611adf57600080fd5b505083359560208501359550604085013594606081013594506080013592509050565b6001600160a01b039384168152919092166020820152604081019190915260600190565b600060208083528351808285015260005b81811015611b5357858101830151858201604001528201611b37565b81811115611b65576000604083870101525b50601f01601f1916929092016040019392505050565b60208082526014908201527315d85c989bdd081b9bdd081858dd1a5d985d195960621b604082015260600190565b6020808252818101527f4f776e61626c653a2063616c6c6572206973206e6f7420746865206f776e6572604082015260600190565b828152600060206040818401526000845481600182811c915080831680611c0657607f831692505b858310811415611c2457634e487b7160e01b85526022600452602485fd5b6040880183905260608801818015611c435760018114611c5457611c7f565b60ff19861682528782019650611c7f565b60008b81526020902060005b86811015611c7957815484820152908501908901611c60565b83019750505b50949a9950505050505050505050565b60008219821115611ca257611ca2611e20565b500190565b600181815b80851115611ce2578160001904821115611cc857611cc8611e20565b80851615611cd557918102915b93841c9390800290611cac565b509250929050565b600061081f8383600082611d0057506001611d8e565b81611d0d57506000611d8e565b8160018114611d235760028114611d2d57611d49565b6001915050611d8e565b60ff841115611d3e57611d3e611e20565b50506001821b611d8e565b5060208310610133831016604e8410600b8410161715611d6c575081810a611d8e565b611d768383611ca7565b8060001904821115611d8a57611d8a611e20565b0290505b92915050565b6000816000190483118215151615611dae57611dae611e20565b500290565b600081611dc257611dc2611e20565b506000190190565b600181811c90821680611dde57607f821691505b60208210811415611dff57634e487b7160e01b600052602260045260246000fd5b50919050565b6000600019821415611e1957611e19611e20565b5060010190565b634e487b7160e01b600052601160045260246000fd5b634e487b7160e01b600052604160045260246000fd5b6001600160a01b0381168114611e6157600080fd5b5056fea2646970667358221220ad9d95de1241019b186dd35301144ea98916846c57a4956122b5a3f48833aa1064736f6c634300080600337b2261747472696275746573223a205b5d2c226e616d65223a20224d4d576172626f74222c226465736372697074696f6e223a20224d6963726f6d616368696e6520576172426f74204e4654204c4556454c2031222c22696d616765223a202268747470733a2f2f676174657761792e70696e6174612e636c6f75642f697066732f697066733a2f2f516d51703250666a3367524b734343744d7046577a774a6d6652794179733853445937737246426d665a32573467227d",
  "immutableReferences": {},
  "source": "pragma solidity ^0.8.0;\r\n\r\n\r\n// SPDX-License-Identifier: Unlicensed\r\ninterface IERC20 {\r\n\r\n    function totalSupply() external view returns (uint256);\r\n     function decimals() external returns (uint256);\r\n\r\n    /**\r\n     * @dev Returns the amount of tokens owned by `account`.\r\n     */\r\n    function balanceOf(address account) external view returns (uint256);\r\n\r\n    /**\r\n     * @dev Moves `amount` tokens from the caller's account to `recipient`.\r\n     *\r\n     * Returns a boolean value indicating whether the operation succeeded.\r\n     *\r\n     * Emits a {Transfer} event.\r\n     */\r\n    function transfer(address recipient, uint256 amount) external returns (bool);\r\n\r\n    /**\r\n     * @dev Returns the remaining number of tokens that `spender` will be\r\n     * allowed to spend on behalf of `owner` through {transferFrom}. This is\r\n     * zero by default.\r\n     *\r\n     * This value changes when {approve} or {transferFrom} are called.\r\n     */\r\n    function allowance(address owner, address spender) external view returns (uint256);\r\n\r\n    /**\r\n     * @dev Sets `amount` as the allowance of `spender` over the caller's tokens.\r\n     *\r\n     * Returns a boolean value indicating whether the operation succeeded.\r\n     *\r\n     * IMPORTANT: Beware that changing an allowance with this method brings the risk\r\n     * that someone may use both the old and the new allowance by unfortunate\r\n     * transaction ordering. One possible solution to mitigate this race\r\n     * condition is to first reduce the spender's allowance to 0 and set the\r\n     * desired value afterwards:\r\n     * https://github.com/ethereum/EIPs/issues/20#issuecomment-263524729\r\n     *\r\n     * Emits an {Approval} event.\r\n     */\r\n    function approve(address spender, uint256 amount) external returns (bool);\r\n\r\n    /**\r\n     * @dev Moves `amount` tokens from `sender` to `recipient` using the\r\n     * allowance mechanism. `amount` is then deducted from the caller's\r\n     * allowance.\r\n     *\r\n     * Returns a boolean value indicating whether the operation succeeded.\r\n     *\r\n     * Emits a {Transfer} event.\r\n     */\r\n    function transferFrom(address sender, address recipient, uint256 amount) external returns (bool);\r\n\r\n    /**\r\n     * @dev Emitted when `value` tokens are moved from one account (`from`) to\r\n     * another (`to`).\r\n     *\r\n     * Note that `value` may be zero.\r\n     */\r\n    event Transfer(address indexed from, address indexed to, uint256 value);\r\n\r\n    /**\r\n     * @dev Emitted when the allowance of a `spender` for an `owner` is set by\r\n     * a call to {approve}. `value` is the new allowance.\r\n     */\r\n    event Approval(address indexed owner, address indexed spender, uint256 value);\r\n}\r\n\r\n\r\n\r\n\r\nlibrary SafeMath {\r\n    /**\r\n     * @dev Returns the addition of two unsigned integers, reverting on\r\n     * overflow.\r\n     *\r\n     * Counterpart to Solidity's `+` operator.\r\n     *\r\n     * Requirements:\r\n     *\r\n     * - Addition cannot overflow.\r\n     */\r\n    function add(uint256 a, uint256 b) internal pure returns (uint256) {\r\n        uint256 c = a + b;\r\n        require(c >= a, \"SafeMath: addition overflow\");\r\n\r\n        return c;\r\n    }\r\n\r\n    /**\r\n     * @dev Returns the subtraction of two unsigned integers, reverting on\r\n     * overflow (when the result is negative).\r\n     *\r\n     * Counterpart to Solidity's `-` operator.\r\n     *\r\n     * Requirements:\r\n     *\r\n     * - Subtraction cannot overflow.\r\n     */\r\n    function sub(uint256 a, uint256 b) internal pure returns (uint256) {\r\n        return sub(a, b, \"SafeMath: subtraction overflow\");\r\n    }\r\n\r\n    /**\r\n     * @dev Returns the subtraction of two unsigned integers, reverting with custom message on\r\n     * overflow (when the result is negative).\r\n     *\r\n     * Counterpart to Solidity's `-` operator.\r\n     *\r\n     * Requirements:\r\n     *\r\n     * - Subtraction cannot overflow.\r\n     */\r\n    function sub(uint256 a, uint256 b, string memory errorMessage) internal pure returns (uint256) {\r\n        require(b <= a, errorMessage);\r\n        uint256 c = a - b;\r\n\r\n        return c;\r\n    }\r\n\r\n    /**\r\n     * @dev Returns the multiplication of two unsigned integers, reverting on\r\n     * overflow.\r\n     *\r\n     * Counterpart to Solidity's `*` operator.\r\n     *\r\n     * Requirements:\r\n     *\r\n     * - Multiplication cannot overflow.\r\n     */\r\n    function mul(uint256 a, uint256 b) internal pure returns (uint256) {\r\n        // Gas optimization: this is cheaper than requiring 'a' not being zero, but the\r\n        // benefit is lost if 'b' is also tested.\r\n        // See: https://github.com/OpenZeppelin/openzeppelin-contracts/pull/522\r\n        if (a == 0) {\r\n            return 0;\r\n        }\r\n\r\n        uint256 c = a * b;\r\n        require(c / a == b, \"SafeMath: multiplication overflow\");\r\n\r\n        return c;\r\n    }\r\n\r\n    /**\r\n     * @dev Returns the integer division of two unsigned integers. Reverts on\r\n     * division by zero. The result is rounded towards zero.\r\n     *\r\n     * Counterpart to Solidity's `/` operator. Note: this function uses a\r\n     * `revert` opcode (which leaves remaining gas untouched) while Solidity\r\n     * uses an invalid opcode to revert (consuming all remaining gas).\r\n     *\r\n     * Requirements:\r\n     *\r\n     * - The divisor cannot be zero.\r\n     */\r\n    function div(uint256 a, uint256 b) internal pure returns (uint256) {\r\n        return div(a, b, \"SafeMath: division by zero\");\r\n    }\r\n\r\n    /**\r\n     * @dev Returns the integer division of two unsigned integers. Reverts with custom message on\r\n     * division by zero. The result is rounded towards zero.\r\n     *\r\n     * Counterpart to Solidity's `/` operator. Note: this function uses a\r\n     * `revert` opcode (which leaves remaining gas untouched) while Solidity\r\n     * uses an invalid opcode to revert (consuming all remaining gas).\r\n     *\r\n     * Requirements:\r\n     *\r\n     * - The divisor cannot be zero.\r\n     */\r\n    function div(uint256 a, uint256 b, string memory errorMessage) internal pure returns (uint256) {\r\n        require(b > 0, errorMessage);\r\n        uint256 c = a / b;\r\n        // assert(a == b * c + a % b); // There is no case in which this doesn't hold\r\n\r\n        return c;\r\n    }\r\n\r\n    /**\r\n     * @dev Returns the remainder of dividing two unsigned integers. (unsigned integer modulo),\r\n     * Reverts when dividing by zero.\r\n     *\r\n     * Counterpart to Solidity's `%` operator. This function uses a `revert`\r\n     * opcode (which leaves remaining gas untouched) while Solidity uses an\r\n     * invalid opcode to revert (consuming all remaining gas).\r\n     *\r\n     * Requirements:\r\n     *\r\n     * - The divisor cannot be zero.\r\n     */\r\n    function mod(uint256 a, uint256 b) internal pure returns (uint256) {\r\n        return mod(a, b, \"SafeMath: modulo by zero\");\r\n    }\r\n\r\n    /**\r\n     * @dev Returns the remainder of dividing two unsigned integers. (unsigned integer modulo),\r\n     * Reverts with custom message when dividing by zero.\r\n     *\r\n     * Counterpart to Solidity's `%` operator. This function uses a `revert`\r\n     * opcode (which leaves remaining gas untouched) while Solidity uses an\r\n     * invalid opcode to revert (consuming all remaining gas).\r\n     *\r\n     * Requirements:\r\n     *\r\n     * - The divisor cannot be zero.\r\n     */\r\n    function mod(uint256 a, uint256 b, string memory errorMessage) internal pure returns (uint256) {\r\n        require(b != 0, errorMessage);\r\n        return a % b;\r\n    }\r\n}\r\n\r\n\r\n/**\r\n * @dev Collection of functions related to the address type\r\n */\r\nlibrary Address {\r\n    /**\r\n     * @dev Returns true if `account` is a contract.\r\n     *\r\n     * [IMPORTANT]\r\n     * ====\r\n     * It is unsafe to assume that an address for which this function returns\r\n     * false is an externally-owned account (EOA) and not a contract.\r\n     *\r\n     * Among others, `isContract` will return false for the following\r\n     * types of addresses:\r\n     *\r\n     *  - an externally-owned account\r\n     *  - a contract in construction\r\n     *  - an address where a contract will be created\r\n     *  - an address where a contract lived, but was destroyed\r\n     * ====\r\n     */\r\n    function isContract(address account) internal view returns (bool) {\r\n        // This method relies on extcodesize, which returns 0 for contracts in\r\n        // construction, since the code is only stored at the end of the\r\n        // constructor execution.\r\n\r\n        uint256 size;\r\n        // solhint-disable-next-line no-inline-assembly\r\n        assembly { size := extcodesize(account) }\r\n        return size > 0;\r\n    }\r\n\r\n    /**\r\n     * @dev Replacement for Solidity's `transfer`: sends `amount` wei to\r\n     * `recipient`, forwarding all available gas and reverting on errors.\r\n     *\r\n     * https://eips.ethereum.org/EIPS/eip-1884[EIP1884] increases the gas cost\r\n     * of certain opcodes, possibly making contracts go over the 2300 gas limit\r\n     * imposed by `transfer`, making them unable to receive funds via\r\n     * `transfer`. {sendValue} removes this limitation.\r\n     *\r\n     * https://diligence.consensys.net/posts/2019/09/stop-using-soliditys-transfer-now/[Learn more].\r\n     *\r\n     * IMPORTANT: because control is transferred to `recipient`, care must be\r\n     * taken to not create reentrancy vulnerabilities. Consider using\r\n     * {ReentrancyGuard} or the\r\n     * https://solidity.readthedocs.io/en/v0.5.11/security-considerations.html#use-the-checks-effects-interactions-pattern[checks-effects-interactions pattern].\r\n     */\r\n    function sendValue(address payable recipient, uint256 amount) internal {\r\n        require(address(this).balance >= amount, \"Address: insufficient balance\");\r\n\r\n        // solhint-disable-next-line avoid-low-level-calls, avoid-call-value\r\n        (bool success, ) = recipient.call{ value: amount }(\"\");\r\n        require(success, \"Address: unable to send value, recipient may have reverted\");\r\n    }\r\n\r\n    /**\r\n     * @dev Performs a Solidity function call using a low level `call`. A\r\n     * plain`call` is an unsafe replacement for a function call: use this\r\n     * function instead.\r\n     *\r\n     * If `target` reverts with a revert reason, it is bubbled up by this\r\n     * function (like regular Solidity function calls).\r\n     *\r\n     * Returns the raw returned data. To convert to the expected return value,\r\n     * use https://solidity.readthedocs.io/en/latest/units-and-global-variables.html?highlight=abi.decode#abi-encoding-and-decoding-functions[`abi.decode`].\r\n     *\r\n     * Requirements:\r\n     *\r\n     * - `target` must be a contract.\r\n     * - calling `target` with `data` must not revert.\r\n     *\r\n     * _Available since v3.1._\r\n     */\r\n    function functionCall(address target, bytes memory data) internal returns (bytes memory) {\r\n      return functionCall(target, data, \"Address: low-level call failed\");\r\n    }\r\n\r\n    /**\r\n     * @dev Same as {xref-Address-functionCall-address-bytes-}[`functionCall`], but with\r\n     * `errorMessage` as a fallback revert reason when `target` reverts.\r\n     *\r\n     * _Available since v3.1._\r\n     */\r\n    function functionCall(address target, bytes memory data, string memory errorMessage) internal returns (bytes memory) {\r\n        return functionCallWithValue(target, data, 0, errorMessage);\r\n    }\r\n\r\n    /**\r\n     * @dev Same as {xref-Address-functionCall-address-bytes-}[`functionCall`],\r\n     * but also transferring `value` wei to `target`.\r\n     *\r\n     * Requirements:\r\n     *\r\n     * - the calling contract must have an ETH balance of at least `value`.\r\n     * - the called Solidity function must be `payable`.\r\n     *\r\n     * _Available since v3.1._\r\n     */\r\n    function functionCallWithValue(address target, bytes memory data, uint256 value) internal returns (bytes memory) {\r\n        return functionCallWithValue(target, data, value, \"Address: low-level call with value failed\");\r\n    }\r\n\r\n    /**\r\n     * @dev Same as {xref-Address-functionCallWithValue-address-bytes-uint256-}[`functionCallWithValue`], but\r\n     * with `errorMessage` as a fallback revert reason when `target` reverts.\r\n     *\r\n     * _Available since v3.1._\r\n     */\r\n    function functionCallWithValue(address target, bytes memory data, uint256 value, string memory errorMessage) internal returns (bytes memory) {\r\n        require(address(this).balance >= value, \"Address: insufficient balance for call\");\r\n        require(isContract(target), \"Address: call to non-contract\");\r\n\r\n        // solhint-disable-next-line avoid-low-level-calls\r\n        (bool success, bytes memory returndata) = target.call{ value: value }(data);\r\n        return _verifyCallResult(success, returndata, errorMessage);\r\n    }\r\n\r\n    /**\r\n     * @dev Same as {xref-Address-functionCall-address-bytes-}[`functionCall`],\r\n     * but performing a static call.\r\n     *\r\n     * _Available since v3.3._\r\n     */\r\n    function functionStaticCall(address target, bytes memory data) internal view returns (bytes memory) {\r\n        return functionStaticCall(target, data, \"Address: low-level static call failed\");\r\n    }\r\n\r\n    /**\r\n     * @dev Same as {xref-Address-functionCall-address-bytes-string-}[`functionCall`],\r\n     * but performing a static call.\r\n     *\r\n     * _Available since v3.3._\r\n     */\r\n    function functionStaticCall(address target, bytes memory data, string memory errorMessage) internal view returns (bytes memory) {\r\n        require(isContract(target), \"Address: static call to non-contract\");\r\n\r\n        // solhint-disable-next-line avoid-low-level-calls\r\n        (bool success, bytes memory returndata) = target.staticcall(data);\r\n        return _verifyCallResult(success, returndata, errorMessage);\r\n    }\r\n\r\n    /**\r\n     * @dev Same as {xref-Address-functionCall-address-bytes-}[`functionCall`],\r\n     * but performing a delegate call.\r\n     *\r\n     * _Available since v3.4._\r\n     */\r\n    function functionDelegateCall(address target, bytes memory data) internal returns (bytes memory) {\r\n        return functionDelegateCall(target, data, \"Address: low-level delegate call failed\");\r\n    }\r\n\r\n    /**\r\n     * @dev Same as {xref-Address-functionCall-address-bytes-string-}[`functionCall`],\r\n     * but performing a delegate call.\r\n     *\r\n     * _Available since v3.4._\r\n     */\r\n    function functionDelegateCall(address target, bytes memory data, string memory errorMessage) internal returns (bytes memory) {\r\n        require(isContract(target), \"Address: delegate call to non-contract\");\r\n\r\n        // solhint-disable-next-line avoid-low-level-calls\r\n        (bool success, bytes memory returndata) = target.delegatecall(data);\r\n        return _verifyCallResult(success, returndata, errorMessage);\r\n    }\r\n\r\n    function _verifyCallResult(bool success, bytes memory returndata, string memory errorMessage) private pure returns(bytes memory) {\r\n        if (success) {\r\n            return returndata;\r\n        } else {\r\n            // Look for revert reason and bubble it up if present\r\n            if (returndata.length > 0) {\r\n                // The easiest way to bubble the revert reason is using memory via assembly\r\n\r\n                // solhint-disable-next-line no-inline-assembly\r\n                assembly {\r\n                    let returndata_size := mload(returndata)\r\n                    revert(add(32, returndata), returndata_size)\r\n                }\r\n            } else {\r\n                revert(errorMessage);\r\n            }\r\n        }\r\n    }\r\n}\r\n\r\nlibrary ExtendedMath {\r\n    /**\r\n     * @return The given number raised to the power of 2\r\n     */\r\n    function pow2(uint256 a) internal pure returns (uint256) {\r\n        if (a == 0) {\r\n            return 0;\r\n        }\r\n        uint256 c = a * a;\r\n        require(c / a == a, \"ExtendedMath: squaring overflow\");\r\n        return c;\r\n    }\r\n\r\n    \r\n    function sqrt(uint y) internal pure returns (uint z) {\r\n        if (y > 3) {\r\n            z = y;\r\n            uint x = y / 2 + 1;\r\n            while (x < z) {\r\n                z = x;\r\n                x = (y / x + x) / 2;\r\n            }\r\n        } else if (y != 0) {\r\n            z = 1;\r\n        }\r\n    }\r\n}\r\n\r\nabstract contract Context {\r\n    function _msgSender() internal view virtual returns (address) {\r\n        return msg.sender;\r\n    }\r\n\r\n    function _msgData() internal view virtual returns (bytes calldata) {\r\n        this; // silence state mutability warning without generating bytecode - see https://github.com/ethereum/solidity/issues/2691\r\n        return msg.data;\r\n    }\r\n}\r\n\r\n/**\r\n * @dev Contract module which provides a basic access control mechanism, where\r\n * there is an account (an owner) that can be granted exclusive access to\r\n * specific functions.\r\n *\r\n * By default, the owner account will be the one that deploys the contract. This\r\n * can later be changed with {transferOwnership}.\r\n *\r\n * This module is used through inheritance. It will make available the modifier\r\n * `onlyOwner`, which can be applied to your functions to restrict their use to\r\n * the owner.\r\n */\r\nabstract contract Ownable is Context {\r\n    address private _owner;\r\n\r\n    event OwnershipTransferred(address indexed previousOwner, address indexed newOwner);\r\n\r\n    /**\r\n     * @dev Initializes the contract setting the deployer as the initial owner.\r\n     */\r\n    constructor () {\r\n        address msgSender = _msgSender();\r\n        _owner = msgSender;\r\n        emit OwnershipTransferred(address(0), msgSender);\r\n    }\r\n\r\n    /**\r\n     * @dev Returns the address of the current owner.\r\n     */\r\n    function owner() public view virtual returns (address) {\r\n        return _owner;\r\n    }\r\n\r\n    /**\r\n     * @dev Throws if called by any account other than the owner.\r\n     */\r\n    modifier onlyOwner() {\r\n        require(owner() == _msgSender(), \"Ownable: caller is not the owner\");\r\n        _;\r\n    }\r\n\r\n    /**\r\n     * @dev Leaves the contract without owner. It will not be possible to call\r\n     * `onlyOwner` functions anymore. Can only be called by the current owner.\r\n     *\r\n     * NOTE: Renouncing ownership will leave the contract without an owner,\r\n     * thereby removing any functionality that is only available to the owner.\r\n     */\r\n    function renounceOwnership() public virtual onlyOwner {\r\n        emit OwnershipTransferred(_owner, address(0));\r\n        _owner = address(0);\r\n    }\r\n\r\n    /**\r\n     * @dev Transfers ownership of the contract to a new account (`newOwner`).\r\n     * Can only be called by the current owner.\r\n     */\r\n    function transferOwnership(address newOwner) public virtual onlyOwner {\r\n        require(newOwner != address(0), \"Ownable: new owner is the zero address\");\r\n        emit OwnershipTransferred(_owner, newOwner);\r\n        _owner = newOwner;\r\n    }\r\n}\r\n\r\nabstract contract ReentrancyGuard {\r\n    // Booleans are more expensive than uint256 or any type that takes up a full\r\n    // word because each write operation emits an extra SLOAD to first read the\r\n    // slot's contents, replace the bits taken up by the boolean, and then write\r\n    // back. This is the compiler's defense against contract upgrades and\r\n    // pointer aliasing, and it cannot be disabled.\r\n\r\n    // The values being non-zero value makes deployment a bit more expensive,\r\n    // but in exchange the refund on every call to nonReentrant will be lower in\r\n    // amount. Since refunds are capped to a percentage of the total\r\n    // transaction's gas, it is best to keep them low in cases like this one, to\r\n    // increase the likelihood of the full refund coming into effect.\r\n    uint256 private constant _NOT_ENTERED = 1;\r\n    uint256 private constant _ENTERED = 2;\r\n\r\n    uint256 private _status;\r\n\r\n    constructor() {\r\n        _status = _NOT_ENTERED;\r\n    }\r\n\r\n    /**\r\n     * @dev Prevents a contract from calling itself, directly or indirectly.\r\n     * Calling a `nonReentrant` function from another `nonReentrant`\r\n     * function is not supported. It is possible to prevent this from happening\r\n     * by making the `nonReentrant` function external, and make it call a\r\n     * `private` function that does the actual work.\r\n     */\r\n    modifier nonReentrant() {\r\n        // On the first call to nonReentrant, _notEntered will be true\r\n        require(_status != _ENTERED, \"ReentrancyGuard: reentrant call\");\r\n\r\n        // Any calls to nonReentrant after this point will fail\r\n        _status = _ENTERED;\r\n\r\n        _;\r\n\r\n        // By storing the original value once again, a refund is triggered (see\r\n        // https://eips.ethereum.org/EIPS/eip-2200)\r\n        _status = _NOT_ENTERED;\r\n    }\r\n}\r\n\r\nlibrary SafeERC20 {\r\n    using Address for address;\r\n\r\n    function safeTransfer(\r\n        IERC20 token,\r\n        address to,\r\n        uint256 value\r\n    ) internal {\r\n        _callOptionalReturn(token, abi.encodeWithSelector(token.transfer.selector, to, value));\r\n    }\r\n\r\n    function safeTransferFrom(\r\n        IERC20 token,\r\n        address from,\r\n        address to,\r\n        uint256 value\r\n    ) internal {\r\n        _callOptionalReturn(token, abi.encodeWithSelector(token.transferFrom.selector, from, to, value));\r\n    }\r\n\r\n    /**\r\n     * @dev Deprecated. This function has issues similar to the ones found in\r\n     * {IERC20-approve}, and its usage is discouraged.\r\n     *\r\n     * Whenever possible, use {safeIncreaseAllowance} and\r\n     * {safeDecreaseAllowance} instead.\r\n     */\r\n    function safeApprove(\r\n        IERC20 token,\r\n        address spender,\r\n        uint256 value\r\n    ) internal {\r\n        // safeApprove should only be called when setting an initial allowance,\r\n        // or when resetting it to zero. To increase and decrease it, use\r\n        // 'safeIncreaseAllowance' and 'safeDecreaseAllowance'\r\n        require(\r\n            (value == 0) || (token.allowance(address(this), spender) == 0),\r\n            \"SafeERC20: approve from non-zero to non-zero allowance\"\r\n        );\r\n        _callOptionalReturn(token, abi.encodeWithSelector(token.approve.selector, spender, value));\r\n    }\r\n\r\n    function safeIncreaseAllowance(\r\n        IERC20 token,\r\n        address spender,\r\n        uint256 value\r\n    ) internal {\r\n        uint256 newAllowance = token.allowance(address(this), spender) + value;\r\n        _callOptionalReturn(token, abi.encodeWithSelector(token.approve.selector, spender, newAllowance));\r\n    }\r\n\r\n    function safeDecreaseAllowance(\r\n        IERC20 token,\r\n        address spender,\r\n        uint256 value\r\n    ) internal {\r\n        unchecked {\r\n            uint256 oldAllowance = token.allowance(address(this), spender);\r\n            require(oldAllowance >= value, \"SafeERC20: decreased allowance below zero\");\r\n            uint256 newAllowance = oldAllowance - value;\r\n            _callOptionalReturn(token, abi.encodeWithSelector(token.approve.selector, spender, newAllowance));\r\n        }\r\n    }\r\n\r\n    /**\r\n     * @dev Imitates a Solidity high-level call (i.e. a regular function call to a contract), relaxing the requirement\r\n     * on the return value: the return value is optional (but if data is returned, it must not be false).\r\n     * @param token The token targeted by the call.\r\n     * @param data The call data (encoded using abi.encode or one of its variants).\r\n     */\r\n    function _callOptionalReturn(IERC20 token, bytes memory data) private {\r\n        // We need to perform a low level call here, to bypass Solidity's return data size checking mechanism, since\r\n        // we're implementing it ourselves. We use {Address.functionCall} to perform this call, which verifies that\r\n        // the target address contains contract code and also asserts for success in the low-level call.\r\n\r\n        bytes memory returndata = address(token).functionCall(data, \"SafeERC20: low-level call failed\");\r\n        if (returndata.length > 0) {\r\n            // Return data is optional\r\n            require(abi.decode(returndata, (bool)), \"SafeERC20: ERC20 operation did not succeed\");\r\n        }\r\n    }\r\n}\r\n\r\n\r\n\r\ninterface IERC20Mintable {\r\n    function transfer(address _to, uint256 _value) external returns (bool);\r\n    function transferFrom(address _from, address _to, uint256 _value) external returns (bool);\r\n    function mint(address _to, uint256 _value) external returns (bool);\r\n    function balanceOf(address _account) external view returns (uint256);\r\n    function totalSupply() external view returns (uint256);\r\n}\r\n\r\ninterface WarbotManufacturer {\r\n    \r\n    function setApprovalForAll(address operator, bool approved) external;\r\n    function transfer(address to, uint256 tokenId) external;\r\n    function transferFrom(address from, address to, uint256 tokenId) external;\r\n    function burn(uint256 tokenId) external;\r\n    function incrementTokenId() external;\r\n    function getLastWarbotManufactured() external returns(uint256);\r\n    function mint(address to, uint256 tokenId) external;\r\n    function setTokenURIWarbotStats(uint256 tokenId, string memory _tokenURI) external;\r\n    function ownerOf(uint256 tokenId) external returns(address);\r\n}\r\n\r\n\r\ninterface NanoNFT {\r\n    \r\n    function setApprovalForAll(address operator, bool approved) external;\r\n    function transfer(address to, uint256 tokenId) external;\r\n    function transferFrom(address from, address to, uint256 tokenId) external;\r\n    function burn(uint256 tokenId) external;\r\n    function ownerOf(uint256 tokenId) external returns(address);\r\n    function  getNanoNFTCardStats ( uint256 _nftcard ) external returns( uint256, uint256, uint256, uint256, bool);\r\n    function deployNFTNanoset( uint256 _warbot, address _creator ) external;\r\n}\r\n\r\n\r\n\r\ncontract WarbotStats is Ownable {\r\n    \r\n    using SafeMath for uint256;\r\n    bytes4 ERC721_RECEIVED = 0x150b7a02;\r\n    address public burnAddress;\r\n    address public micromachines;\r\n    address public nanomachines;\r\n    address public nanonft;\r\n    address public micromachinemanufacturingplant;\r\n    uint256 public activationcost;\r\n    address public oracle;\r\n    \r\n    mapping ( uint256  => uint256 ) public WarbotLevel;\r\n    mapping ( uint256  => uint256 ) public warbotLevelCount;\r\n    mapping ( address => uint256[] ) public usersWarbots; \r\n    mapping ( uint256 => address ) public creator;\r\n    mapping ( uint256 => string  ) public  levelURI;\r\n    \r\n    mapping ( uint256 => WarBotProfile ) public WarBotProfiles;\r\n    mapping ( uint256  => uint256[] ) public Slots;\r\n    \r\n    struct WarBotProfile {\r\n           \r\n            bool requestRoll;\r\n            uint256 hitpoints;\r\n            uint256 attack;\r\n            uint256 defense;\r\n            uint256 speed;\r\n            uint256 slots;\r\n            uint256 rerollCount;\r\n            uint256 basehitpoints;\r\n            uint256 baseattack;\r\n            uint256 basedefense;\r\n            uint256 basespeed;\r\n    }\r\n    \r\n    event bindCardEvent ( uint256 indexed _warbot, uint256 indexed  _nftcard, string _message);\r\n    event warbotUpgraded ( uint256 indexed  _warbot, uint256 indexed _level );\r\n    event warbotActivated ( uint256 _warbot );\r\n    event levelStatsRerollRequested ( uint256 _warbot );\r\n    event levelStatsRolled ( uint256 _warbot );\r\n    \r\n    \r\n    \r\n    constructor() {\r\n        micromachines = 0x8Bc3EB7ded0ec83D0A8EF18D327644c04191f7DD;\r\n        nanomachines = 0x4C0AeEB37210b97956309BB4585c5433Cc015F6c;\r\n        micromachinemanufacturingplant = 0xa99D7622bB560725346007Da01284Cf3D31a479D;\r\n        levelURI[1] = '{\"attributes\": [],\"name\": \"MMWarbot\",\"description\": \"Micromachine WarBot NFT LEVEL 1\",\"image\": \"https://gateway.pinata.cloud/ipfs/ipfs://QmQp2Pfj3gRKsCCtMpFWzwJmfRyAys8SDY7srFBmfZ2W4g\"}';\r\n        activationcost = 2 * 10 **18;\r\n        burnAddress = 0x000000000000000000000000000000000000dEaD;\r\n        oracle = 0x7cE0E55703F12D03Eb53B918aD6B9EB80d188afB;\r\n    }\r\n    \r\n    function requestRoll ( uint256 _warbot ) public view returns ( bool ){\r\n        if ( WarBotProfiles[_warbot].requestRoll == true ) return true;\r\n        return false;\r\n    }\r\n    \r\n    function rerollLevelStats ( uint256 _warbot ) public {\r\n        require ( WarbotLevel [ _warbot ]  > 0,  \"Warbot not activated\");\r\n        WarbotManufacturer _micromachinemanufacturingplant = WarbotManufacturer ( micromachinemanufacturingplant );\r\n        require ( msg.sender == _micromachinemanufacturingplant.ownerOf( _warbot ) );\r\n        WarBotProfiles[_warbot].rerollCount++;\r\n        IERC20 _nano = IERC20 ( nanomachines );\r\n        _nano.transferFrom ( msg.sender, address(this ),  levelRequirement( WarBotProfiles[_warbot].rerollCount ) );\r\n        WarBotProfiles[_warbot].requestRoll = true;\r\n        emit levelStatsRerollRequested ( _warbot );\r\n    }\r\n    \r\n    function rollStats ( uint256 _warbot, uint256 _hitpoints, uint256 _attack, uint256 _defense, uint256 _speed ) public onlyOracle {\r\n        WarBotProfiles[ _warbot ].requestRoll = false;\r\n        WarBotProfiles[ _warbot ].hitpoints = WarBotProfiles[ _warbot ].basehitpoints + _hitpoints;\r\n        WarBotProfiles[ _warbot ].attack = WarBotProfiles[ _warbot ].baseattack + _attack;\r\n        WarBotProfiles[ _warbot ].defense = WarBotProfiles[ _warbot ].basedefense + _defense;\r\n        WarBotProfiles[ _warbot ].speed = WarBotProfiles[ _warbot ].basespeed + _speed;\r\n        emit levelStatsRolled ( _warbot );\r\n    }\r\n    \r\n    function bindCard ( uint256 _warbot, uint256 _nftcard ) public {\r\n        require ( WarbotLevel [ _warbot ]  > 0,  \"Warbot not activated\");\r\n        WarbotManufacturer _micromachinemanufacturingplant = WarbotManufacturer ( micromachinemanufacturingplant );\r\n        require ( msg.sender == _micromachinemanufacturingplant.ownerOf( _warbot ) );\r\n         NanoNFT _nanonft = NanoNFT ( nanonft );\r\n        _nanonft.transferFrom ( msg.sender, address(this) , _nftcard );\r\n        ( uint256 _cardtype , uint256 _bonus , , uint256 _minimumlevel , bool _bindable) = _nanonft.getNanoNFTCardStats( _nftcard );\r\n        require ( _bindable == true, \"Card is not bindable.\" );\r\n        require ( WarbotLevel[_warbot ] >= _minimumlevel, \"Warbot Level Requirement not Met.\" );\r\n        if ( _cardtype == 1 ) {  WarBotProfiles[_warbot].attack += _bonus; WarBotProfiles[_warbot].baseattack += _bonus; }\r\n        if ( _cardtype == 2 ) {  WarBotProfiles[_warbot].defense += _bonus; WarBotProfiles[_warbot].basedefense += _bonus; }\r\n        if ( _cardtype == 3 ) {  WarBotProfiles[_warbot].speed += _bonus; WarBotProfiles[_warbot].basespeed += _bonus; }\r\n        _nanonft.burn(_nftcard);\r\n        emit bindCardEvent ( _warbot , _nftcard, \"WARBOT UPGRADED WITH BINDABLE CARD\" );\r\n    }\r\n    \r\n    \r\n    \r\n    function setLevelURI ( uint256 _level, string calldata _levelURI ) public onlyOwner {\r\n        levelURI[_level] = _levelURI;\r\n    }\r\n    \r\n    function setMicromachines( address _address ) public onlyOwner {\r\n        micromachines = _address;\r\n    }\r\n    \r\n    function setNanomachines( address _address ) public onlyOwner {\r\n        nanomachines = _address;\r\n    }\r\n    \r\n     function setNanoNFT( address _address ) public onlyOwner {\r\n        nanonft = _address;\r\n    }\r\n    \r\n    function setMicromachinesManufacturingplant( address _address ) public onlyOwner {\r\n        micromachinemanufacturingplant = _address;\r\n    }\r\n    \r\n    function levelRequirement ( uint256 _level ) public  returns (uint256 ){\r\n        IERC20 _nano = IERC20 ( nanomachines );\r\n        return  (  _level * _level ) * 10 ** _nano.decimals();\r\n    }\r\n    \r\n    /*\r\n    function initializeWarbot ( uint256 _warbot, address _creator ) public onlyWarbotManufacturer {\r\n        WarbotLevel[_warbot] = 1;\r\n        warbotLevelCount[1]++;\r\n        creator[ _warbot ] = _creator;\r\n    }\r\n    */\r\n    function activateWarbot ( uint256 _warbot ) public {\r\n        WarbotManufacturer _micromachinemanufacturingplant = WarbotManufacturer ( micromachinemanufacturingplant );\r\n        require ( msg.sender == _micromachinemanufacturingplant.ownerOf( _warbot ) );\r\n        require ( WarbotLevel [ _warbot ]  == 0,  \"Warbot already activated\");\r\n        IERC20 _nanomachines = IERC20 ( nanomachines );\r\n        _nanomachines.transferFrom ( msg.sender , address(this), activationcost );\r\n        WarBotProfiles[_warbot].slots = 2;\r\n        WarBotProfiles[_warbot].requestRoll = true;\r\n        \r\n        _nanomachines.transfer ( burnAddress, activationcost );\r\n        \r\n        WarbotLevel[_warbot] = 1;\r\n        warbotLevelCount[1]++;\r\n        creator[ _warbot ] = msg.sender;\r\n        NanoNFT _nanonft = NanoNFT ( nanonft );\r\n        _nanonft.deployNFTNanoset(  _warbot, creator[ _warbot ] );\r\n        \r\n        emit warbotActivated ( _warbot );\r\n        \r\n    }\r\n    /*\r\n    function upgradeWarbot ( uint256 _warbot1, uint256 _warbot2  ) public {\r\n        require ( WarbotLevel [ _warbot1 ] == WarbotLevel [ _warbot2 ]  );\r\n        uint256 _level = WarbotLevel [ _warbot1 ] + 1;\r\n        \r\n        \r\n        IERC20 _nano = IERC20 ( nanomachines );\r\n        _nano.transferFrom ( msg.sender, address(this ), levelRequirement(_level) );\r\n       \r\n        ERC721 _micromachinemanufacturingplant = ERC721 ( micromachinemanufacturingplant );\r\n        _micromachinemanufacturingplant.transferFrom ( msg.sender, address(this) , _warbot1 );\r\n        _micromachinemanufacturingplant.transferFrom ( msg.sender, address(this) , _warbot2 );\r\n          \r\n        _micromachinemanufacturingplant.burn(_warbot1);\r\n        _micromachinemanufacturingplant.burn(_warbot2);\r\n        \r\n        WarbotLevel[_warbot1] = 0;\r\n        WarbotLevel[_warbot2] = 0;\r\n        warbotLevelCount[_level.sub(1)]--;\r\n        warbotLevelCount[_level.sub(1)]--;\r\n        warbotLevelCount[_level]++;\r\n        _micromachinemanufacturingplant.incrementTokenId();\r\n        uint256 newTokenId = _micromachinemanufacturingplant.getLastWarbotManufactured();\r\n        _micromachinemanufacturingplant.mint( msg.sender , newTokenId);\r\n        _micromachinemanufacturingplant.setTokenURIWarbotStats(newTokenId, _tokenURI);\r\n        WarbotLevel[newTokenId] = _level;\r\n        creator[newTokenId] = msg.sender;\r\n        \r\n       \r\n        \r\n        \r\n    }\r\n    */\r\n    \r\n    function upgradeWarbot ( uint256 _warbot1, uint256 _warbot2  ) public {\r\n        require ( WarbotLevel [ _warbot1 ] == WarbotLevel [ _warbot2 ]  );\r\n        require ( WarbotLevel [ _warbot1 ]  > 0,  \"Warbot not activated\");\r\n        uint256 _level = WarbotLevel [ _warbot1 ];\r\n        uint256 _levelto = WarbotLevel [ _warbot1 ] + 1;\r\n        \r\n        IERC20 _nano = IERC20 ( nanomachines );\r\n        _nano.transferFrom ( msg.sender, address(this ), levelRequirement(_level) );\r\n       \r\n        WarbotManufacturer _micromachinemanufacturingplant = WarbotManufacturer ( micromachinemanufacturingplant );\r\n        _micromachinemanufacturingplant.transferFrom ( msg.sender, address(this) , _warbot2 );\r\n        _micromachinemanufacturingplant.burn(_warbot2);\r\n        \r\n        WarbotLevel[_warbot1] = _levelto;\r\n        WarbotLevel[_warbot2] = 0;\r\n        warbotLevelCount[_level]--;\r\n        warbotLevelCount[_level]--;\r\n        warbotLevelCount[_level]++;\r\n        WarBotProfiles[_warbot1].requestRoll = true;\r\n        \r\n        WarBotProfiles[_warbot1].basehitpoints = WarBotProfiles[ _warbot1 ].hitpoints;\r\n        WarBotProfiles[_warbot1].basedefense = WarBotProfiles[ _warbot1 ].defense;\r\n        WarBotProfiles[_warbot1].basespeed = WarBotProfiles[ _warbot1 ].speed;\r\n        \r\n        _micromachinemanufacturingplant.setTokenURIWarbotStats(_warbot1, levelURI[_levelto]);\r\n        \r\n        emit warbotUpgraded ( _warbot1, _levelto );\r\n    }\r\n    \r\n    \r\n    \r\n    \r\n    function onERC721Received( address _operator, address _from, uint256 _tokenId, bytes memory _data) public view returns(bytes4){\r\n        _operator; _from; _tokenId; _data; \r\n        return ERC721_RECEIVED;\r\n    }\r\n    \r\n    modifier onlyOracle() {\r\n        require( msg.sender == oracle, \"Oracle Only\");\r\n        _;\r\n    }\r\n    \r\n    \r\n    modifier onlyWarbotManufacturer() {\r\n        require( msg.sender == micromachinemanufacturingplant, \"WarbotManufacturer Only\");\r\n        _;\r\n    }\r\n    \r\n}",
  "sourcePath": "C:/warbots/warbots/contracts/warbotstats.sol",
  "compiler": {
    "name": "solc",
    "version": "0.8.6+commit.11564f7e.Emscripten.clang"
  },
  "schemaVersion": "3.4.1",
  "updatedAt": "2021-07-11T20:22:47.282Z",
  "devdoc": {
    "kind": "dev",
    "methods": {
      "owner()": {
        "details": "Returns the address of the current owner."
      },
      "renounceOwnership()": {
        "details": "Leaves the contract without owner. It will not be possible to call `onlyOwner` functions anymore. Can only be called by the current owner. NOTE: Renouncing ownership will leave the contract without an owner, thereby removing any functionality that is only available to the owner."
      },
      "transferOwnership(address)": {
        "details": "Transfers ownership of the contract to a new account (`newOwner`). Can only be called by the current owner."
      }
    },
    "version": 1
  },
  "userdoc": {
    "kind": "user",
    "methods": {},
    "version": 1
  }
}