{
  "contractName": "WarBotStatsData",
  "abi": [
    {
      "inputs": [],
      "stateMutability": "nonpayable",
      "type": "constructor"
    },
    {
      "anonymous": false,
      "inputs": [
        {
          "indexed": true,
          "internalType": "address",
          "name": "previousOwner",
          "type": "address"
        },
        {
          "indexed": true,
          "internalType": "address",
          "name": "newOwner",
          "type": "address"
        }
      ],
      "name": "OwnershipTransferred",
      "type": "event"
    },
    {
      "anonymous": false,
      "inputs": [
        {
          "indexed": false,
          "internalType": "uint256",
          "name": "_warbot",
          "type": "uint256"
        },
        {
          "indexed": false,
          "internalType": "uint256",
          "name": "_damage",
          "type": "uint256"
        }
      ],
      "name": "WarbotAttackDamaged",
      "type": "event"
    },
    {
      "anonymous": false,
      "inputs": [
        {
          "indexed": false,
          "internalType": "uint256",
          "name": "_warbot",
          "type": "uint256"
        },
        {
          "indexed": false,
          "internalType": "uint256",
          "name": "_damage",
          "type": "uint256"
        }
      ],
      "name": "WarbotAttackRepaired",
      "type": "event"
    },
    {
      "anonymous": false,
      "inputs": [
        {
          "indexed": false,
          "internalType": "uint256",
          "name": "_warbot",
          "type": "uint256"
        },
        {
          "indexed": false,
          "internalType": "uint256",
          "name": "_damage",
          "type": "uint256"
        }
      ],
      "name": "WarbotDamaged",
      "type": "event"
    },
    {
      "anonymous": false,
      "inputs": [
        {
          "indexed": false,
          "internalType": "uint256",
          "name": "_warbot",
          "type": "uint256"
        },
        {
          "indexed": false,
          "internalType": "uint256",
          "name": "_damage",
          "type": "uint256"
        }
      ],
      "name": "WarbotDefenseDamaged",
      "type": "event"
    },
    {
      "anonymous": false,
      "inputs": [
        {
          "indexed": false,
          "internalType": "uint256",
          "name": "_warbot",
          "type": "uint256"
        },
        {
          "indexed": false,
          "internalType": "uint256",
          "name": "_damage",
          "type": "uint256"
        }
      ],
      "name": "WarbotDefenseRepaired",
      "type": "event"
    },
    {
      "anonymous": false,
      "inputs": [
        {
          "indexed": false,
          "internalType": "uint256",
          "name": "_warbot",
          "type": "uint256"
        },
        {
          "indexed": false,
          "internalType": "uint256",
          "name": "_repair",
          "type": "uint256"
        }
      ],
      "name": "WarbotRepaired",
      "type": "event"
    },
    {
      "anonymous": false,
      "inputs": [
        {
          "indexed": false,
          "internalType": "uint256",
          "name": "_warbot",
          "type": "uint256"
        },
        {
          "indexed": false,
          "internalType": "uint256",
          "name": "_damage",
          "type": "uint256"
        }
      ],
      "name": "WarbotSpeedDamaged",
      "type": "event"
    },
    {
      "anonymous": false,
      "inputs": [
        {
          "indexed": false,
          "internalType": "uint256",
          "name": "_warbot",
          "type": "uint256"
        },
        {
          "indexed": false,
          "internalType": "uint256",
          "name": "_damage",
          "type": "uint256"
        }
      ],
      "name": "WarbotSpeedRepaired",
      "type": "event"
    },
    {
      "anonymous": false,
      "inputs": [
        {
          "indexed": false,
          "internalType": "uint256",
          "name": "_warbot",
          "type": "uint256"
        }
      ],
      "name": "levelStatsRerollRequested",
      "type": "event"
    },
    {
      "anonymous": false,
      "inputs": [
        {
          "indexed": false,
          "internalType": "uint256",
          "name": "_warbot",
          "type": "uint256"
        }
      ],
      "name": "levelStatsRolled",
      "type": "event"
    },
    {
      "anonymous": false,
      "inputs": [
        {
          "indexed": false,
          "internalType": "uint256",
          "name": "_warbot",
          "type": "uint256"
        },
        {
          "indexed": false,
          "internalType": "uint256",
          "name": "_level",
          "type": "uint256"
        }
      ],
      "name": "warbotUpgraded",
      "type": "event"
    },
    {
      "inputs": [
        {
          "internalType": "uint256",
          "name": "",
          "type": "uint256"
        }
      ],
      "name": "EngineContracts",
      "outputs": [
        {
          "internalType": "address",
          "name": "",
          "type": "address"
        }
      ],
      "stateMutability": "view",
      "type": "function"
    },
    {
      "inputs": [
        {
          "internalType": "uint256",
          "name": "",
          "type": "uint256"
        }
      ],
      "name": "RequestReroll",
      "outputs": [
        {
          "internalType": "bool",
          "name": "",
          "type": "bool"
        }
      ],
      "stateMutability": "view",
      "type": "function"
    },
    {
      "inputs": [
        {
          "internalType": "uint256",
          "name": "",
          "type": "uint256"
        }
      ],
      "name": "WarBotCurrentStats",
      "outputs": [
        {
          "internalType": "bool",
          "name": "_levelinit",
          "type": "bool"
        },
        {
          "internalType": "uint256",
          "name": "_warbothitpoints",
          "type": "uint256"
        },
        {
          "internalType": "uint256",
          "name": "_warbotattack",
          "type": "uint256"
        },
        {
          "internalType": "uint256",
          "name": "_warbotdefense",
          "type": "uint256"
        },
        {
          "internalType": "uint256",
          "name": "_warbotspeed",
          "type": "uint256"
        },
        {
          "internalType": "uint8",
          "name": "_movement",
          "type": "uint8"
        }
      ],
      "stateMutability": "view",
      "type": "function"
    },
    {
      "inputs": [
        {
          "internalType": "uint256",
          "name": "",
          "type": "uint256"
        }
      ],
      "name": "WarBotProfiles",
      "outputs": [
        {
          "internalType": "address",
          "name": "creator",
          "type": "address"
        },
        {
          "internalType": "uint256",
          "name": "hitpoints",
          "type": "uint256"
        },
        {
          "internalType": "uint256",
          "name": "attack",
          "type": "uint256"
        },
        {
          "internalType": "uint256",
          "name": "defense",
          "type": "uint256"
        },
        {
          "internalType": "uint256",
          "name": "speed",
          "type": "uint256"
        },
        {
          "internalType": "uint256",
          "name": "slots",
          "type": "uint256"
        },
        {
          "internalType": "uint256",
          "name": "rerollCount",
          "type": "uint256"
        },
        {
          "internalType": "uint256",
          "name": "basehitpoints",
          "type": "uint256"
        },
        {
          "internalType": "uint256",
          "name": "baseattack",
          "type": "uint256"
        },
        {
          "internalType": "uint256",
          "name": "basedefense",
          "type": "uint256"
        },
        {
          "internalType": "uint256",
          "name": "basespeed",
          "type": "uint256"
        },
        {
          "internalType": "uint8",
          "name": "movement",
          "type": "uint8"
        }
      ],
      "stateMutability": "view",
      "type": "function"
    },
    {
      "inputs": [
        {
          "internalType": "uint256",
          "name": "",
          "type": "uint256"
        }
      ],
      "name": "WarbotHandOff",
      "outputs": [
        {
          "internalType": "address",
          "name": "",
          "type": "address"
        }
      ],
      "stateMutability": "view",
      "type": "function"
    },
    {
      "inputs": [
        {
          "internalType": "uint256",
          "name": "",
          "type": "uint256"
        }
      ],
      "name": "WarbotLevel",
      "outputs": [
        {
          "internalType": "uint256",
          "name": "",
          "type": "uint256"
        }
      ],
      "stateMutability": "view",
      "type": "function"
    },
    {
      "inputs": [
        {
          "internalType": "uint256",
          "name": "",
          "type": "uint256"
        }
      ],
      "name": "WarbotType",
      "outputs": [
        {
          "internalType": "uint8",
          "name": "",
          "type": "uint8"
        }
      ],
      "stateMutability": "view",
      "type": "function"
    },
    {
      "inputs": [
        {
          "internalType": "uint256",
          "name": "",
          "type": "uint256"
        }
      ],
      "name": "WarbotXP",
      "outputs": [
        {
          "internalType": "uint256",
          "name": "",
          "type": "uint256"
        }
      ],
      "stateMutability": "view",
      "type": "function"
    },
    {
      "inputs": [],
      "name": "geUnlockTime",
      "outputs": [
        {
          "internalType": "uint256",
          "name": "",
          "type": "uint256"
        }
      ],
      "stateMutability": "view",
      "type": "function"
    },
    {
      "inputs": [
        {
          "internalType": "uint256",
          "name": "",
          "type": "uint256"
        }
      ],
      "name": "lastWarAt",
      "outputs": [
        {
          "internalType": "uint256",
          "name": "",
          "type": "uint256"
        }
      ],
      "stateMutability": "view",
      "type": "function"
    },
    {
      "inputs": [
        {
          "internalType": "uint256",
          "name": "time",
          "type": "uint256"
        }
      ],
      "name": "lock",
      "outputs": [],
      "stateMutability": "nonpayable",
      "type": "function"
    },
    {
      "inputs": [],
      "name": "oracle",
      "outputs": [
        {
          "internalType": "address",
          "name": "",
          "type": "address"
        }
      ],
      "stateMutability": "view",
      "type": "function"
    },
    {
      "inputs": [],
      "name": "owner",
      "outputs": [
        {
          "internalType": "address",
          "name": "",
          "type": "address"
        }
      ],
      "stateMutability": "view",
      "type": "function"
    },
    {
      "inputs": [],
      "name": "renounceOwnership",
      "outputs": [],
      "stateMutability": "nonpayable",
      "type": "function"
    },
    {
      "inputs": [
        {
          "internalType": "address",
          "name": "newOwner",
          "type": "address"
        }
      ],
      "name": "transferOwnership",
      "outputs": [],
      "stateMutability": "nonpayable",
      "type": "function"
    },
    {
      "inputs": [],
      "name": "unlock",
      "outputs": [],
      "stateMutability": "nonpayable",
      "type": "function"
    },
    {
      "inputs": [
        {
          "internalType": "uint256",
          "name": "",
          "type": "uint256"
        }
      ],
      "name": "warbotLevelCount",
      "outputs": [
        {
          "internalType": "uint256",
          "name": "",
          "type": "uint256"
        }
      ],
      "stateMutability": "view",
      "type": "function"
    },
    {
      "inputs": [
        {
          "internalType": "uint256",
          "name": "",
          "type": "uint256"
        }
      ],
      "name": "warbotLosses",
      "outputs": [
        {
          "internalType": "uint256",
          "name": "",
          "type": "uint256"
        }
      ],
      "stateMutability": "view",
      "type": "function"
    },
    {
      "inputs": [
        {
          "internalType": "uint256",
          "name": "",
          "type": "uint256"
        }
      ],
      "name": "warbotWins",
      "outputs": [
        {
          "internalType": "uint256",
          "name": "",
          "type": "uint256"
        }
      ],
      "stateMutability": "view",
      "type": "function"
    },
    {
      "inputs": [
        {
          "internalType": "uint256",
          "name": "_warbot",
          "type": "uint256"
        },
        {
          "internalType": "uint256[]",
          "name": "_xyz",
          "type": "uint256[]"
        }
      ],
      "name": "setWarBotGlobalXYZ",
      "outputs": [],
      "stateMutability": "nonpayable",
      "type": "function"
    },
    {
      "inputs": [
        {
          "internalType": "uint256",
          "name": "_warbot",
          "type": "uint256"
        }
      ],
      "name": "getWarBotGlobalXYZ",
      "outputs": [
        {
          "internalType": "uint256[]",
          "name": "",
          "type": "uint256[]"
        }
      ],
      "stateMutability": "view",
      "type": "function"
    },
    {
      "inputs": [
        {
          "internalType": "uint256",
          "name": "_warbot",
          "type": "uint256"
        }
      ],
      "name": "setWarBotWins",
      "outputs": [],
      "stateMutability": "nonpayable",
      "type": "function"
    },
    {
      "inputs": [
        {
          "internalType": "uint256",
          "name": "_warbot",
          "type": "uint256"
        }
      ],
      "name": "setWarBotLosses",
      "outputs": [],
      "stateMutability": "nonpayable",
      "type": "function"
    },
    {
      "inputs": [
        {
          "internalType": "uint256",
          "name": "_warbot",
          "type": "uint256"
        }
      ],
      "name": "incrementWarbotRerollCount",
      "outputs": [],
      "stateMutability": "nonpayable",
      "type": "function"
    },
    {
      "inputs": [
        {
          "internalType": "uint256",
          "name": "_warbot",
          "type": "uint256"
        }
      ],
      "name": "getRerollCount",
      "outputs": [
        {
          "internalType": "uint256",
          "name": "",
          "type": "uint256"
        }
      ],
      "stateMutability": "view",
      "type": "function"
    },
    {
      "inputs": [
        {
          "internalType": "uint256",
          "name": "_warbot",
          "type": "uint256"
        },
        {
          "internalType": "uint256",
          "name": "_xp",
          "type": "uint256"
        }
      ],
      "name": "incrementWarbotXP",
      "outputs": [],
      "stateMutability": "nonpayable",
      "type": "function"
    },
    {
      "inputs": [],
      "name": "getOracle",
      "outputs": [
        {
          "internalType": "address",
          "name": "",
          "type": "address"
        }
      ],
      "stateMutability": "view",
      "type": "function"
    },
    {
      "inputs": [
        {
          "internalType": "uint256",
          "name": "_warbot",
          "type": "uint256"
        }
      ],
      "name": "getWarBotLevel",
      "outputs": [
        {
          "internalType": "uint256",
          "name": "",
          "type": "uint256"
        }
      ],
      "stateMutability": "view",
      "type": "function"
    },
    {
      "inputs": [
        {
          "internalType": "uint256",
          "name": "_warbot",
          "type": "uint256"
        },
        {
          "internalType": "uint256",
          "name": "_warbothitpoints",
          "type": "uint256"
        },
        {
          "internalType": "uint256",
          "name": "_warbotattack",
          "type": "uint256"
        },
        {
          "internalType": "uint256",
          "name": "_warbotdefense",
          "type": "uint256"
        },
        {
          "internalType": "uint256",
          "name": "_warbotspeed",
          "type": "uint256"
        },
        {
          "internalType": "uint256[]",
          "name": "_xyz",
          "type": "uint256[]"
        },
        {
          "internalType": "uint256[]",
          "name": "_specialeffect",
          "type": "uint256[]"
        },
        {
          "internalType": "uint256[]",
          "name": "_specialduration",
          "type": "uint256[]"
        },
        {
          "internalType": "uint8[]",
          "name": "_nftslots",
          "type": "uint8[]"
        }
      ],
      "name": "setWarBotCurrentStats",
      "outputs": [],
      "stateMutability": "nonpayable",
      "type": "function"
    },
    {
      "inputs": [
        {
          "internalType": "uint256",
          "name": "_warbot",
          "type": "uint256"
        }
      ],
      "name": "getWarbotProfile",
      "outputs": [
        {
          "components": [
            {
              "internalType": "address",
              "name": "creator",
              "type": "address"
            },
            {
              "internalType": "uint256",
              "name": "hitpoints",
              "type": "uint256"
            },
            {
              "internalType": "uint256",
              "name": "attack",
              "type": "uint256"
            },
            {
              "internalType": "uint256",
              "name": "defense",
              "type": "uint256"
            },
            {
              "internalType": "uint256",
              "name": "speed",
              "type": "uint256"
            },
            {
              "internalType": "uint256",
              "name": "slots",
              "type": "uint256"
            },
            {
              "internalType": "uint256",
              "name": "rerollCount",
              "type": "uint256"
            },
            {
              "internalType": "uint256",
              "name": "basehitpoints",
              "type": "uint256"
            },
            {
              "internalType": "uint256",
              "name": "baseattack",
              "type": "uint256"
            },
            {
              "internalType": "uint256",
              "name": "basedefense",
              "type": "uint256"
            },
            {
              "internalType": "uint256",
              "name": "basespeed",
              "type": "uint256"
            },
            {
              "internalType": "uint256[]",
              "name": "globalXYZ",
              "type": "uint256[]"
            },
            {
              "internalType": "uint8",
              "name": "movement",
              "type": "uint8"
            }
          ],
          "internalType": "struct WarBotStatsData.WarBotProfile",
          "name": "",
          "type": "tuple"
        }
      ],
      "stateMutability": "view",
      "type": "function"
    },
    {
      "inputs": [
        {
          "internalType": "uint256",
          "name": "_warbot",
          "type": "uint256"
        }
      ],
      "name": "getWarbotCurrentStats",
      "outputs": [
        {
          "components": [
            {
              "internalType": "bool",
              "name": "_levelinit",
              "type": "bool"
            },
            {
              "internalType": "uint256",
              "name": "_warbothitpoints",
              "type": "uint256"
            },
            {
              "internalType": "uint256",
              "name": "_warbotattack",
              "type": "uint256"
            },
            {
              "internalType": "uint256",
              "name": "_warbotdefense",
              "type": "uint256"
            },
            {
              "internalType": "uint256",
              "name": "_warbotspeed",
              "type": "uint256"
            },
            {
              "internalType": "uint256[]",
              "name": "_xyz",
              "type": "uint256[]"
            },
            {
              "internalType": "uint256[]",
              "name": "_specialeffect",
              "type": "uint256[]"
            },
            {
              "internalType": "uint256[]",
              "name": "_specialduration",
              "type": "uint256[]"
            },
            {
              "internalType": "uint8[]",
              "name": "_nftslots",
              "type": "uint8[]"
            },
            {
              "internalType": "uint8",
              "name": "_movement",
              "type": "uint8"
            }
          ],
          "internalType": "struct WarBotStatsData.WarBotCurrentStat",
          "name": "",
          "type": "tuple"
        }
      ],
      "stateMutability": "view",
      "type": "function"
    },
    {
      "inputs": [
        {
          "internalType": "uint256",
          "name": "_warbot",
          "type": "uint256"
        }
      ],
      "name": "getWarbotCurrentMovement",
      "outputs": [
        {
          "internalType": "uint8",
          "name": "",
          "type": "uint8"
        }
      ],
      "stateMutability": "view",
      "type": "function"
    },
    {
      "inputs": [
        {
          "internalType": "uint256",
          "name": "_warbot",
          "type": "uint256"
        }
      ],
      "name": "getWarbotCurrentAttack",
      "outputs": [
        {
          "internalType": "uint256",
          "name": "",
          "type": "uint256"
        }
      ],
      "stateMutability": "view",
      "type": "function"
    },
    {
      "inputs": [
        {
          "internalType": "uint256",
          "name": "_warbot",
          "type": "uint256"
        }
      ],
      "name": "getWarbotCurrentDefense",
      "outputs": [
        {
          "internalType": "uint256",
          "name": "",
          "type": "uint256"
        }
      ],
      "stateMutability": "view",
      "type": "function"
    },
    {
      "inputs": [
        {
          "internalType": "uint256",
          "name": "_warbot",
          "type": "uint256"
        }
      ],
      "name": "getWarbotCurrentSpeed",
      "outputs": [
        {
          "internalType": "uint256",
          "name": "",
          "type": "uint256"
        }
      ],
      "stateMutability": "view",
      "type": "function"
    },
    {
      "inputs": [
        {
          "internalType": "uint256",
          "name": "_warbot",
          "type": "uint256"
        },
        {
          "internalType": "uint8",
          "name": "_type",
          "type": "uint8"
        }
      ],
      "name": "setWarbotType",
      "outputs": [],
      "stateMutability": "nonpayable",
      "type": "function"
    },
    {
      "inputs": [
        {
          "internalType": "uint256",
          "name": "_warbot",
          "type": "uint256"
        },
        {
          "internalType": "uint256",
          "name": "_hitpoints",
          "type": "uint256"
        },
        {
          "internalType": "uint256",
          "name": "_attack",
          "type": "uint256"
        },
        {
          "internalType": "uint256",
          "name": "_defense",
          "type": "uint256"
        },
        {
          "internalType": "uint256",
          "name": "_speed",
          "type": "uint256"
        },
        {
          "internalType": "uint8",
          "name": "_type",
          "type": "uint8"
        },
        {
          "internalType": "uint8",
          "name": "_movement",
          "type": "uint8"
        }
      ],
      "name": "rollStats",
      "outputs": [],
      "stateMutability": "nonpayable",
      "type": "function"
    },
    {
      "inputs": [
        {
          "internalType": "uint256",
          "name": "_warbot",
          "type": "uint256"
        }
      ],
      "name": "requestRerollOfStats",
      "outputs": [],
      "stateMutability": "nonpayable",
      "type": "function"
    },
    {
      "inputs": [
        {
          "internalType": "uint256",
          "name": "_warbot",
          "type": "uint256"
        },
        {
          "internalType": "uint8",
          "name": "_slots",
          "type": "uint8"
        }
      ],
      "name": "setSlots",
      "outputs": [],
      "stateMutability": "nonpayable",
      "type": "function"
    },
    {
      "inputs": [
        {
          "internalType": "uint256",
          "name": "_warbot",
          "type": "uint256"
        },
        {
          "internalType": "address",
          "name": "_creator",
          "type": "address"
        }
      ],
      "name": "setCreator",
      "outputs": [],
      "stateMutability": "nonpayable",
      "type": "function"
    },
    {
      "inputs": [
        {
          "internalType": "uint256",
          "name": "_warbot",
          "type": "uint256"
        }
      ],
      "name": "getCreator",
      "outputs": [
        {
          "internalType": "address",
          "name": "",
          "type": "address"
        }
      ],
      "stateMutability": "view",
      "type": "function"
    },
    {
      "inputs": [
        {
          "internalType": "uint256",
          "name": "_warbot",
          "type": "uint256"
        }
      ],
      "name": "zeroWarbotLevel",
      "outputs": [],
      "stateMutability": "nonpayable",
      "type": "function"
    },
    {
      "inputs": [
        {
          "internalType": "uint256",
          "name": "_warbot",
          "type": "uint256"
        }
      ],
      "name": "incrementWarbotLevel",
      "outputs": [],
      "stateMutability": "nonpayable",
      "type": "function"
    },
    {
      "inputs": [
        {
          "internalType": "uint256",
          "name": "_warbot",
          "type": "uint256"
        }
      ],
      "name": "incrementReroll",
      "outputs": [],
      "stateMutability": "nonpayable",
      "type": "function"
    },
    {
      "inputs": [
        {
          "internalType": "uint256",
          "name": "_warbot",
          "type": "uint256"
        }
      ],
      "name": "getCurrentRerollCount",
      "outputs": [
        {
          "internalType": "uint256",
          "name": "",
          "type": "uint256"
        }
      ],
      "stateMutability": "view",
      "type": "function"
    },
    {
      "inputs": [
        {
          "internalType": "uint256",
          "name": "_warbot",
          "type": "uint256"
        },
        {
          "internalType": "uint256",
          "name": "_warbothitpoints",
          "type": "uint256"
        }
      ],
      "name": "setCurrentHitPoint",
      "outputs": [],
      "stateMutability": "nonpayable",
      "type": "function"
    },
    {
      "inputs": [
        {
          "internalType": "uint256",
          "name": "_warbot",
          "type": "uint256"
        }
      ],
      "name": "getCurrentHitPoint",
      "outputs": [
        {
          "internalType": "uint256",
          "name": "",
          "type": "uint256"
        }
      ],
      "stateMutability": "view",
      "type": "function"
    },
    {
      "inputs": [
        {
          "internalType": "uint256",
          "name": "_warbot",
          "type": "uint256"
        },
        {
          "internalType": "uint256",
          "name": "_damage",
          "type": "uint256"
        }
      ],
      "name": "damageWarbot",
      "outputs": [],
      "stateMutability": "nonpayable",
      "type": "function"
    },
    {
      "inputs": [
        {
          "internalType": "uint256",
          "name": "_warbot",
          "type": "uint256"
        },
        {
          "internalType": "uint256",
          "name": "_repair",
          "type": "uint256"
        }
      ],
      "name": "repairWarbot",
      "outputs": [],
      "stateMutability": "nonpayable",
      "type": "function"
    },
    {
      "inputs": [
        {
          "internalType": "uint256",
          "name": "_warbot",
          "type": "uint256"
        },
        {
          "internalType": "uint256",
          "name": "_warbothitpoints",
          "type": "uint256"
        },
        {
          "internalType": "uint256",
          "name": "_warbotattack",
          "type": "uint256"
        },
        {
          "internalType": "uint256",
          "name": "_warbotdefense",
          "type": "uint256"
        },
        {
          "internalType": "uint256",
          "name": "_warbotspeed",
          "type": "uint256"
        },
        {
          "internalType": "uint8",
          "name": "_movement",
          "type": "uint8"
        }
      ],
      "name": "repairWarbot",
      "outputs": [],
      "stateMutability": "nonpayable",
      "type": "function"
    },
    {
      "inputs": [
        {
          "internalType": "uint256",
          "name": "_warbot",
          "type": "uint256"
        },
        {
          "internalType": "uint256",
          "name": "_damage",
          "type": "uint256"
        }
      ],
      "name": "damageWarbotDefense",
      "outputs": [],
      "stateMutability": "nonpayable",
      "type": "function"
    },
    {
      "inputs": [
        {
          "internalType": "uint256",
          "name": "_warbot",
          "type": "uint256"
        },
        {
          "internalType": "uint256",
          "name": "_repair",
          "type": "uint256"
        }
      ],
      "name": "repairWarbotDefense",
      "outputs": [],
      "stateMutability": "nonpayable",
      "type": "function"
    },
    {
      "inputs": [
        {
          "internalType": "uint256",
          "name": "_warbot",
          "type": "uint256"
        },
        {
          "internalType": "uint256",
          "name": "_damage",
          "type": "uint256"
        }
      ],
      "name": "damageWarbotAttack",
      "outputs": [],
      "stateMutability": "nonpayable",
      "type": "function"
    },
    {
      "inputs": [
        {
          "internalType": "uint256",
          "name": "_warbot",
          "type": "uint256"
        },
        {
          "internalType": "uint256",
          "name": "_repair",
          "type": "uint256"
        }
      ],
      "name": "repairWarbotAttack",
      "outputs": [],
      "stateMutability": "nonpayable",
      "type": "function"
    },
    {
      "inputs": [
        {
          "internalType": "uint256",
          "name": "_warbot",
          "type": "uint256"
        },
        {
          "internalType": "uint256",
          "name": "_damage",
          "type": "uint256"
        }
      ],
      "name": "damageWarbotSpeed",
      "outputs": [],
      "stateMutability": "nonpayable",
      "type": "function"
    },
    {
      "inputs": [
        {
          "internalType": "uint256",
          "name": "_warbot",
          "type": "uint256"
        },
        {
          "internalType": "uint256",
          "name": "_repair",
          "type": "uint256"
        }
      ],
      "name": "repairWarbotSpeed",
      "outputs": [],
      "stateMutability": "nonpayable",
      "type": "function"
    },
    {
      "inputs": [
        {
          "internalType": "uint256",
          "name": "_warbot",
          "type": "uint256"
        },
        {
          "internalType": "uint8",
          "name": "_damage",
          "type": "uint8"
        }
      ],
      "name": "damageWarbotMovement",
      "outputs": [],
      "stateMutability": "nonpayable",
      "type": "function"
    },
    {
      "inputs": [
        {
          "internalType": "uint256",
          "name": "_warbot",
          "type": "uint256"
        },
        {
          "internalType": "uint8",
          "name": "_repair",
          "type": "uint8"
        }
      ],
      "name": "repairWarbotMovement",
      "outputs": [],
      "stateMutability": "nonpayable",
      "type": "function"
    },
    {
      "inputs": [
        {
          "internalType": "uint256",
          "name": "_warbot",
          "type": "uint256"
        },
        {
          "internalType": "uint8",
          "name": "_cardtype",
          "type": "uint8"
        },
        {
          "internalType": "uint8",
          "name": "_bonus",
          "type": "uint8"
        }
      ],
      "name": "bindCardtoWarbot",
      "outputs": [],
      "stateMutability": "nonpayable",
      "type": "function"
    },
    {
      "inputs": [
        {
          "internalType": "uint256",
          "name": "_warbot",
          "type": "uint256"
        }
      ],
      "name": "setWarbotHandoff",
      "outputs": [],
      "stateMutability": "nonpayable",
      "type": "function"
    },
    {
      "inputs": [
        {
          "internalType": "uint256",
          "name": "_warbot",
          "type": "uint256"
        },
        {
          "internalType": "address",
          "name": "_contract",
          "type": "address"
        }
      ],
      "name": "setWarbotHandoff",
      "outputs": [],
      "stateMutability": "nonpayable",
      "type": "function"
    },
    {
      "inputs": [
        {
          "internalType": "address[]",
          "name": "_addresses",
          "type": "address[]"
        }
      ],
      "name": "setEngineContracts",
      "outputs": [],
      "stateMutability": "nonpayable",
      "type": "function"
    },
    {
      "inputs": [
        {
          "internalType": "address",
          "name": "_address",
          "type": "address"
        }
      ],
      "name": "setOracle",
      "outputs": [],
      "stateMutability": "nonpayable",
      "type": "function"
    }
  ],
  "bytecode": "0x608060405234801561001057600080fd5b50600080546001600160a01b031916339081178255604051909182917f8be0079c531659141344cd1fd0a4f28419497f9722a3daafe3b4186f6b6457e0908290a350600d80546001600160a01b031916737ce0e55703f12d03eb53b918ad6b9eb80d188afb179055612d9f806100876000396000f3fe608060405234801561001057600080fd5b50600436106103c55760003560e01c80638fc73fb5116101ff578063bfd7768a1161011a578063de0e7f2f116100ad578063f28156f71161007c578063f28156f714610b35578063f2fde38b14610b48578063f416da6514610b5b578063fb121b1e14610b6e57600080fd5b8063de0e7f2f14610aa8578063df36182814610ac8578063e323185714610aeb578063e6239a3514610b1557600080fd5b8063cab4d3d8116100e9578063cab4d3d814610a46578063d48e638a14610a59578063dcf9da8514610a82578063dd46706414610a9557600080fd5b8063bfd7768a146109ea578063c38d0a8914610a0d578063c606bed514610a20578063c6291ae414610a3357600080fd5b8063a49f8e7411610192578063aa4456ec11610161578063aa4456ec14610999578063b6c52324146109ac578063bd0e3056146109b4578063bf3b7bf4146109c757600080fd5b8063a49f8e7414610958578063a69df4b51461096b578063a7a3556a14610973578063a90b4eff1461098657600080fd5b80639905f292116101ce5780639905f292146108d35780639b564960146108f65780639e502106146109095780639e6abc901461094557600080fd5b80638fc73fb5146107f75780638fd1f7df1461080a57806391686f531461081d578063942a83ff1461085957600080fd5b80635db5078b116102ef57806374a0dff41161028257806381aaa1551161025157806381aaa155146107af578063833b1fce146107c25780638da5cb5b146107d35780638ec3c027146107e457600080fd5b806374a0dff4146107465780637adbf973146107665780637dc0d1d0146107795780637fc731fd1461078c57600080fd5b80636bdb61b6116102be5780636bdb61b614610718578063715018a61461072b57806372ab4ec9146104eb57806372db30531461073357600080fd5b80635db5078b146106bf57806362f0fbb7146106df578063636642bb146106f25780636b04e1991461070557600080fd5b80631e69a5e3116103675780633673041911610336578063367304191461062b5780633bd40fc01461063e5780635b39a161146106715780635ce0ca0f1461069f57600080fd5b80631e69a5e3146105b55780632f52064f146105d8578063336dc51d146105f857806333e8d0db1461061857600080fd5b8063184ab4a9116103a3578063184ab4a9146104eb5780631a19b1211461051c5780631b8f66c6146105545780631db647921461057457600080fd5b8063054fd527146103ca5780630ef9caca146103f35780631614d69514610408575b600080fd5b6103dd6103d83660046126e5565b610b8e565b6040516103ea9190612b66565b60405180910390f35b610406610401366004612771565b610cfd565b005b6104856104163660046126e5565b600960208190526000918252604090912080546001820154600283015460038401546004850154600586015460068701546007880154600889015499890154600a8a0154600c909a01546001600160a01b039099169a9799969895979496939592949193919290919060ff168c565b604080516001600160a01b03909d168d5260208d019b909b52998b019890985260608a0196909652608089019490945260a088019290925260c087015260e086015261010085015261012084015261014083015260ff16610160820152610180016103ea565b61050e6104f93660046126e5565b60009081526009602052604090206006015490565b6040519081526020016103ea565b61054261052a3660046126e5565b6000908152600a602052604090206009015460ff1690565b60405160ff90911681526020016103ea565b61050e6105623660046126e5565b600c6020526000908152604090205481565b61059d6105823660046126e5565b600b602052600090815260409020546001600160a01b031681565b6040516001600160a01b0390911681526020016103ea565b61050e6105c33660046126e5565b6000908152600a602052604090206003015490565b61050e6105e63660046126e5565b60076020526000908152604090205481565b61050e6106063660046126e5565b60009081526004602052604090205490565b61040661062636600461272a565b610d82565b610406610639366004612793565b610dac565b61066161064c3660046126e5565b600f6020526000908152604090205460ff1681565b60405190151581526020016103ea565b61040661067f3660046126e5565b6000908152600b6020526040902080546001600160a01b03191633179055565b61050e6106ad3660046126e5565b60066020526000908152604090205481565b6106d26106cd3660046126e5565b610e6b565b6040516103ea9190612a8f565b6104066106ed366004612771565b6110a3565b61059d6107003660046126e5565b6110ca565b610406610713366004612771565b6110f4565b6104066107263660046126e5565b61119b565b610406611276565b610406610741366004612771565b6112d8565b61050e6107543660046126e5565b60086020526000908152604090205481565b61040661077436600461262b565b611355565b600d5461059d906001600160a01b031681565b61040661079a366004612771565b6000918252600a602052604090912060010155565b6104066107bd366004612646565b6113a1565b600d546001600160a01b031661059d565b6000546001600160a01b031661059d565b6104066107f2366004612925565b6113e2565b6104066108053660046126e5565b61144c565b6104066108183660046126e5565b611547565b61040661082b3660046126fe565b60009182526009602052604090912080546001600160a01b0319166001600160a01b03909216919091179055565b6108a16108673660046126e5565b600a6020526000908152604090208054600182015460028301546003840154600485015460099095015460ff948516959394929391921686565b6040805196151587526020870195909552938501929092526060840152608083015260ff1660a082015260c0016103ea565b61050e6108e13660046126e5565b6000908152600a602052604090206001015490565b610406610904366004612925565b611569565b6104066109173660046126fe565b6000918252600b602052604090912080546001600160a01b0319166001600160a01b03909216919091179055565b610406610953366004612771565b6115fe565b6104066109663660046126e5565b6116a5565b6104066116bf565b6104066109813660046126e5565b6117c5565b6104066109943660046126e5565b6117f3565b6104066109a7366004612771565b611810565b60025461050e565b6104066109c2366004612771565b61188d565b61050e6109d53660046126e5565b6000908152600a602052604090206002015490565b6105426109f83660046126e5565b60056020526000908152604090205460ff1681565b610406610a1b366004612771565b611934565b610406610a2e366004612925565b6119db565b610406610a41366004612771565b611aad565b610406610a54366004612871565b611b2a565b61059d610a673660046126e5565b6000908152600960205260409020546001600160a01b031690565b610406610a903660046126e5565b611d5c565b610406610aa33660046126e5565b611e68565b610abb610ab63660046126e5565b611eed565b6040516103ea91906129f2565b61050e610ad63660046126e5565b6000908152600a602052604090206004015490565b610406610af9366004612925565b60009182526009602052604090912060ff909116600590910155565b61050e610b233660046126e5565b60036020526000908152604090205481565b610406610b43366004612948565b611f52565b610406610b5636600461262b565b61200a565b610406610b693660046128c2565b6120e2565b61050e610b7c3660046126e5565b60046020526000908152604090205481565b610c05604051806101a0016040528060006001600160a01b031681526020016000815260200160008152602001600081526020016000815260200160008152602001600081526020016000815260200160008152602001600081526020016000815260200160608152602001600060ff1681525090565b60008281526009602081815260409283902083516101a08101855281546001600160a01b031681526001820154818401526002820154818601526003820154606082015260048201546080820152600582015460a0820152600682015460c0820152600782015460e0820152600882015461010082015292810154610120840152600a810154610140840152600b8101805485518185028101850190965280865293949193610160860193830182828015610cdf57602002820191906000526020600020905b815481526020019060010190808311610ccb575b5050509183525050600c919091015460ff1660209091015292915050565b6000828152600a6020818152604080842060029081018054879003908190556009845291909420909301549190521015610d44576000828152600a60205260408120600201555b60408051838152602081018390527f54fcb70dd79f1d6c4570dc5039da4ead94ebd70d7034ff4e69b53d597247988291015b60405180910390a15050565b60008281526009602090815260409091208251610da792600b909201918401906123cf565b505050565b6000898152600a60209081526040909120600181018a90556002810189905560038101889055600481018790558551610ded926005909201918701906123cf565b506000898152600a602090815260409091208451610e13926006909201918601906123cf565b506000898152600a602090815260409091208351610e39926007909201918501906123cf565b506000898152600a602090815260409091208251610e5f9260089092019184019061241a565b50505050505050505050565b610ec66040518061014001604052806000151581526020016000815260200160008152602001600081526020016000815260200160608152602001606081526020016060815260200160608152602001600060ff1681525090565b6000828152600a6020908152604091829020825161014081018452815460ff161515815260018201548184015260028201548185015260038201546060820152600482015460808201526005820180548551818602810186019096528086529194929360a08601939290830182828015610f5f57602002820191906000526020600020905b815481526020019060010190808311610f4b575b5050505050815260200160068201805480602002602001604051908101604052809291908181526020018280548015610fb757602002820191906000526020600020905b815481526020019060010190808311610fa3575b505050505081526020016007820180548060200260200160405190810160405280929190818152602001828054801561100f57602002820191906000526020600020905b815481526020019060010190808311610ffb575b505050505081526020016008820180548060200260200160405190810160405280929190818152602001828054801561108557602002820191906000526020600020906000905b825461010083900a900460ff168152602060019283018181049485019490930390920291018084116110565790505b50505091835250506009919091015460ff1660209091015292915050565b600082815260036020526040812080548392906110c1908490612c81565b90915550505050565b600e81815481106110da57600080fd5b6000918252602090912001546001600160a01b0316905081565b6000828152600a602052604081206003018054839290611115908490612c81565b90915550506000828152600960209081526040808320600390810154600a9093529220909101541115611165576000828152600960209081526040808320600390810154600a9093529220909101555b60408051838152602081018390527f57d770566372c85653ae52c7c72bfb8b3bad94b6dffc302f37ac5ca219723d9d9101610d76565b6000805b600e548110156111f857336001600160a01b0316600e82815481106111c6576111c6612d1d565b6000918252602090912001546001600160a01b031614156111e657600191505b806111f081612cec565b91505061119f565b506001811515146112505760405162461bcd60e51b815260206004820152601a60248201527f47616d6520456e67696e6520436f6e747261637473204f6e6c7900000000000060448201526064015b60405180910390fd5b600082815260096020526040812060060180549161126d83612cec565b91905055505050565b6000546001600160a01b031633146112a05760405162461bcd60e51b815260040161124790612a5a565b600080546040516001600160a01b0390911690600080516020612d4a833981519152908390a3600080546001600160a01b0319169055565b6000828152600a602081815260408084206001908101805487900390819055600984529190942090930154919052101561131f576000828152600a60205260408120600101555b60408051838152602081018390527f1f824f8262dfb7346e7fca1ff10ed956a913f2ee96b761703abb8a75d480c0359101610d76565b6000546001600160a01b0316331461137f5760405162461bcd60e51b815260040161124790612a5a565b600d80546001600160a01b0319166001600160a01b0392909216919091179055565b6000546001600160a01b031633146113cb5760405162461bcd60e51b815260040161124790612a5a565b80516113de90600e9060208401906124bb565b5050565b600d546001600160a01b0316331461142a5760405162461bcd60e51b815260206004820152600b60248201526a4f7261636c65204f6e6c7960a81b6044820152606401611247565b600091825260056020526040909120805460ff191660ff909216919091179055565b6000805b600e548110156114a957336001600160a01b0316600e828154811061147757611477612d1d565b6000918252602090912001546001600160a01b0316141561149757600191505b806114a181612cec565b915050611450565b506001811515146114fc5760405162461bcd60e51b815260206004820152601a60248201527f47616d6520456e67696e6520436f6e747261637473204f6e6c790000000000006044820152606401611247565b6000828152600f602052604090819020805460ff19166001179055517fdd5584841985f3187b4258e169a48a9577c0700c537f99caa5d8d66024a0607f90610d769084815260200190565b600081815260076020526040812080549161156183612cec565b919050555050565b6000828152600a602081815260408084206009908101805460ff808216899003811660ff19909216821790925591845291909420600c0154929091521610156115c6576000828152600a60205260409020600901805460ff191690555b6040805183815260ff831660208201527fe63fc0ba9cb0526f7fed401434afe9e55704d8b9efcfe73adde60e6b3864bb289101610d76565b6000828152600a60205260408120600101805483929061161f908490612c81565b90915550506000828152600960209081526040808320600190810154600a909352922090910154111561166f576000828152600960209081526040808320600190810154600a9093529220909101555b60408051838152602081018390527f027ef0b7a55591888412a26dbfd77e709f95e93ddad7306b12882efb997821639101610d76565b600081815260086020526040812080549161156183612cec565b6001546001600160a01b031633146117255760405162461bcd60e51b815260206004820152602360248201527f596f7520646f6e27742068617665207065726d697373696f6e20746f20756e6c6044820152626f636b60e81b6064820152608401611247565b60025442116117765760405162461bcd60e51b815260206004820152601f60248201527f436f6e7472616374206973206c6f636b656420756e74696c20372064617973006044820152606401611247565b600154600080546040516001600160a01b039384169390911691600080516020612d4a83398151915291a3600154600080546001600160a01b0319166001600160a01b03909216919091179055565b6000818152600460209081526040808320805490849055808452600690925290912054610da790600161234c565b600081815260096020526040812060060180549161156183612cec565b6000828152600a6020818152604080842060039081018054879003908190556009845291909420909301549190521015611857576000828152600a60205260408120600301555b60408051838152602081018390527f95bbb4c3b0cf8b25d46e55226cae513149ab30ccb4334e2a77e5c807ba05b1559101610d76565b6000828152600a6020526040812060020180548392906118ae908490612c81565b90915550506000828152600960209081526040808320600290810154600a90935292209091015411156118fe576000828152600960209081526040808320600290810154600a9093529220909101555b60408051838152602081018390527f6dac19f13c67cd0c5c9505cf398eb59f30a1c57e2b464ac620cebfd0c3156a389101610d76565b6000828152600a602052604081206004018054839290611955908490612c81565b90915550506000828152600960209081526040808320600490810154600a90935292209091015411156119a5576000828152600960209081526040808320600490810154600a9093529220909101555b60408051838152602081018390527f957daea7c64e81a08db0c4891ddef8c6eccc839eca99a7e1d6ab8015133ba6759101610d76565b6000828152600a6020526040812060090180548392906119ff90849060ff16612c99565b82546101009290920a60ff8181021990931691831602179091556000848152600960208181526040808420600c0154600a9092529092200154908216911611159050611a75576000828152600960208181526040808420600c0154600a90925290922001805460ff191660ff9092169190911790555b6040805183815260ff831660208201527f957daea7c64e81a08db0c4891ddef8c6eccc839eca99a7e1d6ab8015133ba6759101610d76565b6000828152600a6020818152604080842060049081018054879003908190556009845291909420909301549190521015611af4576000828152600a60205260408120600401555b60408051838152602081018390527fe63fc0ba9cb0526f7fed401434afe9e55704d8b9efcfe73adde60e6b3864bb289101610d76565b6000868152600960209081526040808320600190810154600a909352922090910154611b57908790612c81565b1115611b725760008681526009602052604090206001015494505b600086815260096020908152604080832060030154600a90925290912060020154611b9e908590612c81565b1115611bb95760008681526009602052604090206003015494505b600086815260096020908152604080832060020154600a90925290912060030154611be5908690612c81565b1115611c005760008681526009602052604090206002015494505b6000868152600960209081526040808320600490810154600a909352922090910154611c2d908490612c81565b1115611c485760008681526009602052604090206004015494505b6000868152600960205260409020600c015460ff9081169082161115611c80576000868152600960205260409020600c015460ff1694505b6000868152600a602052604081206001018054879290611ca1908490612c81565b90915550506000868152600a602052604081206002018054869290611cc7908490612c81565b90915550506000868152600a602052604081206003018054859290611ced908490612c81565b90915550506000868152600a602052604081206004018054849290611d13908490612c81565b90915550506000868152600a602052604081206009018054839290611d3c90849060ff16612c99565b92506101000a81548160ff021916908360ff160217905550505050505050565b6000818152600460205260408120805491829190611d7983612cec565b9091555050600082815260046020908152604080832054835260069091528120805491611da583612cec565b90915550508015611dd0576000818152600660205260408120805491611dca83612cd5565b91905055505b611dd98261144c565b60008281526009602081815260408084206001810154600782015560028101546008820155600381015493810193909355600480840154600a808601919091556006909401859055928252808420805460ff1916905591815291819020548151858152928301527f83552bf770e7992364e0b5849bd6d49ba643697bf386a601a245adb62b7bad039101610d76565b6000546001600160a01b03163314611e925760405162461bcd60e51b815260040161124790612a5a565b60008054600180546001600160a01b03199081166001600160a01b03841617909155169055611ec18142612c81565b600255600080546040516001600160a01b0390911690600080516020612d4a833981519152908390a350565b600081815260096020908152604091829020600b01805483518184028101840190945280845260609392830182828015611f4657602002820191906000526020600020905b815481526020019060010190808311611f32575b50505050509050919050565b6000838152600960205260409020600160ff84161415611f89578160ff16816002016000828254611f839190612c81565b90915550505b8260ff1660021415611fb2578160ff16816003016000828254611fac9190612c81565b90915550505b8260ff1660031415611fdb578160ff16816004016000828254611fd59190612c81565b90915550505b8260ff1660041415612004578160ff16816001016000828254611ffe9190612c81565b90915550505b50505050565b6000546001600160a01b031633146120345760405162461bcd60e51b815260040161124790612a5a565b6001600160a01b0381166120995760405162461bcd60e51b815260206004820152602660248201527f4f776e61626c653a206e6577206f776e657220697320746865207a65726f206160448201526564647265737360d01b6064820152608401611247565b600080546040516001600160a01b0380851693921691600080516020612d4a83398151915291a3600080546001600160a01b0319166001600160a01b0392909216919091179055565b600d546001600160a01b0316331461212a5760405162461bcd60e51b815260206004820152600b60248201526a4f7261636c65204f6e6c7960a81b6044820152606401611247565b600087815260096020526040902060070154612147908790612c81565b600088815260096020526040902060018101919091556008015461216c908690612c81565b600088815260096020819052604090912060028101929092550154612192908590612c81565b60008881526009602052604090206003810191909155600a01546121b7908490612c81565b600088815260096020908152604080832060040193909355600f905220805460ff1916905560ff8216156121ef576121ef87836113e2565b60ff811615612235576000878152600960205260408120600c01805483929061221c90849060ff16612c99565b92506101000a81548160ff021916908360ff1602179055505b6000878152600a602052604090205460ff1661231057600087815260096020526040902060070154612268908790612c81565b6000888152600a6020908152604080832060010193909355600990522060080154612294908690612c81565b6000888152600a602090815260408083206002019390935560099081905291902001546122c2908590612c81565b6000888152600a60208181526040808420600301949094556009905291902001546122ee908490612c81565b6000888152600a602052604090206004810191909155805460ff191660011790555b6040518781527f23e44c29d5a44f614d06e1703094ffe1df74cca218963a86800034f34912f7ce9060200160405180910390a150505050505050565b600061238e83836040518060400160405280601e81526020017f536166654d6174683a207375627472616374696f6e206f766572666c6f770000815250612395565b9392505050565b600081848411156123b95760405162461bcd60e51b81526004016112479190612a05565b5060006123c68486612cbe565b95945050505050565b82805482825590600052602060002090810192821561240a579160200282015b8281111561240a5782518255916020019190600101906123ef565b50612416929150612510565b5090565b82805482825590600052602060002090601f0160209004810192821561240a5791602002820160005b8382111561248157835183826101000a81548160ff021916908360ff1602179055509260200192600101602081600001049283019260010302612443565b80156124ae5782816101000a81549060ff0219169055600101602081600001049283019260010302612481565b5050612416929150612510565b82805482825590600052602060002090810192821561240a579160200282015b8281111561240a57825182546001600160a01b0319166001600160a01b039091161782556020909201916001909101906124db565b5b808211156124165760008155600101612511565b80356001600160a01b038116811461253c57600080fd5b919050565b600082601f83011261255257600080fd5b8135602061256761256283612c5d565b612c2c565b80838252828201915082860187848660051b890101111561258757600080fd5b60005b858110156125a65781358452928401929084019060010161258a565b5090979650505050505050565b600082601f8301126125c457600080fd5b813560206125d461256283612c5d565b80838252828201915082860187848660051b89010111156125f457600080fd5b60005b858110156125a6576126088261261a565b845292840192908401906001016125f7565b803560ff8116811461253c57600080fd5b60006020828403121561263d57600080fd5b61238e82612525565b6000602080838503121561265957600080fd5b823567ffffffffffffffff81111561267057600080fd5b8301601f8101851361268157600080fd5b803561268f61256282612c5d565b80828252848201915084840188868560051b87010111156126af57600080fd5b600094505b838510156126d9576126c581612525565b8352600194909401939185019185016126b4565b50979650505050505050565b6000602082840312156126f757600080fd5b5035919050565b6000806040838503121561271157600080fd5b8235915061272160208401612525565b90509250929050565b6000806040838503121561273d57600080fd5b82359150602083013567ffffffffffffffff81111561275b57600080fd5b61276785828601612541565b9150509250929050565b6000806040838503121561278457600080fd5b50508035926020909101359150565b60008060008060008060008060006101208a8c0312156127b257600080fd5b8935985060208a0135975060408a0135965060608a0135955060808a0135945060a08a013567ffffffffffffffff808211156127ed57600080fd5b6127f98d838e01612541565b955060c08c013591508082111561280f57600080fd5b61281b8d838e01612541565b945060e08c013591508082111561283157600080fd5b61283d8d838e01612541565b93506101008c013591508082111561285457600080fd5b506128618c828d016125b3565b9150509295985092959850929598565b60008060008060008060c0878903121561288a57600080fd5b86359550602087013594506040870135935060608701359250608087013591506128b660a0880161261a565b90509295509295509295565b600080600080600080600060e0888a0312156128dd57600080fd5b873596506020880135955060408801359450606088013593506080880135925061290960a0890161261a565b915061291760c0890161261a565b905092959891949750929550565b6000806040838503121561293857600080fd5b823591506127216020840161261a565b60008060006060848603121561295d57600080fd5b8335925061296d6020850161261a565b915061297b6040850161261a565b90509250925092565b600081518084526020808501945080840160005b838110156129b457815187529582019590820190600101612998565b509495945050505050565b600081518084526020808501945080840160005b838110156129b457815160ff16875295820195908201906001016129d3565b60208152600061238e6020830184612984565b600060208083528351808285015260005b81811015612a3257858101830151858201604001528201612a16565b81811115612a44576000604083870101525b50601f01601f1916929092016040019392505050565b6020808252818101527f4f776e61626c653a2063616c6c6572206973206e6f7420746865206f776e6572604082015260600190565b60208152612aa260208201835115159052565b602082015160408201526040820151606082015260608201516080820152608082015160a0820152600060a08301516101408060c0850152612ae8610160850183612984565b915060c0850151601f19808685030160e0870152612b068483612984565b935060e08701519150610100818786030181880152612b258584612984565b945080880151925050610120818786030181880152612b4485846129bf565b94508088015192505050612b5c8286018260ff169052565b5090949350505050565b60208152612b806020820183516001600160a01b03169052565b602082015160408201526040820151606082015260608201516080820152608082015160a082015260a082015160c082015260c082015160e0820152600060e08301516101008181850152808501519150506101208181850152808501519150506101408181850152808501519150506101608181850152808501519150506101a06101808181860152612c186101c0860184612984565b9086015160ff811683870152909250612b5c565b604051601f8201601f1916810167ffffffffffffffff81118282101715612c5557612c55612d33565b604052919050565b600067ffffffffffffffff821115612c7757612c77612d33565b5060051b60200190565b60008219821115612c9457612c94612d07565b500190565b600060ff821660ff84168060ff03821115612cb657612cb6612d07565b019392505050565b600082821015612cd057612cd0612d07565b500390565b600081612ce457612ce4612d07565b506000190190565b6000600019821415612d0057612d00612d07565b5060010190565b634e487b7160e01b600052601160045260246000fd5b634e487b7160e01b600052603260045260246000fd5b634e487b7160e01b600052604160045260246000fdfe8be0079c531659141344cd1fd0a4f28419497f9722a3daafe3b4186f6b6457e0a264697066735822122067ef13bb8229deb083e151192e5c3c27c9edf1924a20914c8101491b11233df564736f6c63430008060033",
  "immutableReferences": {},
  "source": "/**\r\n *Submitted for verification at BscScan.com on 2021-03-01\r\n*/\r\n\r\n/**\r\n *Submitted for verification at BscScan.com on 2021-03-01\r\n*/\r\n\r\n/**\r\n  \r\n   #BEE\r\n   \r\n   #LIQ+#RFI+#SHIB+#DOGE = #BEE\r\n\r\n   #SAFEMOON features:\r\n   3% fee auto add to the liquidity pool to locked forever when selling\r\n   2% fee auto distribute to all holders\r\n   I created a black hole so #Bee token will deflate itself in supply with every transaction\r\n   50% Supply is burned at start.\r\n   \r\n\r\n */\r\n\r\npragma solidity ^0.8.6;\r\n// SPDX-License-Identifier: Unlicensed\r\ninterface IERC20 {\r\n\r\n    function totalSupply() external view returns (uint256);\r\n\r\n    /**\r\n     * @dev Returns the amount of tokens owned by `account`.\r\n     */\r\n    function balanceOf(address account) external view returns (uint256);\r\n\r\n    /**\r\n     * @dev Moves `amount` tokens from the caller's account to `recipient`.\r\n     *\r\n     * Returns a boolean value indicating whether the operation succeeded.\r\n     *\r\n     * Emits a {Transfer} event.\r\n     */\r\n    function transfer(address recipient, uint256 amount) external returns (bool);\r\n\r\n    /**\r\n     * @dev Returns the remaining number of tokens that `spender` will be\r\n     * allowed to spend on behalf of `owner` through {transferFrom}. This is\r\n     * zero by default.\r\n     *\r\n     * This value changes when {approve} or {transferFrom} are called.\r\n     */\r\n    function allowance(address owner, address spender) external view returns (uint256);\r\n\r\n    /**\r\n     * @dev Sets `amount` as the allowance of `spender` over the caller's tokens.\r\n     *\r\n     * Returns a boolean value indicating whether the operation succeeded.\r\n     *\r\n     * IMPORTANT: Beware that changing an allowance with this method brings the risk\r\n     * that someone may use both the old and the new allowance by unfortunate\r\n     * transaction ordering. One possible solution to mitigate this race\r\n     * condition is to first reduce the spender's allowance to 0 and set the\r\n     * desired value afterwards:\r\n     * https://github.com/ethereum/EIPs/issues/20#issuecomment-263524729\r\n     *\r\n     * Emits an {Approval} event.\r\n     */\r\n    function approve(address spender, uint256 amount) external returns (bool);\r\n\r\n    /**\r\n     * @dev Moves `amount` tokens from `sender` to `recipient` using the\r\n     * allowance mechanism. `amount` is then deducted from the caller's\r\n     * allowance.\r\n     *\r\n     * Returns a boolean value indicating whether the operation succeeded.\r\n     *\r\n     * Emits a {Transfer} event.\r\n     */\r\n    function transferFrom(address sender, address recipient, uint256 amount) external returns (bool);\r\n\r\n    /**\r\n     * @dev Emitted when `value` tokens are moved from one account (`from`) to\r\n     * another (`to`).\r\n     *\r\n     * Note that `value` may be zero.\r\n     */\r\n    event Transfer(address indexed from, address indexed to, uint256 value);\r\n\r\n    /**\r\n     * @dev Emitted when the allowance of a `spender` for an `owner` is set by\r\n     * a call to {approve}. `value` is the new allowance.\r\n     */\r\n    event Approval(address indexed owner, address indexed spender, uint256 value);\r\n}\r\n\r\n\r\n\r\n/**\r\n * @dev Wrappers over Solidity's arithmetic operations with added overflow\r\n * checks.\r\n *\r\n * Arithmetic operations in Solidity wrap on overflow. This can easily result\r\n * in bugs, because programmers usually assume that an overflow raises an\r\n * error, which is the standard behavior in high level programming languages.\r\n * `SafeMath` restores this intuition by reverting the transaction when an\r\n * operation overflows.\r\n *\r\n * Using this library instead of the unchecked operations eliminates an entire\r\n * class of bugs, so it's recommended to use it always.\r\n */\r\n \r\nlibrary SafeMath {\r\n    /**\r\n     * @dev Returns the addition of two unsigned integers, reverting on\r\n     * overflow.\r\n     *\r\n     * Counterpart to Solidity's `+` operator.\r\n     *\r\n     * Requirements:\r\n     *\r\n     * - Addition cannot overflow.\r\n     */\r\n    function add(uint256 a, uint256 b) internal pure returns (uint256) {\r\n        uint256 c = a + b;\r\n        require(c >= a, \"SafeMath: addition overflow\");\r\n\r\n        return c;\r\n    }\r\n\r\n    /**\r\n     * @dev Returns the subtraction of two unsigned integers, reverting on\r\n     * overflow (when the result is negative).\r\n     *\r\n     * Counterpart to Solidity's `-` operator.\r\n     *\r\n     * Requirements:\r\n     *\r\n     * - Subtraction cannot overflow.\r\n     */\r\n    function sub(uint256 a, uint256 b) internal pure returns (uint256) {\r\n        return sub(a, b, \"SafeMath: subtraction overflow\");\r\n    }\r\n\r\n    /**\r\n     * @dev Returns the subtraction of two unsigned integers, reverting with custom message on\r\n     * overflow (when the result is negative).\r\n     *\r\n     * Counterpart to Solidity's `-` operator.\r\n     *\r\n     * Requirements:\r\n     *\r\n     * - Subtraction cannot overflow.\r\n     */\r\n    function sub(uint256 a, uint256 b, string memory errorMessage) internal pure returns (uint256) {\r\n        require(b <= a, errorMessage);\r\n        uint256 c = a - b;\r\n\r\n        return c;\r\n    }\r\n\r\n    /**\r\n     * @dev Returns the multiplication of two unsigned integers, reverting on\r\n     * overflow.\r\n     *\r\n     * Counterpart to Solidity's `*` operator.\r\n     *\r\n     * Requirements:\r\n     *\r\n     * - Multiplication cannot overflow.\r\n     */\r\n    function mul(uint256 a, uint256 b) internal pure returns (uint256) {\r\n        // Gas optimization: this is cheaper than requiring 'a' not being zero, but the\r\n        // benefit is lost if 'b' is also tested.\r\n        // See: https://github.com/OpenZeppelin/openzeppelin-contracts/pull/522\r\n        if (a == 0) {\r\n            return 0;\r\n        }\r\n\r\n        uint256 c = a * b;\r\n        require(c / a == b, \"SafeMath: multiplication overflow\");\r\n\r\n        return c;\r\n    }\r\n\r\n    /**\r\n     * @dev Returns the integer division of two unsigned integers. Reverts on\r\n     * division by zero. The result is rounded towards zero.\r\n     *\r\n     * Counterpart to Solidity's `/` operator. Note: this function uses a\r\n     * `revert` opcode (which leaves remaining gas untouched) while Solidity\r\n     * uses an invalid opcode to revert (consuming all remaining gas).\r\n     *\r\n     * Requirements:\r\n     *\r\n     * - The divisor cannot be zero.\r\n     */\r\n    function div(uint256 a, uint256 b) internal pure returns (uint256) {\r\n        return div(a, b, \"SafeMath: division by zero\");\r\n    }\r\n\r\n    /**\r\n     * @dev Returns the integer division of two unsigned integers. Reverts with custom message on\r\n     * division by zero. The result is rounded towards zero.\r\n     *\r\n     * Counterpart to Solidity's `/` operator. Note: this function uses a\r\n     * `revert` opcode (which leaves remaining gas untouched) while Solidity\r\n     * uses an invalid opcode to revert (consuming all remaining gas).\r\n     *\r\n     * Requirements:\r\n     *\r\n     * - The divisor cannot be zero.\r\n     */\r\n    function div(uint256 a, uint256 b, string memory errorMessage) internal pure returns (uint256) {\r\n        require(b > 0, errorMessage);\r\n        uint256 c = a / b;\r\n        // assert(a == b * c + a % b); // There is no case in which this doesn't hold\r\n\r\n        return c;\r\n    }\r\n\r\n    /**\r\n     * @dev Returns the remainder of dividing two unsigned integers. (unsigned integer modulo),\r\n     * Reverts when dividing by zero.\r\n     *\r\n     * Counterpart to Solidity's `%` operator. This function uses a `revert`\r\n     * opcode (which leaves remaining gas untouched) while Solidity uses an\r\n     * invalid opcode to revert (consuming all remaining gas).\r\n     *\r\n     * Requirements:\r\n     *\r\n     * - The divisor cannot be zero.\r\n     */\r\n    function mod(uint256 a, uint256 b) internal pure returns (uint256) {\r\n        return mod(a, b, \"SafeMath: modulo by zero\");\r\n    }\r\n\r\n    /**\r\n     * @dev Returns the remainder of dividing two unsigned integers. (unsigned integer modulo),\r\n     * Reverts with custom message when dividing by zero.\r\n     *\r\n     * Counterpart to Solidity's `%` operator. This function uses a `revert`\r\n     * opcode (which leaves remaining gas untouched) while Solidity uses an\r\n     * invalid opcode to revert (consuming all remaining gas).\r\n     *\r\n     * Requirements:\r\n     *\r\n     * - The divisor cannot be zero.\r\n     */\r\n    function mod(uint256 a, uint256 b, string memory errorMessage) internal pure returns (uint256) {\r\n        require(b != 0, errorMessage);\r\n        return a % b;\r\n    }\r\n}\r\n\r\nabstract contract Context {\r\n    function _msgSender() internal view virtual returns (address payable) {\r\n        return payable(msg.sender);\r\n    }\r\n\r\n    function _msgData() internal view virtual returns (bytes memory) {\r\n        this; // silence state mutability warning without generating bytecode - see https://github.com/ethereum/solidity/issues/2691\r\n        return msg.data;\r\n    }\r\n}\r\n\r\n\r\n/**\r\n * @dev Collection of functions related to the address type\r\n */\r\nlibrary Address {\r\n    /**\r\n     * @dev Returns true if `account` is a contract.\r\n     *\r\n     * [IMPORTANT]\r\n     * ====\r\n     * It is unsafe to assume that an address for which this function returns\r\n     * false is an externally-owned account (EOA) and not a contract.\r\n     *\r\n     * Among others, `isContract` will return false for the following\r\n     * types of addresses:\r\n     *\r\n     *  - an externally-owned account\r\n     *  - a contract in construction\r\n     *  - an address where a contract will be created\r\n     *  - an address where a contract lived, but was destroyed\r\n     * ====\r\n     */\r\n    function isContract(address account) internal view returns (bool) {\r\n        // According to EIP-1052, 0x0 is the value returned for not-yet created accounts\r\n        // and 0xc5d2460186f7233c927e7db2dcc703c0e500b653ca82273b7bfad8045d85a470 is returned\r\n        // for accounts without code, i.e. `keccak256('')`\r\n        bytes32 codehash;\r\n        bytes32 accountHash = 0xc5d2460186f7233c927e7db2dcc703c0e500b653ca82273b7bfad8045d85a470;\r\n        // solhint-disable-next-line no-inline-assembly\r\n        assembly { codehash := extcodehash(account) }\r\n        return (codehash != accountHash && codehash != 0x0);\r\n    }\r\n\r\n    /**\r\n     * @dev Replacement for Solidity's `transfer`: sends `amount` wei to\r\n     * `recipient`, forwarding all available gas and reverting on errors.\r\n     *\r\n     * https://eips.ethereum.org/EIPS/eip-1884[EIP1884] increases the gas cost\r\n     * of certain opcodes, possibly making contracts go over the 2300 gas limit\r\n     * imposed by `transfer`, making them unable to receive funds via\r\n     * `transfer`. {sendValue} removes this limitation.\r\n     *\r\n     * https://diligence.consensys.net/posts/2019/09/stop-using-soliditys-transfer-now/[Learn more].\r\n     *\r\n     * IMPORTANT: because control is transferred to `recipient`, care must be\r\n     * taken to not create reentrancy vulnerabilities. Consider using\r\n     * {ReentrancyGuard} or the\r\n     * https://solidity.readthedocs.io/en/v0.5.11/security-considerations.html#use-the-checks-effects-interactions-pattern[checks-effects-interactions pattern].\r\n     */\r\n    function sendValue(address payable recipient, uint256 amount) internal {\r\n        require(address(this).balance >= amount, \"Address: insufficient balance\");\r\n\r\n        // solhint-disable-next-line avoid-low-level-calls, avoid-call-value\r\n        (bool success, ) = recipient.call{ value: amount }(\"\");\r\n        require(success, \"Address: unable to send value, recipient may have reverted\");\r\n    }\r\n\r\n    /**\r\n     * @dev Performs a Solidity function call using a low level `call`. A\r\n     * plain`call` is an unsafe replacement for a function call: use this\r\n     * function instead.\r\n     *\r\n     * If `target` reverts with a revert reason, it is bubbled up by this\r\n     * function (like regular Solidity function calls).\r\n     *\r\n     * Returns the raw returned data. To convert to the expected return value,\r\n     * use https://solidity.readthedocs.io/en/latest/units-and-global-variables.html?highlight=abi.decode#abi-encoding-and-decoding-functions[`abi.decode`].\r\n     *\r\n     * Requirements:\r\n     *\r\n     * - `target` must be a contract.\r\n     * - calling `target` with `data` must not revert.\r\n     *\r\n     * _Available since v3.1._\r\n     */\r\n    function functionCall(address target, bytes memory data) internal returns (bytes memory) {\r\n      return functionCall(target, data, \"Address: low-level call failed\");\r\n    }\r\n\r\n    /**\r\n     * @dev Same as {xref-Address-functionCall-address-bytes-}[`functionCall`], but with\r\n     * `errorMessage` as a fallback revert reason when `target` reverts.\r\n     *\r\n     * _Available since v3.1._\r\n     */\r\n    function functionCall(address target, bytes memory data, string memory errorMessage) internal returns (bytes memory) {\r\n        return _functionCallWithValue(target, data, 0, errorMessage);\r\n    }\r\n\r\n    /**\r\n     * @dev Same as {xref-Address-functionCall-address-bytes-}[`functionCall`],\r\n     * but also transferring `value` wei to `target`.\r\n     *\r\n     * Requirements:\r\n     *\r\n     * - the calling contract must have an ETH balance of at least `value`.\r\n     * - the called Solidity function must be `payable`.\r\n     *\r\n     * _Available since v3.1._\r\n     */\r\n    function functionCallWithValue(address target, bytes memory data, uint256 value) internal returns (bytes memory) {\r\n        return functionCallWithValue(target, data, value, \"Address: low-level call with value failed\");\r\n    }\r\n\r\n    /**\r\n     * @dev Same as {xref-Address-functionCallWithValue-address-bytes-uint256-}[`functionCallWithValue`], but\r\n     * with `errorMessage` as a fallback revert reason when `target` reverts.\r\n     *\r\n     * _Available since v3.1._\r\n     */\r\n    function functionCallWithValue(address target, bytes memory data, uint256 value, string memory errorMessage) internal returns (bytes memory) {\r\n        require(address(this).balance >= value, \"Address: insufficient balance for call\");\r\n        return _functionCallWithValue(target, data, value, errorMessage);\r\n    }\r\n\r\n    function _functionCallWithValue(address target, bytes memory data, uint256 weiValue, string memory errorMessage) private returns (bytes memory) {\r\n        require(isContract(target), \"Address: call to non-contract\");\r\n\r\n        // solhint-disable-next-line avoid-low-level-calls\r\n        (bool success, bytes memory returndata) = target.call{ value: weiValue }(data);\r\n        if (success) {\r\n            return returndata;\r\n        } else {\r\n            // Look for revert reason and bubble it up if present\r\n            if (returndata.length > 0) {\r\n                // The easiest way to bubble the revert reason is using memory via assembly\r\n\r\n                // solhint-disable-next-line no-inline-assembly\r\n                assembly {\r\n                    let returndata_size := mload(returndata)\r\n                    revert(add(32, returndata), returndata_size)\r\n                }\r\n            } else {\r\n                revert(errorMessage);\r\n            }\r\n        }\r\n    }\r\n}\r\n\r\n/**\r\n * @dev Contract module which provides a basic access control mechanism, where\r\n * there is an account (an owner) that can be granted exclusive access to\r\n * specific functions.\r\n *\r\n * By default, the owner account will be the one that deploys the contract. This\r\n * can later be changed with {transferOwnership}.\r\n *\r\n * This module is used through inheritance. It will make available the modifier\r\n * `onlyOwner`, which can be applied to your functions to restrict their use to\r\n * the owner.\r\n */\r\ncontract Ownable is Context {\r\n    address private _owner;\r\n    address private _previousOwner;\r\n    uint256 private _lockTime;\r\n\r\n    event OwnershipTransferred(address indexed previousOwner, address indexed newOwner);\r\n\r\n    /**\r\n     * @dev Initializes the contract setting the deployer as the initial owner.\r\n     */\r\n    constructor ()  {\r\n        address msgSender = _msgSender();\r\n        _owner = msgSender;\r\n        emit OwnershipTransferred(address(0), msgSender);\r\n    }\r\n\r\n    /**\r\n     * @dev Returns the address of the current owner.\r\n     */\r\n    function owner() public view returns (address) {\r\n        return _owner;\r\n    }\r\n\r\n    /**\r\n     * @dev Throws if called by any account other than the owner.\r\n     */\r\n    modifier onlyOwner() {\r\n        require(_owner == _msgSender(), \"Ownable: caller is not the owner\");\r\n        _;\r\n    }\r\n\r\n     /**\r\n     * @dev Leaves the contract without owner. It will not be possible to call\r\n     * `onlyOwner` functions anymore. Can only be called by the current owner.\r\n     *\r\n     * NOTE: Renouncing ownership will leave the contract without an owner,\r\n     * thereby removing any functionality that is only available to the owner.\r\n     */\r\n    function renounceOwnership() public virtual onlyOwner {\r\n        emit OwnershipTransferred(_owner, address(0));\r\n        _owner = address(0);\r\n    }\r\n\r\n    /**\r\n     * @dev Transfers ownership of the contract to a new account (`newOwner`).\r\n     * Can only be called by the current owner.\r\n     */\r\n    function transferOwnership(address newOwner) public virtual onlyOwner {\r\n        require(newOwner != address(0), \"Ownable: new owner is the zero address\");\r\n        emit OwnershipTransferred(_owner, newOwner);\r\n        _owner = newOwner;\r\n    }\r\n\r\n    function geUnlockTime() public view returns (uint256) {\r\n        return _lockTime;\r\n    }\r\n\r\n    //Locks the contract for owner for the amount of time provided\r\n    function lock(uint256 time) public virtual onlyOwner {\r\n        _previousOwner = _owner;\r\n        _owner = address(0);\r\n        _lockTime = block.timestamp + time;\r\n        emit OwnershipTransferred(_owner, address(0));\r\n    }\r\n    \r\n    //Unlocks the contract for owner when _lockTime is exceeds\r\n    function unlock() public virtual {\r\n        require(_previousOwner == msg.sender, \"You don't have permission to unlock\");\r\n        require( block.timestamp > _lockTime , \"Contract is locked until 7 days\");\r\n        emit OwnershipTransferred(_owner, _previousOwner);\r\n        _owner = _previousOwner;\r\n    }\r\n}\r\n\r\ncontract WarBotStatsData is Ownable{\r\n \r\n    \r\n    using SafeMath for uint256;\r\n    mapping ( uint256 => uint256 ) public WarbotXP;\r\n    mapping ( uint256 => uint256 ) public WarbotLevel;\r\n    // 0 tractor\r\n    // 1 walker\r\n    // 2 air drone\r\n    \r\n    mapping ( uint256 => uint8 ) public WarbotType;\r\n    mapping ( uint256 => uint256 ) public warbotLevelCount;\r\n    mapping ( uint256 => uint256 ) public warbotWins;\r\n    mapping ( uint256 => uint256 ) public warbotLosses;\r\n    mapping ( uint256 => WarBotProfile ) public WarBotProfiles;\r\n    mapping ( uint256 =>  WarBotCurrentStat ) public  WarBotCurrentStats;\r\n    mapping ( uint256 => address ) public WarbotHandOff;\r\n    mapping ( uint256 => uint256 ) public lastWarAt;\r\n    \r\n    address public oracle;\r\n    address[] public EngineContracts;\r\n    \r\n    mapping ( uint256 => bool ) public RequestReroll;\r\n    \r\n    event levelStatsRerollRequested ( uint256 _warbot );\r\n    event levelStatsRolled ( uint256 _warbot );\r\n    \r\n    event WarbotDamaged ( uint256 _warbot, uint256 _damage );\r\n    event WarbotAttackDamaged ( uint256 _warbot, uint256 _damage );\r\n    event WarbotDefenseDamaged ( uint256 _warbot, uint256 _damage );\r\n    event WarbotSpeedDamaged ( uint256 _warbot, uint256 _damage );\r\n    \r\n    event WarbotRepaired ( uint256 _warbot, uint256 _repair );\r\n    event WarbotAttackRepaired ( uint256 _warbot, uint256 _damage );\r\n    event WarbotDefenseRepaired ( uint256 _warbot, uint256 _damage );\r\n    event WarbotSpeedRepaired ( uint256 _warbot, uint256 _damage );\r\n    event warbotUpgraded ( uint256 _warbot, uint256 _level );\r\n   \r\n\r\n    \r\n    struct WarBotProfile {\r\n           \r\n            address creator;\r\n            uint256 hitpoints;\r\n            uint256 attack;\r\n            uint256 defense;\r\n            uint256 speed;\r\n            uint256 slots;\r\n            uint256 rerollCount;\r\n            uint256 basehitpoints;\r\n            uint256 baseattack;\r\n            uint256 basedefense;\r\n            uint256 basespeed;\r\n            uint256[] globalXYZ;\r\n            uint8 movement;\r\n            \r\n            \r\n    }    \r\n    \r\n    struct WarBotCurrentStat {\r\n        \r\n        bool _levelinit;\r\n        uint256   _warbothitpoints;\r\n        uint256   _warbotattack;\r\n        uint256   _warbotdefense;\r\n        uint256   _warbotspeed;\r\n        uint256[] _xyz;\r\n        uint256[] _specialeffect;\r\n        uint256[] _specialduration;\r\n        uint8[]   _nftslots;\r\n        uint8     _movement;\r\n    }\r\n    \r\n    \r\n    constructor () {\r\n        oracle = 0x7cE0E55703F12D03Eb53B918aD6B9EB80d188afB;\r\n    }\r\n    \r\n    \r\n    function setWarBotGlobalXYZ ( uint256 _warbot, uint256[] memory _xyz ) public {\r\n        \r\n        WarBotProfiles[_warbot].globalXYZ= _xyz;\r\n    }\r\n    \r\n    function getWarBotGlobalXYZ ( uint256 _warbot ) public view returns(uint256[] memory){\r\n        \r\n        return WarBotProfiles[_warbot].globalXYZ;\r\n    }\r\n    \r\n    \r\n    \r\n    function setWarBotWins ( uint256 _warbot ) public {\r\n        \r\n        warbotWins[_warbot]++;\r\n    }\r\n    \r\n    function setWarBotLosses ( uint256 _warbot ) public {\r\n        \r\n        warbotLosses[_warbot]++;\r\n    }\r\n    \r\n    function incrementWarbotRerollCount ( uint256 _warbot ) public onlyEngine {\r\n        \r\n        WarBotProfiles[_warbot].rerollCount++;\r\n    }\r\n    \r\n    function getRerollCount ( uint256 _warbot ) public view returns(uint256) {\r\n        \r\n        return WarBotProfiles[_warbot].rerollCount;\r\n    }\r\n             \r\n    function setWarbotHandoff ( uint256 _warbot ) public {\r\n        \r\n        WarbotHandOff[ _warbot ] = msg.sender;\r\n    }\r\n    \r\n    function incrementWarbotXP ( uint256 _warbot, uint256 _xp ) public {\r\n        \r\n        WarbotXP[ _warbot ] += _xp;\r\n    }\r\n    \r\n    function getOracle ( ) public view returns (address){\r\n        \r\n        return oracle;\r\n    }\r\n    \r\n    function getWarBotLevel ( uint256 _warbot ) public view returns (uint256){\r\n        \r\n        return WarbotLevel[ _warbot ];\r\n    }\r\n    \r\n    function setWarBotCurrentStats( uint256 _warbot, uint256 _warbothitpoints,  uint256 _warbotattack, uint256 _warbotdefense, \r\n                                   uint256 _warbotspeed, uint256[] memory _xyz, uint256[]  memory _specialeffect, \r\n                                   uint256[] memory _specialduration , uint8[] memory _nftslots) public {\r\n        \r\n         WarBotCurrentStats[_warbot]._warbothitpoints   = _warbothitpoints;  \r\n         WarBotCurrentStats[_warbot]._warbotattack = _warbotattack;\r\n         WarBotCurrentStats[_warbot]._warbotdefense = _warbotdefense;\r\n         WarBotCurrentStats[_warbot]._warbotspeed = _warbotspeed;\r\n         WarBotCurrentStats[_warbot]._xyz = _xyz;\r\n         WarBotCurrentStats[_warbot]._specialeffect = _specialeffect;\r\n         WarBotCurrentStats[_warbot]._specialduration = _specialduration;\r\n         WarBotCurrentStats[_warbot]._nftslots = _nftslots;\r\n    }\r\n    \r\n    function repairWarbot( uint256 _warbot, uint256 _warbothitpoints,  uint256 _warbotattack, uint256 _warbotdefense, \r\n                                   uint256 _warbotspeed, uint8 _movement  ) public {\r\n        \r\n         if ( WarBotCurrentStats[_warbot]._warbothitpoints + _warbothitpoints > WarBotProfiles[_warbot].hitpoints ) _warbothitpoints = WarBotProfiles[_warbot].hitpoints;\r\n         if ( WarBotCurrentStats[_warbot]._warbotattack + _warbotdefense > WarBotProfiles[_warbot].defense ) _warbothitpoints = WarBotProfiles[_warbot].defense;\r\n         if ( WarBotCurrentStats[_warbot]._warbotdefense + _warbotattack > WarBotProfiles[_warbot].attack ) _warbothitpoints = WarBotProfiles[_warbot].attack;\r\n         if ( WarBotCurrentStats[_warbot]._warbotspeed + _warbotspeed > WarBotProfiles[_warbot].speed ) _warbothitpoints = WarBotProfiles[_warbot].speed;\r\n         if ( _movement > WarBotProfiles[_warbot].movement) _warbothitpoints = WarBotProfiles[_warbot].movement;\r\n         \r\n         WarBotCurrentStats[_warbot]._warbothitpoints   += _warbothitpoints;  \r\n         WarBotCurrentStats[_warbot]._warbotattack += _warbotattack;\r\n         WarBotCurrentStats[_warbot]._warbotdefense += _warbotdefense;\r\n         WarBotCurrentStats[_warbot]._warbotspeed += _warbotspeed;\r\n         WarBotCurrentStats[_warbot]._movement += _movement;\r\n        \r\n    }\r\n    \r\n    \r\n    \r\n    \r\n    \r\n    \r\n    function getWarbotProfile ( uint256 _warbot ) public view returns( WarBotProfile memory ){\r\n        return WarBotProfiles[_warbot];\r\n    }\r\n    \r\n    function getWarbotCurrentStats ( uint256 _warbot ) public view returns( WarBotCurrentStat memory ){\r\n        return WarBotCurrentStats[_warbot];\r\n    }\r\n    \r\n    function getWarbotCurrentMovement ( uint256 _warbot ) public view returns( uint8  ){\r\n        return WarBotCurrentStats[_warbot]._movement;\r\n    }\r\n    \r\n    function getWarbotCurrentAttack ( uint256 _warbot ) public view returns( uint256  ){\r\n        return WarBotCurrentStats[_warbot]._warbotattack;\r\n    }\r\n    \r\n    function getWarbotCurrentDefense ( uint256 _warbot ) public view returns( uint256  ){\r\n        return WarBotCurrentStats[_warbot]._warbotdefense;\r\n    }\r\n    \r\n    function getWarbotCurrentSpeed ( uint256 _warbot ) public view returns( uint256  ){\r\n        return WarBotCurrentStats[_warbot]._warbotspeed;\r\n    }\r\n    \r\n    function setWarbotType ( uint256 _warbot, uint8 _type ) public onlyOracle {\r\n        \r\n        WarbotType[ _warbot ] = _type;\r\n    }\r\n    \r\n    function rollStats ( uint256 _warbot, uint256 _hitpoints, uint256 _attack, uint256 _defense, uint256 _speed, uint8 _type, uint8 _movement ) public onlyOracle {\r\n        \r\n        WarBotProfiles[ _warbot ].hitpoints = WarBotProfiles[ _warbot ].basehitpoints + _hitpoints;\r\n        WarBotProfiles[ _warbot ].attack = WarBotProfiles[ _warbot ].baseattack + _attack;\r\n        WarBotProfiles[ _warbot ].defense = WarBotProfiles[ _warbot ].basedefense + _defense;\r\n        WarBotProfiles[ _warbot ].speed = WarBotProfiles[ _warbot ].basespeed + _speed;\r\n        RequestReroll[_warbot]=false;\r\n        if (_type > 0 ) setWarbotType ( _warbot, _type );\r\n        if (_movement > 0 ) WarBotProfiles[ _warbot ].movement += _movement;\r\n        if ( WarBotCurrentStats[ _warbot ]._levelinit == false ) {\r\n            \r\n            \r\n             WarBotCurrentStats[_warbot]._warbothitpoints   =  WarBotProfiles[ _warbot ].basehitpoints + _hitpoints;\r\n             WarBotCurrentStats[_warbot]._warbotattack = WarBotProfiles[ _warbot ].baseattack + _attack;\r\n             WarBotCurrentStats[_warbot]._warbotdefense = WarBotProfiles[ _warbot ].basedefense + _defense;\r\n             WarBotCurrentStats[_warbot]._warbotspeed = WarBotProfiles[ _warbot ].basespeed + _speed;\r\n             WarBotCurrentStats[ _warbot ]._levelinit = true;\r\n        }\r\n        \r\n        emit levelStatsRolled ( _warbot );\r\n    }\r\n    \r\n    \r\n    function requestRerollOfStats ( uint256 _warbot ) public onlyEngine {\r\n        \r\n        RequestReroll[_warbot] = true;\r\n        emit levelStatsRerollRequested ( _warbot );\r\n    }\r\n    \r\n    function setSlots( uint256 _warbot, uint8 _slots ) public {\r\n        WarBotProfiles[_warbot].slots = _slots;\r\n    }\r\n    \r\n    function setCreator( uint256 _warbot, address _creator ) public {\r\n        WarBotProfiles[_warbot].creator = _creator;\r\n    }\r\n    \r\n     function getCreator( uint256 _warbot ) public view returns(address) {\r\n       return  WarBotProfiles[_warbot].creator;\r\n     }\r\n    \r\n    function zeroWarbotLevel( uint256 _warbot ) public {\r\n        uint256 _level = WarbotLevel[_warbot];\r\n        WarbotLevel[_warbot] = 0;\r\n        warbotLevelCount[_level].sub(1);\r\n        \r\n        \r\n    }\r\n    \r\n    function incrementWarbotLevel( uint256 _warbot ) public {\r\n        uint256 _level = WarbotLevel[_warbot];\r\n        WarbotLevel[_warbot]++;\r\n        warbotLevelCount[WarbotLevel[_warbot]]++;\r\n        if( _level != 0 ) warbotLevelCount[_level]--;\r\n        requestRerollOfStats(_warbot);\r\n        WarBotProfiles[_warbot].basehitpoints = WarBotProfiles[ _warbot ].hitpoints;\r\n        WarBotProfiles[_warbot].baseattack = WarBotProfiles[ _warbot ].attack;\r\n        WarBotProfiles[_warbot].basedefense = WarBotProfiles[ _warbot ].defense;\r\n        WarBotProfiles[_warbot].basespeed = WarBotProfiles[ _warbot ].speed;\r\n        WarBotProfiles[ _warbot ].rerollCount = 0;\r\n        WarBotCurrentStats[ _warbot ]._levelinit = false;\r\n        emit warbotUpgraded ( _warbot, WarbotLevel[_warbot] );\r\n        \r\n    }\r\n    \r\n    \r\n    \r\n    function incrementReroll( uint256 _warbot ) public {\r\n        WarBotProfiles[_warbot].rerollCount++;\r\n    }\r\n    \r\n    function getCurrentRerollCount( uint256 _warbot ) public view returns(uint256) {\r\n        return WarBotProfiles[_warbot].rerollCount;\r\n    }\r\n    \r\n    function setCurrentHitPoint( uint256 _warbot , uint256 _warbothitpoints) public {\r\n        WarBotCurrentStats[_warbot]._warbothitpoints   = _warbothitpoints; \r\n        \r\n    }\r\n    \r\n    function getCurrentHitPoint( uint256 _warbot ) public view returns(uint256){\r\n        return WarBotCurrentStats[_warbot]._warbothitpoints; \r\n        \r\n    }\r\n    \r\n    function damageWarbot ( uint256 _warbot, uint256 _damage )  public {\r\n        unchecked{ WarBotCurrentStats[_warbot]._warbothitpoints -= _damage; }\r\n        if ( WarBotCurrentStats[_warbot]._warbothitpoints >   WarBotProfiles[_warbot].hitpoints )  \r\n                                                            WarBotCurrentStats[_warbot]._warbothitpoints = 0;\r\n        emit WarbotDamaged ( _warbot, _damage );\r\n        \r\n    }\r\n    \r\n    function repairWarbot ( uint256 _warbot, uint256 _repair )  public {\r\n        WarBotCurrentStats[_warbot]._warbothitpoints += _repair; \r\n        if ( WarBotCurrentStats[_warbot]._warbothitpoints >   WarBotProfiles[_warbot].hitpoints )  \r\n                                                            WarBotCurrentStats[_warbot]._warbothitpoints = WarBotProfiles[_warbot].hitpoints;\r\n        emit WarbotRepaired (  _warbot, _repair ); \r\n    }\r\n    \r\n    \r\n    function damageWarbotDefense ( uint256 _warbot, uint256 _damage )  public {\r\n       unchecked{ WarBotCurrentStats[_warbot]._warbotdefense -= _damage; }\r\n        if ( WarBotCurrentStats[_warbot]._warbotdefense >   WarBotProfiles[_warbot].defense )  \r\n                                                            WarBotCurrentStats[_warbot]._warbotdefense = 0;\r\n        emit  WarbotDefenseDamaged (  _warbot, _damage );\r\n    }\r\n    \r\n    function repairWarbotDefense ( uint256 _warbot, uint256 _repair )  public {\r\n        WarBotCurrentStats[_warbot]._warbotdefense += _repair; \r\n        if ( WarBotCurrentStats[_warbot]._warbotdefense >   WarBotProfiles[_warbot].defense )  \r\n                                                            WarBotCurrentStats[_warbot]._warbotdefense = WarBotProfiles[_warbot].defense;\r\n        emit WarbotDefenseRepaired (  _warbot, _repair ); \r\n    \r\n        \r\n    }\r\n    \r\n    function damageWarbotAttack ( uint256 _warbot, uint256 _damage )  public {\r\n        unchecked{WarBotCurrentStats[_warbot]._warbotattack -= _damage; }\r\n        if ( WarBotCurrentStats[_warbot]._warbotattack >   WarBotProfiles[_warbot].attack )  \r\n                                                            WarBotCurrentStats[_warbot]._warbotattack = 0;\r\n        emit WarbotAttackDamaged ( _warbot, _damage );\r\n    }\r\n    \r\n    function repairWarbotAttack ( uint256 _warbot, uint256 _repair )  public {\r\n        WarBotCurrentStats[_warbot]._warbotattack += _repair; \r\n        if ( WarBotCurrentStats[_warbot]._warbotattack >   WarBotProfiles[_warbot].attack )  \r\n                                                            WarBotCurrentStats[_warbot]._warbotattack = WarBotProfiles[_warbot].attack;\r\n        emit WarbotAttackRepaired (  _warbot, _repair ); \r\n        \r\n    }\r\n    \r\n    function damageWarbotSpeed ( uint256 _warbot, uint256 _damage )  public {\r\n        unchecked{WarBotCurrentStats[_warbot]._warbotspeed -= _damage; }\r\n        if ( WarBotCurrentStats[_warbot]._warbotspeed >   WarBotProfiles[_warbot].speed )  \r\n                                                            WarBotCurrentStats[_warbot]._warbotspeed = 0;\r\n         emit WarbotSpeedDamaged (  _warbot, _damage );\r\n    }\r\n    \r\n    function repairWarbotSpeed ( uint256 _warbot, uint256 _repair )  public {\r\n        WarBotCurrentStats[_warbot]._warbotspeed += _repair; \r\n        if ( WarBotCurrentStats[_warbot]._warbotspeed >   WarBotProfiles[_warbot].speed )  \r\n                                                            WarBotCurrentStats[_warbot]._warbotspeed = WarBotProfiles[_warbot].speed;\r\n        emit WarbotSpeedRepaired (  _warbot, _repair );                                                    \r\n        \r\n    }\r\n    \r\n     function damageWarbotMovement ( uint256 _warbot, uint8 _damage )  public {\r\n        unchecked{WarBotCurrentStats[_warbot]._movement -= _damage; }\r\n        if ( WarBotCurrentStats[_warbot]._movement >   WarBotProfiles[_warbot].movement )  \r\n                                                            WarBotCurrentStats[_warbot]._movement = 0;\r\n         emit WarbotSpeedDamaged (  _warbot, _damage );\r\n    }\r\n    \r\n    function repairWarbotMovement ( uint256 _warbot, uint8 _repair )  public {\r\n        WarBotCurrentStats[_warbot]._movement += _repair; \r\n        if ( WarBotCurrentStats[_warbot]._movement >   WarBotProfiles[_warbot].movement )  \r\n                                                            WarBotCurrentStats[_warbot]._movement = WarBotProfiles[_warbot].movement;\r\n        emit WarbotSpeedRepaired (  _warbot, _repair );                                                    \r\n        \r\n    }\r\n    \r\n    \r\n    \r\n    function bindCardtoWarbot( uint256 _warbot, uint8 _cardtype, uint8 _bonus ) public {\r\n        \r\n        \r\n        WarBotProfile storage _profile = WarBotProfiles[_warbot];\r\n        if ( _cardtype == 1 ) _profile.attack += _bonus;\r\n        if ( _cardtype == 2 ) _profile.defense += _bonus;\r\n        if ( _cardtype == 3 )_profile.speed += _bonus;\r\n        if ( _cardtype == 4 )_profile.hitpoints += _bonus;\r\n       \r\n        \r\n    }\r\n    \r\n    \r\n    function setWarbotHandoff ( uint256 _warbot, address _contract ) public {\r\n        WarbotHandOff[_warbot] = _contract;\r\n        \r\n    }\r\n    \r\n    \r\n    function setEngineContracts ( address[] memory _addresses ) public onlyOwner {\r\n        EngineContracts = _addresses;\r\n    }\r\n    \r\n    function setOracle ( address _address ) public onlyOwner {\r\n        oracle = _address;\r\n    }\r\n    \r\n    \r\n    \r\n    \r\n    \r\n    modifier onlyEngine() {\r\n\r\n        bool team_member = false;\r\n        for( uint i=0; i < EngineContracts.length ; i++){\r\n          if( EngineContracts[i] == msg.sender ) team_member = true;\r\n        }\r\n        require(team_member == true , 'Game Engine Contracts Only');\r\n        _;\r\n    }\r\n    \r\n    modifier onlyOracle() {\r\n        require( msg.sender == oracle, \"Oracle Only\");\r\n        _;\r\n    }\r\n    \r\n    \r\n}",
  "sourcePath": "C:/warbots/warbotsFix/warbots/contracts/warbotstatsdata.sol",
  "compiler": {
    "name": "solc",
    "version": "0.8.6+commit.11564f7e.Emscripten.clang"
  },
  "schemaVersion": "3.4.1",
  "updatedAt": "2021-07-26T19:41:34.625Z",
  "devdoc": {
    "kind": "dev",
    "methods": {
      "owner()": {
        "details": "Returns the address of the current owner."
      },
      "renounceOwnership()": {
        "details": "Leaves the contract without owner. It will not be possible to call `onlyOwner` functions anymore. Can only be called by the current owner. NOTE: Renouncing ownership will leave the contract without an owner, thereby removing any functionality that is only available to the owner."
      },
      "transferOwnership(address)": {
        "details": "Transfers ownership of the contract to a new account (`newOwner`). Can only be called by the current owner."
      }
    },
    "version": 1
  },
  "userdoc": {
    "kind": "user",
    "methods": {},
    "version": 1
  }
}