{
  "contractName": "WarContract",
  "abi": [
    {
      "inputs": [],
      "stateMutability": "nonpayable",
      "type": "constructor"
    },
    {
      "anonymous": false,
      "inputs": [
        {
          "indexed": false,
          "internalType": "uint256",
          "name": "_maxsize",
          "type": "uint256"
        }
      ],
      "name": "MaxBotsPerTeamSet",
      "type": "event"
    },
    {
      "anonymous": false,
      "inputs": [
        {
          "indexed": true,
          "internalType": "address",
          "name": "previousOwner",
          "type": "address"
        },
        {
          "indexed": true,
          "internalType": "address",
          "name": "newOwner",
          "type": "address"
        }
      ],
      "name": "OwnershipTransferred",
      "type": "event"
    },
    {
      "anonymous": false,
      "inputs": [
        {
          "indexed": true,
          "internalType": "uint256",
          "name": "_war",
          "type": "uint256"
        },
        {
          "indexed": false,
          "internalType": "uint256",
          "name": "_warbotOrderPointer",
          "type": "uint256"
        }
      ],
      "name": "PointerAdvaced",
      "type": "event"
    },
    {
      "anonymous": false,
      "inputs": [
        {
          "indexed": true,
          "internalType": "uint256",
          "name": "_war",
          "type": "uint256"
        },
        {
          "indexed": false,
          "internalType": "uint256[]",
          "name": "_order",
          "type": "uint256[]"
        }
      ],
      "name": "WarBotOrderSet",
      "type": "event"
    },
    {
      "anonymous": false,
      "inputs": [
        {
          "indexed": true,
          "internalType": "uint256",
          "name": "_war",
          "type": "uint256"
        },
        {
          "indexed": false,
          "internalType": "address[]",
          "name": "_warteams",
          "type": "address[]"
        }
      ],
      "name": "WarStarted",
      "type": "event"
    },
    {
      "anonymous": false,
      "inputs": [
        {
          "indexed": false,
          "internalType": "uint256",
          "name": "_war",
          "type": "uint256"
        },
        {
          "indexed": false,
          "internalType": "uint8",
          "name": "_option",
          "type": "uint8"
        },
        {
          "indexed": false,
          "internalType": "uint256",
          "name": "_target",
          "type": "uint256"
        },
        {
          "indexed": false,
          "internalType": "int8",
          "name": "_x",
          "type": "int8"
        },
        {
          "indexed": false,
          "internalType": "int8",
          "name": "_y",
          "type": "int8"
        },
        {
          "indexed": false,
          "internalType": "uint256",
          "name": "_cardnumber",
          "type": "uint256"
        }
      ],
      "name": "goTurnEvent",
      "type": "event"
    },
    {
      "anonymous": false,
      "inputs": [
        {
          "indexed": true,
          "internalType": "uint256",
          "name": "warCount",
          "type": "uint256"
        },
        {
          "indexed": true,
          "internalType": "address",
          "name": "_warinitiator",
          "type": "address"
        },
        {
          "indexed": true,
          "internalType": "uint256",
          "name": "_warbot",
          "type": "uint256"
        }
      ],
      "name": "newBattleInitiated",
      "type": "event"
    },
    {
      "inputs": [
        {
          "internalType": "uint256",
          "name": "",
          "type": "uint256"
        },
        {
          "internalType": "uint256",
          "name": "",
          "type": "uint256"
        }
      ],
      "name": "BotsInWar",
      "outputs": [
        {
          "internalType": "uint256",
          "name": "",
          "type": "uint256"
        }
      ],
      "stateMutability": "view",
      "type": "function"
    },
    {
      "inputs": [
        {
          "internalType": "uint256",
          "name": "",
          "type": "uint256"
        },
        {
          "internalType": "uint256",
          "name": "",
          "type": "uint256"
        }
      ],
      "name": "BotsInWarStanding",
      "outputs": [
        {
          "internalType": "uint256",
          "name": "",
          "type": "uint256"
        }
      ],
      "stateMutability": "view",
      "type": "function"
    },
    {
      "inputs": [
        {
          "internalType": "uint256",
          "name": "",
          "type": "uint256"
        },
        {
          "internalType": "address",
          "name": "",
          "type": "address"
        },
        {
          "internalType": "uint8",
          "name": "",
          "type": "uint8"
        }
      ],
      "name": "NFTCardCount",
      "outputs": [
        {
          "internalType": "uint8",
          "name": "",
          "type": "uint8"
        }
      ],
      "stateMutability": "view",
      "type": "function"
    },
    {
      "inputs": [
        {
          "internalType": "uint256",
          "name": "",
          "type": "uint256"
        },
        {
          "internalType": "address",
          "name": "",
          "type": "address"
        },
        {
          "internalType": "uint256",
          "name": "",
          "type": "uint256"
        },
        {
          "internalType": "uint256",
          "name": "",
          "type": "uint256"
        }
      ],
      "name": "NFTCards",
      "outputs": [
        {
          "internalType": "uint256",
          "name": "",
          "type": "uint256"
        }
      ],
      "stateMutability": "view",
      "type": "function"
    },
    {
      "inputs": [
        {
          "internalType": "uint256",
          "name": "",
          "type": "uint256"
        },
        {
          "internalType": "address",
          "name": "",
          "type": "address"
        }
      ],
      "name": "TeamBotCount",
      "outputs": [
        {
          "internalType": "uint8",
          "name": "",
          "type": "uint8"
        }
      ],
      "stateMutability": "view",
      "type": "function"
    },
    {
      "inputs": [
        {
          "internalType": "uint256",
          "name": "",
          "type": "uint256"
        }
      ],
      "name": "WarRound",
      "outputs": [
        {
          "internalType": "uint256",
          "name": "",
          "type": "uint256"
        }
      ],
      "stateMutability": "view",
      "type": "function"
    },
    {
      "inputs": [
        {
          "internalType": "uint256",
          "name": "",
          "type": "uint256"
        }
      ],
      "name": "WarTeamCount",
      "outputs": [
        {
          "internalType": "uint8",
          "name": "",
          "type": "uint8"
        }
      ],
      "stateMutability": "view",
      "type": "function"
    },
    {
      "inputs": [
        {
          "internalType": "uint256",
          "name": "",
          "type": "uint256"
        },
        {
          "internalType": "address",
          "name": "",
          "type": "address"
        }
      ],
      "name": "WarbotDeathCount",
      "outputs": [
        {
          "internalType": "uint8",
          "name": "",
          "type": "uint8"
        }
      ],
      "stateMutability": "view",
      "type": "function"
    },
    {
      "inputs": [
        {
          "internalType": "uint256",
          "name": "",
          "type": "uint256"
        },
        {
          "internalType": "uint8",
          "name": "",
          "type": "uint8"
        }
      ],
      "name": "Wars",
      "outputs": [
        {
          "internalType": "address",
          "name": "",
          "type": "address"
        }
      ],
      "stateMutability": "view",
      "type": "function"
    },
    {
      "inputs": [],
      "name": "__warbotstatsdata",
      "outputs": [
        {
          "internalType": "contract WarbotStatsData",
          "name": "",
          "type": "address"
        }
      ],
      "stateMutability": "view",
      "type": "function"
    },
    {
      "inputs": [
        {
          "internalType": "uint256",
          "name": "",
          "type": "uint256"
        }
      ],
      "name": "_tempBots",
      "outputs": [
        {
          "internalType": "uint256",
          "name": "",
          "type": "uint256"
        }
      ],
      "stateMutability": "view",
      "type": "function"
    },
    {
      "inputs": [
        {
          "internalType": "uint256",
          "name": "",
          "type": "uint256"
        }
      ],
      "name": "_tempOWNERS",
      "outputs": [
        {
          "internalType": "address",
          "name": "",
          "type": "address"
        }
      ],
      "stateMutability": "view",
      "type": "function"
    },
    {
      "inputs": [
        {
          "internalType": "uint256",
          "name": "",
          "type": "uint256"
        }
      ],
      "name": "activeBattleSlot",
      "outputs": [
        {
          "internalType": "uint256",
          "name": "",
          "type": "uint256"
        }
      ],
      "stateMutability": "view",
      "type": "function"
    },
    {
      "inputs": [
        {
          "internalType": "uint256",
          "name": "",
          "type": "uint256"
        }
      ],
      "name": "activeBattles",
      "outputs": [
        {
          "internalType": "uint256",
          "name": "",
          "type": "uint256"
        }
      ],
      "stateMutability": "view",
      "type": "function"
    },
    {
      "inputs": [],
      "name": "burnAddress",
      "outputs": [
        {
          "internalType": "address",
          "name": "",
          "type": "address"
        }
      ],
      "stateMutability": "view",
      "type": "function"
    },
    {
      "inputs": [
        {
          "internalType": "uint256",
          "name": "",
          "type": "uint256"
        }
      ],
      "name": "closedBattleSlot",
      "outputs": [
        {
          "internalType": "uint256",
          "name": "",
          "type": "uint256"
        }
      ],
      "stateMutability": "view",
      "type": "function"
    },
    {
      "inputs": [
        {
          "internalType": "uint256",
          "name": "",
          "type": "uint256"
        }
      ],
      "name": "closedBattles",
      "outputs": [
        {
          "internalType": "uint256",
          "name": "",
          "type": "uint256"
        }
      ],
      "stateMutability": "view",
      "type": "function"
    },
    {
      "inputs": [],
      "name": "maxBotsPerTeam",
      "outputs": [
        {
          "internalType": "uint8",
          "name": "",
          "type": "uint8"
        }
      ],
      "stateMutability": "view",
      "type": "function"
    },
    {
      "inputs": [],
      "name": "maxWarTeams",
      "outputs": [
        {
          "internalType": "uint8",
          "name": "",
          "type": "uint8"
        }
      ],
      "stateMutability": "view",
      "type": "function"
    },
    {
      "inputs": [],
      "name": "micromachinemanufacturingplant",
      "outputs": [
        {
          "internalType": "address",
          "name": "",
          "type": "address"
        }
      ],
      "stateMutability": "view",
      "type": "function"
    },
    {
      "inputs": [],
      "name": "micromachines",
      "outputs": [
        {
          "internalType": "address",
          "name": "",
          "type": "address"
        }
      ],
      "stateMutability": "view",
      "type": "function"
    },
    {
      "inputs": [],
      "name": "nanomachines",
      "outputs": [
        {
          "internalType": "address",
          "name": "",
          "type": "address"
        }
      ],
      "stateMutability": "view",
      "type": "function"
    },
    {
      "inputs": [],
      "name": "nanonft",
      "outputs": [
        {
          "internalType": "address",
          "name": "",
          "type": "address"
        }
      ],
      "stateMutability": "view",
      "type": "function"
    },
    {
      "inputs": [
        {
          "internalType": "uint256",
          "name": "",
          "type": "uint256"
        }
      ],
      "name": "newBattleSlot",
      "outputs": [
        {
          "internalType": "uint256",
          "name": "",
          "type": "uint256"
        }
      ],
      "stateMutability": "view",
      "type": "function"
    },
    {
      "inputs": [
        {
          "internalType": "uint256",
          "name": "",
          "type": "uint256"
        }
      ],
      "name": "newBattles",
      "outputs": [
        {
          "internalType": "uint256",
          "name": "",
          "type": "uint256"
        }
      ],
      "stateMutability": "view",
      "type": "function"
    },
    {
      "inputs": [],
      "name": "oracle",
      "outputs": [
        {
          "internalType": "address",
          "name": "",
          "type": "address"
        }
      ],
      "stateMutability": "view",
      "type": "function"
    },
    {
      "inputs": [],
      "name": "owner",
      "outputs": [
        {
          "internalType": "address",
          "name": "",
          "type": "address"
        }
      ],
      "stateMutability": "view",
      "type": "function"
    },
    {
      "inputs": [],
      "name": "renounceOwnership",
      "outputs": [],
      "stateMutability": "nonpayable",
      "type": "function"
    },
    {
      "inputs": [
        {
          "internalType": "address",
          "name": "newOwner",
          "type": "address"
        }
      ],
      "name": "transferOwnership",
      "outputs": [],
      "stateMutability": "nonpayable",
      "type": "function"
    },
    {
      "inputs": [],
      "name": "warCount",
      "outputs": [
        {
          "internalType": "uint256",
          "name": "",
          "type": "uint256"
        }
      ],
      "stateMutability": "view",
      "type": "function"
    },
    {
      "inputs": [
        {
          "internalType": "uint256",
          "name": "",
          "type": "uint256"
        }
      ],
      "name": "warStatus",
      "outputs": [
        {
          "internalType": "uint8",
          "name": "",
          "type": "uint8"
        }
      ],
      "stateMutability": "view",
      "type": "function"
    },
    {
      "inputs": [
        {
          "internalType": "uint256",
          "name": "",
          "type": "uint256"
        },
        {
          "internalType": "uint256",
          "name": "",
          "type": "uint256"
        }
      ],
      "name": "warbotAt",
      "outputs": [
        {
          "internalType": "uint256",
          "name": "",
          "type": "uint256"
        }
      ],
      "stateMutability": "view",
      "type": "function"
    },
    {
      "inputs": [
        {
          "internalType": "uint256",
          "name": "",
          "type": "uint256"
        }
      ],
      "name": "warbotCardPlay",
      "outputs": [
        {
          "internalType": "uint256",
          "name": "",
          "type": "uint256"
        }
      ],
      "stateMutability": "view",
      "type": "function"
    },
    {
      "inputs": [
        {
          "internalType": "uint256",
          "name": "",
          "type": "uint256"
        }
      ],
      "name": "warbotCommand",
      "outputs": [
        {
          "internalType": "uint256",
          "name": "",
          "type": "uint256"
        }
      ],
      "stateMutability": "view",
      "type": "function"
    },
    {
      "inputs": [
        {
          "internalType": "uint256",
          "name": "",
          "type": "uint256"
        }
      ],
      "name": "warbotInWarZone",
      "outputs": [
        {
          "internalType": "bool",
          "name": "",
          "type": "bool"
        }
      ],
      "stateMutability": "view",
      "type": "function"
    },
    {
      "inputs": [
        {
          "internalType": "uint256",
          "name": "",
          "type": "uint256"
        },
        {
          "internalType": "uint256",
          "name": "",
          "type": "uint256"
        }
      ],
      "name": "warbotMovement",
      "outputs": [
        {
          "internalType": "int8",
          "name": "",
          "type": "int8"
        }
      ],
      "stateMutability": "view",
      "type": "function"
    },
    {
      "inputs": [
        {
          "internalType": "uint256",
          "name": "",
          "type": "uint256"
        },
        {
          "internalType": "uint256",
          "name": "",
          "type": "uint256"
        }
      ],
      "name": "warbotOrder",
      "outputs": [
        {
          "internalType": "uint256",
          "name": "",
          "type": "uint256"
        }
      ],
      "stateMutability": "view",
      "type": "function"
    },
    {
      "inputs": [
        {
          "internalType": "uint256",
          "name": "",
          "type": "uint256"
        }
      ],
      "name": "warbotOrderPointer",
      "outputs": [
        {
          "internalType": "uint256",
          "name": "",
          "type": "uint256"
        }
      ],
      "stateMutability": "view",
      "type": "function"
    },
    {
      "inputs": [
        {
          "internalType": "uint256",
          "name": "",
          "type": "uint256"
        }
      ],
      "name": "warbotOwner",
      "outputs": [
        {
          "internalType": "address",
          "name": "",
          "type": "address"
        }
      ],
      "stateMutability": "view",
      "type": "function"
    },
    {
      "inputs": [
        {
          "internalType": "uint256",
          "name": "",
          "type": "uint256"
        }
      ],
      "name": "warbotTarget",
      "outputs": [
        {
          "internalType": "uint256",
          "name": "",
          "type": "uint256"
        }
      ],
      "stateMutability": "view",
      "type": "function"
    },
    {
      "inputs": [],
      "name": "warbotstats",
      "outputs": [
        {
          "internalType": "address",
          "name": "",
          "type": "address"
        }
      ],
      "stateMutability": "view",
      "type": "function"
    },
    {
      "inputs": [],
      "name": "warbotstatsdata",
      "outputs": [
        {
          "internalType": "address",
          "name": "",
          "type": "address"
        }
      ],
      "stateMutability": "view",
      "type": "function"
    },
    {
      "inputs": [
        {
          "internalType": "uint256",
          "name": "_warbot",
          "type": "uint256"
        }
      ],
      "name": "newBattle",
      "outputs": [],
      "stateMutability": "nonpayable",
      "type": "function"
    },
    {
      "inputs": [
        {
          "internalType": "uint256",
          "name": "_war",
          "type": "uint256"
        }
      ],
      "name": "checkIfTeamsAreEven",
      "outputs": [
        {
          "internalType": "bool",
          "name": "",
          "type": "bool"
        }
      ],
      "stateMutability": "nonpayable",
      "type": "function"
    },
    {
      "inputs": [
        {
          "internalType": "uint256",
          "name": "_war",
          "type": "uint256"
        }
      ],
      "name": "getWarTeams",
      "outputs": [
        {
          "internalType": "address[]",
          "name": "",
          "type": "address[]"
        }
      ],
      "stateMutability": "view",
      "type": "function"
    },
    {
      "inputs": [
        {
          "internalType": "address",
          "name": "_address",
          "type": "address"
        },
        {
          "internalType": "uint256",
          "name": "_war",
          "type": "uint256"
        }
      ],
      "name": "checkIfTeamIsPartOfWar",
      "outputs": [
        {
          "internalType": "uint8",
          "name": "",
          "type": "uint8"
        }
      ],
      "stateMutability": "view",
      "type": "function"
    },
    {
      "inputs": [
        {
          "internalType": "uint256",
          "name": "_war",
          "type": "uint256"
        },
        {
          "internalType": "address",
          "name": "_address",
          "type": "address"
        }
      ],
      "name": "countWarbotsOnTeam",
      "outputs": [
        {
          "internalType": "uint8",
          "name": "",
          "type": "uint8"
        }
      ],
      "stateMutability": "view",
      "type": "function"
    },
    {
      "inputs": [
        {
          "internalType": "uint256",
          "name": "_warbot",
          "type": "uint256"
        },
        {
          "internalType": "uint256",
          "name": "_war",
          "type": "uint256"
        }
      ],
      "name": "joinBattle",
      "outputs": [],
      "stateMutability": "nonpayable",
      "type": "function"
    },
    {
      "inputs": [
        {
          "internalType": "uint256",
          "name": "_warbot",
          "type": "uint256"
        }
      ],
      "name": "returnWarbot",
      "outputs": [],
      "stateMutability": "nonpayable",
      "type": "function"
    },
    {
      "inputs": [
        {
          "internalType": "uint256",
          "name": "_warbot",
          "type": "uint256"
        },
        {
          "internalType": "address",
          "name": "_warbotowner",
          "type": "address"
        }
      ],
      "name": "processWarbotReturn",
      "outputs": [],
      "stateMutability": "nonpayable",
      "type": "function"
    },
    {
      "inputs": [
        {
          "internalType": "uint256",
          "name": "_war",
          "type": "uint256"
        }
      ],
      "name": "returnAllWarbots",
      "outputs": [],
      "stateMutability": "nonpayable",
      "type": "function"
    },
    {
      "inputs": [
        {
          "internalType": "uint256",
          "name": "_warbot",
          "type": "uint256"
        }
      ],
      "name": "removeWarbotFromWar",
      "outputs": [],
      "stateMutability": "nonpayable",
      "type": "function"
    },
    {
      "inputs": [],
      "name": "getNewBattles",
      "outputs": [
        {
          "internalType": "uint256[]",
          "name": "",
          "type": "uint256[]"
        }
      ],
      "stateMutability": "view",
      "type": "function"
    },
    {
      "inputs": [],
      "name": "getActiveBattles",
      "outputs": [
        {
          "internalType": "uint256[]",
          "name": "",
          "type": "uint256[]"
        }
      ],
      "stateMutability": "view",
      "type": "function"
    },
    {
      "inputs": [],
      "name": "getClosedBattles",
      "outputs": [
        {
          "internalType": "uint256[]",
          "name": "",
          "type": "uint256[]"
        }
      ],
      "stateMutability": "view",
      "type": "function"
    },
    {
      "inputs": [
        {
          "internalType": "uint256",
          "name": "_war",
          "type": "uint256"
        }
      ],
      "name": "getBotsInWar",
      "outputs": [
        {
          "internalType": "uint256[]",
          "name": "",
          "type": "uint256[]"
        }
      ],
      "stateMutability": "view",
      "type": "function"
    },
    {
      "inputs": [
        {
          "internalType": "uint256",
          "name": "_war",
          "type": "uint256"
        }
      ],
      "name": "getBotsInWarStanding",
      "outputs": [
        {
          "internalType": "uint256[]",
          "name": "",
          "type": "uint256[]"
        }
      ],
      "stateMutability": "view",
      "type": "function"
    },
    {
      "inputs": [
        {
          "internalType": "uint256",
          "name": "_warbot",
          "type": "uint256"
        }
      ],
      "name": "whereIsWarbot",
      "outputs": [
        {
          "internalType": "uint256",
          "name": "",
          "type": "uint256"
        },
        {
          "internalType": "uint256",
          "name": "",
          "type": "uint256"
        }
      ],
      "stateMutability": "view",
      "type": "function"
    },
    {
      "inputs": [
        {
          "internalType": "uint256",
          "name": "_war",
          "type": "uint256"
        },
        {
          "internalType": "uint8",
          "name": "_status",
          "type": "uint8"
        }
      ],
      "name": "changeWarStatus",
      "outputs": [],
      "stateMutability": "nonpayable",
      "type": "function"
    },
    {
      "inputs": [
        {
          "internalType": "uint256",
          "name": "_war",
          "type": "uint256"
        }
      ],
      "name": "startWar",
      "outputs": [],
      "stateMutability": "nonpayable",
      "type": "function"
    },
    {
      "inputs": [
        {
          "internalType": "uint256",
          "name": "_war",
          "type": "uint256"
        },
        {
          "internalType": "uint8",
          "name": "_option",
          "type": "uint8"
        },
        {
          "internalType": "uint256",
          "name": "_target",
          "type": "uint256"
        },
        {
          "internalType": "int8",
          "name": "_x",
          "type": "int8"
        },
        {
          "internalType": "int8",
          "name": "_y",
          "type": "int8"
        },
        {
          "internalType": "uint256",
          "name": "_cardnumber",
          "type": "uint256"
        }
      ],
      "name": "goTurn",
      "outputs": [],
      "stateMutability": "nonpayable",
      "type": "function"
    },
    {
      "inputs": [
        {
          "internalType": "uint256",
          "name": "_war",
          "type": "uint256"
        }
      ],
      "name": "advancePointer",
      "outputs": [],
      "stateMutability": "nonpayable",
      "type": "function"
    },
    {
      "inputs": [
        {
          "internalType": "uint256",
          "name": "_war",
          "type": "uint256"
        }
      ],
      "name": "getCurrentTurn",
      "outputs": [
        {
          "internalType": "uint256",
          "name": "",
          "type": "uint256"
        }
      ],
      "stateMutability": "view",
      "type": "function"
    },
    {
      "inputs": [
        {
          "internalType": "uint256",
          "name": "_war",
          "type": "uint256"
        },
        {
          "internalType": "uint8",
          "name": "_status",
          "type": "uint8"
        }
      ],
      "name": "setWarStatus",
      "outputs": [],
      "stateMutability": "nonpayable",
      "type": "function"
    },
    {
      "inputs": [
        {
          "internalType": "uint256",
          "name": "_war",
          "type": "uint256"
        },
        {
          "internalType": "uint256",
          "name": "_warbot",
          "type": "uint256"
        },
        {
          "internalType": "uint256",
          "name": "_damage",
          "type": "uint256"
        },
        {
          "internalType": "uint8",
          "name": "_type",
          "type": "uint8"
        },
        {
          "internalType": "uint256",
          "name": "_warbotlocation",
          "type": "uint256"
        }
      ],
      "name": "damageWarbot",
      "outputs": [],
      "stateMutability": "nonpayable",
      "type": "function"
    },
    {
      "inputs": [
        {
          "internalType": "uint256",
          "name": "_war",
          "type": "uint256"
        },
        {
          "internalType": "uint256",
          "name": "_warbot",
          "type": "uint256"
        },
        {
          "internalType": "uint256",
          "name": "_warbotlocation",
          "type": "uint256"
        }
      ],
      "name": "warbotDeathCheck",
      "outputs": [],
      "stateMutability": "nonpayable",
      "type": "function"
    },
    {
      "inputs": [
        {
          "internalType": "uint256",
          "name": "_war",
          "type": "uint256"
        },
        {
          "internalType": "address",
          "name": "_loser",
          "type": "address"
        }
      ],
      "name": "endWar",
      "outputs": [],
      "stateMutability": "nonpayable",
      "type": "function"
    },
    {
      "inputs": [
        {
          "internalType": "uint256",
          "name": "_war",
          "type": "uint256"
        },
        {
          "internalType": "uint256[]",
          "name": "_order",
          "type": "uint256[]"
        }
      ],
      "name": "setWarbotOrder",
      "outputs": [],
      "stateMutability": "nonpayable",
      "type": "function"
    },
    {
      "inputs": [
        {
          "internalType": "uint256",
          "name": "_war",
          "type": "uint256"
        }
      ],
      "name": "getWarbotOrder",
      "outputs": [
        {
          "internalType": "uint256[]",
          "name": "",
          "type": "uint256[]"
        }
      ],
      "stateMutability": "view",
      "type": "function"
    },
    {
      "inputs": [
        {
          "internalType": "uint8",
          "name": "_maxsize",
          "type": "uint8"
        }
      ],
      "name": "setMaxBotsPerTeam",
      "outputs": [],
      "stateMutability": "nonpayable",
      "type": "function"
    },
    {
      "inputs": [
        {
          "internalType": "address",
          "name": "_address",
          "type": "address"
        }
      ],
      "name": "setWarbotStatsData",
      "outputs": [],
      "stateMutability": "nonpayable",
      "type": "function"
    },
    {
      "inputs": [
        {
          "internalType": "address",
          "name": "_address",
          "type": "address"
        }
      ],
      "name": "setMicromachines",
      "outputs": [],
      "stateMutability": "nonpayable",
      "type": "function"
    },
    {
      "inputs": [
        {
          "internalType": "address",
          "name": "_address",
          "type": "address"
        }
      ],
      "name": "setNanomachines",
      "outputs": [],
      "stateMutability": "nonpayable",
      "type": "function"
    },
    {
      "inputs": [
        {
          "internalType": "address",
          "name": "_address",
          "type": "address"
        }
      ],
      "name": "setNanoNFT",
      "outputs": [],
      "stateMutability": "nonpayable",
      "type": "function"
    },
    {
      "inputs": [
        {
          "internalType": "address",
          "name": "_address",
          "type": "address"
        }
      ],
      "name": "setWarbotstats",
      "outputs": [],
      "stateMutability": "nonpayable",
      "type": "function"
    },
    {
      "inputs": [
        {
          "internalType": "address",
          "name": "_address",
          "type": "address"
        }
      ],
      "name": "setMicromachinesManufacturingplant",
      "outputs": [],
      "stateMutability": "nonpayable",
      "type": "function"
    },
    {
      "inputs": [
        {
          "internalType": "uint256",
          "name": "_level",
          "type": "uint256"
        }
      ],
      "name": "levelRequirement",
      "outputs": [
        {
          "internalType": "uint256",
          "name": "",
          "type": "uint256"
        }
      ],
      "stateMutability": "nonpayable",
      "type": "function"
    },
    {
      "inputs": [
        {
          "internalType": "address",
          "name": "_operator",
          "type": "address"
        },
        {
          "internalType": "address",
          "name": "_from",
          "type": "address"
        },
        {
          "internalType": "uint256",
          "name": "_tokenId",
          "type": "uint256"
        },
        {
          "internalType": "bytes",
          "name": "_data",
          "type": "bytes"
        }
      ],
      "name": "onERC721Received",
      "outputs": [
        {
          "internalType": "bytes4",
          "name": "",
          "type": "bytes4"
        }
      ],
      "stateMutability": "view",
      "type": "function"
    }
  ],
  "bytecode": "0x60806040526000805463ffffffff60a01b1916630a85bd0160a11b178155600f556010805461ffff191661020217905534801561003b57600080fd5b50600080546001600160a01b031916339081178255604051909182917f8be0079c531659141344cd1fd0a4f28419497f9722a3daafe3b4186f6b6457e0908290a350600280546001600160a01b0319908116738bc3eb7ded0ec83d0a8ef18d327644c04191f7dd17909155600380548216734c0aeeb37210b97956309bb4585c5433cc015f6c17905560078054821673a66360f9f48afbaf42ba278ad8a1e4de30dafd9490811790915560058054831673c665dfa4cee8d947f181cce176264b143a0639339081179091556006805484167340fe42588870269d2592229c02d57baa84548e9d90811790915560018054851661dead179055600880548516737ce0e55703f12d03eb53b918ad6b9eb80d188afb179055600980548516909317909255600a805484169091179055600b80549092161790556139f9806101816000396000f3fe608060405234801561001057600080fd5b50600436106104695760003560e01c806377c0f4071161024c578063a2a1411711610146578063ddbd5ff8116100c3578063e8c9110411610087578063e8c9110414610b96578063ee52f8f314610ba9578063f2fde38b14610bbc578063f6d4a1601461096c578063fde4709014610bcf57600080fd5b8063ddbd5ff814610b27578063ddf3162414610b39578063debeb35314610b58578063e44dba4f14610b7b578063e553d02914610b8e57600080fd5b8063b4c8f1f41161010a578063b4c8f1f414610aa0578063ba405d7314610ac8578063bb04af2e14610ae8578063c462a5dd14610b0b578063c664199814610b1457600080fd5b8063a2a1411714610a24578063a50e75ce14610a47578063a75a01d814610a5a578063a9cdc1ee14610a7a578063b28394dc14610a8d57600080fd5b80638981b8f4116101d45780639331f3e4116101985780639331f3e4146109af578063933b291f146109c257806394bf9323146109f65780639b7fe8f314610a095780639c5c8c3114610a1c57600080fd5b80638981b8f41461093557806389c58a9d146109485780638da5cb5b1461095b5780638f15bd851461096c57806390ad8dc51461099c57600080fd5b80637e7066c11161021b5780637e7066c1146108ab5780637e786a66146108be57806385a902e5146108e15780638661e2b91461090f57806387e691eb1461092257600080fd5b806377c0f4071461085f5780637823b018146108725780637dc0d1d0146108855780637e6443cd1461089857600080fd5b80632fca50dd116103685780634decc7b1116102e5578063631f0ffc116102a9578063631f0ffc146107fe5780636730d5931461081e57806370d5ae0514610831578063715018a61461084457806372da19361461084c57600080fd5b80634decc7b11461077857806350cc60331461078b578063542a3973146107cb57806354c6a668146107de57806359c224e1146107eb57600080fd5b80633c6ac26f1161032c5780633c6ac26f146107195780633eedeacc1461072c5780634150f3bc1461073f57806344afee70146107525780634b4e66bc1461076557600080fd5b80632fca50dd146106b25780633181b317146106c557806333eba846146106eb57806333ff80f4146106fe57806337bf85cc1461071157600080fd5b80631841eb67116103f65780632470a0e7116103ba5780632470a0e71461060f5780632636aea21461064357806326e77a141461065657806326f29e561461067f5780632792e50e1461069f57600080fd5b80631841eb67146105a35780631c484d60146105b65780631f49f8b0146105c95780631fbc3192146105e9578063208a3038146105fc57600080fd5b806308d3a7451161043d57806308d3a745146104e95780630cd01d9814610509578063150417d214610534578063150b7a02146105475780631815779e1461058357600080fd5b8062fb6ad81461046e5780630132f57e1461048357806307d2585f146104b65780630856d2c3146104d6575b600080fd5b61048161047c366004613438565b610be2565b005b6104a3610491366004613438565b60246020526000908152604090205481565b6040519081526020015b60405180910390f35b6104a36104c4366004613438565b601b6020526000908152604090205481565b6104816104e4366004613438565b610d0f565b6104a36104f7366004613438565b60236020526000908152604090205481565b60075461051c906001600160a01b031681565b6040516001600160a01b0390911681526020016104ad565b610481610542366004613333565b610e39565b61056a61055536600461334e565b600054600160a01b900460e01b949350505050565b6040516001600160e01b031990911681526020016104ad565b610596610591366004613438565b610e8f565b6040516104ad9190613745565b6104816105b1366004613333565b610ef1565b6104816105c436600461346a565b610f3d565b6104a36105d7366004613438565b601a6020526000908152604090205481565b6104816105f7366004613438565b610fe5565b61048161060a366004613333565b6110cf565b61051c61061d36600461365b565b60126020908152600092835260408084209091529082529020546001600160a01b031681565b6104a36106513660046135c6565b61111b565b61051c610664366004613438565b6017602052600090815260409020546001600160a01b031681565b61069261068d366004613438565b61114c565b6040516104ad91906136f8565b6104816106ad366004613438565b6111b7565b61051c6106c0366004613438565b611634565b6106d86106d33660046135c6565b61165e565b60405160009190910b81526020016104ad565b60055461051c906001600160a01b031681565b61048161070c36600461367e565b61169d565b610596611a9e565b610481610727366004613438565b611af6565b61048161073a366004613333565b611b5c565b61059661074d366004613438565b611ba8565b6104816107603660046135e8565b611c08565b6104a3610773366004613496565b611d85565b610481610786366004613438565b611dd0565b6107b961079936600461346a565b602760209081526000928352604080842090915290825290205460ff1681565b60405160ff90911681526020016104ad565b6107b96107d936600461340e565b611f90565b6010546107b99060ff1681565b6104816107f93660046136dd565b612014565b6104a361080c366004613438565b601c6020526000908152604090205481565b6104a361082c366004613438565b61208e565b60015461051c906001600160a01b031681565b610481612135565b6104a361085a3660046135c6565b6121a9565b6104a361086d366004613438565b6121c5565b60025461051c906001600160a01b031681565b60085461051c906001600160a01b031681565b6107b96108a636600461346a565b6121e6565b6104a36108b93660046135c6565b612284565b6107b96108cc366004613438565b60136020526000908152604090205460ff1681565b6107b96108ef36600461346a565b601460209081526000928352604080842090915290825290205460ff1681565b6104a361091d366004613438565b6122a0565b60045461051c906001600160a01b031681565b61048161094336600461350d565b6122b0565b600b5461051c906001600160a01b031681565b6000546001600160a01b031661051c565b61048161097a36600461365b565b6000918252600e6020526040909120805460ff191660ff909216919091179055565b6105966109aa366004613438565b612395565b6104a36109bd366004613438565b6123f5565b6107b96109d03660046134d1565b600d60209081526000938452604080852082529284528284209052825290205460ff1681565b610481610a04366004613614565b612405565b610481610a1736600461346a565b6126db565b610596612752565b610a37610a32366004613438565b6127a8565b60405190151581526020016104ad565b610481610a55366004613333565b61292d565b6104a3610a68366004613438565b60226020526000908152604090205481565b6104a3610a88366004613438565b612979565b610481610a9b366004613333565b6129bb565b610ab3610aae366004613438565b612a07565b604080519283526020830191909152016104ad565b6104a3610ad6366004613438565b60266020526000908152604090205481565b6107b9610af6366004613438565b600e6020526000908152604090205460ff1681565b6104a3600f5481565b60035461051c906001600160a01b031681565b6010546107b990610100900460ff1681565b6104a3610b47366004613438565b602080526000908152604090205481565b610a37610b66366004613438565b60116020526000908152604090205460ff1681565b610481610b893660046135c6565b612a6c565b610596612e6a565b60065461051c906001600160a01b031681565b6104a3610bb7366004613438565b612ec0565b610481610bca366004613333565b612ed0565b6104a3610bdd3660046135c6565b612fba565b60008060005b610bf184612395565b51811015610d095760008481526015602052604081208054601792919084908110610c1e57610c1e613997565b6000918252602080832090910154835282810193909352604091820181205487825260159093522080546001600160a01b0390921694509082908110610c6657610c66613997565b6000918252602082200154602a805460018082019092557fbeced09521047d05b8960b7e7bcc1d1292cf3e4b2a6b63f48335cbde5f7545d20180546001600160a01b0319166001600160a01b038816179055602b805491820181559092527f11c44e4875b74d31ff9fd779bf2566af7bd15b87fc985d01f5094b89e3669e4f9091018190559150610cf782846126db565b80610d0181613946565b915050610be8565b50505050565b600080610d1b83612a07565b915091508160001415610d695760405162461bcd60e51b815260206004820152601160248201527002bb0b93137ba102737ba102337bab7321607d1b60448201526064015b60405180910390fd5b6000828152601560205260409020805482908110610d8957610d89613997565b600091825260208083209091018290558382526014815260408083203384529091528120805460ff1691610dbc83613929565b825460ff9182166101009390930a928302919092021990911617905550600083815260176020908152604080832080546001600160a01b0319169055805180820182528381528083018490528684526018909252909120610e1e916002613109565b5050506000908152601160205260409020805460ff19169055565b6000546001600160a01b03163314610e635760405162461bcd60e51b8152600401610d609061377d565b600680546001600160a01b039092166001600160a01b03199283168117909155600b8054909216179055565b600081815260166020908152604091829020805483518184028101840190945280845260609392830182828015610ee557602002820191906000526020600020905b815481526020019060010190808311610ed1575b50505050509050919050565b6000546001600160a01b03163314610f1b5760405162461bcd60e51b8152600401610d609061377d565b600480546001600160a01b0319166001600160a01b0392909216919091179055565b6000828152600e60205260408120805460ff19166005179055601f805460018181018355928290527fa03837a25210ee280c2113ff4b77ca23440b19d4866cca721c801278fd08d8070184905554610f959190613912565b6000838152601c6020908152604080832093909355601b90522054601e80549091908110610fc557610fc5613997565b60009182526020808320909101829055928152601b909252506040812055565b6000818152600e60209081526040808320805460ff191660031790556022909152812080549161101483613946565b9091555050600081815260216020908152604080832054602290925290912054141561107f576000818152602080526040812080549161105383613946565b90915550506000818152602260209081526040808320839055600e9091529020805460ff191660021790555b807ff4fa3799659bff38b9af811284096e7a45a0c13f89c5fe689b7614521f5278ed60226000848152602001908152602001600020546040516110c491815260200190565b60405180910390a250565b6000546001600160a01b031633146110f95760405162461bcd60e51b8152600401610d609061377d565b600380546001600160a01b0319166001600160a01b0392909216919091179055565b6018602052816000526040600020818154811061113757600080fd5b90600052602060002001600091509150505481565b600081815260196020908152604091829020805483518184028101840190945280845260609392830182828015610ee557602002820191906000526020600020905b81546001600160a01b0316815260019091019060200180831161118e5750505050509050919050565b6009546040516323b872dd60e01b8152336004820152306024820152604481018390526001600160a01b03909116906323b872dd90606401600060405180830381600087803b15801561120957600080fd5b505af115801561121d573d6000803e3d6000fd5b5050600b54604051637d890d8f60e11b815260048101859052600093506001600160a01b03909116915063fb121b1e90602401602060405180830381600087803b15801561126a57600080fd5b505af115801561127e573d6000803e3d6000fd5b505050506040513d601f19601f820116820180604052508101906112a29190613451565b116112e65760405162461bcd60e51b815260206004820152601460248201527315d85c989bdd08139bdd081058dd1a5d985d195960621b6044820152606401610d60565b600b54604051634c82f94960e11b8152600481018390526000916001600160a01b031690639905f29290602401602060405180830381600087803b15801561132d57600080fd5b505af1158015611341573d6000803e3d6000fd5b505050506040513d601f19601f820116820180604052508101906113659190613451565b116113a35760405162461bcd60e51b815260206004820152600e60248201526d15d85c989bdd081a5cc81119585960921b6044820152606401610d60565b600f80549060006113b383613946565b9091555050600f80546000908152600e60209081526040808320805460ff191660011790559254825260139052908120805460ff16916113f283613961565b82546101009290920a60ff818102199093169183160217909155600f546000908152601260209081526040808320601383528184205490941683529281528282208054336001600160a01b031990911617905584825260119052819020805460ff19166001179055600b549051635b39a16160e01b8152600481018490526001600160a01b039091169150635b39a16190602401600060405180830381600087803b1580156114a057600080fd5b505af11580156114b4573d6000803e3d6000fd5b5050600f54601d80546001818101835560008390527f6d4407e7be21f808e6509aa9fa9143369579dd7d760fe20a2c09680fc146134f90910192909255546114ff9350909150613912565b600f80546000908152601a602090815260408083209490945582548252601581528382208054600181018255908352818320018590559154815260148252828120338252909152908120805460ff169161155883613961565b825460ff9182166101009390930a928302919092021990911617905550600f805460009081526019602090815260408083208054600181810183559185528385200180546001600160a01b0319908116339081179092558786526017855283862080549091169091179055815180830183529454808652845260158352922054908301916115e591613912565b90526000828152601860205260409020611600916002613159565b50600f54604051829133917fb03d69773fcf4f1e1be22d87ca6b5daec1bb0bbfd3bbf4fd41cbe77b980b538290600090a450565b602a818154811061164457600080fd5b6000918252602090912001546001600160a01b0316905081565b6025602052816000526040600020818154811061167a57600080fd5b600091825260208083209082040154601f9091166101000a9004900b9150829050565b60008560ff161180156116b3575060048560ff16105b6116bc57600080fd5b33601760006116ca89612979565b81526020810191909152604001600020546001600160a01b0316146117265760405162461bcd60e51b81526020600482015260126024820152712737ba102bb0b93137ba13b99027bbb732b960711b6044820152606401610d60565b6000868152600e602052604090205460ff166003146117785760405162461bcd60e51b815260206004820152600e60248201526d139bdd08105d5d1a1bdc9a5e995960921b6044820152606401610d60565b61178186610e8f565b5184106117dc5760405162461bcd60e51b8152602060048201526024808201527f546172676574204f7574206f6620426f7473496e57617220417272617920426f604482015263756e647360e01b6064820152608401610d60565b60008681526016602090815260408083206022909252909120548154811061180657611806613997565b906000526020600020015460166000888152602001908152602001600020858154811061183557611835613997565b9060005260206000200154141561188e5760405162461bcd60e51b815260206004820152601960248201527f576172626f742043616e6e6f74205461726765742053656c66000000000000006044820152606401610d60565b60008681526016602090815260408083206022909252822054815460179392919081106118bd576118bd613997565b9060005260206000200154815260200190815260200160002060009054906101000a90046001600160a01b03166001600160a01b031660176000601560008a8152602001908152602001600020878154811061191b5761191b613997565b600091825260208083209091015483528201929092526040019020546001600160a01b0316141561198e5760405162461bcd60e51b815260206004820152601d60248201527f576172626f742043616e6e6f7420546172676574204f776e205465616d0000006044820152606401610d60565b600086815260236020526040902060ff861690819055600114156119be5760008681526024602052604090208490555b8460ff1660021415611a0257604080518082018252600085810b810b825284810b810b6020808401919091528982526025905291909120611a00916002613194565b505b8460ff1660011415611a205760008681526026602052604090208190555b6000868152600e60209081526040808320805460ff19166004179055805189815260ff891692810192909252810186905284820b60608201529083900b608082015260a081018290527fda9682423b845371296f608eee0e5dd3be69f653b1362befb7407a9e577beeb79060c00160405180910390a1505050505050565b6060601f805480602002602001604051908101604052809291908181526020018280548015611aec57602002820191906000526020600020905b815481526020019060010190808311611ad8575b5050505050905090565b6000818152601760205260409020546001600160a01b03163314611b4f5760405162461bcd60e51b815260206004820152601060248201526f2737ba102bb0b93137ba1027bbb732b960811b6044820152606401610d60565b611b5981336126db565b50565b6000546001600160a01b03163314611b865760405162461bcd60e51b8152600401610d609061377d565b600280546001600160a01b0319166001600160a01b0392909216919091179055565b600081815260216020908152604091829020805483518184028101840190945280845260609392830182828015610ee55760200282019190600052602060002090815481526020019060010190808311610ed15750505050509050919050565b600b54604051634c82f94960e11b8152600481018490526001600160a01b0390911690639905f29290602401602060405180830381600087803b158015611c4e57600080fd5b505af1158015611c62573d6000803e3d6000fd5b505050506040513d601f19601f82011682018060405250810190611c869190613451565b611d0e57600083815260276020908152604080832085845260178352818420546001600160a01b031684529091528120805460ff1691611cc583613961565b91906101000a81548160ff021916908360ff16021790555050601660008481526020019081526020016000208181548110611d0257611d02613997565b60009182526020822001555b600083815260146020908152604080832085845260178352818420546001600160a01b0316808552908352818420548785526027845282852091855292529091205460ff90811691161415611d8057600082815260176020526040902054611d809084906001600160a01b0316610f3d565b505050565b600c6020528360005260406000206020528260005260406000206020528160005260406000208181548110611db957600080fd5b906000526020600020016000935093505050505481565b600081815260136020526040902054600160ff90911611611e2c5760405162461bcd60e51b81526020600482015260166024820152754e6f7420456e6f75676820436f6e74657374616e747360501b6044820152606401610d60565b611e35816127a8565b611e715760405162461bcd60e51b815260206004820152600d60248201526c02ab732bb32b7103a32b0b6b99609d1b6044820152606401610d60565b6000818152600e60209081526040808320805460ff191660021790559080528120805491611e9e83613946565b9091555050600081815260156020908152604080832060169092529091208154611ec89290613238565b50601e80546001818101835560008390527f50bb669a95c7b50b7e8a6f09454034b2b14cf2b85c730dca9a539ca82cb6e3509091018390559054611f0c9190613912565b6000828152601b6020908152604080832093909355601a90522054601d80549091908110611f3c57611f3c613997565b60009182526020808320909101829055828252601a90526040812055807f33b4b808d86ec7263bc6a56208121b096122e137235feada55f5b54ef2c36b1e611f838261114c565b6040516110c491906136f8565b600060015b600083815260136020526040902054611fb29060ff1660016137e3565b60ff168160ff16101561200857600083815260126020908152604080832060ff851684529091529020546001600160a01b0385811691161415611ff657905061200e565b8061200081613961565b915050611f95565b60009150505b92915050565b6000546001600160a01b0316331461203e5760405162461bcd60e51b8152600401610d609061377d565b6010805461ff00191661010060ff8416908102919091179091556040519081527f757db0bc2c9b0f20502eda6611ea2fa8dbe94e3d92042c7fd7b969ba3c67eb849060200160405180910390a150565b6003546040805163313ce56760e01b815290516000926001600160a01b031691829163313ce5679160048082019260209290919082900301818887803b1580156120d757600080fd5b505af11580156120eb573d6000803e3d6000fd5b505050506040513d601f19601f8201168201806040525081019061210f9190613451565b61211a90600a61384b565b61212484806138f3565b61212e91906138f3565b9392505050565b6000546001600160a01b0316331461215f5760405162461bcd60e51b8152600401610d609061377d565b600080546040516001600160a01b03909116907f8be0079c531659141344cd1fd0a4f28419497f9722a3daafe3b4186f6b6457e0908390a3600080546001600160a01b0319169055565b6015602052816000526040600020818154811061113757600080fd5b601d81815481106121d557600080fd5b600091825260209091200154905081565b60008060005b60008581526015602052604090205460ff8216101561227c5760008581526015602052604081208054601792919060ff851690811061222d5761222d613997565b600091825260208083209091015483528201929092526040019020546001600160a01b038581169116141561226a578161226681613961565b9250505b8061227481613961565b9150506121ec565b509392505050565b6021602052816000526040600020818154811061113757600080fd5b602b81815481106121d557600080fd5b6000828152600e602052604090205460ff166002146123115760405162461bcd60e51b815260206004820152601860248201527f4e6f74207468652070726f7065722057617253746174757300000000000000006044820152606401610d60565b6000828152602160209081526040909120825161233092840190613159565b506000828152600e60209081526040808320805460ff191660031790556022909152808220919091555182907fbb0a7eafa6f3a7c2bfa58220ee18c29797d9d8bd710b276205019a39a277203e90612389908490613745565b60405180910390a25050565b600081815260156020908152604091829020805483518184028101840190945280845260609392830182828015610ee55760200282019190600052602060002090815481526020019060010190808311610ed15750505050509050919050565b601f81815481106121d557600080fd5b6000858152600e602052604090205460ff1660041461245e5760405162461bcd60e51b81526020600482015260156024820152744e6f742070726f706572207761722073746174757360581b6044820152606401610d60565b8160ff16600114156124d057600b546040516372db305360e01b815260048101869052602481018590526001600160a01b03909116906372db305390604401600060405180830381600087803b1580156124b757600080fd5b505af11580156124cb573d6000803e3d6000fd5b505050505b8160ff166002141561254257600b5460405163077ce56560e11b815260048101869052602481018590526001600160a01b0390911690630ef9caca90604401600060405180830381600087803b15801561252957600080fd5b505af115801561253d573d6000803e3d6000fd5b505050505b8160ff16600314156125b457600b54604051632a9115bb60e21b815260048101869052602481018590526001600160a01b039091169063aa4456ec90604401600060405180830381600087803b15801561259b57600080fd5b505af11580156125af573d6000803e3d6000fd5b505050505b8160ff166004141561262657600b5460405163318a46b960e21b815260048101869052602481018590526001600160a01b039091169063c6291ae490604401600060405180830381600087803b15801561260d57600080fd5b505af1158015612621573d6000803e3d6000fd5b505050505b8160ff166005141561269857600b5460405163e7070ea560e01b815260048101869052602481018590526001600160a01b039091169063e7070ea590604401600060405180830381600087803b15801561267f57600080fd5b505af1158015612693573d6000803e3d6000fd5b505050505b6000858152602460205260408120556126b2858583611c08565b6000858152600e602052604090205460ff166005146126d4576126d485610fe5565b5050505050565b6007546040516323b872dd60e01b81523060048201526001600160a01b038381166024830152604482018590529091169081906323b872dd90606401600060405180830381600087803b15801561273157600080fd5b505af1158015612745573d6000803e3d6000fd5b50505050611d8083610d0f565b6060601e805480602002602001604051908101604052809291908181526020018280548015611aec5760200282019190600052602060002090815481526020019060010190808311611ad8575050505050905090565b600081815260136020526040812054600260ff90911610156127cc57506000919050565b606080516127df90602890608090613278565b5060015b6000848152601360205260409020546128009060ff1660016137e3565b60ff168160ff16101561288a57600084815260126020908152604080832060ff851684529091529020546028906128419086906001600160a01b03166121e6565b81546001810183556000928352602092839020928104909201805460ff928316601f9094166101000a93840292909302199092161790558061288281613961565b9150506127e3565b5060015b6028548110156129235760286000815481106128ac576128ac613997565b90600052602060002090602091828204019190069054906101000a900460ff1660ff16602882815481106128e2576128e2613997565b60009182526020918290209181049091015460ff601f9092166101000a90041614612911575060009392505050565b8061291b81613946565b91505061288e565b5060019392505050565b6000546001600160a01b031633146129575760405162461bcd60e51b8152600401610d609061377d565b600580546001600160a01b0319166001600160a01b0392909216919091179055565b600081815260226020908152604080832054602190925282208054839190839081106129a7576129a7613997565b600091825260209091200154949350505050565b6000546001600160a01b031633146129e55760405162461bcd60e51b8152600401610d609061377d565b600780546001600160a01b0319166001600160a01b0392909216919091179055565b600081815260186020526040812080548291908290612a2857612a28613997565b906000526020600020015460186000858152602001908152602001600020600181548110612a5857612a58613997565b906000526020600020015491509150915091565b6000818152600e602052604090205460ff16600114612ad95760405162461bcd60e51b815260206004820152602360248201527f4172656e61204e6f7420417661696c61626c6520666f72204e657720576172626044820152626f747360e81b6064820152608401610d60565b600b54604051637d890d8f60e11b8152600481018490526000916001600160a01b03169063fb121b1e90602401602060405180830381600087803b158015612b2057600080fd5b505af1158015612b34573d6000803e3d6000fd5b505050506040513d601f19601f82011682018060405250810190612b589190613451565b11612b6257600080fd5b600b54604051634c82f94960e11b8152600481018490526000916001600160a01b031690639905f29290602401602060405180830381600087803b158015612ba957600080fd5b505af1158015612bbd573d6000803e3d6000fd5b505050506040513d601f19601f82011682018060405250810190612be19190613451565b11612c1f5760405162461bcd60e51b815260206004820152600e60248201526d15d85c989bdd081a5cc81119585960921b6044820152606401610d60565b601054610100900460ff16612c3482336121e6565b60ff1610612c925760405162461bcd60e51b815260206004820152602560248201527f4d617820576172626f747320666f722074686973207465616d20416c726561646044820152641e481a1a5d60da1b6064820152608401610d60565b60008181526014602090815260408083203384529091528120805460ff1691612cba83613961565b91906101000a81548160ff021916908360ff160217905550506000612cde82612fd6565b6009546040516323b872dd60e01b8152336004820152306024820152604481018690529192506001600160a01b0316906323b872dd90606401600060405180830381600087803b158015612d3157600080fd5b505af1158015612d45573d6000803e3d6000fd5b5050600f54600090815260126020908152604080832060ff87168452825280832080546001600160a01b03191633179055878352601190915290819020805460ff19166001179055600b549051635b39a16160e01b8152600481018790526001600160a01b039091169250635b39a1619150602401600060405180830381600087803b158015612dd457600080fd5b505af1158015612de8573d6000803e3d6000fd5b5050600f546000908152601560208181526040808420805460018181018355918652838620018a90558985526017835281852080546001600160a01b031916331790558151808301835289815289865293835293205491945084019250612e4f9190613912565b90526000848152601860205260409020610d09916002613159565b6060601d805480602002602001604051908101604052809291908181526020018280548015611aec5760200282019190600052602060002090815481526020019060010190808311611ad8575050505050905090565b601e81815481106121d557600080fd5b6000546001600160a01b03163314612efa5760405162461bcd60e51b8152600401610d609061377d565b6001600160a01b038116612f5f5760405162461bcd60e51b815260206004820152602660248201527f4f776e61626c653a206e6577206f776e657220697320746865207a65726f206160448201526564647265737360d01b6064820152608401610d60565b600080546040516001600160a01b03808516939216917f8be0079c531659141344cd1fd0a4f28419497f9722a3daafe3b4186f6b6457e091a3600080546001600160a01b0319166001600160a01b0392909216919091179055565b6016602052816000526040600020818154811061113757600080fd5b600080612fe33384611f90565b60ff161115612ff65761200e3383611f90565b6000828152601360205260408120805460ff169161301383613961565b82546101009290920a60ff818102199093169183160217909155600084815260126020908152604080832060138084528285208054871686529184528285208054336001600160a01b031991821681179092558a875260198652938620805460018101825590875285872001805490941617909255601054938890529152549082169116111590506130f35760405162461bcd60e51b815260206004820152602360248201527f4d6178696d756d20576172205465616d73204c696d697420416c726561647920604482015262121a5d60ea1b6064820152608401610d60565b5060009081526013602052604090205460ff1690565b828054828255906000526020600020908101928215613149579160200282015b82811115613149578251829060ff16905591602001919060010190613129565b506131559291506132df565b5090565b828054828255906000526020600020908101928215613149579160200282015b82811115613149578251825591602001919060010190613179565b82805482825590600052602060002090601f016020900481019282156131495791602002820160005b838211156131fe57835183826101000a81548160ff021916908360000b60ff16021790555092602001926001016020816000010492830192600103026131bd565b801561322b5782816101000a81549060ff02191690556001016020816000010492830192600103026131fe565b50506131559291506132df565b8280548282559060005260206000209081019282156131495760005260206000209182015b8281111561314957825482559160010191906001019061325d565b82805482825590600052602060002090601f016020900481019282156131495791602002820160005b838211156131fe57835183826101000a81548160ff021916908360ff16021790555092602001926001016020816000010492830192600103026132a1565b5b8082111561315557600081556001016132e0565b80356001600160a01b038116811461330b57600080fd5b919050565b8035600081900b811461330b57600080fd5b803560ff8116811461330b57600080fd5b60006020828403121561334557600080fd5b61212e826132f4565b6000806000806080858703121561336457600080fd5b61336d856132f4565b9350602061337c8187016132f4565b935060408601359250606086013567ffffffffffffffff808211156133a057600080fd5b818801915088601f8301126133b457600080fd5b8135818111156133c6576133c66139ad565b6133d8601f8201601f191685016137b2565b915080825289848285010111156133ee57600080fd5b808484018584013760008482840101525080935050505092959194509250565b6000806040838503121561342157600080fd5b61342a836132f4565b946020939093013593505050565b60006020828403121561344a57600080fd5b5035919050565b60006020828403121561346357600080fd5b5051919050565b6000806040838503121561347d57600080fd5b8235915061348d602084016132f4565b90509250929050565b600080600080608085870312156134ac57600080fd5b843593506134bc602086016132f4565b93969395505050506040820135916060013590565b6000806000606084860312156134e657600080fd5b833592506134f6602085016132f4565b915061350460408501613322565b90509250925092565b6000806040838503121561352057600080fd5b8235915060208084013567ffffffffffffffff8082111561354057600080fd5b818601915086601f83011261355457600080fd5b813581811115613566576135666139ad565b8060051b91506135778483016137b2565b8181528481019084860184860187018b101561359257600080fd5b600095505b838610156135b5578035835260019590950194918601918601613597565b508096505050505050509250929050565b600080604083850312156135d957600080fd5b50508035926020909101359150565b6000806000606084860312156135fd57600080fd5b505081359360208301359350604090920135919050565b600080600080600060a0868803121561362c57600080fd5b85359450602086013593506040860135925061364a60608701613322565b949793965091946080013592915050565b6000806040838503121561366e57600080fd5b8235915061348d60208401613322565b60008060008060008060c0878903121561369757600080fd5b863595506136a760208801613322565b9450604087013593506136bc60608801613310565b92506136ca60808801613310565b915060a087013590509295509295509295565b6000602082840312156136ef57600080fd5b61212e82613322565b6020808252825182820181905260009190848201906040850190845b818110156137395783516001600160a01b031683529284019291840191600101613714565b50909695505050505050565b6020808252825182820181905260009190848201906040850190845b8181101561373957835183529284019291840191600101613761565b6020808252818101527f4f776e61626c653a2063616c6c6572206973206e6f7420746865206f776e6572604082015260600190565b604051601f8201601f1916810167ffffffffffffffff811182821017156137db576137db6139ad565b604052919050565b600060ff821660ff84168060ff0382111561380057613800613981565b019392505050565b600181815b8085111561384357816000190482111561382957613829613981565b8085161561383657918102915b93841c939080029061380d565b509250929050565b600061212e83836000826138615750600161200e565b8161386e5750600061200e565b8160018114613884576002811461388e576138aa565b600191505061200e565b60ff84111561389f5761389f613981565b50506001821b61200e565b5060208310610133831016604e8410600b84101617156138cd575081810a61200e565b6138d78383613808565b80600019048211156138eb576138eb613981565b029392505050565b600081600019048311821515161561390d5761390d613981565b500290565b60008282101561392457613924613981565b500390565b600060ff82168061393c5761393c613981565b6000190192915050565b600060001982141561395a5761395a613981565b5060010190565b600060ff821660ff81141561397857613978613981565b60010192915050565b634e487b7160e01b600052601160045260246000fd5b634e487b7160e01b600052603260045260246000fd5b634e487b7160e01b600052604160045260246000fdfea26469706673582212201c2862e8bcd18e91ae9d7466ea67d760614b0e627ff7fa187e9bc7d86cddb3af64736f6c63430008070033",
  "immutableReferences": {},
  "source": "\r\npragma solidity ^0.8.7;\r\n\r\n\r\n// SPDX-License-Identifier: Unlicensed\r\ninterface IERC20 {\r\n\r\n    function totalSupply() external view returns (uint256);\r\n     function decimals() external returns (uint256);\r\n\r\n    /**\r\n     * @dev Returns the amount of tokens owned by `account`.\r\n     */\r\n    function balanceOf(address account) external view returns (uint256);\r\n\r\n    /**\r\n     * @dev Moves `amount` tokens from the caller's account to `recipient`.\r\n     *\r\n     * Returns a boolean value indicating whether the operation succeeded.\r\n     *\r\n     * Emits a {Transfer} event.\r\n     */\r\n    function transfer(address recipient, uint256 amount) external returns (bool);\r\n\r\n    /**\r\n     * @dev Returns the remaining number of tokens that `spender` will be\r\n     * allowed to spend on behalf of `owner` through {transferFrom}. This is\r\n     * zero by default.\r\n     *\r\n     * This value changes when {approve} or {transferFrom} are called.\r\n     */\r\n    function allowance(address owner, address spender) external view returns (uint256);\r\n\r\n    /**\r\n     * @dev Sets `amount` as the allowance of `spender` over the caller's tokens.\r\n     *\r\n     * Returns a boolean value indicating whether the operation succeeded.\r\n     *\r\n     * IMPORTANT: Beware that changing an allowance with this method brings the risk\r\n     * that someone may use both the old and the new allowance by unfortunate\r\n     * transaction ordering. One possible solution to mitigate this race\r\n     * condition is to first reduce the spender's allowance to 0 and set the\r\n     * desired value afterwards:\r\n     * https://github.com/ethereum/EIPs/issues/20#issuecomment-263524729\r\n     *\r\n     * Emits an {Approval} event.\r\n     */\r\n    function approve(address spender, uint256 amount) external returns (bool);\r\n\r\n    /**\r\n     * @dev Moves `amount` tokens from `sender` to `recipient` using the\r\n     * allowance mechanism. `amount` is then deducted from the caller's\r\n     * allowance.\r\n     *\r\n     * Returns a boolean value indicating whether the operation succeeded.\r\n     *\r\n     * Emits a {Transfer} event.\r\n     */\r\n    function transferFrom(address sender, address recipient, uint256 amount) external returns (bool);\r\n\r\n    /**\r\n     * @dev Emitted when `value` tokens are moved from one account (`from`) to\r\n     * another (`to`).\r\n     *\r\n     * Note that `value` may be zero.\r\n     */\r\n    event Transfer(address indexed from, address indexed to, uint256 value);\r\n\r\n    /**\r\n     * @dev Emitted when the allowance of a `spender` for an `owner` is set by\r\n     * a call to {approve}. `value` is the new allowance.\r\n     */\r\n    event Approval(address indexed owner, address indexed spender, uint256 value);\r\n}\r\n\r\n\r\n\r\n\r\nlibrary SafeMath {\r\n    /**\r\n     * @dev Returns the addition of two unsigned integers, reverting on\r\n     * overflow.\r\n     *\r\n     * Counterpart to Solidity's `+` operator.\r\n     *\r\n     * Requirements:\r\n     *\r\n     * - Addition cannot overflow.\r\n     */\r\n    function add(uint256 a, uint256 b) internal pure returns (uint256) {\r\n        uint256 c = a + b;\r\n        require(c >= a, \"SafeMath: addition overflow\");\r\n\r\n        return c;\r\n    }\r\n\r\n    /**\r\n     * @dev Returns the subtraction of two unsigned integers, reverting on\r\n     * overflow (when the result is negative).\r\n     *\r\n     * Counterpart to Solidity's `-` operator.\r\n     *\r\n     * Requirements:\r\n     *\r\n     * - Subtraction cannot overflow.\r\n     */\r\n    function sub(uint256 a, uint256 b) internal pure returns (uint256) {\r\n        return sub(a, b, \"SafeMath: subtraction overflow\");\r\n    }\r\n\r\n    /**\r\n     * @dev Returns the subtraction of two unsigned integers, reverting with custom message on\r\n     * overflow (when the result is negative).\r\n     *\r\n     * Counterpart to Solidity's `-` operator.\r\n     *\r\n     * Requirements:\r\n     *\r\n     * - Subtraction cannot overflow.\r\n     */\r\n    function sub(uint256 a, uint256 b, string memory errorMessage) internal pure returns (uint256) {\r\n        require(b <= a, errorMessage);\r\n        uint256 c = a - b;\r\n\r\n        return c;\r\n    }\r\n\r\n    /**\r\n     * @dev Returns the multiplication of two unsigned integers, reverting on\r\n     * overflow.\r\n     *\r\n     * Counterpart to Solidity's `*` operator.\r\n     *\r\n     * Requirements:\r\n     *\r\n     * - Multiplication cannot overflow.\r\n     */\r\n    function mul(uint256 a, uint256 b) internal pure returns (uint256) {\r\n        // Gas optimization: this is cheaper than requiring 'a' not being zero, but the\r\n        // benefit is lost if 'b' is also tested.\r\n        // See: https://github.com/OpenZeppelin/openzeppelin-contracts/pull/522\r\n        if (a == 0) {\r\n            return 0;\r\n        }\r\n\r\n        uint256 c = a * b;\r\n        require(c / a == b, \"SafeMath: multiplication overflow\");\r\n\r\n        return c;\r\n    }\r\n\r\n    /**\r\n     * @dev Returns the integer division of two unsigned integers. Reverts on\r\n     * division by zero. The result is rounded towards zero.\r\n     *\r\n     * Counterpart to Solidity's `/` operator. Note: this function uses a\r\n     * `revert` opcode (which leaves remaining gas untouched) while Solidity\r\n     * uses an invalid opcode to revert (consuming all remaining gas).\r\n     *\r\n     * Requirements:\r\n     *\r\n     * - The divisor cannot be zero.\r\n     */\r\n    function div(uint256 a, uint256 b) internal pure returns (uint256) {\r\n        return div(a, b, \"SafeMath: division by zero\");\r\n    }\r\n\r\n    /**\r\n     * @dev Returns the integer division of two unsigned integers. Reverts with custom message on\r\n     * division by zero. The result is rounded towards zero.\r\n     *\r\n     * Counterpart to Solidity's `/` operator. Note: this function uses a\r\n     * `revert` opcode (which leaves remaining gas untouched) while Solidity\r\n     * uses an invalid opcode to revert (consuming all remaining gas).\r\n     *\r\n     * Requirements:\r\n     *\r\n     * - The divisor cannot be zero.\r\n     */\r\n    function div(uint256 a, uint256 b, string memory errorMessage) internal pure returns (uint256) {\r\n        require(b > 0, errorMessage);\r\n        uint256 c = a / b;\r\n        // assert(a == b * c + a % b); // There is no case in which this doesn't hold\r\n\r\n        return c;\r\n    }\r\n\r\n    /**\r\n     * @dev Returns the remainder of dividing two unsigned integers. (unsigned integer modulo),\r\n     * Reverts when dividing by zero.\r\n     *\r\n     * Counterpart to Solidity's `%` operator. This function uses a `revert`\r\n     * opcode (which leaves remaining gas untouched) while Solidity uses an\r\n     * invalid opcode to revert (consuming all remaining gas).\r\n     *\r\n     * Requirements:\r\n     *\r\n     * - The divisor cannot be zero.\r\n     */\r\n    function mod(uint256 a, uint256 b) internal pure returns (uint256) {\r\n        return mod(a, b, \"SafeMath: modulo by zero\");\r\n    }\r\n\r\n    /**\r\n     * @dev Returns the remainder of dividing two unsigned integers. (unsigned integer modulo),\r\n     * Reverts with custom message when dividing by zero.\r\n     *\r\n     * Counterpart to Solidity's `%` operator. This function uses a `revert`\r\n     * opcode (which leaves remaining gas untouched) while Solidity uses an\r\n     * invalid opcode to revert (consuming all remaining gas).\r\n     *\r\n     * Requirements:\r\n     *\r\n     * - The divisor cannot be zero.\r\n     */\r\n    function mod(uint256 a, uint256 b, string memory errorMessage) internal pure returns (uint256) {\r\n        require(b != 0, errorMessage);\r\n        return a % b;\r\n    }\r\n}\r\n\r\n\r\n/**\r\n * @dev Collection of functions related to the address type\r\n */\r\nlibrary Address {\r\n    /**\r\n     * @dev Returns true if `account` is a contract.\r\n     *\r\n     * [IMPORTANT]\r\n     * ====\r\n     * It is unsafe to assume that an address for which this function returns\r\n     * false is an externally-owned account (EOA) and not a contract.\r\n     *\r\n     * Among others, `isContract` will return false for the following\r\n     * types of addresses:\r\n     *\r\n     *  - an externally-owned account\r\n     *  - a contract in construction\r\n     *  - an address where a contract will be created\r\n     *  - an address where a contract lived, but was destroyed\r\n     * ====\r\n     */\r\n    function isContract(address account) internal view returns (bool) {\r\n        // This method relies on extcodesize, which returns 0 for contracts in\r\n        // construction, since the code is only stored at the end of the\r\n        // constructor execution.\r\n\r\n        uint256 size;\r\n        // solhint-disable-next-line no-inline-assembly\r\n        assembly { size := extcodesize(account) }\r\n        return size > 0;\r\n    }\r\n\r\n    /**\r\n     * @dev Replacement for Solidity's `transfer`: sends `amount` wei to\r\n     * `recipient`, forwarding all available gas and reverting on errors.\r\n     *\r\n     * https://eips.ethereum.org/EIPS/eip-1884[EIP1884] increases the gas cost\r\n     * of certain opcodes, possibly making contracts go over the 2300 gas limit\r\n     * imposed by `transfer`, making them unable to receive funds via\r\n     * `transfer`. {sendValue} removes this limitation.\r\n     *\r\n     * https://diligence.consensys.net/posts/2019/09/stop-using-soliditys-transfer-now/[Learn more].\r\n     *\r\n     * IMPORTANT: because control is transferred to `recipient`, care must be\r\n     * taken to not create reentrancy vulnerabilities. Consider using\r\n     * {ReentrancyGuard} or the\r\n     * https://solidity.readthedocs.io/en/v0.5.11/security-considerations.html#use-the-checks-effects-interactions-pattern[checks-effects-interactions pattern].\r\n     */\r\n    function sendValue(address payable recipient, uint256 amount) internal {\r\n        require(address(this).balance >= amount, \"Address: insufficient balance\");\r\n\r\n        // solhint-disable-next-line avoid-low-level-calls, avoid-call-value\r\n        (bool success, ) = recipient.call{ value: amount }(\"\");\r\n        require(success, \"Address: unable to send value, recipient may have reverted\");\r\n    }\r\n\r\n    /**\r\n     * @dev Performs a Solidity function call using a low level `call`. A\r\n     * plain`call` is an unsafe replacement for a function call: use this\r\n     * function instead.\r\n     *\r\n     * If `target` reverts with a revert reason, it is bubbled up by this\r\n     * function (like regular Solidity function calls).\r\n     *\r\n     * Returns the raw returned data. To convert to the expected return value,\r\n     * use https://solidity.readthedocs.io/en/latest/units-and-global-variables.html?highlight=abi.decode#abi-encoding-and-decoding-functions[`abi.decode`].\r\n     *\r\n     * Requirements:\r\n     *\r\n     * - `target` must be a contract.\r\n     * - calling `target` with `data` must not revert.\r\n     *\r\n     * _Available since v3.1._\r\n     */\r\n    function functionCall(address target, bytes memory data) internal returns (bytes memory) {\r\n      return functionCall(target, data, \"Address: low-level call failed\");\r\n    }\r\n\r\n    /**\r\n     * @dev Same as {xref-Address-functionCall-address-bytes-}[`functionCall`], but with\r\n     * `errorMessage` as a fallback revert reason when `target` reverts.\r\n     *\r\n     * _Available since v3.1._\r\n     */\r\n    function functionCall(address target, bytes memory data, string memory errorMessage) internal returns (bytes memory) {\r\n        return functionCallWithValue(target, data, 0, errorMessage);\r\n    }\r\n\r\n    /**\r\n     * @dev Same as {xref-Address-functionCall-address-bytes-}[`functionCall`],\r\n     * but also transferring `value` wei to `target`.\r\n     *\r\n     * Requirements:\r\n     *\r\n     * - the calling contract must have an ETH balance of at least `value`.\r\n     * - the called Solidity function must be `payable`.\r\n     *\r\n     * _Available since v3.1._\r\n     */\r\n    function functionCallWithValue(address target, bytes memory data, uint256 value) internal returns (bytes memory) {\r\n        return functionCallWithValue(target, data, value, \"Address: low-level call with value failed\");\r\n    }\r\n\r\n    /**\r\n     * @dev Same as {xref-Address-functionCallWithValue-address-bytes-uint256-}[`functionCallWithValue`], but\r\n     * with `errorMessage` as a fallback revert reason when `target` reverts.\r\n     *\r\n     * _Available since v3.1._\r\n     */\r\n    function functionCallWithValue(address target, bytes memory data, uint256 value, string memory errorMessage) internal returns (bytes memory) {\r\n        require(address(this).balance >= value, \"Address: insufficient balance for call\");\r\n        require(isContract(target), \"Address: call to non-contract\");\r\n\r\n        // solhint-disable-next-line avoid-low-level-calls\r\n        (bool success, bytes memory returndata) = target.call{ value: value }(data);\r\n        return _verifyCallResult(success, returndata, errorMessage);\r\n    }\r\n\r\n    /**\r\n     * @dev Same as {xref-Address-functionCall-address-bytes-}[`functionCall`],\r\n     * but performing a static call.\r\n     *\r\n     * _Available since v3.3._\r\n     */\r\n    function functionStaticCall(address target, bytes memory data) internal view returns (bytes memory) {\r\n        return functionStaticCall(target, data, \"Address: low-level static call failed\");\r\n    }\r\n\r\n    /**\r\n     * @dev Same as {xref-Address-functionCall-address-bytes-string-}[`functionCall`],\r\n     * but performing a static call.\r\n     *\r\n     * _Available since v3.3._\r\n     */\r\n    function functionStaticCall(address target, bytes memory data, string memory errorMessage) internal view returns (bytes memory) {\r\n        require(isContract(target), \"Address: static call to non-contract\");\r\n\r\n        // solhint-disable-next-line avoid-low-level-calls\r\n        (bool success, bytes memory returndata) = target.staticcall(data);\r\n        return _verifyCallResult(success, returndata, errorMessage);\r\n    }\r\n\r\n    /**\r\n     * @dev Same as {xref-Address-functionCall-address-bytes-}[`functionCall`],\r\n     * but performing a delegate call.\r\n     *\r\n     * _Available since v3.4._\r\n     */\r\n    function functionDelegateCall(address target, bytes memory data) internal returns (bytes memory) {\r\n        return functionDelegateCall(target, data, \"Address: low-level delegate call failed\");\r\n    }\r\n\r\n    /**\r\n     * @dev Same as {xref-Address-functionCall-address-bytes-string-}[`functionCall`],\r\n     * but performing a delegate call.\r\n     *\r\n     * _Available since v3.4._\r\n     */\r\n    function functionDelegateCall(address target, bytes memory data, string memory errorMessage) internal returns (bytes memory) {\r\n        require(isContract(target), \"Address: delegate call to non-contract\");\r\n\r\n        // solhint-disable-next-line avoid-low-level-calls\r\n        (bool success, bytes memory returndata) = target.delegatecall(data);\r\n        return _verifyCallResult(success, returndata, errorMessage);\r\n    }\r\n\r\n    function _verifyCallResult(bool success, bytes memory returndata, string memory errorMessage) private pure returns(bytes memory) {\r\n        if (success) {\r\n            return returndata;\r\n        } else {\r\n            // Look for revert reason and bubble it up if present\r\n            if (returndata.length > 0) {\r\n                // The easiest way to bubble the revert reason is using memory via assembly\r\n\r\n                // solhint-disable-next-line no-inline-assembly\r\n                assembly {\r\n                    let returndata_size := mload(returndata)\r\n                    revert(add(32, returndata), returndata_size)\r\n                }\r\n            } else {\r\n                revert(errorMessage);\r\n            }\r\n        }\r\n    }\r\n}\r\n\r\nlibrary ExtendedMath {\r\n    /**\r\n     * @return The given number raised to the power of 2\r\n     */\r\n    function pow2(uint256 a) internal pure returns (uint256) {\r\n        if (a == 0) {\r\n            return 0;\r\n        }\r\n        uint256 c = a * a;\r\n        require(c / a == a, \"ExtendedMath: squaring overflow\");\r\n        return c;\r\n    }\r\n\r\n    \r\n    function sqrt(uint y) internal pure returns (uint z) {\r\n        if (y > 3) {\r\n            z = y;\r\n            uint x = y / 2 + 1;\r\n            while (x < z) {\r\n                z = x;\r\n                x = (y / x + x) / 2;\r\n            }\r\n        } else if (y != 0) {\r\n            z = 1;\r\n        }\r\n    }\r\n}\r\n\r\nabstract contract Context {\r\n    function _msgSender() internal view virtual returns (address) {\r\n        return msg.sender;\r\n    }\r\n\r\n    function _msgData() internal view virtual returns (bytes calldata) {\r\n        this; // silence state mutability warning without generating bytecode - see https://github.com/ethereum/solidity/issues/2691\r\n        return msg.data;\r\n    }\r\n}\r\n\r\n/**\r\n * @dev Contract module which provides a basic access control mechanism, where\r\n * there is an account (an owner) that can be granted exclusive access to\r\n * specific functions.\r\n *\r\n * By default, the owner account will be the one that deploys the contract. This\r\n * can later be changed with {transferOwnership}.\r\n *\r\n * This module is used through inheritance. It will make available the modifier\r\n * `onlyOwner`, which can be applied to your functions to restrict their use to\r\n * the owner.\r\n */\r\nabstract contract Ownable is Context {\r\n    address private _owner;\r\n\r\n    event OwnershipTransferred(address indexed previousOwner, address indexed newOwner);\r\n\r\n    /**\r\n     * @dev Initializes the contract setting the deployer as the initial owner.\r\n     */\r\n    constructor () {\r\n        address msgSender = _msgSender();\r\n        _owner = msgSender;\r\n        emit OwnershipTransferred(address(0), msgSender);\r\n    }\r\n\r\n    /**\r\n     * @dev Returns the address of the current owner.\r\n     */\r\n    function owner() public view virtual returns (address) {\r\n        return _owner;\r\n    }\r\n\r\n    /**\r\n     * @dev Throws if called by any account other than the owner.\r\n     */\r\n    modifier onlyOwner() {\r\n        require(owner() == _msgSender(), \"Ownable: caller is not the owner\");\r\n        _;\r\n    }\r\n\r\n    /**\r\n     * @dev Leaves the contract without owner. It will not be possible to call\r\n     * `onlyOwner` functions anymore. Can only be called by the current owner.\r\n     *\r\n     * NOTE: Renouncing ownership will leave the contract without an owner,\r\n     * thereby removing any functionality that is only available to the owner.\r\n     */\r\n    function renounceOwnership() public virtual onlyOwner {\r\n        emit OwnershipTransferred(_owner, address(0));\r\n        _owner = address(0);\r\n    }\r\n\r\n    /**\r\n     * @dev Transfers ownership of the contract to a new account (`newOwner`).\r\n     * Can only be called by the current owner.\r\n     */\r\n    function transferOwnership(address newOwner) public virtual onlyOwner {\r\n        require(newOwner != address(0), \"Ownable: new owner is the zero address\");\r\n        emit OwnershipTransferred(_owner, newOwner);\r\n        _owner = newOwner;\r\n    }\r\n}\r\n\r\nabstract contract ReentrancyGuard {\r\n    // Booleans are more expensive than uint256 or any type that takes up a full\r\n    // word because each write operation emits an extra SLOAD to first read the\r\n    // slot's contents, replace the bits taken up by the boolean, and then write\r\n    // back. This is the compiler's defense against contract upgrades and\r\n    // pointer aliasing, and it cannot be disabled.\r\n\r\n    // The values being non-zero value makes deployment a bit more expensive,\r\n    // but in exchange the refund on every call to nonReentrant will be lower in\r\n    // amount. Since refunds are capped to a percentage of the total\r\n    // transaction's gas, it is best to keep them low in cases like this one, to\r\n    // increase the likelihood of the full refund coming into effect.\r\n    uint256 private constant _NOT_ENTERED = 1;\r\n    uint256 private constant _ENTERED = 2;\r\n\r\n    uint256 private _status;\r\n\r\n    constructor() {\r\n        _status = _NOT_ENTERED;\r\n    }\r\n\r\n    /**\r\n     * @dev Prevents a contract from calling itself, directly or indirectly.\r\n     * Calling a `nonReentrant` function from another `nonReentrant`\r\n     * function is not supported. It is possible to prevent this from happening\r\n     * by making the `nonReentrant` function external, and make it call a\r\n     * `private` function that does the actual work.\r\n     */\r\n    modifier nonReentrant() {\r\n        // On the first call to nonReentrant, _notEntered will be true\r\n        require(_status != _ENTERED, \"ReentrancyGuard: reentrant call\");\r\n\r\n        // Any calls to nonReentrant after this point will fail\r\n        _status = _ENTERED;\r\n\r\n        _;\r\n\r\n        // By storing the original value once again, a refund is triggered (see\r\n        // https://eips.ethereum.org/EIPS/eip-2200)\r\n        _status = _NOT_ENTERED;\r\n    }\r\n}\r\n\r\nlibrary SafeERC20 {\r\n    using Address for address;\r\n\r\n    function safeTransfer(\r\n        IERC20 token,\r\n        address to,\r\n        uint256 value\r\n    ) internal {\r\n        _callOptionalReturn(token, abi.encodeWithSelector(token.transfer.selector, to, value));\r\n    }\r\n\r\n    function safeTransferFrom(\r\n        IERC20 token,\r\n        address from,\r\n        address to,\r\n        uint256 value\r\n    ) internal {\r\n        _callOptionalReturn(token, abi.encodeWithSelector(token.transferFrom.selector, from, to, value));\r\n    }\r\n\r\n    /**\r\n     * @dev Deprecated. This function has issues similar to the ones found in\r\n     * {IERC20-approve}, and its usage is discouraged.\r\n     *\r\n     * Whenever possible, use {safeIncreaseAllowance} and\r\n     * {safeDecreaseAllowance} instead.\r\n     */\r\n    function safeApprove(\r\n        IERC20 token,\r\n        address spender,\r\n        uint256 value\r\n    ) internal {\r\n        // safeApprove should only be called when setting an initial allowance,\r\n        // or when resetting it to zero. To increase and decrease it, use\r\n        // 'safeIncreaseAllowance' and 'safeDecreaseAllowance'\r\n        require(\r\n            (value == 0) || (token.allowance(address(this), spender) == 0),\r\n            \"SafeERC20: approve from non-zero to non-zero allowance\"\r\n        );\r\n        _callOptionalReturn(token, abi.encodeWithSelector(token.approve.selector, spender, value));\r\n    }\r\n\r\n    function safeIncreaseAllowance(\r\n        IERC20 token,\r\n        address spender,\r\n        uint256 value\r\n    ) internal {\r\n        uint256 newAllowance = token.allowance(address(this), spender) + value;\r\n        _callOptionalReturn(token, abi.encodeWithSelector(token.approve.selector, spender, newAllowance));\r\n    }\r\n\r\n    function safeDecreaseAllowance(\r\n        IERC20 token,\r\n        address spender,\r\n        uint256 value\r\n    ) internal {\r\n        unchecked {\r\n            uint256 oldAllowance = token.allowance(address(this), spender);\r\n            require(oldAllowance >= value, \"SafeERC20: decreased allowance below zero\");\r\n            uint256 newAllowance = oldAllowance - value;\r\n            _callOptionalReturn(token, abi.encodeWithSelector(token.approve.selector, spender, newAllowance));\r\n        }\r\n    }\r\n\r\n    /**\r\n     * @dev Imitates a Solidity high-level call (i.e. a regular function call to a contract), relaxing the requirement\r\n     * on the return value: the return value is optional (but if data is returned, it must not be false).\r\n     * @param token The token targeted by the call.\r\n     * @param data The call data (encoded using abi.encode or one of its variants).\r\n     */\r\n    function _callOptionalReturn(IERC20 token, bytes memory data) private {\r\n        // We need to perform a low level call here, to bypass Solidity's return data size checking mechanism, since\r\n        // we're implementing it ourselves. We use {Address.functionCall} to perform this call, which verifies that\r\n        // the target address contains contract code and also asserts for success in the low-level call.\r\n\r\n        bytes memory returndata = address(token).functionCall(data, \"SafeERC20: low-level call failed\");\r\n        if (returndata.length > 0) {\r\n            // Return data is optional\r\n            require(abi.decode(returndata, (bool)), \"SafeERC20: ERC20 operation did not succeed\");\r\n        }\r\n    }\r\n}\r\n\r\n\r\n\r\ninterface IERC20Mintable {\r\n    function transfer(address _to, uint256 _value) external returns (bool);\r\n    function transferFrom(address _from, address _to, uint256 _value) external returns (bool);\r\n    function mint(address _to, uint256 _value) external returns (bool);\r\n    function balanceOf(address _account) external view returns (uint256);\r\n    function totalSupply() external view returns (uint256);\r\n}\r\n\r\ninterface WarbotManufacturer {\r\n    \r\n    function setApprovalForAll(address operator, bool approved) external;\r\n    function transfer(address to, uint256 tokenId) external;\r\n    function transferFrom(address from, address to, uint256 tokenId) external;\r\n    function burn(uint256 tokenId) external;\r\n    function incrementTokenId() external;\r\n    function getLastWarbotManufactured() external returns(uint256);\r\n    function mint(address to, uint256 tokenId) external;\r\n    function setTokenURIWarbotStats(uint256 tokenId, string memory _tokenURI) external;\r\n    function ownerOf(uint256 tokenId) external returns(address);\r\n}\r\n\r\n\r\ninterface NanoNFT {\r\n    \r\n    function setApprovalForAll(address operator, bool approved) external;\r\n    function transfer(address to, uint256 tokenId) external;\r\n    function transferFrom(address from, address to, uint256 tokenId) external;\r\n    function burn(uint256 tokenId) external;\r\n    function ownerOf(uint256 tokenId) external returns(address);\r\n    function  getNanoNFTCardStats ( uint256 _nftcard ) external returns( uint256, uint256, uint256, uint256, bool);\r\n    function deployNFTNanoset( uint256 _warbot, address _creator ) external;\r\n}\r\n\r\n\r\ninterface WarbotStats {\r\n    function WarbotLevel(uint256 tokenId) external returns(uint256);\r\n    \r\n}\r\n\r\n\r\ninterface WarbotStatsData {\r\n    function WarbotLevel( uint256 _warbot ) external returns(uint256 );\r\n    function setWarbotHandoff( uint256 _warbot ) external ;\r\n    function getCurrentHitPoint( uint256 _warbot ) external returns(uint256);\r\n    function damageWarbot (uint256 _warbot, uint256 _damage) external;\r\n    function damageWarbotAttack (uint256 _warbot, uint256 _damage) external;\r\n    function damageWarbotDefense (uint256 _warbot, uint256 _damage) external;\r\n    function damageWarbotSpeed (uint256 _warbot, uint256 _damage) external;\r\n    function damageWarbotMovement (uint256 _warbot, uint256 _damage) external;\r\n}\r\n\r\n\r\n\r\ncontract WarContract is Ownable {\r\n    \r\n    using SafeMath for uint256;\r\n    bytes4 ERC721_RECEIVED = 0x150b7a02;\r\n    address public burnAddress;\r\n    address public micromachines;\r\n    address public nanomachines;\r\n    address public nanonft;\r\n    address public warbotstats;\r\n    address public warbotstatsdata;\r\n    address public micromachinemanufacturingplant;\r\n \r\n    address public oracle;\r\n    \r\n    WarbotManufacturer  __warbotmanufacturer;\r\n    WarbotStats __warbotstats;\r\n    WarbotStatsData public __warbotstatsdata;\r\n    \r\n    mapping ( uint256 => mapping ( address => mapping ( uint256 => uint256[] ) )) public NFTCards;\r\n    mapping ( uint256 => mapping ( address => mapping ( uint8 => uint8 ) ))     public NFTCardCount;\r\n   \r\n   \r\n    \r\n    //status of war 1 = joining battle, 2 = round begins awaiting oracle to roll initiative, 3 = warbot order sequence plays out, 4 = battle over\r\n    mapping ( uint256 => uint8 ) public warStatus;\r\n   \r\n    \r\n    \r\n    ///////\r\n    uint256 public warCount = 0;\r\n    uint8 public maxWarTeams=2;\r\n    uint8 public maxBotsPerTeam=2;\r\n    \r\n    mapping ( uint256 => bool) public warbotInWarZone;\r\n    mapping ( uint256 => mapping( uint8 => address) ) public Wars; \r\n    mapping ( uint256 => uint8 ) public WarTeamCount; \r\n    mapping ( uint256 => mapping ( address => uint8 )) public TeamBotCount;\r\n    mapping ( uint256 => uint256[] ) public BotsInWar;\r\n    mapping ( uint256 => uint256[] ) public BotsInWarStanding;\r\n    \r\n    mapping ( uint256 => address ) public warbotOwner;\r\n    mapping ( uint256 => uint256[] ) public warbotAt;\r\n    mapping ( uint256 => address[] ) WarTeams;\r\n    \r\n    mapping ( uint256 => uint256 ) public newBattleSlot;\r\n    mapping ( uint256 => uint256 ) public activeBattleSlot;\r\n    mapping ( uint256 => uint256 ) public closedBattleSlot;\r\n    \r\n    uint256[] public newBattles;\r\n    uint256[] public activeBattles;\r\n    uint256[] public closedBattles;\r\n    \r\n    //battle mechanics\r\n    mapping ( uint256 => uint256 ) public WarRound;\r\n    mapping ( uint256 => uint256[]) public warbotOrder;      // oracle rolls initiative and sets order of battle \r\n    mapping ( uint256 => uint256) public warbotOrderPointer;   \r\n    mapping ( uint256 => uint256 ) public warbotCommand;   \r\n    mapping ( uint256 => uint256 ) public warbotTarget;\r\n    mapping ( uint256 => int8[] ) public warbotMovement;\r\n    mapping ( uint256 => uint256 ) public warbotCardPlay;\r\n    mapping ( uint256 => mapping ( address => uint8 )) public WarbotDeathCount;\r\n    \r\n    \r\n    event WarBotOrderSet ( uint256 indexed _war, uint256 [] _order );\r\n    event PointerAdvaced ( uint256 indexed _war, uint256 _warbotOrderPointer ); \r\n    event  newBattleInitiated ( uint256 indexed warCount , address indexed _warinitiator, uint256 indexed _warbot);\r\n    event WarStarted ( uint256 indexed _war , address[] _warteams );\r\n    event MaxBotsPerTeamSet (  uint256 _maxsize );\r\n    event goTurnEvent ( uint256 _war , uint8 _option, uint256 _target, int8 _x, int8 _y, uint256 _cardnumber );\r\n    \r\n   \r\n    constructor() {\r\n        micromachines = 0x8Bc3EB7ded0ec83D0A8EF18D327644c04191f7DD;\r\n        nanomachines = 0x4C0AeEB37210b97956309BB4585c5433Cc015F6c;\r\n        micromachinemanufacturingplant = 0xa66360f9f48aFBAf42BA278AD8a1e4de30dafD94;\r\n        warbotstats = 0xC665dFa4CEe8D947f181ccE176264b143A063933;\r\n        warbotstatsdata = 0x40fE42588870269d2592229c02d57baa84548E9D;\r\n        burnAddress = 0x000000000000000000000000000000000000dEaD;\r\n        oracle = 0x7cE0E55703F12D03Eb53B918aD6B9EB80d188afB;\r\n        \r\n        \r\n        __warbotmanufacturer = WarbotManufacturer(micromachinemanufacturingplant);\r\n        __warbotstats = WarbotStats ( warbotstats);\r\n        __warbotstatsdata = WarbotStatsData ( warbotstatsdata);\r\n       \r\n    } \r\n  \r\n    function newBattle ( uint256 _warbot ) public {\r\n      \r\n        __warbotmanufacturer.transferFrom ( msg.sender, address(this), _warbot );\r\n         require ( __warbotstatsdata.WarbotLevel (_warbot) > 0, \"Warbot Not Activated\");\r\n         require ( __warbotstatsdata.getCurrentHitPoint (_warbot) > 0, \"Warbot is Dead\");\r\n        \r\n        warCount++;\r\n        warStatus[warCount] = 1;\r\n        WarTeamCount[warCount]++;\r\n        Wars[warCount][WarTeamCount[warCount]] = msg.sender;\r\n       \r\n        warbotInWarZone[_warbot]=true;\r\n        __warbotstatsdata.setWarbotHandoff( _warbot );\r\n        \r\n        newBattles.push(warCount);\r\n        newBattleSlot[warCount]=newBattles.length-1;\r\n        \r\n        BotsInWar[warCount].push(_warbot);\r\n        TeamBotCount[warCount][msg.sender]++;\r\n        WarTeams[warCount].push ( msg.sender);\r\n        warbotOwner[_warbot] = msg.sender;\r\n        warbotAt[_warbot] = [warCount, BotsInWar[warCount].length -1  ];\r\n        \r\n        emit newBattleInitiated ( warCount , msg.sender, _warbot);\r\n        \r\n    }\r\n    \r\n    \r\n    \r\n     uint8  []   _temp;\r\n     \r\n     function checkIfTeamsAreEven( uint256 _war ) public  returns(bool)  {\r\n        if ( WarTeamCount[_war ] <2 ) return false;\r\n        \r\n        uint8 [] memory __temp;\r\n        _temp = __temp;\r\n         \r\n        for ( uint8 x = 1; x< WarTeamCount[_war ]+1; x++ ){\r\n           _temp.push(countWarbotsOnTeam (_war, Wars[_war][x]));\r\n        }\r\n        \r\n        for ( uint i = 1; i < _temp.length; i++) {\r\n              if (_temp[i] != _temp[0]) {\r\n                return false;\r\n              }\r\n        }\r\n        \r\n        \r\n        return true;\r\n     }\r\n     \r\n    \r\n     function recordTeam ( uint256 _war ) internal returns (uint8) {\r\n          if(checkIfTeamIsPartOfWar( msg.sender , _war ) > 0) return checkIfTeamIsPartOfWar( msg.sender , _war );\r\n          WarTeamCount[_war]++;\r\n          Wars[_war][WarTeamCount[_war]] = msg.sender ;  \r\n          WarTeams[_war].push ( msg.sender);\r\n          require (  WarTeamCount[_war]  <= maxWarTeams, \"Maximum War Teams Limit Already Hit\" );\r\n          return WarTeamCount[_war];\r\n    }\r\n    \r\n    address[] _teamtemp;\r\n    \r\n    function getWarTeams ( uint256 _war ) public view returns ( address[] memory ){\r\n        return WarTeams[_war];\r\n    }\r\n   \r\n   \r\n    function checkIfTeamIsPartOfWar( address _address, uint256 _war ) public view returns(uint8)  {\r\n        uint8 x;\r\n        for ( x = 1; x< WarTeamCount[_war ]+1; x++ ){\r\n            if ( Wars[_war][x] == _address ) return x;\r\n        }\r\n        return 0;\r\n     }\r\n    \r\n     function countWarbotsOnTeam ( uint256 _war , address _address ) public view returns(uint8){\r\n        uint8 _count;\r\n        uint8 x;\r\n        for ( x = 0; x< BotsInWar[_war].length ; x++ ){\r\n            if ( _address == warbotOwner[BotsInWar[_war][x]] ) _count++;\r\n        }\r\n        return _count;\r\n         \r\n     }\r\n     \r\n    \r\n     function joinBattle ( uint256 _warbot, uint256 _war ) public {\r\n        require ( warStatus[_war] == 1, \"Arena Not Available for New Warbots\" );\r\n        require ( __warbotstatsdata.WarbotLevel (_warbot) > 0);\r\n        require ( __warbotstatsdata.getCurrentHitPoint (_warbot) > 0, \"Warbot is Dead\");\r\n        require ( countWarbotsOnTeam( _war, msg.sender) < maxBotsPerTeam , \"Max Warbots for this team Already hit\" );\r\n        \r\n        TeamBotCount[_war][msg.sender]++;\r\n        uint8 _team = recordTeam ( _war );\r\n        __warbotmanufacturer.transferFrom ( msg.sender, address(this), _warbot );\r\n        Wars[warCount][_team] = msg.sender;\r\n        warbotInWarZone[_warbot]=true;\r\n        __warbotstatsdata.setWarbotHandoff( _warbot );\r\n        BotsInWar[warCount].push(_warbot);\r\n        warbotOwner[_warbot] = msg.sender;\r\n        warbotAt[_warbot] = [_war, BotsInWar[_war].length -1  ];\r\n                 \r\n     }\r\n    \r\n      \r\n    function returnWarbot ( uint256 _warbot ) public  {\r\n     \r\n        require ( warbotOwner[_warbot] == msg.sender, \"Not Warbot Owner\" );\r\n        //warbotOwner[_warbot]  = address(0);\r\n        processWarbotReturn (  _warbot, msg.sender );\r\n       \r\n    }\r\n    \r\n    function processWarbotReturn ( uint256 _warbot, address _warbotowner ) public {\r\n         WarbotManufacturer _micromachinemanufacturingplant = WarbotManufacturer(micromachinemanufacturingplant);\r\n         _micromachinemanufacturingplant.transferFrom ( address(this), _warbotowner ,  _warbot );\r\n         \r\n         removeWarbotFromWar ( _warbot );\r\n        \r\n    }\r\n    \r\n    address[] public _tempOWNERS;\r\n    uint256[] public _tempBots;\r\n    \r\n   \r\n    function returnAllWarbots ( uint256 _war ) public  {\r\n      \r\n        address _owner;\r\n        uint256 _botnumber;\r\n        \r\n        for ( uint256 x = 0; x < getBotsInWar(_war).length; x++ ){\r\n            \r\n            _owner = warbotOwner[ BotsInWar[_war][x] ];\r\n            _botnumber = BotsInWar[_war][x];\r\n            \r\n            _tempOWNERS.push(_owner);\r\n            _tempBots.push(_botnumber);\r\n            \r\n            \r\n             processWarbotReturn (  _botnumber, _owner );\r\n        }\r\n    }\r\n   \r\n   \r\n    function removeWarbotFromWar ( uint256 _warbot )public  {\r\n         (uint256 _war, uint256 _position)  = whereIsWarbot( _warbot );\r\n       if ( _war == 0 ) revert(\"Warbot Not Found \");\r\n     \r\n         delete BotsInWar[ _war][ _position   ];\r\n         TeamBotCount[ _war][msg.sender]--;\r\n          warbotOwner[_warbot] = address(0); \r\n          warbotAt[_warbot] = [0,0];\r\n          warbotInWarZone[_warbot]=false;\r\n    } \r\n    \r\n   function getNewBattles() public view returns(uint256[] memory )    {\r\n     return newBattles;\r\n    }     \r\n \r\n    function getActiveBattles() public view returns(uint256[] memory )\r\n    {\r\n     return activeBattles;\r\n    } \r\n    \r\n    \r\n    function getClosedBattles() public view returns(uint256[] memory )\r\n    {\r\n     return closedBattles;\r\n    }   \r\n \r\n \r\n    function getBotsInWar( uint256 _war ) public view returns ( uint256[] memory ){\r\n            return BotsInWar[_war];\r\n    }\r\n    \r\n     function getBotsInWarStanding( uint256 _war ) public view returns ( uint256[] memory ){\r\n            return BotsInWarStanding[_war];\r\n    }\r\n    \r\n    function whereIsWarbot( uint256 _warbot ) public view returns(uint256, uint256) {\r\n        return ( warbotAt[_warbot][0], warbotAt[_warbot][1]);\r\n        \r\n    }\r\n    \r\n    function changeWarStatus ( uint256 _war, uint8 _status ) public {\r\n         warStatus[_war] = _status;\r\n    }\r\n\r\n    function startWar ( uint256 _war ) public {\r\n       require ( WarTeamCount[_war] >1, \"Not Enough Contestants\" );\r\n       require (  checkIfTeamsAreEven( _war ), \"Uneven teams \");\r\n       warStatus[_war] = 2;\r\n       WarRound[_war]++;\r\n       \r\n       BotsInWarStanding[_war] = BotsInWar[_war];\r\n       \r\n       activeBattles.push(_war);\r\n       activeBattleSlot[_war]=activeBattles.length-1;\r\n       \r\n       delete newBattles[newBattleSlot[_war]];\r\n       newBattleSlot[_war]=0;\r\n \r\n\r\n\r\n       emit WarStarted ( _war, getWarTeams(_war)  );\r\n    }\r\n    \r\n    // attack + target  1 +  bot position\r\n    // move   2 + target position\r\n    // usecard 3 + card position number\r\n    \r\n    \r\n    function goTurn ( uint256 _war , uint8 _option, uint256 _target, int8 _x, int8 _y, uint256 _cardnumber ) public {\r\n        require ( _option >0 && _option < 4 );\r\n        require ( warbotOwner[getCurrentTurn (  _war )] == msg.sender, \"Not Warbot's Owner\" );\r\n        require ( warStatus[_war] == 3 , \"Not Authorized\");\r\n        require ( _target < getBotsInWarStanding(_war ).length, \"Target Out of BotsInWar Array Bounds\");\r\n        require (  BotsInWarStanding[ _war] [ _target] != BotsInWarStanding[ _war] [ warbotOrderPointer[_war] ], \"Warbot Cannot Target Self\");\r\n         require (  warbotOwner[BotsInWar[ _war] [ _target]] != warbotOwner[BotsInWarStanding[ _war] [ warbotOrderPointer[_war] ]], \"Warbot Cannot Target Own Team\");\r\n       \r\n        warbotCommand[_war] = _option;\r\n        if ( _option == 1 ) warbotTarget[_war] = _target;\r\n        if ( _option == 2 ) warbotMovement[_war] = [_x,_y];\r\n        if ( _option == 1 ) warbotCardPlay[_war] = _cardnumber;\r\n        warStatus[_war] = 4;\r\n        \r\n        emit goTurnEvent ( _war , _option, _target, _x,  _y,  _cardnumber );\r\n        \r\n    }\r\n    \r\n  \r\n    function advancePointer( uint256  _war ) public {\r\n         \r\n        warStatus[_war] = 3;\r\n        warbotOrderPointer[_war]++;\r\n        if( warbotOrderPointer[_war] == warbotOrder[_war].length )  { \r\n            WarRound[_war]++;\r\n            warbotOrderPointer[_war] = 0;\r\n            warStatus[_war] = 2 ;}\r\n        emit PointerAdvaced ( _war, warbotOrderPointer[_war] );    \r\n    }\r\n    \r\n    function getCurrentTurn ( uint256 _war ) public view returns(uint256){\r\n        \r\n        uint256 _pointer =  warbotOrderPointer[_war];\r\n        uint256 _warbot = warbotOrder[_war][_pointer];\r\n        return _warbot;\r\n        \r\n    }\r\n    \r\n    function setWarStatus ( uint256 _war, uint8 _status ) public {\r\n        \r\n        warStatus[_war] = _status;\r\n    }\r\n    \r\n    function damageWarbot ( uint256 _war, uint256 _warbot , uint256 _damage, uint8 _type , uint256 _warbotlocation ) public {\r\n        require ( warStatus[_war] == 4, \"Not proper war status\" );\r\n        if( _type == 1 )  __warbotstatsdata.damageWarbot ( _warbot, _damage );\r\n        if( _type == 2 )  __warbotstatsdata.damageWarbotAttack ( _warbot, _damage );\r\n        if( _type == 3 )  __warbotstatsdata.damageWarbotDefense ( _warbot, _damage );\r\n        if( _type == 4 )  __warbotstatsdata.damageWarbotSpeed ( _warbot, _damage );\r\n        if( _type == 5 )  __warbotstatsdata.damageWarbotMovement ( _warbot, _damage );\r\n      \r\n        warbotTarget[_war] = 0;\r\n        warbotDeathCheck ( _war ,  _warbot, _warbotlocation );\r\n        if ( warStatus[_war] != 5 ) advancePointer(_war);\r\n        \r\n    }\r\n   \r\n    \r\n    function warbotDeathCheck ( uint256 _war , uint256 _warbot, uint256 _warbotlocation ) public {\r\n        if ( __warbotstatsdata.getCurrentHitPoint(_warbot) == 0  ){\r\n            WarbotDeathCount[_war][warbotOwner[_warbot]] ++;\r\n            delete BotsInWarStanding[_war][_warbotlocation];\r\n        } \r\n        if (WarbotDeathCount[_war][warbotOwner[_warbot]] == TeamBotCount[_war][warbotOwner[_warbot]])  endWar ( _war, warbotOwner[_warbot] );\r\n    }\r\n    \r\n    function endWar ( uint256 _war, address _loser ) public{\r\n        \r\n        warStatus[_war] = 5;\r\n        \r\n       closedBattles.push(_war);\r\n       closedBattleSlot[_war]=closedBattles.length-1;\r\n       \r\n       delete activeBattles[activeBattleSlot[_war]];\r\n       activeBattleSlot[_war]=0;\r\n    }\r\n    \r\n    function setWarbotOrder ( uint256 _war, uint256 [] memory _order ) public {\r\n        require (  warStatus[_war] == 2 , \"Not the proper WarStatus\" );\r\n        warbotOrder[_war] = _order;\r\n        warStatus[_war] = 3;\r\n        warbotOrderPointer[_war] = 0;\r\n        emit WarBotOrderSet ( _war, _order );\r\n    }\r\n    \r\n    function getWarbotOrder ( uint256 _war ) public view returns ( uint256[] memory ){\r\n        return warbotOrder[_war];\r\n    }\r\n    \r\n    \r\n    function setMaxBotsPerTeam( uint8 _maxsize ) public onlyOwner {\r\n        maxBotsPerTeam = _maxsize;\r\n        emit MaxBotsPerTeamSet (  _maxsize );\r\n    }\r\n    \r\n    function setWarbotStatsData( address _address ) public onlyOwner {\r\n        warbotstatsdata = _address;\r\n        __warbotstatsdata = WarbotStatsData ( _address );\r\n    }\r\n    \r\n    \r\n    function setMicromachines( address _address ) public onlyOwner {\r\n        micromachines = _address;\r\n    }\r\n    \r\n    function setNanomachines( address _address ) public onlyOwner {\r\n        nanomachines = _address;\r\n    }\r\n    \r\n    function setNanoNFT( address _address ) public onlyOwner {\r\n        nanonft = _address;\r\n    }\r\n    \r\n    function setWarbotstats( address _address ) public onlyOwner {\r\n        warbotstats = _address;\r\n       \r\n    }\r\n    \r\n    function setMicromachinesManufacturingplant( address _address ) public onlyOwner {\r\n        micromachinemanufacturingplant = _address;\r\n    }\r\n    \r\n    function levelRequirement ( uint256 _level ) public   returns (uint256 ){\r\n        IERC20 _nano = IERC20 ( nanomachines );\r\n        return  (  _level * _level ) * 10 ** _nano.decimals();\r\n    }\r\n    \r\n   \r\n    function onERC721Received( address _operator, address _from, uint256 _tokenId, bytes memory _data) public view returns(bytes4){\r\n        _operator; _from; _tokenId; _data; \r\n        return ERC721_RECEIVED;\r\n    }\r\n    \r\n    modifier onlyOracle() {\r\n        require( msg.sender == oracle, \"Oracle Only\");\r\n        _;\r\n    }\r\n    \r\n    \r\n    modifier onlyWarbotManufacturer() {\r\n        require( msg.sender == micromachinemanufacturingplant, \"WarbotManufacturer Only\");\r\n        _;\r\n    }\r\n    \r\n}",
  "sourcePath": "C:/warbotui/Warbot_new_UI/contracts/warcontract.sol",
  "compiler": {
    "name": "solc",
    "version": "0.8.7+commit.e28d00a7.Emscripten.clang"
  },
  "schemaVersion": "3.4.1",
  "updatedAt": "2021-09-07T15:01:21.499Z",
  "devdoc": {
    "kind": "dev",
    "methods": {
      "owner()": {
        "details": "Returns the address of the current owner."
      },
      "renounceOwnership()": {
        "details": "Leaves the contract without owner. It will not be possible to call `onlyOwner` functions anymore. Can only be called by the current owner. NOTE: Renouncing ownership will leave the contract without an owner, thereby removing any functionality that is only available to the owner."
      },
      "transferOwnership(address)": {
        "details": "Transfers ownership of the contract to a new account (`newOwner`). Can only be called by the current owner."
      }
    },
    "version": 1
  },
  "userdoc": {
    "kind": "user",
    "methods": {},
    "version": 1
  }
}