{
  "contractName": "WarContract",
  "abi": [
    {
      "inputs": [],
      "stateMutability": "nonpayable",
      "type": "constructor"
    },
    {
      "anonymous": false,
      "inputs": [
        {
          "indexed": true,
          "internalType": "address",
          "name": "previousOwner",
          "type": "address"
        },
        {
          "indexed": true,
          "internalType": "address",
          "name": "newOwner",
          "type": "address"
        }
      ],
      "name": "OwnershipTransferred",
      "type": "event"
    },
    {
      "inputs": [
        {
          "internalType": "uint256",
          "name": "",
          "type": "uint256"
        },
        {
          "internalType": "uint256",
          "name": "",
          "type": "uint256"
        }
      ],
      "name": "BotsInWar",
      "outputs": [
        {
          "internalType": "uint256",
          "name": "",
          "type": "uint256"
        }
      ],
      "stateMutability": "view",
      "type": "function"
    },
    {
      "inputs": [
        {
          "internalType": "uint256",
          "name": "",
          "type": "uint256"
        },
        {
          "internalType": "address",
          "name": "",
          "type": "address"
        },
        {
          "internalType": "uint8",
          "name": "",
          "type": "uint8"
        }
      ],
      "name": "NFTCardCount",
      "outputs": [
        {
          "internalType": "uint8",
          "name": "",
          "type": "uint8"
        }
      ],
      "stateMutability": "view",
      "type": "function"
    },
    {
      "inputs": [
        {
          "internalType": "uint256",
          "name": "",
          "type": "uint256"
        },
        {
          "internalType": "address",
          "name": "",
          "type": "address"
        },
        {
          "internalType": "uint256",
          "name": "",
          "type": "uint256"
        },
        {
          "internalType": "uint256",
          "name": "",
          "type": "uint256"
        }
      ],
      "name": "NFTCards",
      "outputs": [
        {
          "internalType": "uint256",
          "name": "",
          "type": "uint256"
        }
      ],
      "stateMutability": "view",
      "type": "function"
    },
    {
      "inputs": [
        {
          "internalType": "uint256",
          "name": "",
          "type": "uint256"
        },
        {
          "internalType": "address",
          "name": "",
          "type": "address"
        },
        {
          "internalType": "uint8",
          "name": "",
          "type": "uint8"
        },
        {
          "internalType": "uint8",
          "name": "",
          "type": "uint8"
        }
      ],
      "name": "Rounds",
      "outputs": [
        {
          "internalType": "uint8",
          "name": "",
          "type": "uint8"
        }
      ],
      "stateMutability": "view",
      "type": "function"
    },
    {
      "inputs": [
        {
          "internalType": "uint256",
          "name": "",
          "type": "uint256"
        },
        {
          "internalType": "address",
          "name": "",
          "type": "address"
        }
      ],
      "name": "TeamBotCount",
      "outputs": [
        {
          "internalType": "uint8",
          "name": "",
          "type": "uint8"
        }
      ],
      "stateMutability": "view",
      "type": "function"
    },
    {
      "inputs": [
        {
          "internalType": "uint256",
          "name": "",
          "type": "uint256"
        }
      ],
      "name": "WarTeamCount",
      "outputs": [
        {
          "internalType": "uint8",
          "name": "",
          "type": "uint8"
        }
      ],
      "stateMutability": "view",
      "type": "function"
    },
    {
      "inputs": [
        {
          "internalType": "uint256",
          "name": "",
          "type": "uint256"
        },
        {
          "internalType": "uint8",
          "name": "",
          "type": "uint8"
        }
      ],
      "name": "Wars",
      "outputs": [
        {
          "internalType": "address",
          "name": "",
          "type": "address"
        }
      ],
      "stateMutability": "view",
      "type": "function"
    },
    {
      "inputs": [],
      "name": "__warbotstatsdata",
      "outputs": [
        {
          "internalType": "contract WarbotStatsData",
          "name": "",
          "type": "address"
        }
      ],
      "stateMutability": "view",
      "type": "function"
    },
    {
      "inputs": [
        {
          "internalType": "uint256",
          "name": "",
          "type": "uint256"
        }
      ],
      "name": "_temp",
      "outputs": [
        {
          "internalType": "uint8",
          "name": "",
          "type": "uint8"
        }
      ],
      "stateMutability": "view",
      "type": "function"
    },
    {
      "inputs": [],
      "name": "burnAddress",
      "outputs": [
        {
          "internalType": "address",
          "name": "",
          "type": "address"
        }
      ],
      "stateMutability": "view",
      "type": "function"
    },
    {
      "inputs": [],
      "name": "maxBotsPerTeam",
      "outputs": [
        {
          "internalType": "uint8",
          "name": "",
          "type": "uint8"
        }
      ],
      "stateMutability": "view",
      "type": "function"
    },
    {
      "inputs": [],
      "name": "maxWarTeams",
      "outputs": [
        {
          "internalType": "uint8",
          "name": "",
          "type": "uint8"
        }
      ],
      "stateMutability": "view",
      "type": "function"
    },
    {
      "inputs": [],
      "name": "micromachinemanufacturingplant",
      "outputs": [
        {
          "internalType": "address",
          "name": "",
          "type": "address"
        }
      ],
      "stateMutability": "view",
      "type": "function"
    },
    {
      "inputs": [],
      "name": "micromachines",
      "outputs": [
        {
          "internalType": "address",
          "name": "",
          "type": "address"
        }
      ],
      "stateMutability": "view",
      "type": "function"
    },
    {
      "inputs": [],
      "name": "nanomachines",
      "outputs": [
        {
          "internalType": "address",
          "name": "",
          "type": "address"
        }
      ],
      "stateMutability": "view",
      "type": "function"
    },
    {
      "inputs": [],
      "name": "nanonft",
      "outputs": [
        {
          "internalType": "address",
          "name": "",
          "type": "address"
        }
      ],
      "stateMutability": "view",
      "type": "function"
    },
    {
      "inputs": [],
      "name": "oracle",
      "outputs": [
        {
          "internalType": "address",
          "name": "",
          "type": "address"
        }
      ],
      "stateMutability": "view",
      "type": "function"
    },
    {
      "inputs": [],
      "name": "owner",
      "outputs": [
        {
          "internalType": "address",
          "name": "",
          "type": "address"
        }
      ],
      "stateMutability": "view",
      "type": "function"
    },
    {
      "inputs": [],
      "name": "renounceOwnership",
      "outputs": [],
      "stateMutability": "nonpayable",
      "type": "function"
    },
    {
      "inputs": [
        {
          "internalType": "address",
          "name": "newOwner",
          "type": "address"
        }
      ],
      "name": "transferOwnership",
      "outputs": [],
      "stateMutability": "nonpayable",
      "type": "function"
    },
    {
      "inputs": [],
      "name": "warCount",
      "outputs": [
        {
          "internalType": "uint256",
          "name": "",
          "type": "uint256"
        }
      ],
      "stateMutability": "view",
      "type": "function"
    },
    {
      "inputs": [
        {
          "internalType": "uint256",
          "name": "",
          "type": "uint256"
        }
      ],
      "name": "warStatus",
      "outputs": [
        {
          "internalType": "uint8",
          "name": "",
          "type": "uint8"
        }
      ],
      "stateMutability": "view",
      "type": "function"
    },
    {
      "inputs": [
        {
          "internalType": "uint256",
          "name": "",
          "type": "uint256"
        },
        {
          "internalType": "uint256",
          "name": "",
          "type": "uint256"
        }
      ],
      "name": "warbotAt",
      "outputs": [
        {
          "internalType": "uint256",
          "name": "",
          "type": "uint256"
        }
      ],
      "stateMutability": "view",
      "type": "function"
    },
    {
      "inputs": [
        {
          "internalType": "uint256",
          "name": "",
          "type": "uint256"
        }
      ],
      "name": "warbotCardPlay",
      "outputs": [
        {
          "internalType": "uint256",
          "name": "",
          "type": "uint256"
        }
      ],
      "stateMutability": "view",
      "type": "function"
    },
    {
      "inputs": [
        {
          "internalType": "uint256",
          "name": "",
          "type": "uint256"
        }
      ],
      "name": "warbotCommand",
      "outputs": [
        {
          "internalType": "uint256",
          "name": "",
          "type": "uint256"
        }
      ],
      "stateMutability": "view",
      "type": "function"
    },
    {
      "inputs": [
        {
          "internalType": "uint256",
          "name": "",
          "type": "uint256"
        },
        {
          "internalType": "uint256",
          "name": "",
          "type": "uint256"
        }
      ],
      "name": "warbotIDs",
      "outputs": [
        {
          "internalType": "uint256",
          "name": "",
          "type": "uint256"
        }
      ],
      "stateMutability": "view",
      "type": "function"
    },
    {
      "inputs": [
        {
          "internalType": "uint256",
          "name": "",
          "type": "uint256"
        }
      ],
      "name": "warbotInWarZone",
      "outputs": [
        {
          "internalType": "bool",
          "name": "",
          "type": "bool"
        }
      ],
      "stateMutability": "view",
      "type": "function"
    },
    {
      "inputs": [
        {
          "internalType": "uint256",
          "name": "",
          "type": "uint256"
        },
        {
          "internalType": "uint256",
          "name": "",
          "type": "uint256"
        }
      ],
      "name": "warbotMovement",
      "outputs": [
        {
          "internalType": "int8",
          "name": "",
          "type": "int8"
        }
      ],
      "stateMutability": "view",
      "type": "function"
    },
    {
      "inputs": [
        {
          "internalType": "uint256",
          "name": "",
          "type": "uint256"
        },
        {
          "internalType": "uint256",
          "name": "",
          "type": "uint256"
        }
      ],
      "name": "warbotOrder",
      "outputs": [
        {
          "internalType": "uint256",
          "name": "",
          "type": "uint256"
        }
      ],
      "stateMutability": "view",
      "type": "function"
    },
    {
      "inputs": [
        {
          "internalType": "uint256",
          "name": "",
          "type": "uint256"
        }
      ],
      "name": "warbotOrderPointer",
      "outputs": [
        {
          "internalType": "uint256",
          "name": "",
          "type": "uint256"
        }
      ],
      "stateMutability": "view",
      "type": "function"
    },
    {
      "inputs": [
        {
          "internalType": "uint256",
          "name": "",
          "type": "uint256"
        }
      ],
      "name": "warbotOwner",
      "outputs": [
        {
          "internalType": "address",
          "name": "",
          "type": "address"
        }
      ],
      "stateMutability": "view",
      "type": "function"
    },
    {
      "inputs": [
        {
          "internalType": "uint256",
          "name": "",
          "type": "uint256"
        }
      ],
      "name": "warbotTarget",
      "outputs": [
        {
          "internalType": "uint256",
          "name": "",
          "type": "uint256"
        }
      ],
      "stateMutability": "view",
      "type": "function"
    },
    {
      "inputs": [],
      "name": "warbotstats",
      "outputs": [
        {
          "internalType": "address",
          "name": "",
          "type": "address"
        }
      ],
      "stateMutability": "view",
      "type": "function"
    },
    {
      "inputs": [],
      "name": "warbotstatsdata",
      "outputs": [
        {
          "internalType": "address",
          "name": "",
          "type": "address"
        }
      ],
      "stateMutability": "view",
      "type": "function"
    },
    {
      "inputs": [
        {
          "internalType": "uint256",
          "name": "_warbot",
          "type": "uint256"
        }
      ],
      "name": "newBattle",
      "outputs": [],
      "stateMutability": "nonpayable",
      "type": "function"
    },
    {
      "inputs": [
        {
          "internalType": "uint256",
          "name": "_war",
          "type": "uint256"
        }
      ],
      "name": "checkIfTeamsAreEven",
      "outputs": [
        {
          "internalType": "bool",
          "name": "",
          "type": "bool"
        }
      ],
      "stateMutability": "nonpayable",
      "type": "function"
    },
    {
      "inputs": [
        {
          "internalType": "address",
          "name": "_address",
          "type": "address"
        },
        {
          "internalType": "uint256",
          "name": "_war",
          "type": "uint256"
        }
      ],
      "name": "checkIfTeamIsPartOfWar",
      "outputs": [
        {
          "internalType": "uint8",
          "name": "",
          "type": "uint8"
        }
      ],
      "stateMutability": "view",
      "type": "function"
    },
    {
      "inputs": [
        {
          "internalType": "uint256",
          "name": "_war",
          "type": "uint256"
        },
        {
          "internalType": "address",
          "name": "_address",
          "type": "address"
        }
      ],
      "name": "countWarbotsOnTeam",
      "outputs": [
        {
          "internalType": "uint8",
          "name": "",
          "type": "uint8"
        }
      ],
      "stateMutability": "view",
      "type": "function"
    },
    {
      "inputs": [
        {
          "internalType": "uint256",
          "name": "_warbot",
          "type": "uint256"
        },
        {
          "internalType": "uint256",
          "name": "_war",
          "type": "uint256"
        }
      ],
      "name": "joinBattle",
      "outputs": [],
      "stateMutability": "nonpayable",
      "type": "function"
    },
    {
      "inputs": [
        {
          "internalType": "uint256",
          "name": "_warbot",
          "type": "uint256"
        }
      ],
      "name": "returnWarbot",
      "outputs": [],
      "stateMutability": "nonpayable",
      "type": "function"
    },
    {
      "inputs": [
        {
          "internalType": "uint256",
          "name": "_warbot",
          "type": "uint256"
        }
      ],
      "name": "removeWarbotFromWar",
      "outputs": [],
      "stateMutability": "nonpayable",
      "type": "function"
    },
    {
      "inputs": [
        {
          "internalType": "uint256",
          "name": "_war",
          "type": "uint256"
        }
      ],
      "name": "getBotsInWar",
      "outputs": [
        {
          "internalType": "uint256[]",
          "name": "",
          "type": "uint256[]"
        }
      ],
      "stateMutability": "view",
      "type": "function"
    },
    {
      "inputs": [
        {
          "internalType": "uint256",
          "name": "_warbot",
          "type": "uint256"
        }
      ],
      "name": "whereIsWarbot",
      "outputs": [
        {
          "internalType": "uint256",
          "name": "",
          "type": "uint256"
        },
        {
          "internalType": "uint256",
          "name": "",
          "type": "uint256"
        }
      ],
      "stateMutability": "view",
      "type": "function"
    },
    {
      "inputs": [
        {
          "internalType": "uint256",
          "name": "_war",
          "type": "uint256"
        },
        {
          "internalType": "uint8",
          "name": "_status",
          "type": "uint8"
        }
      ],
      "name": "changeWarStatus",
      "outputs": [],
      "stateMutability": "nonpayable",
      "type": "function"
    },
    {
      "inputs": [
        {
          "internalType": "uint256",
          "name": "_war",
          "type": "uint256"
        }
      ],
      "name": "startWar",
      "outputs": [],
      "stateMutability": "nonpayable",
      "type": "function"
    },
    {
      "inputs": [
        {
          "internalType": "uint256",
          "name": "_war",
          "type": "uint256"
        },
        {
          "internalType": "uint8",
          "name": "_option",
          "type": "uint8"
        },
        {
          "internalType": "uint256",
          "name": "_target",
          "type": "uint256"
        },
        {
          "internalType": "int8",
          "name": "_x",
          "type": "int8"
        },
        {
          "internalType": "int8",
          "name": "_y",
          "type": "int8"
        },
        {
          "internalType": "uint256",
          "name": "_cardnumber",
          "type": "uint256"
        }
      ],
      "name": "goTurn",
      "outputs": [],
      "stateMutability": "nonpayable",
      "type": "function"
    },
    {
      "inputs": [
        {
          "internalType": "uint256",
          "name": "_war",
          "type": "uint256"
        }
      ],
      "name": "getCurrentTurn",
      "outputs": [
        {
          "internalType": "uint256",
          "name": "",
          "type": "uint256"
        }
      ],
      "stateMutability": "view",
      "type": "function"
    },
    {
      "inputs": [
        {
          "internalType": "uint8",
          "name": "_maxsize",
          "type": "uint8"
        }
      ],
      "name": "setMaxBotsPerTeam",
      "outputs": [],
      "stateMutability": "nonpayable",
      "type": "function"
    },
    {
      "inputs": [
        {
          "internalType": "address",
          "name": "_address",
          "type": "address"
        }
      ],
      "name": "setWarbotStatsData",
      "outputs": [],
      "stateMutability": "nonpayable",
      "type": "function"
    },
    {
      "inputs": [
        {
          "internalType": "address",
          "name": "_address",
          "type": "address"
        }
      ],
      "name": "setMicromachines",
      "outputs": [],
      "stateMutability": "nonpayable",
      "type": "function"
    },
    {
      "inputs": [
        {
          "internalType": "address",
          "name": "_address",
          "type": "address"
        }
      ],
      "name": "setNanomachines",
      "outputs": [],
      "stateMutability": "nonpayable",
      "type": "function"
    },
    {
      "inputs": [
        {
          "internalType": "address",
          "name": "_address",
          "type": "address"
        }
      ],
      "name": "setNanoNFT",
      "outputs": [],
      "stateMutability": "nonpayable",
      "type": "function"
    },
    {
      "inputs": [
        {
          "internalType": "address",
          "name": "_address",
          "type": "address"
        }
      ],
      "name": "setWarbotstats",
      "outputs": [],
      "stateMutability": "nonpayable",
      "type": "function"
    },
    {
      "inputs": [
        {
          "internalType": "address",
          "name": "_address",
          "type": "address"
        }
      ],
      "name": "setMicromachinesManufacturingplant",
      "outputs": [],
      "stateMutability": "nonpayable",
      "type": "function"
    },
    {
      "inputs": [
        {
          "internalType": "uint256",
          "name": "_level",
          "type": "uint256"
        }
      ],
      "name": "levelRequirement",
      "outputs": [
        {
          "internalType": "uint256",
          "name": "",
          "type": "uint256"
        }
      ],
      "stateMutability": "nonpayable",
      "type": "function"
    },
    {
      "inputs": [
        {
          "internalType": "address",
          "name": "_operator",
          "type": "address"
        },
        {
          "internalType": "address",
          "name": "_from",
          "type": "address"
        },
        {
          "internalType": "uint256",
          "name": "_tokenId",
          "type": "uint256"
        },
        {
          "internalType": "bytes",
          "name": "_data",
          "type": "bytes"
        }
      ],
      "name": "onERC721Received",
      "outputs": [
        {
          "internalType": "bytes4",
          "name": "",
          "type": "bytes4"
        }
      ],
      "stateMutability": "view",
      "type": "function"
    }
  ],
  "bytecode": "0x60806040526000805463ffffffff60a01b1916630a85bd0160a11b1781556013556014805461ffff191661020217905534801561003b57600080fd5b50600080546001600160a01b031916339081178255604051909182917f8be0079c531659141344cd1fd0a4f28419497f9722a3daafe3b4186f6b6457e0908290a350600280546001600160a01b0319908116738bc3eb7ded0ec83d0a8ef18d327644c04191f7dd17909155600380548216734c0aeeb37210b97956309bb4585c5433cc015f6c17905560078054821673e7e92e4ccc08f381984de6cf35e050ce7729b9c690811790915560058054831673ee298defcba669c19b6c39538b46ce88af5aaa8e908117909155600680548416738a8c2a40547ecfe1d3894ee3d7c1b4807b26e9cd90811790915560018054851661dead179055600880548516737ce0e55703f12d03eb53b918ad6b9eb80d188afb179055600980548516909317909255600a805484169091179055600b80549092161790556125af806101816000396000f3fe608060405234801561001057600080fd5b50600436106103785760003560e01c80637dc0d1d0116101d3578063b28394dc11610104578063ddbd5ff8116100a2578063e8c911041161007c578063e8c91104146108e8578063f2fde38b146108fb578063f53f86d31461090e578063f6d4a1601461092157600080fd5b8063ddbd5ff8146108a0578063debeb353146108b2578063e44dba4f146108d557600080fd5b8063bb04af2e116100de578063bb04af2e14610824578063c462a5dd14610847578063c664199814610850578063d8158e301461086357600080fd5b8063b28394dc146107ca578063b4c8f1f4146107dd578063ba405d731461080557600080fd5b80638da5cb5b11610171578063a2a141171161014b578063a2a1411714610761578063a50e75ce14610784578063a75a01d814610797578063a9cdc1ee146107b757600080fd5b80638da5cb5b146106fc57806390ad8dc51461070d578063933b291f1461072d57600080fd5b80637e786a66116101ad5780637e786a661461068557806385a902e5146106a857806387e691eb146106d657806389c58a9d146106e957600080fd5b80637dc0d1d01461064c5780637e6443cd1461065f5780637e7066c11461067257600080fd5b806333ff80f4116102ad57806359c224e11161024b578063715018a611610225578063715018a61461060b57806372da1936146106135780637823b018146106265780637b7da3941461063957600080fd5b806359c224e1146105d25780636730d593146105e557806370d5ae05146105f857600080fd5b80634b4e66bc116102875780634b4e66bc1461057a5780634decc7b11461058d578063542a3973146105a057806354c6a668146105c557600080fd5b806333ff80f4146105415780633c6ac26f146105545780633eedeacc1461056757600080fd5b8063208a30381161031a57806326e77a14116102f457806326e77a14146104cc5780632792e50e146104f55780633181b3171461050857806333eba8461461052e57600080fd5b8063208a3038146104725780632470a0e7146104855780632636aea2146104b957600080fd5b80630cd01d98116103565780630cd01d98146103e5578063150417d214610410578063150b7a02146104235780631841eb671461045f57600080fd5b80630132f57e1461037d5780630856d2c3146103b057806308d3a745146103c5575b600080fd5b61039d61038b36600461213f565b601e6020526000908152604090205481565b6040519081526020015b60405180910390f35b6103c36103be36600461213f565b610951565b005b61039d6103d336600461213f565b601d6020526000908152604090205481565b6007546103f8906001600160a01b031681565b6040516001600160a01b0390911681526020016103a7565b6103c361041e36600461201e565b610a3b565b610446610431366004612039565b600054600160a01b900460e01b949350505050565b6040516001600160e01b031990911681526020016103a7565b6103c361046d36600461201e565b610a91565b6103c361048036600461201e565b610add565b6103f8610493366004612283565b60156020908152600092835260408084209091529082529020546001600160a01b031681565b61039d6104c7366004612261565b610b29565b6103f86104da36600461213f565b6019602052600090815260409020546001600160a01b031681565b6103c361050336600461213f565b610b5a565b61051b610516366004612261565b610e6b565b60405160009190910b81526020016103a7565b6005546103f8906001600160a01b031681565b6103c361054f3660046122a6565b610eaa565b6103c361056236600461213f565b610fd5565b6103c361057536600461201e565b611107565b61039d61058836600461219d565b611153565b6103c361059b36600461213f565b61119e565b6105b36105ae366004612115565b61125a565b60405160ff90911681526020016103a7565b6014546105b39060ff1681565b6103c36105e0366004612305565b6112de565b61039d6105f336600461213f565b611324565b6001546103f8906001600160a01b031681565b6103c36113cb565b61039d610621366004612261565b61143f565b6002546103f8906001600160a01b031681565b6105b361064736600461213f565b61145b565b6008546103f8906001600160a01b031681565b6105b361066d366004612171565b61148f565b61039d610680366004612261565b61152d565b6105b361069336600461213f565b60166020526000908152604090205460ff1681565b6105b36106b6366004612171565b601760209081526000928352604080842090915290825290205460ff1681565b6004546103f8906001600160a01b031681565b600b546103f8906001600160a01b031681565b6000546001600160a01b03166103f8565b61072061071b36600461213f565b611549565b6040516103a79190612320565b6105b361073b3660046121d8565b600d60209081526000938452604080852082529284528284209052825290205460ff1681565b61077461076f36600461213f565b6115ab565b60405190151581526020016103a7565b6103c361079236600461201e565b611730565b61039d6107a536600461213f565b601c6020526000908152604090205481565b61039d6107c536600461213f565b61177c565b6103c36107d836600461201e565b6117be565b6107f06107eb36600461213f565b61180a565b604080519283526020830191909152016103a7565b61039d61081336600461213f565b602080526000908152604090205481565b6105b361083236600461213f565b60106020526000908152604090205460ff1681565b61039d60135481565b6003546103f8906001600160a01b031681565b6105b3610871366004612214565b600e60209081526000948552604080862082529385528385208152918452828420909152825290205460ff1681565b6014546105b390610100900460ff1681565b6107746108c036600461213f565b600f6020526000908152604090205460ff1681565b6103c36108e3366004612261565b61186f565b6006546103f8906001600160a01b031681565b6103c361090936600461201e565b611bb6565b61039d61091c366004612261565b611ca0565b6103c361092f366004612283565b600091825260106020526040909120805460ff191660ff909216919091179055565b60008061095d8361180a565b9150915081600014156109ab5760405162461bcd60e51b815260206004820152601160248201527002bb0b93137ba102737ba102337bab7321607d1b60448201526064015b60405180910390fd5b60008281526018602052604090208054829081106109cb576109cb61254d565b600091825260208083209091018290558382526017815260408083203384529091528120805460ff16916109fe836124df565b825460ff9182166101009390930a9283029190920219909116179055505050600090815260196020526040902080546001600160a01b0319169055565b6000546001600160a01b03163314610a655760405162461bcd60e51b81526004016109a290612364565b600680546001600160a01b039092166001600160a01b03199283168117909155600b8054909216179055565b6000546001600160a01b03163314610abb5760405162461bcd60e51b81526004016109a290612364565b600480546001600160a01b0319166001600160a01b0392909216919091179055565b6000546001600160a01b03163314610b075760405162461bcd60e51b81526004016109a290612364565b600380546001600160a01b0319166001600160a01b0392909216919091179055565b601a6020528160005260406000208181548110610b4557600080fd5b90600052602060002001600091509150505481565b6009546040516323b872dd60e01b8152336004820152306024820152604481018390526001600160a01b03909116906323b872dd90606401600060405180830381600087803b158015610bac57600080fd5b505af1158015610bc0573d6000803e3d6000fd5b5050600b54604051637d890d8f60e11b815260048101859052600093506001600160a01b03909116915063fb121b1e90602401602060405180830381600087803b158015610c0d57600080fd5b505af1158015610c21573d6000803e3d6000fd5b505050506040513d601f19601f82011682018060405250810190610c459190612158565b11610c895760405162461bcd60e51b815260206004820152601460248201527315d85c989bdd08139bdd081058dd1a5d985d195960621b60448201526064016109a2565b60138054906000610c99836124fc565b9091555050601380546000908152601060209081526040808320805460ff191660011790559254825260169052908120805460ff1691610cd883612517565b82546101009290920a60ff8181021990931691831602179091556013546000908152601560209081526040808320601683528184205490941683529281528282208054336001600160a01b0319909116179055848252600f9052819020805460ff19166001179055600b549051635b39a16160e01b8152600481018490526001600160a01b039091169150635b39a16190602401600060405180830381600087803b158015610d8657600080fd5b505af1158015610d9a573d6000803e3d6000fd5b505060138054600090815260186020908152604080832080546001810182559084528284200187905592548252601781528282203383529052908120805460ff1693509150610de883612517565b825460ff9182166101009390930a928302919092021990911617905550600081815260196020908152604080832080546001600160a01b031916331790558051808201825260135480825284526018835292205490820190610e4c906001906124c8565b90526000828152601a60205260409020610e67916002611e34565b5050565b601f6020528160005260406000208181548110610e8757600080fd5b600091825260208083209082040154601f9091166101000a9004900b9150829050565b60008560ff16118015610ec0575060048560ff16105b610ec957600080fd5b3360196000610ed78961177c565b81526020810191909152604001600020546001600160a01b031614610f335760405162461bcd60e51b81526020600482015260126024820152712737ba102bb0b93137ba13b99027bbb732b960711b60448201526064016109a2565b6000868152601d6020526040902060ff86169081905560011415610f63576000868152601e602052604090208490555b8460ff1660021415610fa757604080518082018252600085810b810b825284810b810b602080840191909152898252601f905291909120610fa5916002611e7f565b505b8460ff1660011415610fc457600086815260208052604090208190555b610fcd86611cbc565b505050505050565b6000818152601960205260409020546001600160a01b0316331461102e5760405162461bcd60e51b815260206004820152601060248201526f2737ba102bb0b93137ba1027bbb732b960811b60448201526064016109a2565b6000818152601960205260409081902080546001600160a01b031916905560075490516323b872dd60e01b8152306004820152336024820152604481018390526001600160a01b039091169081906323b872dd90606401600060405180830381600087803b15801561109f57600080fd5b505af11580156110b3573d6000803e3d6000fd5b5050506000838152600f60205260409020805460ff19169055506110d682610951565b60408051808201825260008082526020808301829052858252601a905291909120611102916002611f23565b505050565b6000546001600160a01b031633146111315760405162461bcd60e51b81526004016109a290612364565b600280546001600160a01b0319166001600160a01b0392909216919091179055565b600c602052836000526040600020602052826000526040600020602052816000526040600020818154811061118757600080fd5b906000526020600020016000935093505050505481565b600081815260166020526040902054600160ff909116116111fa5760405162461bcd60e51b81526020600482015260166024820152754e6f7420456e6f75676820436f6e74657374616e747360501b60448201526064016109a2565b611203816115ab565b61123f5760405162461bcd60e51b815260206004820152600d60248201526c02ab732bb32b7103a32b0b6b99609d1b60448201526064016109a2565b6000908152601060205260409020805460ff19166002179055565b600060015b60008381526016602052604090205461127c9060ff166001612399565b60ff168160ff1610156112d257600083815260156020908152604080832060ff851684529091529020546001600160a01b03858116911614156112c05790506112d8565b806112ca81612517565b91505061125f565b60009150505b92915050565b6000546001600160a01b031633146113085760405162461bcd60e51b81526004016109a290612364565b6014805460ff9092166101000261ff0019909216919091179055565b6003546040805163313ce56760e01b815290516000926001600160a01b031691829163313ce5679160048082019260209290919082900301818887803b15801561136d57600080fd5b505af1158015611381573d6000803e3d6000fd5b505050506040513d601f19601f820116820180604052508101906113a59190612158565b6113b090600a612401565b6113ba84806124a9565b6113c491906124a9565b9392505050565b6000546001600160a01b031633146113f55760405162461bcd60e51b81526004016109a290612364565b600080546040516001600160a01b03909116907f8be0079c531659141344cd1fd0a4f28419497f9722a3daafe3b4186f6b6457e0908390a3600080546001600160a01b0319169055565b60186020528160005260406000208181548110610b4557600080fd5b6021818154811061146b57600080fd5b9060005260206000209060209182820401919006915054906101000a900460ff1681565b60008060005b60008581526018602052604090205460ff821610156115255760008581526018602052604081208054601992919060ff85169081106114d6576114d661254d565b600091825260208083209091015483528201929092526040019020546001600160a01b0385811691161415611513578161150f81612517565b9250505b8061151d81612517565b915050611495565b509392505050565b601b6020528160005260406000208181548110610b4557600080fd5b60008181526018602090815260409182902080548351818402810184019094528084526060939283018282801561159f57602002820191906000526020600020905b81548152602001906001019080831161158b575b50505050509050919050565b600081815260166020526040812054600260ff90911610156115cf57506000919050565b606080516115e290602190608090611f63565b5060015b6000848152601660205260409020546116039060ff166001612399565b60ff168160ff16101561168d57600084815260156020908152604080832060ff851684529091529020546021906116449086906001600160a01b031661148f565b81546001810183556000928352602092839020928104909201805460ff928316601f9094166101000a93840292909302199092161790558061168581612517565b9150506115e6565b5060015b6021548110156117265760216000815481106116af576116af61254d565b90600052602060002090602091828204019190069054906101000a900460ff1660ff16602182815481106116e5576116e561254d565b60009182526020918290209181049091015460ff601f9092166101000a90041614611714575060009392505050565b8061171e816124fc565b915050611691565b5060019392505050565b6000546001600160a01b0316331461175a5760405162461bcd60e51b81526004016109a290612364565b600580546001600160a01b0319166001600160a01b0392909216919091179055565b6000818152601c6020908152604080832054601b90925282208054839190839081106117aa576117aa61254d565b600091825260209091200154949350505050565b6000546001600160a01b031633146117e85760405162461bcd60e51b81526004016109a290612364565b600780546001600160a01b0319166001600160a01b0392909216919091179055565b6000818152601a602052604081208054829190829061182b5761182b61254d565b9060005260206000200154601a600085815260200190815260200160002060018154811061185b5761185b61254d565b906000526020600020015491509150915091565b60008181526010602052604090205460ff166001146118dc5760405162461bcd60e51b815260206004820152602360248201527f4172656e61204e6f7420417661696c61626c6520666f72204e657720576172626044820152626f747360e81b60648201526084016109a2565b600b54604051637d890d8f60e11b8152600481018490526000916001600160a01b03169063fb121b1e90602401602060405180830381600087803b15801561192357600080fd5b505af1158015611937573d6000803e3d6000fd5b505050506040513d601f19601f8201168201806040525081019061195b9190612158565b1161196557600080fd5b601454610100900460ff1661197a823361148f565b60ff16106119d85760405162461bcd60e51b815260206004820152602560248201527f4d617820576172626f747320666f722074686973207465616d20416c726561646044820152641e481a1a5d60da1b60648201526084016109a2565b60008181526017602090815260408083203384529091528120805460ff1691611a0083612517565b91906101000a81548160ff021916908360ff160217905550506000611a2482611d25565b6009546040516323b872dd60e01b8152336004820152306024820152604481018690529192506001600160a01b0316906323b872dd90606401600060405180830381600087803b158015611a7757600080fd5b505af1158015611a8b573d6000803e3d6000fd5b5050601354600090815260156020908152604080832060ff87168452825280832080546001600160a01b03191633179055878352600f90915290819020805460ff19166001179055600b549051635b39a16160e01b8152600481018790526001600160a01b039091169250635b39a1619150602401600060405180830381600087803b158015611b1a57600080fd5b505af1158015611b2e573d6000803e3d6000fd5b50506013546000908152601860208181526040808420805460018181018355918652838620018a90558985526019835281852080546001600160a01b031916331790558151808301835289815289865293835293205491945084019250611b9591906124c8565b90526000848152601a60205260409020611bb0916002611e34565b50505050565b6000546001600160a01b03163314611be05760405162461bcd60e51b81526004016109a290612364565b6001600160a01b038116611c455760405162461bcd60e51b815260206004820152602660248201527f4f776e61626c653a206e6577206f776e657220697320746865207a65726f206160448201526564647265737360d01b60648201526084016109a2565b600080546040516001600160a01b03808516939216917f8be0079c531659141344cd1fd0a4f28419497f9722a3daafe3b4186f6b6457e091a3600080546001600160a01b0319166001600160a01b0392909216919091179055565b60116020528160005260406000208181548110610b4557600080fd5b6000818152601c60205260408120805491611cd6836124fc565b90915550506000818152601b6020908152604080832054601c9092529091205410611d22576000818152601c6020908152604080832083905560109091529020805460ff191660021790555b50565b600080611d32338461125a565b60ff161115611d45576112d8338361125a565b6000828152601660205260408120805460ff1691611d6283612517565b82546101009290920a60ff818102199093169183160217909155600084815260156020908152604080832060168084528285208054871686529184529184208054336001600160a01b031990911617905560145493889052915254908216911611159050611e1e5760405162461bcd60e51b815260206004820152602360248201527f4d6178696d756d20576172205465616d73204c696d697420416c726561647920604482015262121a5d60ea1b60648201526084016109a2565b5060009081526016602052604090205460ff1690565b828054828255906000526020600020908101928215611e6f579160200282015b82811115611e6f578251825591602001919060010190611e54565b50611e7b929150611fca565b5090565b82805482825590600052602060002090601f01602090048101928215611e6f5791602002820160005b83821115611ee957835183826101000a81548160ff021916908360000b60ff1602179055509260200192600101602081600001049283019260010302611ea8565b8015611f165782816101000a81549060ff0219169055600101602081600001049283019260010302611ee9565b5050611e7b929150611fca565b828054828255906000526020600020908101928215611e6f579160200282015b82811115611e6f578251829060ff16905591602001919060010190611f43565b82805482825590600052602060002090601f01602090048101928215611e6f5791602002820160005b83821115611ee957835183826101000a81548160ff021916908360ff1602179055509260200192600101602081600001049283019260010302611f8c565b5b80821115611e7b5760008155600101611fcb565b80356001600160a01b0381168114611ff657600080fd5b919050565b8035600081900b8114611ff657600080fd5b803560ff81168114611ff657600080fd5b60006020828403121561203057600080fd5b6113c482611fdf565b6000806000806080858703121561204f57600080fd5b61205885611fdf565b935061206660208601611fdf565b925060408501359150606085013567ffffffffffffffff8082111561208a57600080fd5b818701915087601f83011261209e57600080fd5b8135818111156120b0576120b0612563565b604051601f8201601f19908116603f011681019083821181831017156120d8576120d8612563565b816040528281528a60208487010111156120f157600080fd5b82602086016020830137600060208483010152809550505050505092959194509250565b6000806040838503121561212857600080fd5b61213183611fdf565b946020939093013593505050565b60006020828403121561215157600080fd5b5035919050565b60006020828403121561216a57600080fd5b5051919050565b6000806040838503121561218457600080fd5b8235915061219460208401611fdf565b90509250929050565b600080600080608085870312156121b357600080fd5b843593506121c360208601611fdf565b93969395505050506040820135916060013590565b6000806000606084860312156121ed57600080fd5b833592506121fd60208501611fdf565b915061220b6040850161200d565b90509250925092565b6000806000806080858703121561222a57600080fd5b8435935061223a60208601611fdf565b92506122486040860161200d565b91506122566060860161200d565b905092959194509250565b6000806040838503121561227457600080fd5b50508035926020909101359150565b6000806040838503121561229657600080fd5b823591506121946020840161200d565b60008060008060008060c087890312156122bf57600080fd5b863595506122cf6020880161200d565b9450604087013593506122e460608801611ffb565b92506122f260808801611ffb565b915060a087013590509295509295509295565b60006020828403121561231757600080fd5b6113c48261200d565b6020808252825182820181905260009190848201906040850190845b818110156123585783518352928401929184019160010161233c565b50909695505050505050565b6020808252818101527f4f776e61626c653a2063616c6c6572206973206e6f7420746865206f776e6572604082015260600190565b600060ff821660ff84168060ff038211156123b6576123b6612537565b019392505050565b600181815b808511156123f95781600019048211156123df576123df612537565b808516156123ec57918102915b93841c93908002906123c3565b509250929050565b60006113c48383600082612417575060016112d8565b81612424575060006112d8565b816001811461243a576002811461244457612460565b60019150506112d8565b60ff84111561245557612455612537565b50506001821b6112d8565b5060208310610133831016604e8410600b8410161715612483575081810a6112d8565b61248d83836123be565b80600019048211156124a1576124a1612537565b029392505050565b60008160001904831182151516156124c3576124c3612537565b500290565b6000828210156124da576124da612537565b500390565b600060ff8216806124f2576124f2612537565b6000190192915050565b600060001982141561251057612510612537565b5060010190565b600060ff821660ff81141561252e5761252e612537565b60010192915050565b634e487b7160e01b600052601160045260246000fd5b634e487b7160e01b600052603260045260246000fd5b634e487b7160e01b600052604160045260246000fdfea26469706673582212201429d5ff0871fbbda485d06a508b78f27eab7f3f73a740531850109b831d86c364736f6c63430008060033",
  "immutableReferences": {},
  "source": "\r\npragma solidity ^0.8.0;\r\n\r\n\r\n// SPDX-License-Identifier: Unlicensed\r\ninterface IERC20 {\r\n\r\n    function totalSupply() external view returns (uint256);\r\n     function decimals() external returns (uint256);\r\n\r\n    /**\r\n     * @dev Returns the amount of tokens owned by `account`.\r\n     */\r\n    function balanceOf(address account) external view returns (uint256);\r\n\r\n    /**\r\n     * @dev Moves `amount` tokens from the caller's account to `recipient`.\r\n     *\r\n     * Returns a boolean value indicating whether the operation succeeded.\r\n     *\r\n     * Emits a {Transfer} event.\r\n     */\r\n    function transfer(address recipient, uint256 amount) external returns (bool);\r\n\r\n    /**\r\n     * @dev Returns the remaining number of tokens that `spender` will be\r\n     * allowed to spend on behalf of `owner` through {transferFrom}. This is\r\n     * zero by default.\r\n     *\r\n     * This value changes when {approve} or {transferFrom} are called.\r\n     */\r\n    function allowance(address owner, address spender) external view returns (uint256);\r\n\r\n    /**\r\n     * @dev Sets `amount` as the allowance of `spender` over the caller's tokens.\r\n     *\r\n     * Returns a boolean value indicating whether the operation succeeded.\r\n     *\r\n     * IMPORTANT: Beware that changing an allowance with this method brings the risk\r\n     * that someone may use both the old and the new allowance by unfortunate\r\n     * transaction ordering. One possible solution to mitigate this race\r\n     * condition is to first reduce the spender's allowance to 0 and set the\r\n     * desired value afterwards:\r\n     * https://github.com/ethereum/EIPs/issues/20#issuecomment-263524729\r\n     *\r\n     * Emits an {Approval} event.\r\n     */\r\n    function approve(address spender, uint256 amount) external returns (bool);\r\n\r\n    /**\r\n     * @dev Moves `amount` tokens from `sender` to `recipient` using the\r\n     * allowance mechanism. `amount` is then deducted from the caller's\r\n     * allowance.\r\n     *\r\n     * Returns a boolean value indicating whether the operation succeeded.\r\n     *\r\n     * Emits a {Transfer} event.\r\n     */\r\n    function transferFrom(address sender, address recipient, uint256 amount) external returns (bool);\r\n\r\n    /**\r\n     * @dev Emitted when `value` tokens are moved from one account (`from`) to\r\n     * another (`to`).\r\n     *\r\n     * Note that `value` may be zero.\r\n     */\r\n    event Transfer(address indexed from, address indexed to, uint256 value);\r\n\r\n    /**\r\n     * @dev Emitted when the allowance of a `spender` for an `owner` is set by\r\n     * a call to {approve}. `value` is the new allowance.\r\n     */\r\n    event Approval(address indexed owner, address indexed spender, uint256 value);\r\n}\r\n\r\n\r\n\r\n\r\nlibrary SafeMath {\r\n    /**\r\n     * @dev Returns the addition of two unsigned integers, reverting on\r\n     * overflow.\r\n     *\r\n     * Counterpart to Solidity's `+` operator.\r\n     *\r\n     * Requirements:\r\n     *\r\n     * - Addition cannot overflow.\r\n     */\r\n    function add(uint256 a, uint256 b) internal pure returns (uint256) {\r\n        uint256 c = a + b;\r\n        require(c >= a, \"SafeMath: addition overflow\");\r\n\r\n        return c;\r\n    }\r\n\r\n    /**\r\n     * @dev Returns the subtraction of two unsigned integers, reverting on\r\n     * overflow (when the result is negative).\r\n     *\r\n     * Counterpart to Solidity's `-` operator.\r\n     *\r\n     * Requirements:\r\n     *\r\n     * - Subtraction cannot overflow.\r\n     */\r\n    function sub(uint256 a, uint256 b) internal pure returns (uint256) {\r\n        return sub(a, b, \"SafeMath: subtraction overflow\");\r\n    }\r\n\r\n    /**\r\n     * @dev Returns the subtraction of two unsigned integers, reverting with custom message on\r\n     * overflow (when the result is negative).\r\n     *\r\n     * Counterpart to Solidity's `-` operator.\r\n     *\r\n     * Requirements:\r\n     *\r\n     * - Subtraction cannot overflow.\r\n     */\r\n    function sub(uint256 a, uint256 b, string memory errorMessage) internal pure returns (uint256) {\r\n        require(b <= a, errorMessage);\r\n        uint256 c = a - b;\r\n\r\n        return c;\r\n    }\r\n\r\n    /**\r\n     * @dev Returns the multiplication of two unsigned integers, reverting on\r\n     * overflow.\r\n     *\r\n     * Counterpart to Solidity's `*` operator.\r\n     *\r\n     * Requirements:\r\n     *\r\n     * - Multiplication cannot overflow.\r\n     */\r\n    function mul(uint256 a, uint256 b) internal pure returns (uint256) {\r\n        // Gas optimization: this is cheaper than requiring 'a' not being zero, but the\r\n        // benefit is lost if 'b' is also tested.\r\n        // See: https://github.com/OpenZeppelin/openzeppelin-contracts/pull/522\r\n        if (a == 0) {\r\n            return 0;\r\n        }\r\n\r\n        uint256 c = a * b;\r\n        require(c / a == b, \"SafeMath: multiplication overflow\");\r\n\r\n        return c;\r\n    }\r\n\r\n    /**\r\n     * @dev Returns the integer division of two unsigned integers. Reverts on\r\n     * division by zero. The result is rounded towards zero.\r\n     *\r\n     * Counterpart to Solidity's `/` operator. Note: this function uses a\r\n     * `revert` opcode (which leaves remaining gas untouched) while Solidity\r\n     * uses an invalid opcode to revert (consuming all remaining gas).\r\n     *\r\n     * Requirements:\r\n     *\r\n     * - The divisor cannot be zero.\r\n     */\r\n    function div(uint256 a, uint256 b) internal pure returns (uint256) {\r\n        return div(a, b, \"SafeMath: division by zero\");\r\n    }\r\n\r\n    /**\r\n     * @dev Returns the integer division of two unsigned integers. Reverts with custom message on\r\n     * division by zero. The result is rounded towards zero.\r\n     *\r\n     * Counterpart to Solidity's `/` operator. Note: this function uses a\r\n     * `revert` opcode (which leaves remaining gas untouched) while Solidity\r\n     * uses an invalid opcode to revert (consuming all remaining gas).\r\n     *\r\n     * Requirements:\r\n     *\r\n     * - The divisor cannot be zero.\r\n     */\r\n    function div(uint256 a, uint256 b, string memory errorMessage) internal pure returns (uint256) {\r\n        require(b > 0, errorMessage);\r\n        uint256 c = a / b;\r\n        // assert(a == b * c + a % b); // There is no case in which this doesn't hold\r\n\r\n        return c;\r\n    }\r\n\r\n    /**\r\n     * @dev Returns the remainder of dividing two unsigned integers. (unsigned integer modulo),\r\n     * Reverts when dividing by zero.\r\n     *\r\n     * Counterpart to Solidity's `%` operator. This function uses a `revert`\r\n     * opcode (which leaves remaining gas untouched) while Solidity uses an\r\n     * invalid opcode to revert (consuming all remaining gas).\r\n     *\r\n     * Requirements:\r\n     *\r\n     * - The divisor cannot be zero.\r\n     */\r\n    function mod(uint256 a, uint256 b) internal pure returns (uint256) {\r\n        return mod(a, b, \"SafeMath: modulo by zero\");\r\n    }\r\n\r\n    /**\r\n     * @dev Returns the remainder of dividing two unsigned integers. (unsigned integer modulo),\r\n     * Reverts with custom message when dividing by zero.\r\n     *\r\n     * Counterpart to Solidity's `%` operator. This function uses a `revert`\r\n     * opcode (which leaves remaining gas untouched) while Solidity uses an\r\n     * invalid opcode to revert (consuming all remaining gas).\r\n     *\r\n     * Requirements:\r\n     *\r\n     * - The divisor cannot be zero.\r\n     */\r\n    function mod(uint256 a, uint256 b, string memory errorMessage) internal pure returns (uint256) {\r\n        require(b != 0, errorMessage);\r\n        return a % b;\r\n    }\r\n}\r\n\r\n\r\n/**\r\n * @dev Collection of functions related to the address type\r\n */\r\nlibrary Address {\r\n    /**\r\n     * @dev Returns true if `account` is a contract.\r\n     *\r\n     * [IMPORTANT]\r\n     * ====\r\n     * It is unsafe to assume that an address for which this function returns\r\n     * false is an externally-owned account (EOA) and not a contract.\r\n     *\r\n     * Among others, `isContract` will return false for the following\r\n     * types of addresses:\r\n     *\r\n     *  - an externally-owned account\r\n     *  - a contract in construction\r\n     *  - an address where a contract will be created\r\n     *  - an address where a contract lived, but was destroyed\r\n     * ====\r\n     */\r\n    function isContract(address account) internal view returns (bool) {\r\n        // This method relies on extcodesize, which returns 0 for contracts in\r\n        // construction, since the code is only stored at the end of the\r\n        // constructor execution.\r\n\r\n        uint256 size;\r\n        // solhint-disable-next-line no-inline-assembly\r\n        assembly { size := extcodesize(account) }\r\n        return size > 0;\r\n    }\r\n\r\n    /**\r\n     * @dev Replacement for Solidity's `transfer`: sends `amount` wei to\r\n     * `recipient`, forwarding all available gas and reverting on errors.\r\n     *\r\n     * https://eips.ethereum.org/EIPS/eip-1884[EIP1884] increases the gas cost\r\n     * of certain opcodes, possibly making contracts go over the 2300 gas limit\r\n     * imposed by `transfer`, making them unable to receive funds via\r\n     * `transfer`. {sendValue} removes this limitation.\r\n     *\r\n     * https://diligence.consensys.net/posts/2019/09/stop-using-soliditys-transfer-now/[Learn more].\r\n     *\r\n     * IMPORTANT: because control is transferred to `recipient`, care must be\r\n     * taken to not create reentrancy vulnerabilities. Consider using\r\n     * {ReentrancyGuard} or the\r\n     * https://solidity.readthedocs.io/en/v0.5.11/security-considerations.html#use-the-checks-effects-interactions-pattern[checks-effects-interactions pattern].\r\n     */\r\n    function sendValue(address payable recipient, uint256 amount) internal {\r\n        require(address(this).balance >= amount, \"Address: insufficient balance\");\r\n\r\n        // solhint-disable-next-line avoid-low-level-calls, avoid-call-value\r\n        (bool success, ) = recipient.call{ value: amount }(\"\");\r\n        require(success, \"Address: unable to send value, recipient may have reverted\");\r\n    }\r\n\r\n    /**\r\n     * @dev Performs a Solidity function call using a low level `call`. A\r\n     * plain`call` is an unsafe replacement for a function call: use this\r\n     * function instead.\r\n     *\r\n     * If `target` reverts with a revert reason, it is bubbled up by this\r\n     * function (like regular Solidity function calls).\r\n     *\r\n     * Returns the raw returned data. To convert to the expected return value,\r\n     * use https://solidity.readthedocs.io/en/latest/units-and-global-variables.html?highlight=abi.decode#abi-encoding-and-decoding-functions[`abi.decode`].\r\n     *\r\n     * Requirements:\r\n     *\r\n     * - `target` must be a contract.\r\n     * - calling `target` with `data` must not revert.\r\n     *\r\n     * _Available since v3.1._\r\n     */\r\n    function functionCall(address target, bytes memory data) internal returns (bytes memory) {\r\n      return functionCall(target, data, \"Address: low-level call failed\");\r\n    }\r\n\r\n    /**\r\n     * @dev Same as {xref-Address-functionCall-address-bytes-}[`functionCall`], but with\r\n     * `errorMessage` as a fallback revert reason when `target` reverts.\r\n     *\r\n     * _Available since v3.1._\r\n     */\r\n    function functionCall(address target, bytes memory data, string memory errorMessage) internal returns (bytes memory) {\r\n        return functionCallWithValue(target, data, 0, errorMessage);\r\n    }\r\n\r\n    /**\r\n     * @dev Same as {xref-Address-functionCall-address-bytes-}[`functionCall`],\r\n     * but also transferring `value` wei to `target`.\r\n     *\r\n     * Requirements:\r\n     *\r\n     * - the calling contract must have an ETH balance of at least `value`.\r\n     * - the called Solidity function must be `payable`.\r\n     *\r\n     * _Available since v3.1._\r\n     */\r\n    function functionCallWithValue(address target, bytes memory data, uint256 value) internal returns (bytes memory) {\r\n        return functionCallWithValue(target, data, value, \"Address: low-level call with value failed\");\r\n    }\r\n\r\n    /**\r\n     * @dev Same as {xref-Address-functionCallWithValue-address-bytes-uint256-}[`functionCallWithValue`], but\r\n     * with `errorMessage` as a fallback revert reason when `target` reverts.\r\n     *\r\n     * _Available since v3.1._\r\n     */\r\n    function functionCallWithValue(address target, bytes memory data, uint256 value, string memory errorMessage) internal returns (bytes memory) {\r\n        require(address(this).balance >= value, \"Address: insufficient balance for call\");\r\n        require(isContract(target), \"Address: call to non-contract\");\r\n\r\n        // solhint-disable-next-line avoid-low-level-calls\r\n        (bool success, bytes memory returndata) = target.call{ value: value }(data);\r\n        return _verifyCallResult(success, returndata, errorMessage);\r\n    }\r\n\r\n    /**\r\n     * @dev Same as {xref-Address-functionCall-address-bytes-}[`functionCall`],\r\n     * but performing a static call.\r\n     *\r\n     * _Available since v3.3._\r\n     */\r\n    function functionStaticCall(address target, bytes memory data) internal view returns (bytes memory) {\r\n        return functionStaticCall(target, data, \"Address: low-level static call failed\");\r\n    }\r\n\r\n    /**\r\n     * @dev Same as {xref-Address-functionCall-address-bytes-string-}[`functionCall`],\r\n     * but performing a static call.\r\n     *\r\n     * _Available since v3.3._\r\n     */\r\n    function functionStaticCall(address target, bytes memory data, string memory errorMessage) internal view returns (bytes memory) {\r\n        require(isContract(target), \"Address: static call to non-contract\");\r\n\r\n        // solhint-disable-next-line avoid-low-level-calls\r\n        (bool success, bytes memory returndata) = target.staticcall(data);\r\n        return _verifyCallResult(success, returndata, errorMessage);\r\n    }\r\n\r\n    /**\r\n     * @dev Same as {xref-Address-functionCall-address-bytes-}[`functionCall`],\r\n     * but performing a delegate call.\r\n     *\r\n     * _Available since v3.4._\r\n     */\r\n    function functionDelegateCall(address target, bytes memory data) internal returns (bytes memory) {\r\n        return functionDelegateCall(target, data, \"Address: low-level delegate call failed\");\r\n    }\r\n\r\n    /**\r\n     * @dev Same as {xref-Address-functionCall-address-bytes-string-}[`functionCall`],\r\n     * but performing a delegate call.\r\n     *\r\n     * _Available since v3.4._\r\n     */\r\n    function functionDelegateCall(address target, bytes memory data, string memory errorMessage) internal returns (bytes memory) {\r\n        require(isContract(target), \"Address: delegate call to non-contract\");\r\n\r\n        // solhint-disable-next-line avoid-low-level-calls\r\n        (bool success, bytes memory returndata) = target.delegatecall(data);\r\n        return _verifyCallResult(success, returndata, errorMessage);\r\n    }\r\n\r\n    function _verifyCallResult(bool success, bytes memory returndata, string memory errorMessage) private pure returns(bytes memory) {\r\n        if (success) {\r\n            return returndata;\r\n        } else {\r\n            // Look for revert reason and bubble it up if present\r\n            if (returndata.length > 0) {\r\n                // The easiest way to bubble the revert reason is using memory via assembly\r\n\r\n                // solhint-disable-next-line no-inline-assembly\r\n                assembly {\r\n                    let returndata_size := mload(returndata)\r\n                    revert(add(32, returndata), returndata_size)\r\n                }\r\n            } else {\r\n                revert(errorMessage);\r\n            }\r\n        }\r\n    }\r\n}\r\n\r\nlibrary ExtendedMath {\r\n    /**\r\n     * @return The given number raised to the power of 2\r\n     */\r\n    function pow2(uint256 a) internal pure returns (uint256) {\r\n        if (a == 0) {\r\n            return 0;\r\n        }\r\n        uint256 c = a * a;\r\n        require(c / a == a, \"ExtendedMath: squaring overflow\");\r\n        return c;\r\n    }\r\n\r\n    \r\n    function sqrt(uint y) internal pure returns (uint z) {\r\n        if (y > 3) {\r\n            z = y;\r\n            uint x = y / 2 + 1;\r\n            while (x < z) {\r\n                z = x;\r\n                x = (y / x + x) / 2;\r\n            }\r\n        } else if (y != 0) {\r\n            z = 1;\r\n        }\r\n    }\r\n}\r\n\r\nabstract contract Context {\r\n    function _msgSender() internal view virtual returns (address) {\r\n        return msg.sender;\r\n    }\r\n\r\n    function _msgData() internal view virtual returns (bytes calldata) {\r\n        this; // silence state mutability warning without generating bytecode - see https://github.com/ethereum/solidity/issues/2691\r\n        return msg.data;\r\n    }\r\n}\r\n\r\n/**\r\n * @dev Contract module which provides a basic access control mechanism, where\r\n * there is an account (an owner) that can be granted exclusive access to\r\n * specific functions.\r\n *\r\n * By default, the owner account will be the one that deploys the contract. This\r\n * can later be changed with {transferOwnership}.\r\n *\r\n * This module is used through inheritance. It will make available the modifier\r\n * `onlyOwner`, which can be applied to your functions to restrict their use to\r\n * the owner.\r\n */\r\nabstract contract Ownable is Context {\r\n    address private _owner;\r\n\r\n    event OwnershipTransferred(address indexed previousOwner, address indexed newOwner);\r\n\r\n    /**\r\n     * @dev Initializes the contract setting the deployer as the initial owner.\r\n     */\r\n    constructor () {\r\n        address msgSender = _msgSender();\r\n        _owner = msgSender;\r\n        emit OwnershipTransferred(address(0), msgSender);\r\n    }\r\n\r\n    /**\r\n     * @dev Returns the address of the current owner.\r\n     */\r\n    function owner() public view virtual returns (address) {\r\n        return _owner;\r\n    }\r\n\r\n    /**\r\n     * @dev Throws if called by any account other than the owner.\r\n     */\r\n    modifier onlyOwner() {\r\n        require(owner() == _msgSender(), \"Ownable: caller is not the owner\");\r\n        _;\r\n    }\r\n\r\n    /**\r\n     * @dev Leaves the contract without owner. It will not be possible to call\r\n     * `onlyOwner` functions anymore. Can only be called by the current owner.\r\n     *\r\n     * NOTE: Renouncing ownership will leave the contract without an owner,\r\n     * thereby removing any functionality that is only available to the owner.\r\n     */\r\n    function renounceOwnership() public virtual onlyOwner {\r\n        emit OwnershipTransferred(_owner, address(0));\r\n        _owner = address(0);\r\n    }\r\n\r\n    /**\r\n     * @dev Transfers ownership of the contract to a new account (`newOwner`).\r\n     * Can only be called by the current owner.\r\n     */\r\n    function transferOwnership(address newOwner) public virtual onlyOwner {\r\n        require(newOwner != address(0), \"Ownable: new owner is the zero address\");\r\n        emit OwnershipTransferred(_owner, newOwner);\r\n        _owner = newOwner;\r\n    }\r\n}\r\n\r\nabstract contract ReentrancyGuard {\r\n    // Booleans are more expensive than uint256 or any type that takes up a full\r\n    // word because each write operation emits an extra SLOAD to first read the\r\n    // slot's contents, replace the bits taken up by the boolean, and then write\r\n    // back. This is the compiler's defense against contract upgrades and\r\n    // pointer aliasing, and it cannot be disabled.\r\n\r\n    // The values being non-zero value makes deployment a bit more expensive,\r\n    // but in exchange the refund on every call to nonReentrant will be lower in\r\n    // amount. Since refunds are capped to a percentage of the total\r\n    // transaction's gas, it is best to keep them low in cases like this one, to\r\n    // increase the likelihood of the full refund coming into effect.\r\n    uint256 private constant _NOT_ENTERED = 1;\r\n    uint256 private constant _ENTERED = 2;\r\n\r\n    uint256 private _status;\r\n\r\n    constructor() {\r\n        _status = _NOT_ENTERED;\r\n    }\r\n\r\n    /**\r\n     * @dev Prevents a contract from calling itself, directly or indirectly.\r\n     * Calling a `nonReentrant` function from another `nonReentrant`\r\n     * function is not supported. It is possible to prevent this from happening\r\n     * by making the `nonReentrant` function external, and make it call a\r\n     * `private` function that does the actual work.\r\n     */\r\n    modifier nonReentrant() {\r\n        // On the first call to nonReentrant, _notEntered will be true\r\n        require(_status != _ENTERED, \"ReentrancyGuard: reentrant call\");\r\n\r\n        // Any calls to nonReentrant after this point will fail\r\n        _status = _ENTERED;\r\n\r\n        _;\r\n\r\n        // By storing the original value once again, a refund is triggered (see\r\n        // https://eips.ethereum.org/EIPS/eip-2200)\r\n        _status = _NOT_ENTERED;\r\n    }\r\n}\r\n\r\nlibrary SafeERC20 {\r\n    using Address for address;\r\n\r\n    function safeTransfer(\r\n        IERC20 token,\r\n        address to,\r\n        uint256 value\r\n    ) internal {\r\n        _callOptionalReturn(token, abi.encodeWithSelector(token.transfer.selector, to, value));\r\n    }\r\n\r\n    function safeTransferFrom(\r\n        IERC20 token,\r\n        address from,\r\n        address to,\r\n        uint256 value\r\n    ) internal {\r\n        _callOptionalReturn(token, abi.encodeWithSelector(token.transferFrom.selector, from, to, value));\r\n    }\r\n\r\n    /**\r\n     * @dev Deprecated. This function has issues similar to the ones found in\r\n     * {IERC20-approve}, and its usage is discouraged.\r\n     *\r\n     * Whenever possible, use {safeIncreaseAllowance} and\r\n     * {safeDecreaseAllowance} instead.\r\n     */\r\n    function safeApprove(\r\n        IERC20 token,\r\n        address spender,\r\n        uint256 value\r\n    ) internal {\r\n        // safeApprove should only be called when setting an initial allowance,\r\n        // or when resetting it to zero. To increase and decrease it, use\r\n        // 'safeIncreaseAllowance' and 'safeDecreaseAllowance'\r\n        require(\r\n            (value == 0) || (token.allowance(address(this), spender) == 0),\r\n            \"SafeERC20: approve from non-zero to non-zero allowance\"\r\n        );\r\n        _callOptionalReturn(token, abi.encodeWithSelector(token.approve.selector, spender, value));\r\n    }\r\n\r\n    function safeIncreaseAllowance(\r\n        IERC20 token,\r\n        address spender,\r\n        uint256 value\r\n    ) internal {\r\n        uint256 newAllowance = token.allowance(address(this), spender) + value;\r\n        _callOptionalReturn(token, abi.encodeWithSelector(token.approve.selector, spender, newAllowance));\r\n    }\r\n\r\n    function safeDecreaseAllowance(\r\n        IERC20 token,\r\n        address spender,\r\n        uint256 value\r\n    ) internal {\r\n        unchecked {\r\n            uint256 oldAllowance = token.allowance(address(this), spender);\r\n            require(oldAllowance >= value, \"SafeERC20: decreased allowance below zero\");\r\n            uint256 newAllowance = oldAllowance - value;\r\n            _callOptionalReturn(token, abi.encodeWithSelector(token.approve.selector, spender, newAllowance));\r\n        }\r\n    }\r\n\r\n    /**\r\n     * @dev Imitates a Solidity high-level call (i.e. a regular function call to a contract), relaxing the requirement\r\n     * on the return value: the return value is optional (but if data is returned, it must not be false).\r\n     * @param token The token targeted by the call.\r\n     * @param data The call data (encoded using abi.encode or one of its variants).\r\n     */\r\n    function _callOptionalReturn(IERC20 token, bytes memory data) private {\r\n        // We need to perform a low level call here, to bypass Solidity's return data size checking mechanism, since\r\n        // we're implementing it ourselves. We use {Address.functionCall} to perform this call, which verifies that\r\n        // the target address contains contract code and also asserts for success in the low-level call.\r\n\r\n        bytes memory returndata = address(token).functionCall(data, \"SafeERC20: low-level call failed\");\r\n        if (returndata.length > 0) {\r\n            // Return data is optional\r\n            require(abi.decode(returndata, (bool)), \"SafeERC20: ERC20 operation did not succeed\");\r\n        }\r\n    }\r\n}\r\n\r\n\r\n\r\ninterface IERC20Mintable {\r\n    function transfer(address _to, uint256 _value) external returns (bool);\r\n    function transferFrom(address _from, address _to, uint256 _value) external returns (bool);\r\n    function mint(address _to, uint256 _value) external returns (bool);\r\n    function balanceOf(address _account) external view returns (uint256);\r\n    function totalSupply() external view returns (uint256);\r\n}\r\n\r\ninterface WarbotManufacturer {\r\n    \r\n    function setApprovalForAll(address operator, bool approved) external;\r\n    function transfer(address to, uint256 tokenId) external;\r\n    function transferFrom(address from, address to, uint256 tokenId) external;\r\n    function burn(uint256 tokenId) external;\r\n    function incrementTokenId() external;\r\n    function getLastWarbotManufactured() external returns(uint256);\r\n    function mint(address to, uint256 tokenId) external;\r\n    function setTokenURIWarbotStats(uint256 tokenId, string memory _tokenURI) external;\r\n    function ownerOf(uint256 tokenId) external returns(address);\r\n}\r\n\r\n\r\ninterface NanoNFT {\r\n    \r\n    function setApprovalForAll(address operator, bool approved) external;\r\n    function transfer(address to, uint256 tokenId) external;\r\n    function transferFrom(address from, address to, uint256 tokenId) external;\r\n    function burn(uint256 tokenId) external;\r\n    function ownerOf(uint256 tokenId) external returns(address);\r\n    function  getNanoNFTCardStats ( uint256 _nftcard ) external returns( uint256, uint256, uint256, uint256, bool);\r\n    function deployNFTNanoset( uint256 _warbot, address _creator ) external;\r\n}\r\n\r\n\r\ninterface WarbotStats {\r\n    function WarbotLevel(uint256 tokenId) external returns(uint256);\r\n    \r\n}\r\n\r\n\r\ninterface WarbotStatsData {\r\n    function WarbotLevel( uint256 _warbot ) external returns(uint256 );\r\n    function setWarbotHandoff( uint256 _warbot ) external ;\r\n    function getCurrentHitPoint( uint256 _warbot ) external;\r\n}\r\n\r\n\r\n\r\ncontract WarContract is Ownable {\r\n    \r\n    using SafeMath for uint256;\r\n    bytes4 ERC721_RECEIVED = 0x150b7a02;\r\n    address public burnAddress;\r\n    address public micromachines;\r\n    address public nanomachines;\r\n    address public nanonft;\r\n    address public warbotstats;\r\n    address public warbotstatsdata;\r\n    address public micromachinemanufacturingplant;\r\n \r\n    address public oracle;\r\n    \r\n    WarbotManufacturer  __warbotmanufacturer;\r\n    WarbotStats __warbotstats;\r\n    WarbotStatsData public __warbotstatsdata;\r\n    \r\n    mapping ( uint256 => mapping ( address => mapping ( uint256 => uint256[] ) )) public NFTCards;\r\n    mapping ( uint256 => mapping ( address => mapping ( uint8 => uint8 ) ))     public NFTCardCount;\r\n    mapping ( uint256 => mapping ( address => mapping ( uint8 => mapping ( uint8 => uint8 ) ) ))     public Rounds;\r\n    mapping ( uint256 => bool) public warbotInWarZone;\r\n    \r\n    //status of war 1 = joining battle, 2 = round begins awaiting oracle to roll initiative, 3 = warbot order sequence plays out, 4 = battle over\r\n    mapping ( uint256 => uint8 ) public warStatus;\r\n    mapping ( uint256 => uint256[]) public warbotIDs;\r\n    \r\n    \r\n    mapping ( uint256 => mapping ( address =>uint8 )) warBotWarCount;\r\n      \r\n\r\n    ///////\r\n    uint256 public warCount = 0;\r\n    uint8 public maxWarTeams=2;\r\n    uint8 public maxBotsPerTeam=2;\r\n    \r\n    \r\n    mapping ( uint256 => mapping( uint8 => address) ) public Wars; \r\n    mapping ( uint256 => uint8 ) public WarTeamCount; \r\n    mapping ( uint256 => mapping ( address => uint8 )) public TeamBotCount;\r\n    mapping ( uint256 => uint256[] ) public BotsInWar;\r\n    mapping ( uint256 => address ) public warbotOwner;\r\n    mapping ( uint256 => uint256[] ) public warbotAt;\r\n    \r\n    //battle mechanics\r\n    mapping ( uint256 => uint256[]) public warbotOrder;      // oracle rolls initiative and sets order of battle \r\n    mapping ( uint256 => uint256) public warbotOrderPointer;   \r\n    mapping ( uint256 => uint256 ) public warbotCommand;   \r\n    mapping ( uint256 => uint256 ) public warbotTarget;\r\n    mapping ( uint256 => int8[] ) public warbotMovement;\r\n    mapping ( uint256 => uint256 ) public warbotCardPlay;\r\n   \r\n    constructor() {\r\n        micromachines = 0x8Bc3EB7ded0ec83D0A8EF18D327644c04191f7DD;\r\n        nanomachines = 0x4C0AeEB37210b97956309BB4585c5433Cc015F6c;\r\n        micromachinemanufacturingplant = 0xe7e92e4Ccc08f381984de6CF35E050CE7729B9C6;\r\n        warbotstats = 0xEE298dEFcbA669C19b6c39538b46Ce88af5AAa8e;\r\n        warbotstatsdata = 0x8A8c2A40547eCFE1D3894EE3D7c1b4807B26e9CD;\r\n        burnAddress = 0x000000000000000000000000000000000000dEaD;\r\n        oracle = 0x7cE0E55703F12D03Eb53B918aD6B9EB80d188afB;\r\n        \r\n        \r\n        __warbotmanufacturer = WarbotManufacturer(micromachinemanufacturingplant);\r\n        __warbotstats = WarbotStats ( warbotstats);\r\n        __warbotstatsdata = WarbotStatsData ( warbotstatsdata);\r\n       \r\n    } \r\n  \r\n    function newBattle ( uint256 _warbot ) public {\r\n      \r\n        __warbotmanufacturer.transferFrom ( msg.sender, address(this), _warbot );\r\n         require ( __warbotstatsdata.WarbotLevel (_warbot) > 0, \"Warbot Not Activated\");\r\n        warCount++;\r\n        warStatus[warCount] = 1;\r\n        WarTeamCount[warCount]++;\r\n        Wars[warCount][WarTeamCount[warCount]] = msg.sender;\r\n       \r\n        warbotInWarZone[_warbot]=true;\r\n        __warbotstatsdata.setWarbotHandoff( _warbot );\r\n       \r\n        \r\n        BotsInWar[warCount].push(_warbot);\r\n        TeamBotCount[warCount][msg.sender]++;\r\n        warbotOwner[_warbot] = msg.sender;\r\n        warbotAt[_warbot] = [warCount, BotsInWar[warCount].length -1  ];\r\n    }\r\n    \r\n    \r\n    \r\n     uint8  []  public _temp;\r\n     \r\n     function checkIfTeamsAreEven( uint256 _war ) public  returns(bool)  {\r\n        if ( WarTeamCount[_war ] <2 ) return false;\r\n        \r\n        uint8 [] memory __temp;\r\n        _temp = __temp;\r\n         \r\n        for ( uint8 x = 1; x< WarTeamCount[_war ]+1; x++ ){\r\n           _temp.push(countWarbotsOnTeam (_war, Wars[_war][x]));\r\n        }\r\n        \r\n        for ( uint i = 1; i < _temp.length; i++) {\r\n              if (_temp[i] != _temp[0]) {\r\n                return false;\r\n              }\r\n        }\r\n        \r\n        \r\n        return true;\r\n     }\r\n     \r\n    \r\n     function recordTeam ( uint256 _war ) internal returns (uint8) {\r\n          if(checkIfTeamIsPartOfWar( msg.sender , _war ) > 0) return checkIfTeamIsPartOfWar( msg.sender , _war );\r\n          WarTeamCount[_war]++;\r\n          Wars[_war][WarTeamCount[_war]] = msg.sender ;  \r\n          require (  WarTeamCount[_war]  <= maxWarTeams, \"Maximum War Teams Limit Already Hit\" );\r\n          return WarTeamCount[_war];\r\n    }\r\n   \r\n   \r\n    function checkIfTeamIsPartOfWar( address _address, uint256 _war ) public view returns(uint8)  {\r\n        uint8 x;\r\n        for ( x = 1; x< WarTeamCount[_war ]+1; x++ ){\r\n            if ( Wars[_war][x] == _address ) return x;\r\n        }\r\n        return 0;\r\n     }\r\n    \r\n     function countWarbotsOnTeam ( uint256 _war , address _address ) public view returns(uint8){\r\n        uint8 _count;\r\n        uint8 x;\r\n        for ( x = 0; x< BotsInWar[_war].length ; x++ ){\r\n            if ( _address == warbotOwner[BotsInWar[_war][x]] ) _count++;\r\n        }\r\n        return _count;\r\n         \r\n     }\r\n     \r\n    \r\n     function joinBattle ( uint256 _warbot, uint256 _war ) public {\r\n        require ( warStatus[_war] == 1, \"Arena Not Available for New Warbots\" );\r\n        require ( __warbotstatsdata.WarbotLevel (_warbot) > 0);\r\n       \r\n        require ( countWarbotsOnTeam( _war, msg.sender) < maxBotsPerTeam , \"Max Warbots for this team Already hit\" );\r\n        TeamBotCount[_war][msg.sender]++;\r\n        uint8 _team = recordTeam ( _war );\r\n        __warbotmanufacturer.transferFrom ( msg.sender, address(this), _warbot );\r\n        Wars[warCount][_team] = msg.sender;\r\n        warbotInWarZone[_warbot]=true;\r\n        __warbotstatsdata.setWarbotHandoff( _warbot );\r\n        BotsInWar[warCount].push(_warbot);\r\n        warbotOwner[_warbot] = msg.sender;\r\n        warbotAt[_warbot] = [_war, BotsInWar[_war].length -1  ];\r\n                 \r\n     }\r\n    \r\n      \r\n    function returnWarbot ( uint256 _warbot ) public  {\r\n     \r\n        require ( warbotOwner[_warbot] == msg.sender, \"Not Warbot Owner\" );\r\n        warbotOwner[_warbot]  = address(0);\r\n        \r\n        WarbotManufacturer _micromachinemanufacturingplant = WarbotManufacturer(micromachinemanufacturingplant);\r\n        _micromachinemanufacturingplant.transferFrom ( address(this), msg.sender,  _warbot );\r\n        warbotInWarZone[_warbot]=false;\r\n        removeWarbotFromWar ( _warbot );\r\n        warbotAt[_warbot] = [0,0];\r\n       \r\n          \r\n    }\r\n   \r\n   \r\n   \r\n    function removeWarbotFromWar ( uint256 _warbot )public  {\r\n         (uint256 _war, uint256 _position)  = whereIsWarbot( _warbot );\r\n       if ( _war == 0 ) revert(\"Warbot Not Found \");\r\n     \r\n         delete BotsInWar[ _war][ _position   ];\r\n         TeamBotCount[ _war][msg.sender]--;\r\n          warbotOwner[_warbot] = address(0);   \r\n    } \r\n    \r\n  \r\n     \r\n \r\n    function getBotsInWar( uint256 _war ) public view returns ( uint256[] memory ){\r\n            return BotsInWar[_war];\r\n    }\r\n    \r\n    function whereIsWarbot( uint256 _warbot ) public view returns(uint256, uint256) {\r\n        return ( warbotAt[_warbot][0], warbotAt[_warbot][1]);\r\n        \r\n    }\r\n    \r\n    function changeWarStatus ( uint256 _war, uint8 _status ) public {\r\n         warStatus[_war] = _status;\r\n    }\r\n\r\n    function startWar ( uint256 _war ) public {\r\n       require ( WarTeamCount[_war] >1, \"Not Enough Contestants\" );\r\n       require (  checkIfTeamsAreEven( _war ), \"Uneven teams \");\r\n       warStatus[_war] = 2;\r\n       \r\n    }\r\n    \r\n    // attack + target  1 +  bot position\r\n    // move   2 + target position\r\n    // usecard 3 + card position number\r\n    \r\n    \r\n    function goTurn ( uint256 _war , uint8 _option, uint256 _target, int8 _x, int8 _y, uint256 _cardnumber ) public {\r\n        require ( _option >0 && _option < 4 );\r\n        require ( warbotOwner[getCurrentTurn (  _war )] == msg.sender, \"Not Warbot's Owner\" );\r\n        warbotCommand[_war] = _option;\r\n        if ( _option == 1 ) warbotTarget[_war] = _target;\r\n        if ( _option == 2 ) warbotMovement[_war] = [_x,_y];\r\n        if ( _option == 1 ) warbotCardPlay[_war] = _cardnumber;\r\n        advancePointer( _war );\r\n        \r\n    }\r\n    \r\n  \r\n    function advancePointer( uint256  _war ) internal {\r\n        \r\n         warbotOrderPointer[_war]++;\r\n        if( warbotOrderPointer[_war] >= warbotOrder[_war].length )  { \r\n            warbotOrderPointer[_war] = 0;\r\n            warStatus[_war] = 2 ;}\r\n    }\r\n    \r\n    function getCurrentTurn ( uint256 _war ) public view returns(uint256){\r\n        \r\n        uint256 _pointer =  warbotOrderPointer[_war];\r\n        uint256 _warbot = warbotOrder[_war][_pointer];\r\n        return _warbot;\r\n        \r\n    }\r\n    \r\n    \r\n    \r\n    function setMaxBotsPerTeam( uint8 _maxsize ) public onlyOwner {\r\n        maxBotsPerTeam = _maxsize;\r\n    }\r\n    \r\n    function setWarbotStatsData( address _address ) public onlyOwner {\r\n        warbotstatsdata = _address;\r\n        __warbotstatsdata = WarbotStatsData ( _address );\r\n    }\r\n    \r\n    \r\n    function setMicromachines( address _address ) public onlyOwner {\r\n        micromachines = _address;\r\n    }\r\n    \r\n    function setNanomachines( address _address ) public onlyOwner {\r\n        nanomachines = _address;\r\n    }\r\n    \r\n    function setNanoNFT( address _address ) public onlyOwner {\r\n        nanonft = _address;\r\n    }\r\n    \r\n    function setWarbotstats( address _address ) public onlyOwner {\r\n        warbotstats = _address;\r\n       \r\n    }\r\n    \r\n    function setMicromachinesManufacturingplant( address _address ) public onlyOwner {\r\n        micromachinemanufacturingplant = _address;\r\n    }\r\n    \r\n    function levelRequirement ( uint256 _level ) public   returns (uint256 ){\r\n        IERC20 _nano = IERC20 ( nanomachines );\r\n        return  (  _level * _level ) * 10 ** _nano.decimals();\r\n    }\r\n    \r\n   \r\n    function onERC721Received( address _operator, address _from, uint256 _tokenId, bytes memory _data) public view returns(bytes4){\r\n        _operator; _from; _tokenId; _data; \r\n        return ERC721_RECEIVED;\r\n    }\r\n    \r\n    modifier onlyOracle() {\r\n        require( msg.sender == oracle, \"Oracle Only\");\r\n        _;\r\n    }\r\n    \r\n    \r\n    modifier onlyWarbotManufacturer() {\r\n        require( msg.sender == micromachinemanufacturingplant, \"WarbotManufacturer Only\");\r\n        _;\r\n    }\r\n    \r\n}",
  "sourcePath": "C:/warbots/warbots/contracts/warcontract.sol",
  "compiler": {
    "name": "solc",
    "version": "0.8.6+commit.11564f7e.Emscripten.clang"
  },
  "schemaVersion": "3.4.1",
  "updatedAt": "2021-07-17T20:48:14.424Z",
  "devdoc": {
    "kind": "dev",
    "methods": {
      "owner()": {
        "details": "Returns the address of the current owner."
      },
      "renounceOwnership()": {
        "details": "Leaves the contract without owner. It will not be possible to call `onlyOwner` functions anymore. Can only be called by the current owner. NOTE: Renouncing ownership will leave the contract without an owner, thereby removing any functionality that is only available to the owner."
      },
      "transferOwnership(address)": {
        "details": "Transfers ownership of the contract to a new account (`newOwner`). Can only be called by the current owner."
      }
    },
    "version": 1
  },
  "userdoc": {
    "kind": "user",
    "methods": {},
    "version": 1
  }
}